:020000040800F2
:10000000484A0020B101000829240008F510000822
:1000100099230008F5090008A12700080000000046
:1000200000000000000000000000000019010008AE
:10003000650E0008000000005D0100082125000891
:10004000CB010008CB010008CB010008CB01000860
:10005000CB010008CB010008CB010008CB01000850
:10006000CB010008CB010008CB010008CB01000840
:10007000CB010008CB010008CB010008CB01000830
:10008000CB010008CB010008CB010008CB01000820
:10009000CB010008CB010008CB010008CB01000810
:1000A000CB010008CB010008CB010008CB01000800
:1000B000CB010008CB010008CB010008CB010008F0
:1000C000CB010008CB010008CB010008CB010008E0
:1000D000CB0100083D26000885260008CB0100085A
:1000E000350F0008CB010008CB010008000000001C
:1000F0000000000000000000000000000000000000
:10010000CB010008DFF80CD000F03EFB00480047B0
:10011000FD370008484A0020224B19680868B0E8FB
:10012000F00F80F30988BFF36F8F4FF0000080F36A
:1001300011884EF00D0E7047000000000648006860
:10014000006880F3088862B661B6BFF34F8FBFF3D3
:100150006F8F00DF00BF00BF08ED00E0EFF3098004
:10016000BFF36F8F0F4B1A6820E9F00F106008B5CE
:100170004FF0500080F31188BFF34F8FBFF36F8FA4
:1001800004F0DCFE4FF0000080F31188BDE8084069
:1001900019680868B0E8F00F80F30988BFF36F8F23
:1001A000704700BF7C000020EFF30580704700001F
:1001B0000648804706480047FEE7FEE7FEE7FEE701
:1001C000FEE7FEE7FEE7FEE7FEE7FEE7552500084F
:1001D0000501000840EA01039B0703D009E008C9B4
:1001E000121F08C0042AFAD203E011F8013B00F8FC
:1001F000013B521EF9D27047D2B201E000F8012B48
:10020000491EFBD270470022F6E710B513460A4696
:1002100004461946FFF7F0FF204610BD2DE9FE4FBA
:10022000804681EA0300C00F0C46009021F0004197
:1002300023F00045B8EB0200A94105D24046214613
:1002400090461C460B46024623F00040104347D020
:10025000270DC7F30A00C3F30A510290401A019018
:1002600040286BDAC3F3130040F4801B00989246D9
:1002700020B10023D2EB030A63EB0B0B0198594624
:10028000C0F14002504600F0B9F906460D4650460E
:100290005946019A00F0D1F910EB080061410024A1
:1002A00087EA115284EAE7731A4340D0009A62B396
:1002B000019A012A4FEA075215DC001B61EB02018B
:1002C0004FF0004202EA0752CDE90042001C41F51E
:1002D000801132462B4600F008FA03B0BDE8F08FDB
:1002E00040462146F9E7001B61EB0201001C41F585
:1002F000801300185B412018A2F5001747EB03019B
:1003000040EAD570B6196D4111E06D084FEA360626
:1003100045EAC0754FEA0752001B61EB0201001C61
:1003200041F5801149084FEA300000195141324629
:100330002B4603B0BDE8F04F00F0C8B90098012289
:1003400040000023D0EB020263EBE07300982146EB
:100350004FEAE074B8EB000061EB0401E9E783F0D9
:1003600000435BE781F0004158E72DE9FE4F81EA49
:10037000030404F0004421F0004100944FF0000B0E
:1003800023F0004350EA01045ED052EA03045BD03C
:10039000C3F30A54C1F30A552C44A4F2F334019474
:1003A000A0FB0254C1F3130141F48011C3F3130302
:1003B00043F4801301FB024400FB034E840A970AB6
:1003C00044EA815447EA8357A4FB076802958D0AE3
:1003D00005FB07854FEA932C04FB0C542705029D6F
:1003E0004FEA065847EA1637B5EB08056EEB070CDF
:1003F000870E920E47EA811742EA8312A7FB020199
:10040000B6EB0B0164EB00042B0D43EA0C335E18D2
:1004100044EB1C50DA465146E7FB0201C5F31304D6
:100420004FEA0B3343EA14534FEA0432019C43EA88
:100430000603A4F10C040294009CCDE900B400F082
:1004400054F903B0BDE8F08F00200146F9E72DE92B
:10045000F04D81EA030404F0004B21F000451446FE
:100460004FF0000A23F0004150EA050220D054EA80
:1004700001021DD0C5F30A570246C5F31303C1F3A9
:100480001300C1F30A5640F4801543F48013A7EB20
:100490000608101BD64608F2FD3873EB050002D3A0
:1004A00008F1010801E092185B41B8F1000F03DA8E
:1004B00000200146BDE8F08D00204FF48011064673
:1004C00084460EE0171B73EB050705D3121B63EB85
:1004D000050306434CEA010C49084FEA3000921824
:1004E0005B4150EA0107EDD152EA030012D082EAE3
:1004F000040083EA0501084305D0101BAB4106D276
:100500000122002306E000224FF0004302E06FF0DA
:10051000010253101AEB06004CEB085110EB0A00D5
:1005200041EB0B01BDE8F04D00F0D0B8962300225E
:10053000114600F09DB870B5C1F30A5201F00045B4
:100540000024C1F3130140F2FF3341F480119A42B9
:1005500001DA002070BD40F233439A42A2F23342E6
:1005600003DC524200F059F800E090402C43F1D0F7
:10057000404270BD00F0004230F000400AD0C10D92
:1005800001F56071C0F3160042EA0151C20840074C
:10059000114370470020014670472DE9F05F054682
:1005A000002092469B4688460646814640241BE032
:1005B000284641464746224600F02FF853465A4601
:1005C000C01A914110D311461846224600F016F881
:1005D0002D1A67EB01084F4622460120002100F04A
:1005E0000DF817EB00094E41201EA4F10104DFDCD9
:1005F000484631462A464346BDE8F09F202A04DBA0
:10060000203A00FA02F1002070479140C2F1200325
:1006100020FA03F3194390407047202A04DB203A64
:1006200021FA02F00021704721FA02F3D040C2F112
:1006300020029140084319467047202A06DBCB1759
:10064000203A41FA02F043EAE07306E041FA02F38D
:10065000D040C2F12002914008431946704700295A
:10066000A8BF7047401C490008BF20F00100704738
:1006700010B4B0FA80FC00FA0CF050EA010404BF98
:1006800010BC704749B1CCF1200421FA04F411FAEE
:100690000CF118BF012121430843A3EB0C01CB1D32
:1006A0004FEA00614FEA102042BF002010BC7047A3
:1006B00000EBC35010440029A4BF10BC7047401C7D
:1006C000490008BF20F0010010BC704710B5141E8F
:1006D00073F1000408DA401C41F1000192185B41FB
:1006E0001A4301D120F0010010BD2DE9F04D9246D2
:1006F0009B4611B1B1FA81F202E0B0FA80F22032E9
:100700009046FFF77BFF04460F4640EA0A0041EAA5
:100710000B0153465A46084313D0114653EA0100D1
:1007200019D0C8F140025046FFF777FF05460E4644
:10073000504659464246FFF761FF084305D0012065
:1007400004E020463946BDE8F08D0020054346EA26
:10075000E0762C4337430A986305E40AA0EB0800CF
:100760000022FD0A44EA47540A3002D5002001461F
:10077000E9E7010510196941DDE9084500196941FA
:10078000BDE8F04DA2E70000064C074D06E0E0682A
:1007900040F0010394E8070098471034AC42F6D3C8
:1007A000FFF7B4FCF05B0008105C000810B540F2E5
:1007B000096003F0E7FE032003F02EFE002002F0A4
:1007C000CBFA00224FF48071184802F03CFB002263
:1007D0000221164802F037FB01221146134802F0AD
:1007E00070FA0021114802F061FA012211460F4807
:1007F00002F039FA02F054FB0523102200210B48C5
:1008000002F0B8FA4FF460220121084802F088FA99
:10081000064802F07CFA012004F01AFA034802F0BC
:100820000DFA0121014802F0FFFA10BD0024014039
:100830001CB50446404903C9CDE9000120788DF874
:10084000010000208DF8020020783238112855D29E
:10085000DFE800F02754090E13541B2D2E373F42BA
:10086000464B4E4F50006078012102F0EFFE56E0FB
:100870006078002102F0EAFE51E0607810B100F0EB
:1008800067FB01E000F01CFB49E0607820B101212A
:10089000202002F0DBFE03E00021202002F0D6FE43
:1008A0003DE0607802F078FC8DF8020037E036E039
:1008B00002F044FC642190FBF1F0C0B28DF802001C
:1008C0002DE0607810B102F099FD01E002F06EFDBC
:1008D00025E002F0CFFD22E0607802F077FE1EE016
:1008E00002F018FE8DF8020019E002F05FFE16E03B
:1008F00015E014E0607801F063FD10E0FF208DF852
:10090000020000BF0D4B4FF484720DA114A001F042
:100910006FFF21781BA001F06BFF00BF00BF00BF7D
:100920000321684600F068F88DF80300042168464A
:1009300000F0B6F81CBD00007C5B00086C5B000892
:100940007372635C756172745F636F6E6563745F0D
:100950006370755F68616E646C65722E6300000081
:100960003C3C46696C653A257320204C696E653ABB
:100970002564202046756E6374696F6E3A25733E58
:100980003E2000006572726F723A206370752075A8
:100990006172742073656E6420756E6B6F776E2064
:1009A000636D64212120636D64203D202523780D33
:1009B0000A00000010B54FF4407003F057F94FF4EF
:1009C000C06003F0DFFD0121094802F0A5FC00F042
:1009D00049FB4FF4E13000F0B9F902F0CBFD02F031
:1009E00075FE01F06BFC032001F036FD10BD000028
:1009F0000002300000BFFEE710B502460B460021A2
:100A0000002004E0545C0444E0B24C1CE1B2994282
:100A1000F8DB10BD10B5002211460248006804F052
:100A2000AFF910BD240000201CB50020009006483E
:100A300003F02CFFC0B201906B46012201A90348CC
:100A4000006804F0A3FC1CBD00440040200000200E
:100A50001CB5002000901048006804F015FB044607
:100A60002CB940F207310D4803F086FF1CBD6B46E0
:100A7000012201A90848006804F0B3FB28B19DF8E1
:100A80000410012001F044FE04E040F20731034865
:100A900003F072FF00BFE9E71C00002000440040A3
:100AA00070B505460E46002404E0285D01F08CFE7A
:100AB000601CC4B2B442F8DB70BD000010B504463F
:100AC000A4F13000072805D2DFE800F00B14181C51
:100AD00020242500214611A001F08AFE00F072F8C2
:100AE00000BF1848016818A001F082FE18A001F0AC
:100AF0007FFE11E01FA001F07BFE0DE022A001F0BF
:100B000077FE09E024A001F073FE05E028A001F0C3
:100B10006FFE01E000E000BF00BF10BD4552524F24
:100B2000523A20436F6D6D616E6420556E6B6E6F2F
:100B30007720636D64203D20307825782121210DB8
:100B40000A0000000000002025730D0A00000000CC
:100B5000417574686F723A4A432644615A68692045
:100B60003C76783A3238353430383133363E0D0AF7
:100B700000000000675F6C63645F70776D203D204C
:100B80003130300D0A000000675F6C63645F70777E
:100B90006D203D20300D0A00726573657420636F0F
:100BA000726520626F61726421210D0A00000000ED
:100BB0007265736574204C434420262039323131EC
:100BC0000D0A000010B50EA001F012FE10A001F0F9
:100BD0000FFE17A001F00CFE23A001F009FE30A0CB
:100BE00001F006FE34A001F003FE39A001F000FE82
:100BF00040A001F0FDFD47A001F0FAFD10BD00008E
:100C00000D0A446562756720636D643A0D0A000041
:100C1000302E207072696E742050726F6772616D31
:100C2000206275696C642074696D650D0A000000AE
:100C3000312E203720696E6368206C636420505722
:100C40004D20696E6372656163652835696E6368FE
:100C5000206C636420686173206E6F206566666532
:100C60006374290D0A000000322E203720696E635C
:100C700068206C63642050574D2064656372656121
:100C800063652835696E6368206C636420686173EE
:100C9000206E6F20656666656374290D0A0000008A
:100CA000332E20726573657420636F726520626FE6
:100CB00061726421210D0A00342E207265736574FF
:100CC000204C4344202620393231310D0A000000E7
:100CD000352E207072696E742048617264205761ED
:100CE00074636820446F67205374617475730D0AD0
:100CF00000000000362E207072696E74204D6375FE
:100D000020696E7465726E616C5F74656D700D0A3A
:100D1000000000006F746865722E207072696E7436
:100D20002068656C700D0A0008B50CE04FF0FF33C9
:100D3000012269460448006804F0EDF918B19DF8F5
:100D40000000FFF7BBFEF1E70C00002010B50446E1
:100D50004FF4E131002002F075F90022012140201A
:100D600004F09EF90449086000220121402004F0AB
:100D700097F90249086010BD080000200C0000200F
:100D800008B504254FF000084FF4E13000F050F8AA
:100D90004AE04FF0FF321146002003F0E3FC00BFB1
:100DA0002248006804F070F90646AE4200D23AE0EC
:100DB000C5F1040000F0FF080DEB080100232A46EE
:100DC0001A48006804F0A7F940B39DF80000A52870
:100DD00009D10421684601F0D0FC20B90DF10100D1
:100DE000FFF726FD1BE0012405E01DF80400A528FF
:100DF00000D102E0641C042CF7D300BF042C0BD0FC
:100E0000E5B2002705E01DF804000DF80700641C9A
:100E10007F1C042CF7D302E0042500E003E0A8EBDC
:100E200005000428BCDA00BFB3E700002000002062
:100E300010B504462146012002F004F900220121E8
:100E4000102004F02DF90549086000220C21102023
:100E500004F026F90249086010BD00001C000020C3
:100E60002000002070470000F0B5034600224FF03C
:100E7000E0277D69104F3F68DFF840C0B7FBFCF703
:100E8000FEB203FB06F44FF0E027B96910E04FF023
:100E9000E027B86988420BD0884202D20F1A3A4440
:100EA00002E02F1A0F443A440146A24200D300E068
:100EB000EDE700BFF0BD0000E800002040420F0059
:100EC00010B50B48028802210A4803F02EFC64206A
:100ED00003F0BEFE074803F03BFC00F01FF800BF24
:100EE00005A001F085FC08A001F082FC00BF10BD48
:100EF0005C000020002C01403C3C4D595F444542C1
:100F000055473E3E2000000044697361626C655F96
:100F10004C63644C696768740D0A000010B501F0F9
:100F2000C3F94FF48041024802F044F910BD0000BB
:100F3000000C014010B54FF4805002F069F828B160
:100F40004FF4805002F05EF801F0DCFF10BD0000AD
:100F500010B500F037F8642003F07AFE0E490978E6
:100F600009B9462101E00C49097848B201F0B0F90D
:100F7000642003F06DFE094803F0EFFB642003F0EA
:100F800067FE00F01FF800BF05A001F031FC08A0CB
:100F900001F02EFC00BF10BD5E000020002C0140BF
:100FA0003C3C4D595F44454255473E3E20000000C1
:100FB000456E61626C655F4C63644C696768740D73
:100FC0000A00000010B501F079F94FF480410248A1
:100FD00002F0F2F810BD0000000C01402DE9F05FB6
:100FE0000221102001F002FB83465846FFF79EFACB
:100FF0008046FFF7BFFA06464FF06632124BFFF706
:10100000B4F904460D4622462B4610481049FFF716
:10101000A6F980460F4A104BFFF719FA0646002240
:101020000E4BFFF7FBF804460D4600220C4B204602
:101030002946FFF79AF90646FFF77DFA0FFA80FA7C
:101040005046BDE8F09F000066664A3FE17A14AE64
:1010500047E1F63F22FDF675E09C713F0000244019
:101060000000594010B501F09DFB01F097F902F026
:1010700095FB01F0DBF901F003F910BD38B504462A
:101080000020009001226946204600F007F810B1C8
:101090009DF8000038BD0020FCE70000F8B50446CC
:1010A0000D4616462B46224606480096017800203B
:1010B00000F0ECF908B9012000E0002007463846AE
:1010C000F8BD00004100002033B581B00446012086
:1010D00002AB2246009006480178002000F034FA66
:1010E00008B9012000E00020054628463EBD00006A
:1010F0004100002000BFFEE710B504460021204655
:1011000000F0F6FA204601F0EDF90021204600F04B
:101110001BFB0420FFF7A8FE0121204600F0E8FA9F
:101120000620FFF7A1FE0021204600F0E1FA03208F
:10113000FFF79AFE10BD000070B5054640F203604F
:1011400003F020FA012D02D14FF4406405E0022D96
:1011500002D14FF4407400E0C02423460222102143
:10116000054802F077F80121284600F0C1FA012174
:10117000284600F0E9FA70BD000C014010B50446A5
:101180000021204600F0B4FA204601F0ABF901211D
:10119000204600F0D9FA0420FFF766FE0121204620
:1011A00000F0A6FA0620FFF75FFE0021204600F0BF
:1011B0009FFA0320FFF758FE10BD2DE9F0410746C6
:1011C0000D4600240021384600F092FA384601F01E
:1011D0006BF90320FFF748FE00261EE00021384689
:1011E00000F086FA0520FFF73FFE0121384600F0A7
:1011F0007FFA6006040E0420FFF736FE384601F041
:101200003BF908B1601CC4B20420FFF72DFE002199
:10121000384600F06DFA701CC6B2082EDEDB1DB930
:101220003846FFF7ABFF02E03846FFF765FF204680
:10123000BDE8F08170B506460C460021304600F04E
:1012400057FA304601F04EF900251CE00320FFF765
:101250000BFE04F08001304600F076FA6006040EC2
:101260000420FFF701FE0121304600F041FA06207C
:10127000FFF7FAFD0021304600F03AFA0320FFF7AD
:10128000F3FD681CC5B2082DE0DB70BD10B5044647
:10129000204601F027F90121204600F055FA0121EE
:1012A000204600F025FA0620FFF7DEFD002120464B
:1012B00000F04AFA0620FFF7D7FD0021204600F093
:1012C00017FA10BD10B504460021204600F010FAB0
:1012D000204601F007F90021204600F035FA0620EB
:1012E000FFF7C2FD0121204600F002FA0320FFF7BC
:1012F000BBFD0121204600F027FA0620FFF7B4FDD0
:1013000010BD70B5054600240021284600F0F0F914
:101310000320FFF7A9FD0121284600F015FA03205C
:10132000FFF7A2FD284601F0BFF80121284600F092
:10133000DFF90320FFF798FD0BE0601CC4B2FA2C24
:1013400004DD2846FFF7BEFF012070BD0120FFF736
:101350008BFD284601F090F80028EED100212846A8
:1013600000F0C6F90320FFF77FFD0020EDE7000045
:1013700010B504460120A04008490978084000B192
:1013800010BD2046FFF7D8FE0120A0400349097890
:1013900008430249087000BFF2E700001000002077
:1013A0002DE9F0410746884615461E4603F0BEFD6E
:1013B0003846FFF76BFF48F001013846FFF73AFF68
:1013C0003846FFF79EFF002813D004F01BFB00BF38
:1013D000154B312215A119A001F00AFA394620A0B7
:1013E00001F006FA00BF3846FFF76CFF0220BDE8A7
:1013F000F08100240FE0701EA04205D10021384684
:10140000FFF7DBFE285504E001213846FFF7D5FE43
:101410002855601CC4B2B442EDDB3846FFF752FFDA
:1014200004F0F0FA0020E2E72C5B00087372635CC2
:101430006969635F6170702E630000003C3C46691F
:101440006C653A257320204C696E653A256420202E
:1014500046756E6374696F6E3A25733E3E200000D8
:101460004552524F523A4949435F576169745F414F
:10147000636B28696E64657829213D203020696E90
:10148000646578203D2025640D0A00002DE9F843AD
:1014900005460F4690461E46DDF820900020034684
:1014A000424639460090284600F04EF80446FF2C8C
:1014B00007D14B46324639462846FFF771FFBDE853
:1014C000F88300BF064BAB2206A10AA001F090F9F9
:1014D0002A46214610A001F08BF900BF2046EEE716
:1014E000545B00087372635C6969635F6170702E9E
:1014F000630000003C3C46696C653A257320204C33
:10150000696E653A2564202046756E6374696F6E56
:101510003A25733E3E2000004552524F523A204930
:1015200069634170705F57726974655F4279746571
:101530007320726574203D20256420696E6465788F
:10154000203D2025640D0A002DE9F04705460E4692
:1015500017469846DDF8209003F0E8FC2846FFF790
:1015600095FE06F0FE012846FFF764FE2846FFF7C9
:10157000C8FEA0B104F046FA00BF304B642230A18F
:1015800033A001F035F92A4631463A4801F030F9E6
:1015900000BF2846FFF796FE0220BDE8F0873946D7
:1015A0002846FFF747FE2846FFF7ABFE002812D07B
:1015B00004F028FA00BF214B702221A124A001F0E1
:1015C00017F929462CA001F013F900BF2846FFF7B0
:1015D00079FE0320E1E7B9F1000F03D104F012FA1C
:1015E000FF20DAE700241FE018F804102846FFF770
:1015F00021FE2846FFF785FE002813D004F002FAEA
:1016000000BF0E4B86220EA111A001F0F1F82A4670
:10161000214628A001F0ECF800BF2846FFF752FE53
:101620000420BAE7601CC4B24C45DDDB2846FFF756
:1016300049FE04F0E7F90020AFE70000415B000835
:101640007372635C6969635F6170702E6300000090
:101650003C3C46696C653A257320204C696E653ABE
:101660002564202046756E6374696F6E3A25733E5B
:101670003E200000A45B00084552524F523A2073AE
:10168000656E6420776F72645F616464722049499B
:10169000435F576169745F41636B28696E64657865
:1016A00029213D203020696E646578203D20256425
:1016B0000D0A00004552524F523A2073656E642065
:1016C00064617461204949435F576169745F416394
:1016D0006B28696E64657829213D203020693D259D
:1016E0006420696E646578203D2025640D0A000041
:1016F00070B505460C46012D0BD124B1810211486D
:1017000001F05AFD1DE04FF480610E4801F052FDDA
:1017100017E0022D0BD124B1E9010A4801F04CFD7C
:101720000FE04FF48071074801F044FD09E024B157
:101730004021044801F040FD03E04021014801F050
:1017400039FD70BD000C014070B505460C46012DF9
:101750000BD124B1C102114801F02EFD1DE04FF460
:1017600000610E4801F026FD17E0022D0BD124B1D7
:1017700029020A4801F020FD0FE04FF400710748EC
:1017800001F018FD09E024B18021044801F014FDA6
:1017900003E08021014801F00DFD70BD000C014007
:1017A000FFF704F807E0FFF719FC034908804FF43E
:1017B0007A7003F04DFAF6E76000002010B5812141
:1017C000FF20FFF781FC0020FFF758FC044621466C
:1017D0000BA001F00DF80120FFF750FC0446214654
:1017E0000DA001F005F80220FFF748FC0446214651
:1017F00009A000F0FDFF0AA000F0FAFF10BD0000F4
:101800000D0A4C5439323131204368697020494403
:101810003A25782C0000000025782C2000000000DC
:101820000D0A000010B58621FF20FFF74DFC0121B5
:101830000020FFF749FC4FF4967003F009FA0024EA
:101840000820FFF71BFC00F00F0424020920FFF71B
:1018500015FC044424020A20FFF710FC044421462E
:1018600011A000F0C5FF8621FF20FFF72DFC0A2103
:101870000020FFF729FC4FF4967003F0E9F90024EB
:101880000820FFF7FBFB00F00F0424020920FFF7FC
:10189000F5FB044424020A20FFF7F0FB0444214630
:1018A00008A000F0A5FF10BD0D0A6D6970692069E0
:1018B0006E707574206279746520636C6F636B3A27
:1018C000202575000D0A646573736320706978655F
:1018D0006C20636C6F636B3A2025750A0000000072
:1018E00010B501F049FF00F0ADF900F001F810BDAE
:1018F00010B517A000F07CFFFFF760FF00F0FCF9C7
:101900000A2003F0A5F900F037F900F017F900F00C
:1019100025FA00F077F90A2003F09AF900F03AF876
:101920000A2003F095F900F029FB00F0D9FA00F045
:101930008BFA0A2003F08CF901F04EFF01F042FF10
:101940000A2003F085F9FFF76DFF00F0ABFB10BD37
:101950000D0A204C54393231315F6D697069207441
:101960006F2054544C0D0A0010B50020FFF700FD05
:1019700040F2066002F006FE02231A4610210448D7
:1019800001F068FC0221024801F014FC10BD0000C7
:101990000018014070B5D021FF20FFF795FB6021B2
:1019A0000C20FFF791FB60211C20FFF78DFB7021BD
:1019B0002420FFF789FB30212D20FFF785FB0A212A
:1019C0003120FFF781FBF0212520FFF77DFB30213F
:1019D0002A20FFF779FB4F212120FFF775FB00211B
:1019E0002220FFF771FB01211E20FFF76DFB8021F4
:1019F0002320FFF769FB02210A20FFF765FB022184
:101A00003820FFF761FB04213920FFF75DFB082137
:101A10003A20FFF759FB10213B20FFF755FB04212B
:101A20003F20FFF751FB08214020FFF74DFB10211D
:101A30004120FFF749FB20214220FFF745FBA02171
:101A40002B20FFF741FBD021FF20FFF73DFB262095
:101A5000FFF714FB054605F07F0529462620FFF712
:101A600033FB0F212720FFF72FFB8121FF20FFF7FA
:101A70002BFBBF212020FFF727FBFF212020FFF7B2
:101A800023FB052003F0E4F86F210B20FFF71CFB7C
:101A9000FF210B20FFF718FB4FF4487003F0D8F834
:101AA000002415E0C82003F0D3F8D021FF20FFF771
:101AB0000BFB8720FFF7E2FA00F0080018B10DA039
:101AC00000F096FE06E010A000F092FE601CC4B28A
:101AD0000A2CE7DB00BFD021FF20FFF7F5FA9420A6
:101AE000FFF7CCFA00F07F0631460EA000F080FE32
:101AF00070BD00000D0A4C543932313120706372D0
:101B000020737461626C65000D0A4C5439323131B6
:101B10002070637220756E737461626C652121217F
:101B2000210000004C5439323131207063725F73F0
:101B30007461626C655F4D3D25780A0010B58621A1
:101B4000FF20FFF7C1FA85213020FFF7BDFAD82129
:101B5000FF20FFF7B9FA00211620FFF7B5FAD021D0
:101B6000FF20FFF7B1FA12214320FFF7ADFA05215C
:101B70000220FFF7A9FA10BD10B5D021FF20FFF712
:101B8000A3FA00210846FFF79FFA8221FF20FFF702
:101B90009BFA44210220FFF797FA36210520FFF730
:101BA00093FA26210D20FFF78FFA0C211720FFF75B
:101BB0008BFA0C211D20FFF787FA81210A20FFF7FD
:101BC00083FA00210B20FFF77FFA9F210720FFF700
:101BD0007BFAFC210820FFF777FA01210920FFF7A3
:101BE00073FA01211120FFF76FFA8621FF20FFF71A
:101BF0006BFA1B213320FFF767FA1B213420FFF714
:101C000063FA10BD10B58221FF20FFF75DFA48216D
:101C10002D20FFF759FA82213520FFF755FA10BD24
:101C200010B50446FFF7A0FE0A2003F011F8FFF7F5
:101C300057FE4FF47A7003F00BF8002003F02CF8F5
:101C400010BD000010B50221064801F0B3FA64206F
:101C500002F0FEFF0221034801F0AEFA642002F018
:101C6000F7FF10BD0018014010B50446642002F0D3
:101C7000EFFFD021FF20FFF727FA608A01120D2025
:101C8000FFF722FAA17C0E20FFF71EFA208A01122C
:101C90000F20FFF719FA217C1020FFF715FA217B9E
:101CA0001520FFF711FA608901121720FFF70CFACF
:101CB000A17A1820FFF708FA208901121120FFF7F6
:101CC00003FA217A1220FFF7FFF9E08801121320AE
:101CD000FFF7FAF9A1791420FFF7F6F9A178162099
:101CE000FFF7F2F9208801121920FFF7EDF92178AA
:101CF0001A20FFF7E9F910BD10B58221FF20FFF788
:101D0000E3F918210120FFF7DFF98621FF20FFF713
:101D1000DBF961210620FFF7D7F9A8210720FFF79B
:101D2000D3F98721FF20FFF7CFF908211420FFF70F
:101D3000CBF900211520FFF7C7F90F211820FFF775
:101D4000C3F908212220FFF7BFF900212320FFF764
:101D5000BBF90F212620FFF7B7F910BD2DE9F0419F
:101D600000274FF4FA7002F073FFD021FF20FFF735
:101D7000ABF98320FFF782F980468220FFF77EF9D6
:101D800008EB002084B2032094FBF0F084B284209E
:101D9000FFF774F900F00F068620FFF76FF9804611
:101DA0008520FFF76BF908EB002085B29C20FFF738
:101DB00065F9074621460EA000F01AFD294610A03D
:101DC00000F016FD314612A000F012FD394614A0B5
:101DD00000F00EFD642002F03BFF01201449087062
:101DE0001448FFF741FF14A000F002FDBDE8F081A8
:101DF0000D0A68616374203D2025750A0D000000FE
:101E00000D0A76616374203D2025750A0D000000DF
:101E10000D0A666D74203D2025780A0D0000000033
:101E20000D0A70615F6C706E203D2025780D0A00F0
:101E30004000002044000020313032347836303009
:101E40005F3630487A0D0A0010B51EA000F0D0FCB5
:101E50008521FF20FFF738F940215920FFF734F999
:101E6000AA215A20FFF730F9AA215B20FFF72CF9AD
:101E700000215C20FFF728F950218820FFF724F982
:101E80007721A120FFF720F98621FF20FFF71CF919
:101E900040210846FFF718F934214120FFF714F9D3
:101EA00010214220FFF710F923214320FFF70CF9FE
:101EB00041214420FFF708F902214520FFF704F9EA
:101EC00010BD00000D4C543932313120736574203F
:101ED000746F204F55545055545F4C564453000076
:101EE00010B58221FF20FFF7EFF800216220FFF7F5
:101EF000EBF808213B20FFF7E7F892213E20FFF79F
:101F0000E3F848213F20FFF7DFF831214020FFF7B9
:101F1000DBF880214320FFF7D7F800214420FFF7AA
:101F2000D3F800214520FFF7CFF800214920FFF723
:101F3000CBF801214A20FFF7C7F800214E20FFF718
:101F4000C3F800214F20FFF7BFF800215020FFF712
:101F5000BBF800215320FFF7B7F801215420FFF709
:101F6000B3F88121FF20FFF7AFF879212020FFF798
:101F7000ABF8FF212020FFF7A7F810BD10B5822194
:101F8000FF20FFF7A1F801213620FFF79DF8292156
:101F90003720FFF799F806213820FFF795F8302110
:101FA0003920FFF791F88E213A20FFF78DF8812133
:101FB000FF20FFF789F8F7212020FFF785F8FF21A0
:101FC0002020FFF781F88721FF20FFF77DF81421FB
:101FD0003720FFF779F800211320FFF775F88021EB
:101FE0001320FFF771F8642002F032FE00241FE096
:101FF0008721FF20FFF768F81F20FFF73FF800F068
:10200000800080B12020FFF739F800F0800018B17F
:102010000BA000F0EDFB02E00FA000F0E9FB15A023
:1020200000F0E6FB06E00CA000F0E2FB601CC4B28E
:102030000A2CDDDB00BF16A000F0DAFB10BD0000AB
:102040000D0A4C543932313120747820706C6C2078
:102050006C6F636B000000000D0A4C543932313153
:1020600020747820706C6C20756E6C6F636B656487
:10207000000000000D0A4C543932313120747820B0
:10208000706C6C2063616C20646F6E6500000000F2
:102090000D0A2073797374656D20737563636573BE
:1020A000730000001CB58621FF20FFF70DF870209B
:1020B000FEF7E4FF04467120FEF7E0FF4849088080
:1020C0007220FEF7DBFF474908807320FEF7D6FF3A
:1020D0004449097800EB0120424908807420FEF74A
:1020E000CDFF414908807520FEF7C8FF3F490880B1
:1020F0007620FEF7C3FF3E4908807720FEF7BEFF3B
:102100003B49097800EB0120394908807820FEF727
:10211000B5FF384908807920FEF7B0FF35490978C6
:1021200000EB0120334908807A20FEF7A7FF3249EF
:1021300008807B20FEF7A2FF2F49097800EB0120E1
:102140002D4908807C20FEF799FF2C4908807D20CE
:10215000FEF794FF2949097800EB01202749088000
:102160007E20FEF78BFF264908807F20FEF786FF42
:102170002349097800EB0120214908808020FEF7DF
:102180007DFF204908808120FEF778FF1D490978EE
:1021900000EB01201B49088021461BA000F028FB12
:1021A0001648008817490988CDE9001010480388AF
:1021B0000C4802880F48018819A000F019FB0E484E
:1021C00000880F490988CDE90010074803880448B2
:1021D0000288064801881EA000F00AFB1CBD000012
:1021E0003200002030000020360000203E00002099
:1021F000340000203C0000203A000020380000207D
:102200002E0000202C0000200D0A73796E635F7091
:102210006F6C6172697479203D20257800000000A0
:102220000D0A6866702C2068732C206862702C2060
:10223000686163742C2068746F74616C203D202584
:10224000752025752025752025752025750D0A001A
:102250000D0A7666702C2076732C207662702C2006
:10226000766163742C2076746F74616C203D202538
:10227000752025752025752025752025750D0A00EA
:1022800010B540F2066002F07DF94FF400430222DF
:102290001021044800F0DEFF4FF40041014800F037
:1022A00089FF10BD0018014010B54FF400410248ED
:1022B00000F080FF10BD00000018014010B54FF481
:1022C0000041024800F078FF10BD000000180140F6
:1022D00070B50446642C01DD642402E0002C00DAB1
:1022E00000240D490C7000BF0CA000F081FA0A48D0
:1022F00001780EA000F07CFA00BFC4F1640013491D
:1023000009884843642190FBF1F52A4602211048D0
:1023100002F00BFA70BD00005E0000203C3C4D59FD
:102320005F44454255473E3E200000004C63645FD9
:1023300070776D5F6F757420675F6C63645F707733
:102340006D203D2025640D0A000000005C00002087
:10235000002C014010B51021014800F02DFF10BDE8
:10236000000C014010B51021014800F023FF10BD02
:10237000000C014010B540F2036002F003F9102395
:1023800002221946034800F065FF1021014800F0C1
:1023900011FF10BD000C014000BFFEE710B540F278
:1023A000056002F0EFF8402302221021034800F0FC
:1023B00051FF4021014800F0FDFE10BD0014014016
:1023C00010B5044600BF09A000F012FA21460BA088
:1023D00000F00EFA00BF24B14021124800F0ECFEDC
:1023E00003E040210F4800F0E5FE10BD3C3C4D5994
:1023F0005F44454255473E3E200000004D6963431F
:10240000746C5F436F6E74726F6C5F4F7574486964
:10241000676820737461747573203D2025640D0A0C
:1024200000000000001401407047000010B540F2A9
:10243000046002F0A7F80F2302221021054800F0E3
:1024400009FF0421034800F0B5FE0B21014800F00C
:10245000B3FE10BD0010014010B50446002C08DD8D
:10246000052C06DA601E012202FA00F1014800F094
:10247000A3FE10BD0010014010B50446012C04D18C
:10248000C102084800F03CFF10BD022C04D121021B
:10249000044800F035FFF7E78021024800F030FFE4
:1024A000F2E70000000C014010B50446012C06D1F3
:1024B000C302022248210A4800F0CCFE0EE0022CA2
:1024C00006D1230202224821054800F0C3FE05E0A0
:1024D000802302224821024800F0BCFE10BD00000B
:1024E000000C014010B50446012C06D1C3020222A3
:1024F00010210A4800F0AEFE0EE0022C06D12302A5
:1025000002221021054800F0A5FE05E080230222EA
:102510001021024800F09EFE10BD0000000C01409A
:1025200010B500BF502080F31188BFF34F8FBFF369
:102530006F8F00BF03F0CCF918B14FF08050044901
:10254000086000BF002080F3118800BF10BD0000AC
:1025500004ED00E010B51448006840F00100124995
:10256000086008464068114908400F49486008461D
:1025700000680F4908400C4908600846006820F4CC
:1025800080200860084640680A49084006494860BB
:102590000846006806490840034908604FF41F00D8
:1025A000886002F0ABF810BD001002400C00FFE89C
:1025B000FFFFF6FEFFFF00F770B50446002502217D
:1025C000094800F0C5FB084800F02AFC0546052331
:1025D00022460021044800F0CDFB0121024800F012
:1025E00023FC284670BD0000002401402DE9F04185
:1025F00007460C460025002608E03846FFF7DCFFBA
:102600000544052002F024FB701CC6B2A642F4DB90
:10261000B5FBF4F080B2BDE8F081FFF7ABFE00BF80
:102620000BE0FFF79FFE4FF4FA7002F011FBFFF78B
:1026300091FE4FF4FA7002F00BFBF2E710B50024A4
:102640000D490E4802F0BFF930B10B490B4802F0BA
:10265000ADF900F0DDF80DE00949084802F0B3F9E2
:1026600030B10749054802F0A1F900F023FC01E070
:1026700000F068FA10BD00000503050000380140B5
:102680000703070010B51D491D4802F09CF988B1E9
:102690001A491B4802F08AF9FEF7C6F91948007872
:1026A00050BB4FF44171164802F073F901201549EF
:1026B000087021E01449124802F085F930B112493E
:1026C0000F4802F073F9FEF7C3F915E00F490C4803
:1026D00002F079F980B1FEF79DF90C49084802F043
:1026E00065F90848007838B14FF44171044802F0A8
:1026F00043F900200349087010BD000005030500E0
:1027000000440040280000200703070004030400E1
:102710007CB504460D460E4903C9CDE90001012CE4
:1027200000DD7CBD0120A0400A490978084060B165
:1027300000BF5DF82400072102F0FFF80028F8D060
:102740005DF82400294602F0A6F800BFE9E7000082
:10275000245B0008040000202DE9F04107460D46E7
:102760001646002405E0295D3846FFF7D1FF601CBE
:10277000C4B2B442F7DBBDE8F081F0B504460D46C3
:102780004FF0FF370CB93846F0BD681E265CC1B269
:102790002046FEF731F9B04200D100273846F3E772
:1027A00000BFFEE710B540F2056001F0EBFE8023AC
:1027B00002221021034800F04DFD8021014800F065
:1027C000F9FC10BD0014014031B50A240A2301228E
:1027D00069460548006802F04FFD40F207310348A2
:1027E00002F0D7F8009838BD1C00002000440040DB
:1027F0000FB4054B10B503A9044A029800F042F843
:1028000010BC5DF814FB000035300008EC0000201F
:102810001CB5084802F03AF8C0B2019000200090C0
:102820006B46012201A90448006802F0AFFD9DF843
:1028300004001CBD003801400C00002031B50A2402
:102840000A23012269460548006802F015FD40F29E
:102850000731034802F09DF8009838BD08000020B9
:102860000038014002E008C8121F08C1002AFAD14E
:1028700070477047002001E001C1121F002AFBD100
:10288000704700002DE9FF4F8DB09B460F46044670
:10289000002606E025280BD05A460F999047641C65
:1028A000761C20780028F5D111B03046BDE8F08FB5
:1028B0000025A8460122984900E0054314F8013F8D
:1028C000203B02FA03F00842F7D120782E2817D1D6
:1028D00014F8010F45F004052A280ED06FF02F02DE
:1028E0002078A0F1300109290AD808EB880102EB11
:1028F000410100EB0108641CF2E757F8048B641CEB
:1029000020786C280DD004DC4C2812D06A2811D114
:1029100004E074280DD07A280CD10AE045F40015A3
:1029200007E0617845F48015814202D1641C05F509
:102930008015641C2278692A45D008DC002AB3D0AF
:10294000582A69D0632A10D0642A08D13BE0702A43
:1029500067D0732A13D0752A5CD0782A5CD01046D1
:102960005A460F999047761CD3E017F8040B8DF860
:10297000000000208DF80100E946012003E057F82F
:10298000049B4FF0FF3069074FF0000501D40AE0C7
:102990006D1C45450DDA8542FADB19F80510002952
:1029A000F6D106E06D1C8542FCDB19F80510002904
:1029B000F8D12E4404E019F8010B5A460F999047BC
:1029C0006D1EF8D2A5E00A200021CDE90801C5F36B
:1029D000025002280DD001CFC117031E71F1000370
:1029E0000DDA4FF0000CD0EB0C006CEB01012D2345
:1029F00008E0FF1D27F00707F7E80201EDE72B05C8
:102A000004D52B238DF8283001233BE0EB0739D088
:102A10002023F7E70A2000E010200021CDE908017B
:102A200007E01020002145F00405CDE908014FF032
:102A30000808C5F3025002280FD001CF00214FF043
:102A4000000A2B071FD5702A0DD0DDE908C38CF0D2
:102A5000100C5CEA030C0CD015E0FF1D27F00707F3
:102A6000F7E80201EBE740228DF828204FF0010A39
:102A70000BE050EA010306D030238DF828308DF8A2
:102A8000292002239A46582A04D024A20DF12009B5
:102A90000B9209E026A2F9E7DDE90823FDF77DFDA9
:102AA0000B9B9B5C09F8013D50EA0102F4D1ADEBB0
:102AB000090020300890680701D44FF001080899F8
:102AC000884502DDA8EB010000E0002080460025DB
:102AD00006E00AA85A46405D0F9990476D1C761C87
:102AE0005545F6DB04E030205A460F999047761C96
:102AF000B8F10001A8F10108F5DC05E019F8010BB7
:102B00005A460F999047761C0899481E089000294C
:102B1000F4DC641CC5E600000928010030313233C2
:102B20003435363738396162636465660000000009
:102B300030313233343536373839414243444546F3
:102B40000000000010B54FF442711A4801F03BFF3D
:102B500040B119A0FFF74CFE4FF44271154801F047
:102B600025FF25E01C49134801F02DFF38B11BA0BB
:102B7000FFF73EFE18490F4801F018FF18E01E4904
:102B80000C4801F020FF38B11CA0FFF731FE1A49B4
:102B9000084801F00BFF0BE02049064801F013FF45
:102BA00030B11FA0FFF724FE1C49024801F0FEFED1
:102BB00010BD0000003801402A2A2A2055534152F6
:102BC0005420706172697479206572726F7221206D
:102BD0002A2A2A0A00000000000501002A2A2A20C9
:102BE0005553415254206672616D65206572726F53
:102BF0007221202A2A2A0A00000503002A2A2A20F4
:102C00005553415254206F76657272756E2065720D
:102C1000726F7221202A2A2A0A0000000005020091
:102C20002A2A2A205553415254206E6F6973652019
:102C30006572726F7221202A2A2A0A00816841F087
:102C40000801816000BF816801F008010029FAD104
:102C5000816841F00401816000BF816801F00401D6
:102C60000029FAD1704730B5012902D002291AD1C2
:102C70000CE0C36A23F47003C362C36A541E4FF4AA
:102C8000700505EA04542343C3620DE0836B23F40B
:102C900040138363836B541E4FF4401505EA0454BC
:102CA0002343836300E000BF00BF30BD21B18268D1
:102CB00042F40062826003E0826822F40062826073
:102CC000704730B5436823F4C0534360012904D0F2
:102CD000022913D0042916D116E0436823F4604377
:102CE00043604368541E4FF4604505EA443423436F
:102CF0004360436843F40063436006E0436843F481
:102D00008053436001E000BF00BF00BF30BD816859
:102D100001F0010119B9816841F00101816070473A
:102D2000012902D0022910D107E0836823F460232F
:102D3000836083681343836008E0836823F4E0437F
:102D4000836083681343836000E000BF00BF704767
:102D500002688A43026070470549096821F47021BE
:102D6000034A116011460968014311607047000071
:102D700004240140F0B51D4606290CDA436B01EB33
:102D800081071F26BE40B34301EB810602FA06F617
:102D90003343436322E00C290EDA036B8E1F06EBEC
:102DA00086071F26BE40B3438E1F06EB860602FA37
:102DB00006F63343036311E010290FDAC36AA1F169
:102DC0000C0606EB86071F26BE40B343A1F10C0696
:102DD00006EB860602FA06F63343C3620A2A0CDAC9
:102DE000046902EB42070726BE40B44302EB4206E9
:102DF00005FA06F63443046111E0122A0FDAC468BA
:102E0000A2F10A0606EB46070726BE40B443A2F12C
:102E10000A0606EB460605FA06F63443C460F0BD22
:102E20000146C86C80B2704701F001021AB1826895
:102E300042F48002826001F002021AB1826842F418
:102E4000001282607047AAB101F480731BB143681D
:102E500043F48073436001F480631BB1436843F41F
:102E60008063436001F00203CBB1836843F0020347
:102E7000836014E001F480731BB1436823F4807312
:102E8000436001F480631BB1436823F480634360B3
:102E900001F002031BB1836823F0020383607047D3
:102EA0000348006840F400000149086070470000D2
:102EB000082401401CB5002000901048006802F072
:102EC000E3F804462CB940F207310D4801F054FDF7
:102ED0001CBD6B46012201A90848006802F081F977
:102EE00028B19DF804100020FFF712FC04E040F226
:102EF0000731034801F040FD00BFE9E7080000206A
:102F0000003801400EB50020029002A800210223E3
:102F10000A46CDE900100448006802F097FB4FF420
:102F2000805000F05FF80EBD1400002010B52C4B4F
:102F30001B6883432A4C2360231D1B688343241D85
:102F40002360231D1B688343241D2360231D1B68EE
:102F50008343241D236011B101290ED105E0204BCC
:102F60001B6803431E4C236008E01D4B1B1D1B68A0
:102F700003431B4C241D236000E000BF00BF22B1AF
:102F8000012A0FD0022A27D119E0154B08331B68FC
:102F90000343134C08342360231D1B688343241D03
:102FA00023601AE00E4B08331B6883430C4C083433
:102FB0002360231D1B680343241D23600DE0084B81
:102FC00008331B680343064C08342360231D1B6829
:102FD0000343241D236000E000BF00BF10BD0000BC
:102FE00000040140024909688143014A11607047A9
:102FF00000040140024909680143014A1160704719
:1030000000040140014908607047000014040140B9
:1030100001460748006800EA0102054814380068C4
:1030200000EA010312B10BB1012070470020FCE758
:103030001404014070B504460D462046FFF7FEFB20
:10304000204670BD70B504460D46324E012C00D1AD
:10305000314E0120A04031490978084000B170BDCF
:103060002F4931F8140001F08DFA2E4931F814007F
:1030700001F088FA2C4951F824302C4951F82400E9
:103080000222182100F0E6F8294951F82430274996
:1030900051F824000222042100F0DCF8304601F04F
:1030A000FFFB2946304601F0A9FB0021304601F024
:1030B000C6FC0021304601F0B2FC0021304601F090
:1030C0009EFC0021304601F04FFC0021304601F00B
:1030D00043FC0421304601F09AFC0821304601F0FF
:1030E000A6FC304601F024FC40F20531304601F0E8
:1030F00050FC104A115D104A12F82400002200F022
:103100005FFD0120A0400549097808430349087084
:1031100000BFA4E700380140004400400400002044
:10312000145B0008F85A0008FC5A00080C5B000801
:10313000045B0008205B0008185B000810B500BFA6
:1031400006A0FFF755FB0948B0F9001008A0FFF7EB
:103150004FFB00BF0548B0F9000010BD3C3C4D5985
:103160005F44454255473E3E20000000600000207D
:103170006765745F696E7465726E616C5F74656DAE
:10318000702020675F696E745F74656D70203D20EC
:1031900025640D0A000000000146282901DDFF20FA
:1031A000704703480068C84000F00100F8E70000DD
:1031B00074000020416170470161704710B5002222
:1031C0008B071C0F0F2303FA04F204290EDA204B9D
:1031D0009B6893431E4CA36023469B688C07240F77
:1031E00000FA04F423431A4CA3602FE008290EDAF6
:1031F000174BDB689343164CE3602346DB688C0770
:10320000240F00FA04F42343114CE3601EE00C2960
:103210000EDA0F4B1B6993430D4C236123461B6948
:103220008C07240F00FA04F42343094C23610DE0BA
:10323000074B5B699343064C636123465B698C07CC
:10324000240F00FA04F42343014C636110BD000015
:1032500000000140F0B5044616460025002201F0AA
:103260000F0501F0100707B1354300201EE00127CC
:1032700087401F40C7B122684FEA800C0F2707FA2A
:103280000CF7BA43870005FA07F73A43282904D117
:10329000012787401F40676105E0482903D10127C6
:1032A00087401F4027612260471CB8B20828DED340
:1032B000082022E0012787401F40E7B16268A0F1A3
:1032C00008074FEA870C0F2707FA0CF7BA43A0F15B
:1032D0000807BF0005FA07F73A43282904D1012758
:1032E00087401F40676105E0482903D101278740D7
:1032F0001F4027616260471CB8B21028DAD3F0BDC6
:1033000002469068084008B1012070470020FCE7A1
:103310000146C86880B27047F0B50A460023002411
:103320000021002500F00046B6F1004F02D11D4EED
:10333000F16901E01B4E7168C0F3034583B200F4EC
:103340004016B6F5401F08D121F07061154E766821
:1033500026F07066134F7E6012E000F48016B6F51A
:10336000801F06D1032606FA05F4A14341F07061DF
:1033700006E0460D360103FA06F6B14341F07061EE
:1033800022B1460D360103FA06F6314300F000463D
:10339000B6F1004F02D1034EF16101E0014E7160C0
:1033A000F0BD000000000140C160704710B5002072
:1033B0000749087000BF07A0FFF71AFA09A0FFF736
:1033C00017FA00BF0C48006801F066FC10BD000051
:1033D000640000203C3C4D595F44454255473E3E09
:1033E00020000000686172645F7774645F646973D1
:1033F00061626C650D0A0000680000201CB50120A8
:103400000C4908700C4800880C49088000BF0CA0CB
:10341000FFF7EEF90EA0FFF7EBF900BF114802210C
:1034200000238022CDE900100FA1114802F042F8DC
:103430001CBD0000640000206C0000206E00002015
:103440003C3C4D595F44454255473E3E20000000FC
:10345000686172645F7774645F656E61626C650D4C
:103460000A00000068000020687774640000000013
:10347000B934000810B5064800880649088000BF26
:1034800005A0FFF7B5F908A0FFF7B2F900BF10BD1E
:103490006C0000206E0000203C3C4D595F444542CA
:1034A00055473E3E20000000686172645F77746497
:1034B0005F666565640D0A0017E00C48007888B106
:1034C0000B48008870B10A480088401E08490880EF
:1034D0000846008830B907A0FFF78AF900F066F8BF
:1034E000FFF764FF642001F0B3FBE6E7640000200F
:1034F0006E000020686172645F7774645F66656562
:10350000645F7461736B2074696D656F75740D0A07
:103510000000000010B500BF06A0FFF769F90948D8
:10352000018809A0FFF764F900BF06480088C0B20F
:1035300010BD00003C3C4D595F44454255473E3E5E
:10354000200000006C000020686172645F77746482
:103550005F6765745F74696D656F75742074696DFC
:10356000656F7574203D202564282A3130306D73D5
:10357000290D0A0010B540F2026001F003F8802125
:103580000948FFF717FE40210748FFF715FEE02323
:10359000022210210448FFF75DFE10230222482179
:1035A0000148FFF757FE10BD0008014010B540214B
:1035B0000548FFF7FFFDC82001F04AFB4021024803
:1035C000FFF7FAFD10BD00000008014010B50446E9
:1035D00000BF05A0FFF70CF9214607A0FFF708F987
:1035E00000BF1048048010BD3C3C4D595F4445422B
:1035F00055473E3E20000000686172645F77746446
:103600005F7365745F74696D656F75742074696D3F
:10361000656F7574203D202564282A3130306D7324
:10362000290D0A006C00002010B504462CB14FF49F
:1036300080710548FFF7BEFD04E04FF48071024839
:10364000FFF7BAFD10BD00000018014070B5044638
:103650000D46292C03DA204600F06AF800E070BD20
:103660000120FFF7E1FF9DB14FF480411548FFF7BE
:10367000A3FD282C04D14FF0FF301349086019E056
:103680000120A0401049096808430F49086011E073
:103690004FF480410B48FFF78DFD282C03D100200B
:1036A0000949086006E00120A040074909688143F4
:1036B00005480160012001F0CBFA0020FFF7B4FFBC
:1036C00000BFCCE7001401407400002010B540F2A8
:1036D000056000F057FF4FF490430222102112487A
:1036E000FFF7B8FD4FF490410F48FFF763FD40F23C
:1036F000066000F047FF7C242346022210210B487D
:10370000FFF7A8FD21460948FFF754FD4FF4407329
:10371000022210210548FFF79DFD4FF44071034838
:10372000FFF74AFD10BD00000014014000180140E1
:1037300070B504460E48FFF7EBFD054625F07C0505
:1037400004F03E0045EA400529460948FFF72CFEF3
:1037500004F0010028B14FF400610648FFF72CFD8A
:1037600004E04FF400610348FFF724FD70BD000042
:10377000001801400014014010B54FF48071064854
:10378000FFF718FD642001F063FA4FF480710248DE
:10379000FFF712FD10BD00000014014010B540F20B
:1037A000056000F0EFFE4FF4807302221021044800
:1037B000FFF750FD4FF480710148FFF7FDFC10BD8D
:1037C0000014014010B58221FF20FDF77DFC382157
:1037D0003B20FDF779FC10BD10B58121FF20FDF7DE
:1037E00073FCFB210D20FDF76FFC0A2001F030FA7D
:1037F000FF210D20FDF768FC10BD00001CB5FDF792
:10380000D9F824A0FEF7F4FF2548016825A0FEF7AB
:10381000EFFF0020022103468022CDE9001023A102
:10382000254801F047FE0020022103468022CDE911
:10383000001022A1234801F03DFE00200421034690
:103840008022CDE9001020A1214801F033FE21485B
:10385000042100238022CDE900101FA1204801F09F
:1038600029FE2048032100238022CDE900101EA15B
:103870001F4801F01FFE0020022103468022CDE9EF
:1038800000101CA11D4801F015FE01F00FFB00BF48
:10389000FEE70000696E6974206F6B21210D0A003C
:1038A0000000002025730D0A000000005461736BB6
:1038B0004C656431000000001B26000864656275D9
:1038C00067720000290D00086C7439323131000034
:1038D000211C000824000020546F43707500000074
:1038E000810D0008140000206B65795F626F640031
:1038F0000547000874656D7000000000A1170008FE
:1039000008B51EA000680090022000F011F96A4678
:103910000021022000F029F900231A46194602204E
:1039200000F034F940F2036000F02CFE4FF4C06068
:1039300000F028FE4FF48053022248211048FFF780
:1039400089FC0C210120FFF739FC01220021100322
:10395000FFF7ECFA4FF48050FFF74CFB4FF4805028
:10396000FFF750FB00220621282000F029F900F083
:103970000BF890210348FCF746FC08BD00FF00004F
:10398000000C0140F000002008B56B460122002128
:10399000022000F0D3F860B99DF8000000F03F006D
:1039A0003F2804D09DF8000000F03F0008BD3F20F4
:1039B000FCE702A0FEF71CFFFF20F7E74552524F3D
:1039C000523A204B45595F524F575F5343414E2067
:1039D0006E6361393535355F726561645F696E703C
:1039E0006F72740D0A0000002DE9F0410027FFF707
:1039F000CBFF07463F2F55DA002550E03C48435D9A
:103A000000221146022000F0C1F820B1294639A059
:103A1000FEF7EEFE41E0FFF7B7FF0746002639E06C
:103A2000062000FB0560C4B247FA06F000F0010072
:103A3000E8B93D4830F81400022829DA3A4830F84D
:103A40001400401C81B2384820F8141030F81400DB
:103A500002281DD10120344948390855611CC8B2DB
:103A6000012100F0BFFD01203049087010E02E4810
:103A70004838005D60B100202B4948390855611C69
:103A8000C8B2002100F0AEFD0021274820F8141034
:103A9000701CC6B2062EC3DB00BF681CC5B2062D63
:103AA000ACDB1CE021480078C8B1002412E01E48BD
:103AB0004838005D60B100201B4948390855611C39
:103AC000C8B2002100F08EFD0021174820F8141024
:103AD000601CC4B2242CEADB0020144908700023C7
:103AE0001A461946022000F051F80020BDE8F08186
:103AF000665B00084552524F523A204B45595F527F
:103B00004F575F5343414E206E6361393535355F02
:103B100077726974655F6F7574706F727420693D38
:103B200025640D0A00000000380100201800002064
:103B300010B504462046FDF71BFC10BDF8B506463F
:103B40000D4614461F4605F00E0545F040050CB124
:103B5000012000E0002004460120E2B23B46294655
:103B600000903046FDF792FCF8BDF8B506460C46CD
:103B7000154604F00E0444F0400402202B460622B1
:103B8000214600903046FDF7DFFCF8BD7FB582B0DE
:103B900006460C46154604F00E0444F040040DB1F0
:103BA000012000E00020054601200090A81CC2B2C0
:103BB00005AB21463046FDF7C7FC06B070BD0000DE
:103BC0002DE9F04103460D46164600240027A04685
:103BD0002448006800F4E060B0F5A06F15D006DC62
:103BE000B0F5407F18D0B0F5806F19D110E0B0F576
:103BF000C06F06D0B0F5E06F12D100274FF0040877
:103C000015E001274FF0030811E00227B8460EE047
:103C100003274FF001080AE004274FF0000806E0F0
:103C20004FF4A06000F022F80227B84600BF00BFA2
:103C3000C7F1040005FA00F4C8F104010F20C840E0
:103C40003040044324010848C45403F01F010120FC
:103C500088405911890001F1E021C1F80001BDE857
:103C6000F08100000CED00E000E400E002490143B7
:103C7000024A1160704700000000FA050CED00E0F8
:103C80002DE9F04105460E461C4807681C480068AF
:103C9000001D00F0DCFE50B91948006890F82C10A7
:103CA0000120884017490968814316480160681C53
:103CB00038B936B112480168091D134800F005FFF4
:103CC0001AE07C190E4800684460BC4207D20C48D8
:103CD0000168091D0D48006800F0DDFE0CE0084891
:103CE0000168091D0A48006800F0D5FE094800680F
:103CF000844201D207480460BDE8F08190000020B2
:103D00007C00002094000020340200208400002069
:103D100080000020AC00002010B5044600F0E2FE58
:103D200024480068401C234908602348006840B9C3
:103D3000214804600846006801280DD100F04CF9C4
:103D40000AE01E48006838B91B480068C06AE16A8A
:103D5000884201D81848046019480068401C184976
:103D6000086008460068206494F82C100120884000
:103D700014490968084313490860E16A01EB8101AD
:103D8000114A02EB8100211D00F09FFE00F0CCFEE5
:103D90000A48006868B108480068C06AE16A884259
:103DA00007D24FF0805009490860BFF34F8FBFF32F
:103DB0006F8F10BD8C0000207C0000209800002038
:103DC000A8000020940000208001002004ED00E005
:103DD0000146D1E90132D0180A68801A8A68824205
:103DE00001D88A68801A704710B516E000F07AFE94
:103DF0000C48C068C468201D00F029FE0A4800680D
:103E0000401E0949086009480068401E07490860CB
:103E100000F08AFE204600F00BF8044800680028F5
:103E2000E4D110BD200200208C000020880000207A
:103E300010B50446206B00F08DFE204600F08AFE8F
:103E400010BD000030B54FF42053174800F00704B0
:103E50002CB1C01D20F00700134C041B1B1B024695
:103E6000124C22600024114D6C60D018083820F0EC
:103E700007000F4C206000240D4D2D686C600C4D28
:103E80002D682C601146441A4C60094C24680C6063
:103E9000084D4C682C60084D4C682C604FF0004475
:103EA000064D2C6030BD000048020020C8000020F4
:103EB000D0000020D8000020D4000020E400002022
:103EC00000BFFFF791FF064800680128F9D94FF0BD
:103ED000805004490860BFF34F8FBFF36F8FF0E746
:103EE0008001002004ED00E02DE9F04704460D4676
:103EF00016461F46DDF820804FF055093246552101
:103F00002846FCF782F9A84201D1012000E00020F8
:103F100008B900BFFEE724212046FCF774F9A5612B
:103F2000A660E76084F81C80BDE8F0872DE9F05FAB
:103F300082460E4690469B460A9F0C9C4FEA88019B
:103F4000A522206BFCF758F9A8F10100216B01EBC9
:103F5000800929F0070909F0070008B9012000E0ED
:103F6000002008B900BFFEE786B1002507E0715DBB
:103F700004F134004155705D00B902E06D1C0A2D5A
:103F8000F5D300BF00213D20015502E0002084F858
:103F90003400052F00D30427E762A7640020E06403
:103FA000201D00F075FD04F1180000F071FD246182
:103FB000C7F10500A06164620020206584F8540008
:103FC0005A465146484600F015FA20600B9808B151
:103FD0000B980460BDE8F09F10B5002407E004EBE7
:103FE00084010F4A02EB810000F045FD641C052CA2
:103FF000F5D30C4800F03FFD0B4800F03CFD0B48AA
:1040000000F039FD0A4800F036FD0A4800F033FDA3
:1040100004480949086004480849086010BD0000C8
:1040200080010020E4010020F80100200C020020A3
:1040300020020020340200208000002084000020A4
:1040400010B50146164800E0006803688B42FBD3B8
:104050000246436813448B4204D143684C682344AE
:10406000436001460A464B6813440468A34211D1D9
:104070000C4C03682468A34208D04B680468646849
:1040800023444B6003681B680B6005E0054B1B680D
:104090000B6001E003680B60884200D0016010BD36
:1040A000C8000020D00000202DE9F04704468946D2
:1040B00090469A46C24501D2504600E04046064628
:1040C000002E38D02568A068401BB04202D2A068FC
:1040D000401B00E030460746474501D8012000E07C
:1040E000002008B900BFFEE7E819A168884201D89E
:1040F000012000E0002008B900BFFEE7A0694119D7
:104100003A464846FCF766F8BE420DD9464501D806
:10411000012000E0002008B900BFFEE7F21B09EB18
:104120000700A169FCF756F83544A068A84201D8F9
:10413000A0682D1A25603046BDE8F0872DE9F84FBC
:1041400005468A46164698460A9F87B1D5F80090DC
:1041500043463A4669462846FFF7A6FF009CA8EB6F
:104160000708B44204D9C5F80090002400E03446A2
:104170004346224651462846FFF796FF8346584657
:10418000BDE8F88F09480068006808B9012000E020
:10419000002020B14FF0FF300549086005E00348DA
:1041A0000068C0680068024908607047800000200D
:1041B000AC0000200A480068401C08B9012000E05B
:1041C000002008B900BFFEE700BF502080F311882F
:1041D000BFF34F8FBFF36F8F00BF00BFFEE700003C
:1041E000BC0000202DE9F0410446884616460EB179
:1041F000012000E0002008B900BFFEE76568A06864
:10420000401BB04202D2A068401B00E03046074687
:10421000E819A168884201D8012000E0002008B90F
:1042200000BFFEE7A16948193A464146FBF7D2FFB5
:10423000BE420FD9F01BA168884201D8012000E0DE
:10424000002008B900BFFEE7F21B08EB0701A069D8
:10425000FBF7C0FF3544A068A84201D8A0682D1A1A
:1042600065603046BDE8F0812DE9FF470746884686
:104270001D46DDF830900DB9002416E0387F00F0BF
:10428000010040B901240298A84201D2029800E03E
:104290002846029009E04D4506D30124042202A9D4
:1042A0003846FFF79FFF00E0002434B1414638460E
:1042B000029AFFF797FF064600E00026304604B05A
:1042C000BDE8F0872DE9F04104464FF0000800F00A
:1042D0002DFE4248006808B9FFF7B4FD4048006869
:1042E000204000286CD1F4B104F10800A0421AD992
:1042F000083404F00700B8B104F00700C0F108006A
:104300002044A0420DD904F00700C0F10800044485
:1043100004F0070008B9012000E0002020B900BF28
:10432000FEE7002400E00024002C49D02D4800685E
:10433000844245D82C4E3046056801E02E462D6853
:104340006868A04202D228680028F7D12348006894
:10435000854235D0306800F1080828683060686808
:10436000001B102810D92F1907F0070008B90120E9
:1043700000E0002008B900BFFEE76868001B786015
:104380006C603846FFF75CFE164968680968081AD1
:10439000144908600846006814490968884203D235
:1043A00010480068114908600D49686809680843A9
:1043B0006860002028600E480068401C0C490860B6
:1043C00001F020FB08F0070008B9012000E0002000
:1043D00008B900BFFEE74046BDE8F081D0000020EC
:1043E000E4000020D4000020C8000020D8000020F5
:1043F000DC000020001F4FF080730360001F21F0DD
:1044000001030360001F034B03601438026020386F
:1044100070470000B54100080F4A51680F4A11402B
:10442000082814D2DFE800F004050607130A130B6E
:1044300000BF00BF00BF41EA803109E000BF20F0AB
:1044400004004FF0805242EA8032114300E000BF86
:1044500000BF014A5160704700100240FF3FFFEF6C
:104460002DE9F04F8BB00746002009903EA090E860
:10447000004CC068CDE905BECDF810A007900FF242
:10448000EC0ADAE9000ACDE9020A0FF2E00ADAE9F9
:10449000000ACDE9000A38484068C0F381000A905C
:1044A0000A9820B1012804D0022829D103E0334919
:1044B00028E0324926E03048406800F48038B8F5FA
:1044C000803F09D12D4C2C48406800F40039B9F5E3
:1044D000003F02D1641000E0294C27484068C0F337
:1044E00083422548406800F0006008B142F01002A5
:1044F0000F2A01D2921C00E0521C04FB02F101E0E1
:104500001E4900BF00BF1C484068C0F3031504A843
:10451000465D21FA06F318484068C0F3022502A858
:10452000465D23FA06FC14484068C0F3C2251DF816
:10453000056023FA06F0089037B1012F06D0022F4C
:1045400006D0032F0AD106E0099108E0099306E09E
:10455000CDF824C003E00898099000E000BF00BF38
:1045600009980BB0BDE8F08F0000000000000000CB
:1045700001020304060708090010024000127A0035
:1045800000093D00064A02EB9011096800F01F0384
:1045900001229A401143024B03EB901211607047C5
:1045A00000100240064A02EB9011096800F01F0358
:1045B00001229A409143024B03EB90121160704725
:1045C00000100240064A02EB9011096800F01F0338
:1045D00001229A401143024B03EB90121160704785
:1045E000001002407CB505460C461148007800F0EA
:1045F000020018B90FA0FEF7FBF87CBDA5208DF8CE
:1046000000008DF801508DF802409DF800009DF8E3
:10461000011008449DF802100844C0B28DF8030050
:10462000042269460120FEF797F800BFE5E7000085
:10463000040000206572726F723A20544F43505547
:104640005F434F4D206E6F7420696E69740A0000DD
:1046500000200021264A126842F00102244B1A6011
:1046600000BF401C224A126802F0020111B9B0F5E5
:10467000A06FF6D11E4A126802F002020AB900BF0A
:10468000FEE71B4A52681A4B5A601A4652685A6033
:104690001A46526842F480625A601A465268154BB4
:1046A0001A40134B5A601A465268134B1A43104B68
:1046B0005A601A46126842F080721A6000BF0C4AB3
:1046C000126802F00072002AF9D0094A526822F0FA
:1046D0000302074B5A601A46526842F002025A60BF
:1046E00000BF034A526802F00802002AF9D070475E
:1046F00000100240FFFFC3F70000280810B5FFF7C5
:10470000A7FF10BDFFF7FCF80EE04FF0FF320021CD
:10471000084600F027F8FFF767F91E2000F098FA26
:104720004FF48050FEF766FCEFE731B1012906D067
:10473000022906D0032908D105E0426306E082631E
:1047400004E0C26302E0026400E000BF00BF704703
:10475000016821F0010101607047016841F0010129
:10476000016070472DE9F04104460F4616460CB92A
:10477000012000E0002008B900BFFEE700F0B2F918
:104780001C480068503050F8240080B901211948B5
:1047900000685430015556B13046FFF771FA4FF0BA
:1047A000805015490860BFF34F8FBFF36F8F00F043
:1047B000BBF900F097F90F480068503050F82450CA
:1047C0006DB137B100210B480068503040F824101B
:1047D00005E0681E07490968503141F824000021AE
:1047E000044800685430015500F09EF92846BDE8A1
:1047F000F08100007C00002004ED00E02DE9F0478E
:1048000004460D460027B846B94600261D49601AE1
:104810008C421CD006DC1C48204470B1B0F5806F7F
:104820001FD10FE0B0F5806F16D0B0F56C4F18D1E6
:104830000320FFF715FE074614E00220FFF710FEE5
:1048400007460FE00220FFF70BFE07460AE00220B2
:10485000FFF706FE074605E00220FFF701FE0746C8
:1048600000E000BF00BF07EB5500B0FBF5F64FF6C8
:10487000F07006EA000806F00F0948EA0900A06097
:10488000BDE8F087004C004000BCFFBF014648680F
:10489000C0F308007047C1F308024260704700008F
:1048A00010B504462049601A8C4228D006DC1F4807
:1048B000204490B1B0F5806F33D117E0B0F5806F30
:1048C00026D0B0F56C4F2CD140F20E30FFF77AFEB7
:1048D00040F20E30FFF766FE24E040F21140FFF791
:1048E00071FE40F21140FFF75DFE1BE040F2124006
:1048F000FFF768FE40F21240FFF754FE12E040F26C
:104900001340FFF75FFE40F21340FFF74BFE09E054
:1049100040F21440FFF756FE40F21440FFF742FE0B
:1049200000E000BF00BF10BD004C004000BCFFBF56
:10493000C16841F40051C160704710B5024602EBF6
:104940009110006801F01F040123A340184008B132
:10495000012010BD0020FCE70A460021416921F436
:1049600000711143416170470A460021416921F4F9
:10497000807111434161704710B5C1F389128258AB
:1049800001F01F040123A3409A43C1F38913C250CD
:1049900010BD10B5C1F38912825801F01F04012324
:1049A000A3401A43C1F38913C25010BD10B500EBE8
:1049B00091521268C1F304440123A3409A4300EBCF
:1049C00091531A6010BD70B5024600230024C1F354
:1049D0008910105801F01F060125B54000EA0503B3
:1049E00002EB91500068C1F304460125B54000EA8E
:1049F000050414B10BB1012070BD0020FCE7C268B2
:104A000022F4C062C260C2680A43C26070470A46AC
:104A10000021C16821F004011143C160704702699F
:104A200022F44052026102690A43026170470A4659
:104A30000021C16821F008011143C1607047C268BC
:104A400022F48052C260C2680A43C26070470146C5
:104A50000A69D1E901309860D1E9010358605068D2
:104A6000884201D188685060002008611068401EAB
:104A700010601068704700F1080141604FF0FF318D
:104A8000816000F10801C16001610021016070478F
:104A900000210161704710B502460B685C1C0CB91F
:104AA000106907E002F1080000E0406844682468EB
:104AB0009C42FAD944684C604C68A16088604160AF
:104AC0000A611468641C146010BD42684A609368EF
:104AD0008B60936859609160086103685B1C036098
:104AE0007047000000BF502080F31188BFF34F8F44
:104AF000BFF36F8F00BF0A480068401C0849086078
:104B000008460068012809D106480068C0B208B903
:104B1000012000E0002008B900BFFEE77047000058
:104B2000BC00002004ED00E00948006808B900BF9F
:104B3000FEE707480068401E05490860084600680F
:104B400020B9002080F3118800BF00BF704700002B
:104B5000BC00002070B506463546002E32D0083D18
:104B60002C46194960680968084008B1012000E036
:104B7000002008B900BFFEE7206808B9012000E066
:104B8000002008B900BFFEE70F49606809680840C7
:104B9000C0B12068B0B90C4960680968884360609A
:104BA00000F0C4F9094960680968084407490860C9
:104BB0002046FFF745FA06480068401C0449086093
:104BC00000F020FF70BD0000E4000020D4000020B1
:104BD000E000002000204FF0E021086188610648D5
:104BE00000684FF47A71B0FBF1F0401E4FF0E02105
:104BF0004861072008617047E800002070B5FBF7A6
:104C0000D3FA0546102D0DD305F1E02090F8F043BE
:104C10000C480078844201DB012000E0002008B944
:104C200000BFFEE70848006800F4E0600749096833
:104C3000884201D8012000E0002008B900BFFEE74B
:104C400070BD0000C00000200CED00E0C40000209A
:104C500070B5044600258CB10D48006808B90120E4
:104C600000E0002008B900BFFEE700F05FF9002176
:104C70002046FFF705F800F0C5FE05463DB94FF0A8
:104C8000805004490860BFF34F8FBFF36F8F70BD32
:104C9000B800002004ED00E070B50546FFF722FFE4
:104CA00015B92D48006800E028460446201DFFF78E
:104CB000CEFE78B9E06A00EB8000284951F8200068
:104CC00040B994F82C100120884025490968814397
:104CD00023480160A06A18B104F11800FFF7B7FE7D
:104CE00020480068401C1F4908601B480068844237
:104CF00009D1211D1C48FFF7E8FE1C480068401C34
:104D00001A49086006E01A480068401E1849086001
:104D1000FFF738FAFFF708FF0F480068844202D017
:104D20002046FFF785F813480068A0B10A480068DC
:104D3000844210D11048006808B9012000E000202A
:104D400008B900BFFEE74FF080500C490860BFF380
:104D50004F8FBFF36F8F70BD7C000020800100205B
:104D600094000020A80000202002002088000020DD
:104D70008C00002098000020B800002004ED00E026
:104D80002DE9F04705460E4690460DB900BFFEE7F7
:104D90000EB9012000E0002008B900BFFEE7FFF7D0
:104DA0002DFF2C4600BF5021EFF3118081F31188B5
:104DB000BFF34F8FBFF36F8F00BF074604F154005E
:104DC00010F8069002218155001F50F82600401C63
:104DD00004F1500141F82600B9F1010F34D1A06A65
:104DE00008B9012000E0002008B900BFFEE719481B
:104DF0000068A8B9201DFFF72AFE94F82C100120A6
:104E0000884015490968084313490860E16A01EBC5
:104E10008101124A02EB8100211DFFF756FE04E0DA
:104E200004F118010E48FFF750FE0E49E06A0968C8
:104E3000C96A884208D9B8F1000F02D00120C8F829
:104E4000000001200849086000BF87F3118800BFF7
:104E5000BDE8F087B8000020940000208001002009
:104E60000C0200207C000020A000002003490968FB
:104E7000016003490968416070470000A4000020F8
:104E80009000002010B504460CB900BFFEE7FFF704
:104E900029FE044800682060034800686060FFF74E
:104EA00043FE10BDA4000020900000201CB5174850
:104EB00000210B468022CDE9001015A1164800F014
:104EC000F9FA0446012C15D100BF502080F3118857
:104ED000BFF34F8FBFF36F8F00BF4FF0FF300F490D
:104EE000086001200E49086000200E49086000F0AB
:104EF00061F807E0601C08B1012000E0002008B95B
:104F000000BFFEE7084800681CBD0000B00000209C
:104F100049444C4500000000C13E0008AC000020A0
:104F20009800002090000020B40000200248006893
:104F3000401C014908607047B8000020184800680C
:104F400018B101201749086029E0002015490860C0
:104F500015480068B0FA80F0C0F11F0101EB810034
:104F6000124A52F8200008B1012000E0002008B9E0
:104F700000BFFEE701EB81020C4B03EB82004268AD
:104F80005268426000F108024368934202D14268CD
:104F9000526842604268D268054B1A6000BF704791
:104FA000B8000020A0000020940000208001002014
:104FB0007C0000201CB52F48014609780191FF2193
:104FC000024611700146097800919DF8001001F029
:104FD000F0019DF80020914201D1012100E0002163
:104FE00009B900BFFEE79DF8001001F05001224A08
:104FF00011700721214A116009E020490968491E02
:105000001E4A11609DF800104906090E00919DF896
:10501000001001F080018029EFD018490968C1F122
:105020000701042901D1012100E0002109B900BFD5
:10503000FEE7124909680902104A11601146098801
:1050400001F4E06111600B4A019911700C4800688D
:1050500040F470000A4908600846006840F070405B
:105060000860FFF7B7FD002006490860FBF766F807
:1050700000201CBD00E400E0C0000020C4000020AF
:1050800020ED00E0BC00002070B5044625460DB9B7
:1050900000BFFEE72846FEF79BFE0646304670BD81
:1050A0002DE9F84304460E469046B8F1010F08D1A9
:1050B0000127042C01D9012000E0002048B900BFDD
:1050C000FEE700270CB1012000E0002008B900BF76
:1050D000FEE7A64201D8012000E0002008B900BF89
:1050E000FEE706B9012604F12500844206D2641CBD
:1050F00004F12400FFF7E6F8054600E000253DB185
:105100003346224605F1240128460097FEF7ECFEBF
:105110002846BDE8F8832DE9F84F80468946934636
:105120001F4644464FF0000AB9F1000F01D100BFFD
:10513000FEE70CB900BFFEE7207F00F0010008B1D8
:10514000042600E0002647B3FFF7CCFC2046FEF71C
:105150003FFE0546B5420ED80021084600F02EFB62
:10516000206908B9012000E0002008B900BFFEE76F
:1051700000F0A8FB2061FFF7D7FCB54211D800234F
:105180001A4619461846009700F03EFB00202061A1
:105190002046FEF71DFE054603E02046FEF718FEFA
:1051A0000546B5421AD92B465A464946204600962E
:1051B000FEF7C4FF8246BAF1000F0FD0FFF7B6FE2C
:1051C000606948B100200090606900231A461946C2
:1051D00000F0A0F90020606100F014FC5046BDE82A
:1051E000F88F2DE9FF4F83B0804689469A464446A2
:1051F0004FF0000BB9F1000F01D100BFFEE70CB971
:1052000000BFFEE7207F00F0010008B1042600E0A7
:1052100000262046FEF7DCFD0546B54228D92B4680
:10522000009649462046059AFEF788FF8346BBF163
:10523000000F1DD000BF5021EFF3118081F31188C2
:10524000BFF34F8FBFF36F8F00BF0746606950B148
:105250000020CDE9000A606900231A46194600F0D3
:10526000F5F90020606100BF87F3118800BF00BF1F
:10527000584607B0BDE8F08F2DE9FF4F83B00646D2
:105280008B46174634464FF000093D46A068A0F112
:10529000010ABBF1000F01D100BFFEE70CB900BF4E
:1052A000FEE7207F00F0010068B12D1DBD4201D94D
:1052B000012000E0002008B900BFFEE7554505D9F0
:1052C0000020069002E0554500D95546069888B35F
:1052D00001A8FFF7D7FD00BFFFF704FC204600F050
:1052E000A0F88146A9450FD20021084600F066FAD1
:1052F000606908B9012000E0002008B900BFFEE79E
:1053000000F0E0FA606102E0FFF70EFC11E0FFF749
:105310000BFC069800231A4619460090184600F028
:1053200073FA0020606106A901A800F08DF800283A
:10533000D2D000BFB9F1000F03D1204600F071F8C0
:1053400081464B463A46594620460095FEF78CFF6B
:105350008046B8F1000F15D02046FEF739FDE16810
:1053600088420FD3FFF7E2FD206948B1002000908A
:10537000206900231A46194600F0CCF8002020616D
:1053800000F040FB404607B0BDE8F08F2DE9FE4F2E
:105390000746884691469A463C46CB46B8F1000FF0
:1053A00001D100BFFEE70CB900BFFEE7207F00F08F
:1053B000010008B10BF1040B204600F032F8029016
:1053C000CDF800B04A4641462046029BFEF74CFF0E
:1053D00005461DB32046FEF7FBFCE16888421DD35D
:1053E00000BF5021EFF3118081F31188BFF34F8F7D
:1053F000BFF36F8F00BF0646206950B10020CDE992
:10540000000A206900231A46194600F01FF90020FF
:10541000206100BF86F3118800BF00BF2846BDE8A9
:10542000FE8F10B50246114609B900BFFEE70C68B1
:105430008B6818194B68C01A401E8B68834201D8CC
:105440008B68C01A10BD000070B505460C460DB93A
:1054500000BFFEE70CB900BFFEE7FFF743FB1348B0
:10546000036868681A1A2068401C08B9002619E009
:105470000F4928680968884206D06868984203D8AE
:105480000126002020600DE02068904207D92068A6
:10549000801A20602846FFF7E9FC002602E0002081
:1054A00020600126FFF740FB304670BD90000020D1
:1054B000A40000202DE9FF4F85B08046894617469D
:1054C000DDE912ABB800FEF7FDFE064656B15820E6
:1054D000FEF7F8FE04460CB1266304E03046FFF701
:1054E00039FB00E000247CB10020CDE900ABCDE920
:1054F00002403A4649464046089BFEF717FD2046C3
:10550000FEF70AFC012501E04FF0FF35284609B0FF
:10551000BDE8F08F2DE9F05F07460D461646984628
:10552000DDF828A04FF0010B0DB9012000E00020AC
:1055300008B900BFFEE70FB900BFFEE73C46FFF722
:10554000D1FABAF1000F05D004F1500050F825004F
:10555000CAF8000004F1540010F8059002214155EA
:10556000B8F1050F29D2DFE808F027030D171C005A
:1055700004F1500050F82500304304F1500141F887
:10558000250024E004F1500050F82500401C04F1EF
:10559000500141F825001AE004F1500040F8256060
:1055A00015E0B9F1020F04D004F1500040F8256075
:1055B00001E04FF0000B0AE009E01F48006808B95D
:1055C000012000E0002008B900BFFEE700BF00BFD7
:1055D000B9F1010F2AD1201DFFF739FA94F82C10E8
:1055E0000120884015490968084314490860E16AA8
:1055F00001EB8101124A02EB8100211DFFF765FAE0
:10560000A06A08B9012000E0002008B900BFFEE749
:105610000C49E06A0968C96A884207D94FF080508E
:1056200009490860BFF34F8FBFF36F8FFFF77CFA14
:105630005846BDE8F09F0000900000209400002034
:10564000800100207C00002004ED00E02DE9F84FEF
:1056500080460D4617469946DDF828B00120009097
:10566000B8F1000F01D100BFFEE70DB9012000E045
:10567000002008B900BFFEE7FFF7C0FA444600BFAC
:105680005021EFF3118081F31188BFF34F8FBFF3E7
:105690006F8F00BF0646BBF1000F05D004F150002C
:1056A00050F82500CBF8000004F1540010F805A0D4
:1056B00002214155B9F1050F29D2DFE809F027038E
:1056C0000D171C0004F1500050F82500384304F178
:1056D000500141F8250024E004F1500050F8250065
:1056E000401C04F1500141F825001AE004F150007B
:1056F00040F8257015E0BAF1020F04D004F1500013
:1057000040F8257001E0002000900AE009E02448FC
:10571000006808B9012000E0002008B900BFFEE7DA
:1057200000BF00BFBAF1010F33D1A06A08B9012050
:1057300000E0002008B900BFFEE71A480068A8B9D9
:10574000201DFFF784F994F82C1001208840164999
:105750000968084314490860E16A01EB8101134AB2
:1057600002EB8100211DFFF7B0F904E004F11801FC
:105770000F48FFF7AAF90F49E06A0968C96A884229
:1057800007D90B9810B101210B98016001200A493B
:10579000086000BF86F3118800BF0098BDE8F88F4D
:1057A00090000020B800002094000020800100201C
:1057B0000C0200207C000020A00000202DE9F04118
:1057C00006460C460CB9012000E0002008B900BFD5
:1057D000FEE716B90B48006800E030460746FFF7C1
:1057E00081F907F15400005D022805D1002107F17D
:1057F00054000155012500E00025FFF795F92846E2
:10580000BDE8F0817C0000202DE9F04704460F46FA
:1058100090461D46DDF820900CB9012000E00020E4
:1058200008B900BFFEE7FFF75DF92448006854306F
:10583000005D02281AD021490968503101EB84002B
:105840000168B943016001211C48006854300155CA
:10585000B9F1000F0AD04846FEF712FA4FF0805017
:1058600017490860BFF34F8FBFF36F8FFFF75CF9E5
:10587000FFF738F92DB111480068503050F8240076
:1058800028600E4800685430005D022801D00026D0
:1058900009E00A490968503101EB8400016821EAF6
:1058A00008010160012600210448006854300155B8
:1058B000FFF73AF93046BDE8F08700007C00002091
:1058C00004ED00E001490868704700007C000020FA
:1058D0002DE9F0414FF000083F480068002873D1DF
:1058E0003E480068451C3D480560CDB93C4800680D
:1058F000006808B9012000E0002008B900BFFEE7F9
:1059000037480768374800683549086035480760F8
:1059100035480068401C34490860FEF733FC00BF7E
:105920003248006885423CD300BF2D4800680068BB
:1059300008B9012000E0002020B14FF0FF302B49D2
:1059400008602DE026480068C068C4686668B542F3
:1059500002D22648066023E0201DFFF778F8A06AEF
:1059600018B104F11800FFF772F894F82C10012018
:1059700088401F49096808431D490860E16A01EB36
:1059800081011C4A02EB8100211DFFF79EF81A4994
:10599000E06A0968C96A8842C7D34FF00108C4E7C2
:1059A00000BF15480068C06A00EB8000114951F83B
:1059B0002000012801D94FF001081048006808B103
:1059C0004FF0010805E0FFE70D480068401C0C4956
:1059D00008604046BDE8F081B8000020900000203B
:1059E0008000002084000020A4000020AC000020E3
:1059F00094000020800100207C000020A0000020F6
:105A00009C00002070B5002400263248006808B9C8
:105A100000BFFEE7FFF766F82E480068401E2D49DC
:105A200008600846006800284FD12B48006800280D
:105A30004BD024E02948C068C46804F11800FFF77F
:105A400006F8201DFFF703F894F82C100120884079
:105A500023490968084322490860E16A01EB810192
:105A6000204A02EB8100211DFFF72FF81E49E06A52
:105A70000968C96A884202D301201C490860174896
:105A8000006808B9012000E000200028D2D00CB145
:105A9000FEF778FB1648056865B100BFFFF718FFF1
:105AA00010B10120114908606D1E002DF6D10020B3
:105AB0000F4908600D48006838B1012630070D49CC
:105AC0000860BFF34F8FBFF36F8FFFF72DF830469D
:105AD00070BD0000B80000208C0000200C020020E7
