:020000040800F2
:10000000484B0020B1010008B92100081111000877
:10001000512100083D0A00083125000800000000B9
:1000200000000000000000000000000019010008AE
:10003000ED0E0008000000005D010008B12200087C
:10004000CB010008CB010008CB010008CB01000860
:10005000CB010008CB010008CB010008CB01000850
:10006000CB010008CB010008CB010008CB01000840
:10007000CB010008CB010008CB010008CB01000830
:10008000CB010008CB010008CB010008CB01000820
:10009000CB010008CB010008CB010008CB01000810
:1000A000CB010008CB010008CB010008CB01000800
:1000B000CB010008CB010008CB010008CB010008F0
:1000C000CB010008CB010008CB010008CB010008E0
:1000D000CB010008CD23000815240008CB0100083F
:1000E000890F0008CB010008CB01000800000000C8
:1000F0000000000000000000000000000000000000
:10010000CB010008DFF80CD000F04EFB00480047A0
:1001100031360008484B0020224B19680868B0E8C7
:10012000F00F80F30988BFF36F8F4FF0000080F36A
:1001300011884EF00D0E7047000000000648006860
:10014000006880F3088862B661B6BFF34F8FBFF3D3
:100150006F8F00DF00BF00BF08ED00E0EFF3098004
:10016000BFF36F8F0F4B1A6820E9F00F106008B5CE
:100170004FF0500080F31188BFF34F8FBFF36F8FA4
:1001800005F016F84FF0000080F31188BDE8084034
:1001900019680868B0E8F00F80F30988BFF36F8F23
:1001A000704700BF7C000020EFF30580704700001F
:1001B0000648804706480047FEE7FEE7FEE7FEE701
:1001C000FEE7FEE7FEE7FEE7FEE7FEE7E5220008C2
:1001D0000501000840EA01039B0703D009E008C9B4
:1001E000121F08C0042AFAD203E011F8013B00F8FC
:1001F000013B521EF9D27047D2B201E000F8012B48
:10020000491EFBD270470022F6E710B513460A4696
:1002100004461946FFF7F0FF204610BD421C10F8B7
:10022000011B0029FBD1801A7047034611F8012BEE
:1002300000F8012B002AF9D1184670472DE9FE4F2E
:10024000804681EA0300C00F0C46009021F0004177
:1002500023F00045B8EB0200A94105D240462146F3
:1002600090461C460B46024623F00040104347D000
:10027000270DC7F30A00C3F30A510290401A0190F8
:1002800040286BDAC3F3130040F4801B00989246B9
:1002900020B10023D2EB030A63EB0B0B0198594604
:1002A000C0F14002504600F0B9F906460D465046EE
:1002B0005946019A00F0D1F910EB08006141002481
:1002C00087EA115284EAE7731A4340D0009A62B376
:1002D000019A012A4FEA075215DC001B61EB02016B
:1002E0004FF0004202EA0752CDE90042001C41F5FE
:1002F000801132462B4600F008FA03B0BDE8F08FBB
:1003000040462146F9E7001B61EB0201001C41F564
:10031000801300185B412018A2F5001747EB03017A
:1003200040EAD570B6196D4111E06D084FEA360606
:1003300045EAC0754FEA0752001B61EB0201001C41
:1003400041F5801149084FEA300000195141324609
:100350002B4603B0BDE8F04F00F0C8B90098012269
:1003600040000023D0EB020263EBE07300982146CB
:100370004FEAE074B8EB000061EB0401E9E783F0B9
:1003800000435BE781F0004158E72DE9FE4F81EA29
:10039000030404F0004421F0004100944FF0000BEE
:1003A00023F0004350EA01045ED052EA03045BD01C
:1003B000C3F30A54C1F30A552C44A4F2F334019454
:1003C000A0FB0254C1F3130141F48011C3F31303E2
:1003D00043F4801301FB024400FB034E840A970A96
:1003E00044EA815447EA8357A4FB076802958D0AC3
:1003F00005FB07854FEA932C04FB0C542705029D4F
:100400004FEA065847EA1637B5EB08056EEB070CBE
:10041000870E920E47EA811742EA8312A7FB020178
:10042000B6EB0B0164EB00042B0D43EA0C335E18B2
:1004300044EB1C50DA465146E7FB0201C5F31304B6
:100440004FEA0B3343EA14534FEA0432019C43EA68
:100450000603A4F10C040294009CCDE900B400F062
:1004600054F903B0BDE8F08F00200146F9E72DE90B
:10047000F04D81EA030404F0004B21F000451446DE
:100480004FF0000A23F0004150EA050220D054EA60
:1004900001021DD0C5F30A570246C5F31303C1F389
:1004A0001300C1F30A5640F4801543F48013A7EB00
:1004B0000608101BD64608F2FD3873EB050002D380
:1004C00008F1010801E092185B41B8F1000F03DA6E
:1004D00000200146BDE8F08D00204FF48011064653
:1004E00084460EE0171B73EB050705D3121B63EB65
:1004F000050306434CEA010C49084FEA3000921804
:100500005B4150EA0107EDD152EA030012D082EAC2
:10051000040083EA0501084305D0101BAB4106D255
:100520000122002306E000224FF0004302E06FF0BA
:10053000010253101AEB06004CEB085110EB0A00B5
:1005400041EB0B01BDE8F04D00F0D0B8962300223E
:10055000114600F09DB870B5C1F30A5201F0004594
:100560000024C1F3130140F2FF3341F480119A4299
:1005700001DA002070BD40F233439A42A2F23342C6
:1005800003DC524200F059F800E090402C43F1D0D7
:10059000404270BD00F0004230F000400AD0C10D72
:1005A00001F56071C0F3160042EA0151C20840072C
:1005B000114370470020014670472DE9F05F054662
:1005C000002092469B4688460646814640241BE012
:1005D000284641464746224600F02FF853465A46E1
:1005E000C01A914110D311461846224600F016F861
:1005F0002D1A67EB01084F4622460120002100F02A
:100600000DF817EB00094E41201EA4F10104DFDCB8
:10061000484631462A464346BDE8F09F202A04DB7F
:10062000203A00FA02F1002070479140C2F1200305
:1006300020FA03F3194390407047202A04DB203A44
:1006400021FA02F00021704721FA02F3D040C2F1F2
:1006500020029140084319467047202A06DBCB1739
:10066000203A41FA02F043EAE07306E041FA02F36D
:10067000D040C2F12002914008431946704700293A
:10068000A8BF7047401C490008BF20F00100704718
:1006900010B4B0FA80FC00FA0CF050EA010404BF78
:1006A00010BC704749B1CCF1200421FA04F411FACE
:1006B0000CF118BF012121430843A3EB0C01CB1D12
:1006C0004FEA00614FEA102042BF002010BC704783
:1006D00000EBC35010440029A4BF10BC7047401C5D
:1006E000490008BF20F0010010BC704710B5141E6F
:1006F00073F1000408DA401C41F1000192185B41DB
:100700001A4301D120F0010010BD2DE9F04D9246B1
:100710009B4611B1B1FA81F202E0B0FA80F22032C8
:100720009046FFF77BFF04460F4640EA0A0041EA85
:100730000B0153465A46084313D0114653EA0100B1
:1007400019D0C8F140025046FFF777FF05460E4624
:10075000504659464246FFF761FF084305D0012045
:1007600004E020463946BDE8F08D0020054346EA06
:10077000E0762C4337430A986305E40AA0EB0800AF
:100780000022FD0A44EA47540A3002D500200146FF
:10079000E9E7010510196941DDE9084500196941DA
:1007A000BDE8F04DA2E70000064C074D06E0E0680A
:1007B00040F0010394E8070098471034AC42F6D3A8
:1007C000FFF7A4FC705E0008905E000810B540F2D0
:1007D000096003F009FF032003F050FE002002F03F
:1007E0008BF900224FF48071184802F0FCF90022C6
:1007F0000221164802F0F7F901221146134802F0CF
:1008000030F90021114802F021F9012211460F4868
:1008100002F0F9F802F014FA0523102200210B4827
:1008200002F078F94FF460220121084802F048F9FB
:10083000064802F03CF9012004F094FA034802F063
:10084000CDF80121014802F0BFF910BD002401409C
:100850001FB50446474903C9CDE9020120788DF848
:10086000090000208DF80A0020783238112863D260
:10087000DFE800F02762090E13621B2D2E373F427E
:10088000464B4E5D5E006078012102F0CFFD64E0D2
:100890006078002102F0CAFD5FE0607810B100F0DE
:1008A00081FB01E000F050FB57E0607820B10121AE
:1008B000282002F0BBFD03E00021282002F0B6FD55
:1008C0004BE0607802F0C6FB8DF80A0045E044E09A
:1008D00002F0BAFB642190FBF1F0C0B28DF80A007F
:1008E0003BE0607810B102F0E1FC01E002F0BCFCFA
:1008F00033E002F009FD30E0607802F07BFD2CE08F
:1009000002F046FD8DF80A0027E002F063FD24E0C6
:1009100019A005F017F948B9002004210346502218
:10092000CDE9001014A1164804F0FEFE15E014E015
:10093000607801F021FC10E0FF208DF80A0000BF74
:10094000104B4FF4867210A117A001F007FE21781A
:100950001EA001F003FE00BF00BF00BF032102A8DC
:1009600000F06EF88DF80B00042102A800F0BCF82E
:100970001FBD0000485E00086C7439323131000040
:100980004D1A0008385E00087372635C75617274FA
:100990005F636F6E6563745F6370755F68616E64DB
:1009A0006C65722E630000003C3C46696C653A251C
:1009B0007320204C696E653A2564202046756E636D
:1009C00074696F6E3A25733E3E2000006572726F47
:1009D000723A2063707520756172742073656E645D
:1009E00020756E6B6F776E20636D64212120636DBF
:1009F00064203D202523780D0A00000010B54FF437
:100A0000407003F04DF84FF4C06003F0EDFD01219C
:100A1000094802F0DFFB00F035FB4FF4E13000F055
:100A2000D9F902F0BBFC02F06BFD01F045FB03209D
:100A300001F0DAFB10BD00000002300000BFFEE74D
:100A400010B502460B460021002004E0545C04442B
:100A5000E0B24C1CE1B29942F8DB10BD10B50022A7
:100A600011460248006804F015FA10BD2400002069
:100A70001CB500200090064803F03AFFC0B2019078
:100A80006B46012201A90348006804F0B9FD1CBDB2
:100A900000440040200000201CB5002000901048B9
:100AA000006804F02BFC04462CB940F207310D48D5
:100AB00003F094FF1CBD6B46012201A908480068A1
:100AC00004F0C9FC28B19DF80410012001F0E8FCF5
:100AD00004E040F20731034803F080FF00BFE9E77C
:100AE0001C0000200044004070B505460E4600245E
:100AF00004E0285D01F01EFD601CC4B2B442F8DBC6
:100B000070BD000010B50446A4F13000082805D2DD
:100B1000DFE800F00A15191D20262A2B17A002F085
:100B200099F800F085F800BF1B48006802F092F8C1
:100B30001AA002F08FF81AA002F08CF81BE021A096
:100B400002F088F817E024A002F084F813E003F024
:100B50002DFC10E024A002F07DF800F0E8FD0AE092
:100B600026A002F077F806E005E02BA002F072F86C
:100B700002F030FC00BF00BF10BD00004552524FD4
:100B8000523A20436F6D6D616E6420556E6B6E6FCF
:100B900077200D0A00000000000000200D0A000070
:100BA000417574686F723A4A432644615A686920F5
:100BB0003C76783A3238353430383133363E0D0AA7
:100BC00000000000675F6C63645F70776D203D20FC
:100BD0003130300D0A000000675F6C63645F70772E
:100BE0006D203D20300D0A007265736574204C4302
:100BF00044202620393231310D0A000057617463D8
:100C00006820446F6720537461747573203A206FB5
:100C100066660D0A00000000726573657420636FDC
:100C2000726520626F61726421210D0A000000006C
:100C300010B50FA002F00EF811A002F00BF818A0EA
:100C400002F008F824A002F005F831A002F002F842
:100C500035A001F0FFFF3AA001F0FCFF41A001F038
:100C6000F9FF48A001F0F6FF4CA001F0F3FF10BD22
:100C70000D0A446562756720636D643A0D0A0000D1
:100C8000302E207072696E742050726F6772616DC1
:100C9000206275696C642074696D650D0A0000003E
:100CA000312E203720696E6368206C6364205057B2
:100CB0004D20696E6372656163652835696E63688E
:100CC000206C636420686173206E6F2065666665C2
:100CD0006374290D0A000000322E203720696E63EC
:100CE00068206C63642050574D20646563726561B1
:100CF00063652835696E6368206C6364206861737E
:100D0000206E6F20656666656374290D0A00000019
:100D1000332E207072696E74206D79207461736B4C
:100D20005F696E666F0D0A00342E207265736574FC
:100D3000204C4344202620393231310D0A00000076
:100D4000352E207072696E7420486172642057617C
:100D500074636820446F67205374617475730D0A5F
:100D600000000000362E207072696E74204D63758D
:100D700020696E7465726E616C5F74656D700D0ACA
:100D800000000000372E20726573657420636F7257
:100D90006520626F61726421210D0A006F746865BD
:100DA000722E207072696E742068656C700D0A0076
:100DB00008B50CE04FF0FF33012269460448006893
:100DC00004F0E3FA18B19DF80000FFF79BFEF1E78D
:100DD0000C00002010B504464FF4E131002002F071
:100DE000B7F800220121402004F094FA0449086079
:100DF00000220121402004F08DFA0249086010BD54
:100E0000080000200C00002008B504254FF0000861
:100E10004FF4E13000F050F84AE04FF0FF32114655
:100E2000002003F0D1FC00BF2248006804F066FAFD
:100E30000646AE4200D23AE0C5F1040000F0FF08D9
:100E40000DEB080100232A461A48006804F09DFAB9
:100E500040B39DF80000A52809D10421684601F09F
:100E600054FB20B90DF10100FFF7F2FC1BE0012457
:100E700005E01DF80400A52800D102E0641C042C44
:100E8000F7D300BF042C0BD0E5B2002705E01DF816
:100E900004000DF80700641C7F1C042CF7D302E04B
:100EA000042500E003E0A8EB05000428BCDA00BF3D
:100EB000B3E700002000002010B5044621460120C1
:100EC00002F046F800220121102004F023FA05491F
:100ED000086000220C21102004F01CFA024908606E
:100EE00010BD00001C000020200000207047000002
:100EF000F0B5034600224FF0E0277D69104F3F68B0
:100F0000DFF840C0B7FBFCF7FEB203FB06F44FF07E
:100F1000E027B96910E04FF0E027B86988420BD0AC
:100F2000884202D20F1A3A4402E02F1A0F443A4480
:100F30000146A24200D300E0EDE700BFF0BD000093
:100F4000E800002040420F0010B507480288022147
:100F5000064803F01CFC642003F004FF034803F080
:100F600029FC00F005F810BD5C000020002C0140B9
:100F700010B501F097F84FF48041024802F078F87C
:100F800010BD0000000C014010B54FF4805001F07E
:100F9000C5FF28B14FF4805001F0BAFF01F038FFCF
:100FA00010BD000010B500F01DF8642003F0DAFE5B
:100FB0000A49097809B9462101E00849097848B287
:100FC00001F084F8642003F0CDFE054803F0F7FB40
:100FD000642003F0C7FE00F005F810BD5E0000209D
:100FE000002C014010B501F067F84FF48041024831
:100FF00002F040F810BD0000000C01402DE9F05F48
:101000000221102001F0BAF983465846FFF79EFAF4
:101010008046FFF7BFFA06464FF06632124BFFF7E5
:10102000B4F904460D4622462B4610481049FFF7F6
:10103000A6F980460F4A104BFFF719FA0646002220
:101040000E4BFFF7FBF804460D4600220C4B2046E2
:101050002946FFF79AF90646FFF77DFA0FFA80FA5C
:101060005046BDE8F09F000066664A3FE17A14AE44
:1010700047E1F63F22FDF675E09C713F00002440F9
:101080000000594010B501F065F802F0A1FA01F036
:1010900095F800F0F3FF10BD38B50446002000902D
:1010A00001226946204600F007F810B19DF80000C3
:1010B00038BD0020FCE70000F8B504460D46164692
:1010C0002B462246064800960178002000F0C0F921
:1010D00008B9012000E0002007463846F8BD0000AE
:1010E0004100002033B581B00446012002AB224606
:1010F000009006480178002000F0D8F908B90120D6
:1011000000E00020054628463EBD000041000020CA
:1011100000BFFEE710B504460021204600F066FA45
:10112000204601F0A7F80021204600F08BFA0420A9
:10113000FFF7DEFE0121204600F058FA0620FFF7F7
:10114000D7FE0021204600F051FA0320FFF7D0FE21
:1011500010BD000070B5054640F2036003F044FA8C
:10116000012D02D14FF4406405E0022D02D14FF46D
:10117000407400E0C024234602221021054801F0FB
:10118000C7FF0121284600F031FA0121284600F06E
:1011900059FA70BD000C014010B5044600212046EC
:1011A00000F024FA204601F065F80121204600F005
:1011B00049FA0420FFF79CFE0121204600F016FAB0
:1011C0000620FFF795FE0021204600F00FFA0320CD
:1011D000FFF78EFE10BD2DE9F04107460D460024B5
:1011E0000021384600F002FA384601F025F80320C5
:1011F000FFF77EFE00261EE00021384600F0F6F9DB
:101200000520FFF775FE0121384600F0EFF9600672
:10121000040E0420FFF76CFE384600F0F5FF08B11D
:10122000601CC4B20420FFF763FE0021384600F0C2
:10123000DDF9701CC6B2082EDEDB1DB93846FFF79B
:10124000ABFF02E03846FFF765FF2046BDE8F081BE
:1012500070B506460C460021304600F0C7F930460E
:1012600001F008F800251CE00320FFF741FE04F020
:101270008001304600F0E6F96006040E0420FFF716
:1012800037FE0121304600F0B1F90620FFF730FEAD
:101290000021304600F0AAF90320FFF729FE681C60
:1012A000C5B2082DE0DB70BD10B50446204600F045
:1012B000E1FF0121204600F0C5F90121204600F0A0
:1012C00095F90620FFF714FE0021204600F0BAF938
:1012D0000620FFF70DFE0021204600F087F910BD23
:1012E00010B504460021204600F080F9204600F0A9
:1012F000C1FF0021204600F0A5F90620FFF7F8FD08
:101300000121204600F072F90320FFF7F1FD0121D1
:10131000204600F097F90620FFF7EAFD10BD70B5F2
:10132000054600240021284600F060F90320FFF75D
:10133000DFFD0121284600F085F90320FFF7D8FDE5
:10134000284600F079FF0121284600F04FF90320DC
:10135000FFF7CEFD0BE0601CC4B2FA2C04DD28467A
:10136000FFF7BEFF012070BD0120FFF7C1FD284639
:1013700000F04AFF0028EED10021284600F036F99F
:101380000320FFF7B5FD0020EDE7000010B504468F
:101390000120A04008490978084000B110BD20464E
:1013A000FFF7D8FE0120A04003490978084302490D
:1013B000087000BFF2E70000100000202DE9F041A6
:1013C00080460F4615461E4603F0EAFE4046FFF7EC
:1013D0006BFF47F001014046FFF73AFF4046FFF739
:1013E0009EFF50B104F090FC11A001F033FC404688
:1013F000FFF776FF0220BDE8F08100240FE0701EA9
:10140000A04205D100214046FFF7E5FE285504E043
:1014100001214046FFF7DFFE2855601CC4B2B442EC
:10142000EDDB4046FFF75CFF04F06EFC0020E2E7D6
:101430004552524F523A4949435F576169745F417F
:10144000636B28696E64657829213D20300D0A00A0
:101450002DE9F84306460F4690461C46DDF82090DD
:1014600000200346424639460090304600F01EF800
:101470000546FF2D07D14B46224639463046FFF739
:101480009DFFBDE8F88302A001F0E4FB2846F8E7E1
:101490004552524F523A204969634170705F57720A
:1014A0006974655F42797465730D0A002DE9F04730
:1014B00081460D4616461F46DDF8208003F070FE7B
:1014C0004846FFF7F1FE05F0FE014846FFF7C0FE73
:1014D0004846FFF724FF50B104F016FC20A001F0AD
:1014E000B9FB4846FFF7FCFE0220BDE8F087314615
:1014F0004846FFF7ADFE4846FFF711FF48B104F03C
:1015000003FC23A001F0A6FB4846FFF7E9FE0320F9
:10151000EBE7B8F1000F03D104F0F6FBFF20E4E79E
:10152000002413E0395D4846FFF792FE4846FFF776
:10153000F6FE48B104F0E8FB21A001F08BFB484621
:10154000FFF7CEFE0420D0E7601CC4B24445E9DBBF
:101550004846FFF7C5FE04F0D7FB0020C5E70000B2
:101560004552524F523A2073656E64206465765F2F
:1015700061646472204949435F576169745F4163E4
:101580006B28696E64657829213D20300D0A0000C2
:101590004552524F523A2073656E6420776F7264E1
:1015A0005F61646472204949435F576169745F41B8
:1015B000636B28696E64657829213D20300D0A002F
:1015C0004552524F523A2073656E642064617461D3
:1015D000204949435F576169745F41636B28696EB5
:1015E00064657829213D20300D0A000070B505465C
:1015F0000C46012D0BD124B18102114801F03AFDB6
:101600001DE04FF480610E4801F032FD17E0022D1D
:101610000BD124B1E9010A4801F02CFD0FE04FF491
:101620008071074801F024FD09E024B140210448FD
:1016300001F020FD03E04021014801F019FD70BDDB
:10164000000C014070B505460C46012D0BD124B1AC
:10165000C102114801F00EFD1DE04FF400610E487B
:1016600001F006FD17E0022D0BD124B129020A4832
:1016700001F000FD0FE04FF40071074801F0F8FCA5
:1016800009E024B18021044801F0F4FC03E080214A
:10169000014801F0EDFC70BD000C0140FFF796F829
:1016A00007E0FFF7ABFC034908804FF47A7003F0C2
:1016B00059FBF6E760000020704710B58621FF2037
:1016C000FFF710FD01210020FFF70CFD4FF496708D
:1016D00003F048FB00240820FFF7DEFC00F00F04B5
:1016E00024020920FFF7D8FC044424020A20FFF753
:1016F000D3FC04448621FF20FFF7F4FC0A210020DC
:10170000FFF7F0FC4FF4967003F02CFB0024082048
:10171000FFF7C2FC00F00F0424020920FFF7BCFC15
:10172000044424020A20FFF7B7FC044410BD10B59E
:1017300001F03CFF00F09CF900F002F810BD000041
:1017400010B517A001F086FAFFF7B6FF00F0EAF92E
:101750000A2003F007FB00F025F900F005F900F07E
:1017600013FA00F065F90A2003F0FCFA00F03AF8E9
:101770000A2003F0F7FA00F0E7FA00F097FA00F019
:1017800049FA0A2003F0EEFA01F040FF01F034FFBD
:101790000A2003F0E7FAFFF790FF00F069FB10BDA5
:1017A0000D0A204C54393231315F6D6970692074F3
:1017B0006F2054544C0D0A0010B50020FFF7E6FDD1
:1017C00040F2066002F010FF02231A46102104487E
:1017D00001F09EFC0221024801F04AFC10BD00000D
:1017E0000018014070B5D021FF20FFF77BFC60217D
:1017F0000C20FFF777FC60211C20FFF773FC7021A1
:101800002420FFF76FFC30212D20FFF76BFC0A210D
:101810003120FFF767FCF0212520FFF763FC302122
:101820002A20FFF75FFC4F212120FFF75BFC0021FE
:101830002220FFF757FC01211E20FFF753FC8021D7
:101840002320FFF74FFC02210A20FFF74BFC022167
:101850003820FFF747FC04213920FFF743FC08211B
:101860003A20FFF73FFC10213B20FFF73BFC04210F
:101870003F20FFF737FC08214020FFF733FC102101
:101880004120FFF72FFC20214220FFF72BFCA02155
:101890002B20FFF727FCD021FF20FFF723FC262079
:1018A000FFF7FAFB044604F07F0421462620FFF7E9
:1018B00019FC0F212720FFF715FC8121FF20FFF7DE
:1018C00011FCBF212020FFF70DFCFF212020FFF796
:1018D00009FC052003F046FA6F210B20FFF702FCFC
:1018E000FF210B20FFF7FEFB4FF4487003F03AFA9C
:1018F000002515E0C82003F035FAD021FF20FFF7BE
:10190000F1FB8720FFF7C8FB00F0080018B10AA020
:1019100001F0A0F906E00DA001F09CF9681CC5B229
:101920000A2DE7DB00BFD021FF20FFF7DBFB94206F
:10193000FFF7B2FB70BD00000D0A4C543932313153
:101940002070637220737461626C65000D0A4C54E0
:10195000393231312070637220756E737461626C3C
:10196000652121212100000010B58621FF20FFF70D
:10197000B9FB85213020FFF7B5FBD821FF20FFF709
:10198000B1FB00211620FFF7ADFBD021FF20FFF7B0
:10199000A9FB12214320FFF7A5FB05210220FFF739
:1019A000A1FB10BD10B5D021FF20FFF79BFB00214C
:1019B0000846FFF797FB8221FF20FFF793FB4421A6
:1019C0000220FFF78FFB36210520FFF78BFB262136
:1019D0000D20FFF787FB0C211720FFF783FB0C215D
:1019E0001D20FFF77FFB81210A20FFF77BFB0021F1
:1019F0000B20FFF777FB9F210720FFF773FBFC21EC
:101A00000820FFF76FFB01210920FFF76BFB012185
:101A10001120FFF767FB8621FF20FFF763FB1B21E7
:101A20003320FFF75FFB1B213420FFF75BFB10BD6A
:101A300010B58221FF20FFF755FB48212D20FFF72D
:101A400051FB82213520FFF74DFB10BD10B5044638
:101A5000FFF7B2FE0A2003F085F9FFF768FE4FF4A6
:101A60007A7003F07FF9002003F0A0F910BD0000A8
:101A700010B50221064801F0FBFA642003F072F968
:101A80000221034801F0F6FA642003F06BF910BD5F
:101A90000018014010B50446642003F063F9D0211A
:101AA000FF20FFF71FFB608A01120D20FFF71AFBD2
:101AB000A17C0E20FFF716FB208A01120F20FFF7F2
:101AC00011FB217C1020FFF70DFB217B1520FFF778
:101AD00009FB608901121720FFF704FBA17A182087
:101AE000FFF700FB208901121120FFF7FBFA217A92
:101AF0001220FFF7F7FAE08801121320FFF7F2FA3D
:101B0000A1791420FFF7EEFAA1781620FFF7EAFA80
:101B1000208801121920FFF7E5FA21781A20FFF733
:101B2000E1FA10BD10B58221FF20FFF7DBFA182182
:101B30000120FFF7D7FA8621FF20FFF7D3FA6121B2
:101B40000620FFF7CFFAA8210720FFF7CBFA87215D
:101B5000FF20FFF7C7FA08211420FFF7C3FA00217E
:101B60001520FFF7BFFA0F211820FFF7BBFA082155
:101B70002220FFF7B7FA00212320FFF7B3FA0F2145
:101B80002620FFF7AFFA10BD2DE9F04100274FF4F2
:101B9000FA7003F0E7F8D021FF20FFF7A3FA8320C3
:101BA000FFF77AFA80468220FFF776FA08EB0020EA
:101BB00084B2032094FBF0F084B28420FFF76CFA27
:101BC00000F00F068620FFF767FA80468520FFF7B2
:101BD00063FA08EB002085B29C20FFF75DFA074608
:101BE000642003F0BFF80120044908700448FFF79F
:101BF00051FF04A001F02EF8BDE8F0814000002064
:101C00004400002031303234783630305F3630488E
:101C10007A0D0A0010B51EA001F01CF88521FF20E6
:101C2000FFF760FA40215920FFF75CFAAA215A20F9
:101C3000FFF758FAAA215B20FFF754FA00215C2035
:101C4000FFF750FA50218820FFF74CFA7721A120A6
:101C5000FFF748FA8621FF20FFF744FA40210846A3
:101C6000FFF740FA34214120FFF73CFA10214220CF
:101C7000FFF738FA23214320FFF734FA41214420AB
:101C8000FFF730FA02214520FFF72CFA10BD0000C3
:101C90000D4C54393231312073657420746F204FEC
:101CA00055545055545F4C564453000010B5822192
:101CB000FF20FFF717FA00216220FFF713FA08212F
:101CC0003B20FFF70FFA92213E20FFF70BFA482145
:101CD0003F20FFF707FA31214020FFF703FA802168
:101CE0004320FFF7FFF900214420FFF7FBF9002113
:101CF0004520FFF7F7F900214920FFF7F3F901210B
:101D00004A20FFF7EFF900214E20FFF7EBF9002101
:101D10004F20FFF7E7F900215020FFF7E3F90021FA
:101D20005320FFF7DFF901215420FFF7DBF9812170
:101D3000FF20FFF7D7F979212020FFF7D3F9FF2102
:101D40002020FFF7CFF910BD10B58221FF20FFF74B
:101D5000C9F901213620FFF7C5F929213720FFF7FE
:101D6000C1F906213820FFF7BDF930213920FFF7EE
:101D7000B9F98E213A20FFF7B5F98121FF20FFF74D
:101D8000B1F9F7212020FFF7ADF9FF212020FFF75F
:101D9000A9F98721FF20FFF7A5F914213720FFF7C4
:101DA000A1F900211320FFF79DF980211320FFF7EF
:101DB00099F9642002F0D6FF00241FE08721FF205C
:101DC000FFF790F91F20FFF767F900F0800080B15E
:101DD0002020FFF761F900F0800018B10BA000F09F
:101DE00039FF02E00FA000F035FF15A000F032FF30
:101DF00006E00CA000F02EFF601CC4B20A2CDDDB54
:101E000000BF16A000F026FF10BD00004C54393270
:101E1000313120747820706C6C206C6F636B0D0A0C
:101E2000000000004C543932313120747820706C3D
:101E30006C20756E6C6F636B65640D0A00000000AA
:101E40004C543932313120747820706C6C206361CD
:101E50006C20646F6E650D0A0000000020737973BA
:101E600074656D20737563636573730D0A000000FC
:101E700010B58621FF20FFF735F97020FFF70CF928
:101E800004467120FFF708F9574908807220FFF7D0
:101E900003F9564908807320FFF7FEF85349097883
:101EA00000EB0120514908807420FFF7F5F85049F4
:101EB00008807520FFF7F0F84E4908807620FFF77C
:101EC000EBF84D4908807720FFF7E6F84A49097892
:101ED00000EB0120484908807820FFF7DDF84749EA
:101EE00008807920FFF7D8F84449097800EB0120F1
:101EF000424908807A20FFF7CFF8414908807B20CB
:101F0000FFF7CAF83E49097800EB01203C490880F8
:101F10007C20FFF7C1F83B4908807D20FFF7BCF823
:101F20003849097800EB0120364908807E20FFF708
:101F3000B3F8354908807F20FFF7AEF832490978B9
:101F400000EB0120304908808020FFF7A5F82F49D9
:101F500008808120FFF7A0F82C49097800EB0120C8
:101F60002A4908801022214629A000F081FE0A2279
:101F7000224801882BA000F07BFE0A221B48018822
:101F80002AA000F075FE0A221B48018829A000F053
:101F90006FFE0A221D48018828A000F069FE0A226F
:101FA0001848018827A000F063FE0A221148018822
:101FB00027A000F05DFE0A220B48018826A000F051
:101FC00057FE0A220A48018825A000F051FE0A2285
:101FD0000D48018824A000F04BFE0A220848018821
:101FE00023A000F045FE10BD32000020300000208C
:101FF000360000203E000020340000203C0000207D
:102000003A000020380000202E0000202C00002084
:1020100073796E635F706F6C6172697479203D20B3
:1020200000000000686670203D2000006873203DBD
:1020300020000000686270203D2000006861637429
:10204000203D200068746F74616C203D200000000A
:10205000766670203D2000007673203D2000000051
:10206000766270203D20000076616374203D200080
:1020700076746F74616C203D2000000010B540F252
:10208000066002F0B1FA4FF4004302221021044826
:1020900001F03EF84FF40041014800F0E9FF10BDA7
:1020A0000018014010B54FF40041024800F0E0FF75
:1020B00010BD00000018014010B54FF40041024867
:1020C00000F0D8FF10BD00000018014070B50446B4
:1020D000642C01DD642402E0002C00DA00240849AD
:1020E0000C70C4F16400074909884843642190FBDF
:1020F000F1F52A460221044802F049FB70BD0000B8
:102100005E0000205C000020002C014010B5102172
:10211000014800F0AFFF10BD000C014010B51021C8
:10212000014800F0A5FF10BD000C014010B540F2C1
:10213000036002F059FA102302221946034800F006
:10214000E7FF1021014800F093FF10BD000C014093
:1021500000BFFEE710B540F2056002F045FA4023EB
:1021600002221021034800F0D3FF4021014800F073
:102170007FFF10BD0014014010B5044606A000F01A
:1021800069FD24B140210B4800F074FF03E04021B9
:10219000084800F06DFF10BD4D696343746C5F43E8
:1021A0006F6E74726F6C5F4F7574486967680D0A63
:1021B00000000000001401407047000010B540F21C
:1021C000046002F011FA0F2302221021054800F0EA
:1021D0009FFF0421034800F04BFF0B21014800F052
:1021E00049FF10BD0010014010B50446002C08DD69
:1021F000052C06DA601E012202FA00F1014800F007
:1022000039FF10BD0010014010B50446012C04D167
:10221000C102084800F0D2FF10BD022C04D12102F7
:10222000044800F0CBFFF7E78021024800F0C6FF2A
:10223000F2E70000000C014010B50446012C06D165
:10224000C302022248210A4800F062FF0EE0022C7D
:1022500006D1230202224821054800F059FF05E07B
:10226000802302224821024800F052FF10BD0000E6
:10227000000C014010B50446012C06D1C302022215
:1022800010210A4800F044FF0EE0022C06D1230280
:1022900002221021054800F03BFF05E080230222C6
:1022A0001021024800F034FF10BD0000000C014076
:1022B00010B500BF502080F31188BFF34F8FBFF3DC
:1022C0006F8F00BF03F086FC18B14FF080500449B7
:1022D000086000BF002080F3118800BF10BD00001F
:1022E00004ED00E010B51448006840F00100124908
:1022F000086008464068114908400F494860084690
:1023000000680F4908400C4908600846006820F43E
:1023100080200860084640680A490840064948602D
:102320000846006806490840034908604FF41F004A
:10233000886002F015FA10BD001002400C00FFE8A2
:10234000FFFFF6FEFFFF00F770B5044600250221EF
:10235000094800F0CDFB084800F032FC0546052393
:1023600022460021044800F0D5FB0121024800F07C
:102370002BFC284670BD0000002401402DE9F041EF
:1023800007460C460025002608E03846FFF7DCFF2C
:102390000544052002F0E6FC701CC6B2A642F4DB40
:1023A000B5FBF4F080B2BDE8F081FFF7BFFE00BFDF
:1023B0000BE0FFF7B3FE4FF4FA7002F0D3FCFFF727
:1023C000A5FE4FF4FA7002F0CDFCF2E710B5002440
:1023D0000D490E4802F029FB30B10B490B4802F0C1
:1023E00017FB00F0DFF80DE00949084802F01DFB7B
:1023F00030B10749054802F00BFB00F099FC01E001
:1024000000F070FA10BD000005030500003801401F
:102410000703070010B51D491D4802F006FB88B1EF
:102420001A491B4802F0F4FAFEF722FB194800781B
:1024300050BB4FF44171164802F0DDFA01201549F6
:10244000087021E01449124802F0EFFA30B1124945
:102450000F4802F0DDFAFEF71FFB15E00F490C48AC
:1024600002F0E3FA80B1FEF7F9FA0C49084802F0ED
:10247000CFFA0848007838B14FF44171044802F0AF
:10248000ADFA00200349087010BD000005030500E7
:102490000044004028000020070307000403040054
:1024A0007CB504460D460E4903C9CDE90001012C57
:1024B00000DD7CBD0120A0400A490978084060B1D8
:1024C00000BF5DF82400072102F069FA0028F8D067
:1024D0005DF82400294602F010FA00BFE9E7000089
:1024E000285E0008040000202DE9F04107460D4653
:1024F0001646002405E0295D3846FFF7D1FF601C31
:10250000C4B2B442F7DBBDE8F081F0B504460D4635
:102510004FF0FF370CB93846F0BD681E265CC1B2DB
:102520002046FEF78DFAB04200D100273846F3E787
:1025300000BFFEE731B50A240A2301226946054897
:10254000006802F0D3FF40F20731034802F053FA6B
:10255000009838BD1C000020004400400FB4054B1B
:1025600010B503A9044A029800F056F810BC5DF8B3
:1025700014FB0000412F0008EC0000200FB4084BB2
:1025800010B504A902AA039800F046F8044602A96F
:10259000002000F0A1F9204610BC5DF814FB0000FB
:1025A000D92800081CB5084802F0A2F9C0B2019071
:1025B000002000906B46012201A90448006803F046
:1025C0001FF89DF804001CBD003801400C000020DD
:1025D00031B50A240A23012269460548006802F041
:1025E00085FF40F20731034802F005FA009838BD34
:1025F000080000200038014002E008C8121F08C18E
:10260000002AFAD170477047002001E001C1121F73
:10261000002AFBD1704700002DE9FF4F8DB09B468B
:102620000F460446002606E025280BD05A460F998F
:102630009047641C761C20780028F5D111B03046F4
:10264000BDE8F08F0025A8460122984900E0054327
:1026500014F8013F203B02FA03F00842F7D120783A
:102660002E2817D114F8010F45F004052A280ED0A2
:102670006FF02F022078A0F1300109290AD808EB69
:10268000880102EB410100EB0108641CF2E757F8F6
:10269000048B641C20786C280DD004DC4C2812D0EC
:1026A0006A2811D104E074280DD07A280CD10AE0F0
:1026B00045F4001507E0617845F48015814202D1A8
:1026C000641C05F58015641C2278692A45D008DC55
:1026D000002AB3D0582A69D0632A10D0642A08D1BE
:1026E0003BE0702A67D0732A13D0752A5CD0782A11
:1026F0005CD010465A460F999047761CD3E017F8E5
:10270000040B8DF8000000208DF80100E94601203F
:1027100003E057F8049B4FF0FF3069074FF00005C6
:1027200001D40AE06D1C45450DDA8542FADB19F843
:1027300005100029F6D106E06D1C8542FCDB19F876
:1027400005100029F8D12E4404E019F8010B5A466F
:102750000F9990476D1EF8D2A5E00A200021CDE91F
:102760000801C5F3025002280DD001CFC117031E86
:1027700071F100030DDA4FF0000CD0EB0C006CEBA4
:1027800001012D2308E0FF1D27F00707F7E80201EC
:10279000EDE72B0504D52B238DF8283001233BE0F2
:1027A000EB0739D02023F7E70A2000E010200021B2
:1027B000CDE9080107E01020002145F00405CDE92E
:1027C00008014FF00808C5F3025002280FD001CFCE
:1027D00000214FF0000A2B071FD5702A0DD0DDE92C
:1027E00008C38CF0100C5CEA030C0CD015E0FF1D44
:1027F00027F00707F7E80201EBE740228DF82820D1
:102800004FF0010A0BE050EA010306D030238DF8A7
:1028100028308DF8292002239A46582A04D024A271
:102820000DF120090B9209E026A2F9E7DDE9082362
:10283000FDF7C3FE0B9B9B5C09F8013D50EA0102CA
:10284000F4D1ADEB090020300890680701D44FF0B7
:1028500001080899884502DDA8EB010000E000208E
:102860008046002506E00AA85A46405D0F99904729
:102870006D1C761C5545F6DB04E030205A460F9956
:102880009047761CB8F10001A8F10108F5DC05E0DD
:1028900019F8010B5A460F999047761C0899481E63
:1028A00008900029F4DC641CC5E60000092801003A
:1028B00030313233343536373839616263646566B6
:1028C0000000000030313233343536373839414278
:1028D00043444546000000000A68531C0B6010701A
:1028E0007047000010B54FF442711A4802F09DF88D
:1028F00040B119A000F0AEF94FF44271154802F052
:1029000087F825E01C49134802F08FF838B11BA066
:1029100000F0A0F918490F4802F07AF818E01E49B3
:102920000C4802F082F838B11CA000F093F91A4963
:10293000084802F06DF80BE02049064802F075F8EF
:1029400030B11FA000F086F91C49024802F060F87F
:1029500010BD0000003801402A2A2A205553415258
:102960005420706172697479206572726F722120CF
:102970002A2A2A0A00000000000501002A2A2A202B
:102980005553415254206672616D65206572726FB5
:102990007221202A2A2A0A00000503002A2A2A2056
:1029A0005553415254206F76657272756E20657270
:1029B000726F7221202A2A2A0A00000000050200F4
:1029C0002A2A2A205553415254206E6F697365207C
:1029D0006572726F7221202A2A2A0A00816841F0EA
:1029E0000801816000BF816801F008010029FAD167
:1029F000816841F00401816000BF816801F0040139
:102A00000029FAD1704730B5012902D002291AD124
:102A10000CE0C36A23F47003C362C36A541E4FF40C
:102A2000700505EA04542343C3620DE0836B23F46D
:102A300040138363836B541E4FF4401505EA04541E
:102A40002343836300E000BF00BF30BD21B1826833
:102A500042F40062826003E0826822F400628260D5
:102A6000704730B5436823F4C0534360012904D054
:102A7000022913D0042916D116E0436823F46043D9
:102A800043604368541E4FF4604505EA44342343D1
:102A90004360436843F40063436006E0436843F4E3
:102AA0008053436001E000BF00BF00BF30BD8168BC
:102AB00001F0010119B9816841F00101816070479D
:102AC000012902D0022910D107E0836823F4602392
:102AD000836083681343836008E0836823F4E043E2
:102AE000836083681343836000E000BF00BF7047CA
:102AF00002688A43026070470549096821F4702121
:102B0000034A1160114609680143116070470000D3
:102B100004240140F0B51D4606290CDA436B01EB95
:102B200081071F26BE40B34301EB810602FA06F679
:102B30003343436322E00C290EDA036B8E1F06EB4E
:102B400086071F26BE40B3438E1F06EB860602FA99
:102B500006F63343036311E010290FDAC36AA1F1CB
:102B60000C0606EB86071F26BE40B343A1F10C06F8
:102B700006EB860602FA06F63343C3620A2A0CDA2B
:102B8000046902EB42070726BE40B44302EB42064B
:102B900005FA06F63443046111E0122A0FDAC4681C
:102BA000A2F10A0606EB46070726BE40B443A2F18F
:102BB0000A0606EB460605FA06F63443C460F0BD85
:102BC0000146C86C80B2704701F001021AB18268F8
:102BD00042F48002826001F002021AB1826842F47B
:102BE000001282607047AAB101F480731BB1436880
:102BF00043F48073436001F480631BB1436843F482
:102C00008063436001F00203CBB1836843F00203A9
:102C1000836014E001F480731BB1436823F4807374
:102C2000436001F480631BB1436823F48063436015
:102C300001F002031BB1836823F002038360704735
:102C40000348006840F40000014908607047000034
:102C50000824014010B5044604B910BD03E014F87F
:102C6000010BFFF7B5FC20780028F8D100BFF4E78E
:102C700070B506460C4615463046FFF7EBFF294671
:102C8000204600F007F802A0FFF7E4FF70BD000047
:102C90000D0A00007FB505460E4600200090019009
:102CA000029003908DF80F000A2E13D10E240CE031
:102CB0000A20B5FBF0F100FB115030300DF8040094
:102CC0000A20B5FBF0F5601EC4B2102C23DA002DEB
:102CD000EED120E00E2417E005F00F000DF80400FF
:102CE0001DF804000A2806DA1DF804003030C0B2CE
:102CF0000DF8040005E01DF804005730C0B20DF8CF
:102D000004002D09601EC4B2102C01DA002DE3D19D
:102D100005A0FFF79FFF0DEB0401481CFFF79AFF8A
:102D200002A0FFF797FF7FBD203078002000000051
:102D30001CB5002000901048006802F0DFFA04463D
:102D40002CB940F207310D4801F048FE1CBD6B461E
:102D5000012201A90848006802F07DFB28B19DF816
:102D600004100020FFF79CFB04E040F20731034809
:102D700001F034FE00BFE9E7080000200038014000
:102D80002DE9F04707463E460EB900BFFEE71B4857
:102D90000068864201D100242DE001F02DFF756905
:102DA0001748D0F800801748D0F8009001F046FF8F
:102DB000454501D04D4501D102241CE01248854211
:102DC00012D1B06A70B90324002007E006F1540163
:102DD000095C012901D1022402E0401C0128F5DB35
:102DE00000BF08E0022406E00848854200D00DB983
:102DF000042400E001242046BDE8F0877C00002088
:102E000080000020840000203403002020030020E4
:102E10000EB50020029002A8002102230A46CDE947
:102E200000100448006802F04BFD4FF4805000F0A1
:102E30005FF80EBD1400002010B52C4B1B688343B7
:102E40002A4C2360231D1B688343241D2360231DFC
:102E50001B688343241D2360231D1B688343241D9B
:102E6000236011B101290ED105E0204B1B680343FB
:102E70001E4C236008E01D4B1B1D1B6803431B4CAD
:102E8000241D236000E000BF00BF22B1012A0FD043
:102E9000022A27D119E0154B08331B680343134C52
:102EA00008342360231D1B688343241D23601AE01C
:102EB0000E4B08331B6883430C4C08342360231DDE
:102EC0001B680343241D23600DE0084B08331B6877
:102ED0000343064C08342360231D1B680343241D51
:102EE000236000E000BF00BF10BD000000040140EF
:102EF000024909688143014A11607047000401409A
:102F0000024909680143014A116070470004014009
:102F10000149086070470000140401400146074859
:102F2000006800EA010205481438006800EA01035D
:102F300012B10BB1012070470020FCE714040140DE
:102F400070B504460D462046FFF742FB204670BD93
:102F500070B504460D46324E012C00D1314E012091
:102F6000A04031490978084000B170BD2F4931F8BF
:102F7000140001F039FB2E4931F8140001F034FB44
:102F80002C4951F824302C4951F8240002221821F0
:102F900000F0BEF8294951F82430274951F824009F
:102FA0000222042100F0B4F8304601F0ABFC2946BF
:102FB000304601F055FC0021304601F072FD002141
:102FC000304601F05EFD0021304601F04AFD00214F
:102FD000304601F0FBFC0021304601F0EFFC0421FB
:102FE000304601F046FD0821304601F052FD3046E2
:102FF00001F0D0FC40F20531304601F0FCFC104AF3
:10300000115D104A12F82400002200F0F3FC0120A8
:10301000A0400549097808430349087000BFA4E7A8
:10302000003801400044004004000020185E000801
:10303000FC5D0008005E0008105E0008085E0008E5
:10304000245E00081C5E00080148B0F900007047CB
:10305000600000200146282901DDFF207047034859
:103060000068C84000F00100F8E70000740000208C
:10307000416170470161704710B500228B071C0F3A
:103080000F2303FA04F204290EDA204B9B689343C2
:103090001E4CA36023469B688C07240F00FA04F49F
:1030A00023431A4CA3602FE008290EDA174BDB6884
:1030B0009343164CE3602346DB688C07240F00FA29
:1030C00004F42343114CE3601EE00C290EDA0F4B8D
:1030D0001B6993430D4C236123461B698C07240F06
:1030E00000FA04F42343094C23610DE0074B5B69AC
:1030F0009343064C636123465B698C07240F00FAF7
:1031000004F42343014C636110BD00000000014042
:10311000F0B5044616460025002201F00F0501F027
:10312000100707B1354300201EE0012787401F40EC
:10313000C7B122684FEA800C0F2707FA0CF7BA4391
:10314000870005FA07F73A43282904D10127874069
:103150001F40676105E0482903D1012787401F40D0
:1031600027612260471CB8B20828DED3082022E07D
:10317000012787401F40E7B16268A0F108074FEAC6
:10318000870C0F2707FA0CF7BA43A0F10807BF0016
:1031900005FA07F73A43282904D1012787401F4041
:1031A000676105E0482903D1012787401F40276157
:1031B0006260471CB8B21028DAD3F0BD02469068AE
:1031C000084008B1012070470020FCE70146C868AC
:1031D00080B27047F0B50A46002300240021002584
:1031E00000F00046B6F1004F02D11D4EF16901E03A
:1031F0001B4E7168C0F3034583B200F44016B6F568
:10320000401F08D121F07061154E766826F0706677
:10321000134F7E6012E000F48016B6F5801F06D1D1
:10322000032606FA05F4A14341F0706106E0460D5D
:10323000360103FA06F6B14341F0706122B1460D42
:10324000360103FA06F6314300F00046B6F1004FAE
:1032500002D1034EF16101E0014E7160F0BD00004A
:1032600000000140C160704710B500200649087099
:1032700006A0FFF7EFFC0AA002F064FC18B10A48B0
:10328000006801F093FD10BD640000206861726465
:103290005F7774645F64697361626C650D0A000036
:1032A0006877746400000000680000201CB50120ED
:1032B00009490870094800880949088009A0FFF7F2
:1032C000C9FC0D48022100232022CDE900100BA1EA
:1032D0000C4802F029FA1CBD640000206C0000209C
:1032E0006E000020686172645F7774645F656E6170
:1032F000626C650D0A000000680000206877746445
:10330000000000003533000810B504480088044967
:10331000088004A0FFF79EFC10BD00006C00002098
:103320006E000020686172645F7774645F66656533
:10333000640D0A0017E00C48007888B10B4800883B
:1033400070B10A480088401E084908800846008875
:1033500030B907A0FFF77EFC00F03CF8FFF784FFD0
:10336000642001F0FFFCE6E7640000206E0000200E
:10337000686172645F7774645F666565645F7461D9
:10338000736B2074696D656F75740D0A0000000021
:1033900001480088C0B270476C00002010B540F2B0
:1033A000026001F021F980210948FFF761FE402108
:1033B0000748FFF75FFEE023022210210448FFF7D1
:1033C000A7FE1023022248210148FFF7A1FE10BDED
:1033D0000008014010B540210548FFF749FEC8200C
:1033E00001F0C0FC40210248FFF744FE10BD000080
:1033F00000080140024908800988024A118070478C
:103400006C0000206E00002010B504462CB14FF473
:1034100080710548FFF72CFE04E04FF480710248EC
:10342000FFF728FE10BD00000018014070B50446EB
:103430000D461FA0FFF70EFC292C03DA204600F0F2
:1034400091F803E022A0FFF705FC70BD0120FFF713
:10345000DBFF9DB14FF480412748FFF70BFE282C7E
:1034600004D14FF0FF302549086019E00120A04049
:103470002249096808432149086011E04FF480415E
:103480001D48FFF7F5FD282C03D100201B490860DB
:1034900006E00120A04019490968814317480160EE
:1034A000012001F05FFC0020FFF7AEFF00BFCCE77A
:1034B000656E746572206B65795F6C696768745FAF
:1034C0006C6564735F636F6E74726F6C0D0A0000DD
:1034D0006B65795F6C696768745F6C6564735F6363
:1034E0006F6E74726F6C206F75746F66206C696D8F
:1034F00069740D0A000000000014014074000020EF
:1035000010B540F2056001F06FF84FF490430222CD
:1035100010211248FFF7FCFD4FF490410F48FFF7D0
:10352000A7FD40F2066001F05FF87C2423460222EA
:1035300010210B48FFF7ECFD21460948FFF798FDE5
:103540004FF44073022210210548FFF7E1FD4FF4CC
:1035500040710348FFF78EFD10BD000000140140CC
:103560000018014070B504460E48FFF72FFE0546CF
:1035700025F07C0504F03E0045EA4005294609484F
:10358000FFF770FE04F0010028B14FF40061064817
:10359000FFF770FD04E04FF400610348FFF768FD9A
:1035A00070BD0000001801400014014010B54FF438
:1035B00080710648FFF75CFD642001F0D3FB4FF4F7
:1035C00080710248FFF756FD10BD00000014014055
:1035D00010B540F2056001F007F84FF48073022245
:1035E00010210448FFF794FD4FF480710148FFF764
:1035F00041FD10BD0014014010B58221FF20FDF7F0
:1036000071FD38213B20FDF76DFD10BD10B5812106
:10361000FF20FDF767FDFB210D20FDF763FD0A206C
:1036200001F0A0FBFF210D20FDF75CFD10BD0000A7
:103630001CB5FDF7E3F925A0FFF70CFB2648006851
:10364000FFF708FB25A0FFF705FB0020022103463A
:103650002022CDE9001022A1244802F065F80020C4
:10366000022103465022CDE9001021A1224802F098
:103670005BF80020042103465022CDE900101FA171
:10368000204802F051F82048042100235022CDE9BF
:1036900000101EA11F4802F047F81F480321002315
:1036A0004022CDE900101DA11E4802F03DF8002087
:1036B000022103464022CDE900101BA11C4802F064
:1036C00033F801F02DFD00BFFEE70000696E69745C
:1036D000206F6B21210D0A00000000200D0A000060
:1036E0005461736B4C65643100000000AB2300082B
:1036F0006465627567720000B10D00086C74393240
:10370000313100004D1A000824000020546F43702E
:1037100075000000090E0008140000206B65795F39
:10372000626F64006947000874656D7000000000F6
:103730009D16000808B51EA000680090022000F049
:1037400011F96A460021022000F029F900231A46E7
:103750001946022000F034F940F2036000F044FF03
:103760004FF4C06000F040FF4FF480530222482124
:103770001048FFF7CDFC0C210120FFF77DFC012252
:1037800000211003FFF758FB4FF48050FFF7B8FB00
:103790004FF48050FFF7BCFB00220621282000F0E8
:1037A00029F900F00BF890210348FCF72CFD08BD27
:1037B00000FF0000000C0140F000002008B56B463F
:1037C00001220021022000F0D3F860B99DF800002A
:1037D00000F03F003F2804D09DF8000000F03F00BB
:1037E00008BD3F20FCE702A0FEF7B8FEFF20F7E788
:1037F0004552524F523A204B45595F524F575F53F3
:1038000043414E206E6361393535355F72656164C1
:103810005F696E706F72740D0A0000002DE9F0414F
:103820000027FFF7CBFF07463F2F55DA002550E072
:103830003C48435D00221146022000F0C1F820B14F
:10384000294639A0FEF78AFE41E0FFF7B7FF074699
:10385000002639E0062000FB0560C4B247FA06F0F6
:1038600000F00100E8B93D4830F81400022829DAD8
:103870003A4830F81400401C81B2384820F814103F
:1038800030F8140002281DD1012034494839085568
:10389000611CC8B2012100F0D7FE01203049087038
:1038A00010E02E484838005D60B100202B494839AF
:1038B0000855611CC8B2002100F0C6FE002127484F
:1038C00020F81410701CC6B2062EC3DB00BF681CA3
:1038D000C5B2062DACDB1CE021480078C8B100243D
:1038E00012E01E484838005D60B100201B4948398D
:1038F0000855611CC8B2002100F0A6FE002117483F
:1039000020F81410601CC4B2242CEADB00201449F7
:10391000087000231A461946022000F051F80020D2
:10392000BDE8F081305E00084552524F523A204BBC
:1039300045595F524F575F5343414E206E63613983
:103940003535355F77726974655F6F7574706F7246
:103950007420693D25640D0A000000003801002034
:103960001800002010B504462046FDF70FFD10BDDD
:10397000F8B506460D4614461F4605F00E0545F0FF
:1039800040050CB1012000E0002004460120E2B215
:103990003B46294600903046FDF75AFDF8BDF8B584
:1039A00006460C46154604F00E0444F0400402207E
:1039B0002B460622214600903046FDF777FDF8BDE4
:1039C0007FB582B006460C46154604F00E0444F05E
:1039D00040040DB1012000E00020054601200090C8
:1039E000A81CC2B205AB21463046FDF75FFD06B00C
:1039F00070BD00002DE9F04103460D461646002437
:103A00000027A0462448006800F4E060B0F5A06FED
:103A100015D006DCB0F5407F18D0B0F5806F19D115
:103A200010E0B0F5C06F06D0B0F5E06F12D10027FE
:103A30004FF0040815E001274FF0030811E00227BA
:103A4000B8460EE003274FF001080AE004274FF0C4
:103A5000000806E04FF4A06000F022F80227B84604
:103A600000BF00BFC7F1040005FA00F4C8F104016B
:103A70000F20C8403040044324010848C45403F0D8
:103A80001F01012088405911890001F1E021C1F88E
:103A90000001BDE8F08100000CED00E000E400E072
:103AA00002490143024A1160704700000000FA0514
:103AB0000CED00E02DE9F04105460E461C48076874
:103AC0001C480068001D00F0F4FF50B91948006858
:103AD00090F82C1001208840174909688143164846
:103AE0000160681C38B936B112480168091D1348D5
:103AF00001F076F81AE07C190E4800684460BC4278
:103B000007D20C480168091D0D48006801F04EF805
:103B10000CE008480168091D0A48006801F046F8F1
:103B200009480068844201D207480460BDE8F0817A
:103B3000900000207C00002094000020340300202E
:103B40008400002080000020AC00002010B5044656
:103B500001F052F824480068401C234908602348BB
:103B6000006840B9214804600846006801280DD16A
:103B700000F04CF90AE01E48006838B91B4800689C
:103B8000C06AE16A884201D8184804601948006890
:103B9000401C1849086008460068206494F82C10FE
:103BA0000120884014490968084313490860E16A04
:103BB00001EB8101114A02EB8100211D01F010F897
:103BC00001F03CF80A48006868B108480068C06A1B
:103BD000E16A884207D24FF0805009490860BFF37C
:103BE0004F8FBFF36F8F10BD8C0000207C00002032
:103BF00098000020A80000209400002080020020EF
:103C000004ED00E00146D1E90132D0180A68801ABB
:103C10008A68824201D88A68801A704710B516E017
:103C200000F0EAFF0C48C068C468201D00F041FFA6
:103C30000A480068401E0949086009480068401E9B
:103C40000749086000F0FAFF204600F00BF804482E
:103C500000680028E4D110BD200300208C00002063
:103C60008800002010B50446206B00F0FDFF2046C0
:103C700000F0FAFF10BD000030B54FF42053174894
:103C800000F007042CB1C01D20F00700134C041BEA
:103C90001B1B0246124C22600024114D6C60D01890
:103CA000083820F007000F4C206000240D4D2D68CF
:103CB0006C600C4D2D682C601146441A4C60094C08
:103CC00024680C60084D4C682C60084D4C682C60D2
:103CD0004FF00044064D2C6030BD0000480300202A
:103CE000C8000020D0000020D8000020D400002010
:103CF000E400002000BFFFF791FF0648006801289C
:103D0000F9D94FF0805004490860BFF34F8FBFF3DB
:103D10006F8FF0E78002002004ED00E02DE9F0470E
:103D200004460D4616461F46DDF820804FF0550923
:103D3000324655212846FCF768FAA84201D10120F5
:103D400000E0002008B900BFFEE724212046FCF770
:103D50005AFAA561A660E76084F81C80BDE8F08788
:103D60002DE9F05F82460E4690469B460A9F0C9CCA
:103D70004FEA8801A522206BFCF73EFAA8F101006A
:103D8000216B01EB800929F0070909F0070008B948
:103D9000012000E0002008B900BFFEE786B1002541
:103DA00007E0715D04F134004155705D00B902E037
:103DB0006D1C0A2DF5D300BF00213D20015502E006
:103DC000002084F83400052F00D30427E762A7649D
:103DD0000020E064201D00F0E6FE04F1180000F071
:103DE000E2FE2461C7F10500A06164620020206545
:103DF00084F854005A465146484600F0C5FA2060FF
:103E00000B9808B10B980460BDE8F09F10B5002432
:103E100007E004EB84010F4A02EB810000F0B6FEDC
:103E2000641C052CF5D30C4800F0B0FE0B4800F0E4
:103E3000ADFE0B4800F0AAFE0A4800F0A7FE0A48B3
:103E400000F0A4FE044809490860044808490860D5
:103E500010BD000080020020E4020020F8020020D3
:103E60000C030020200300203403002080000020E9
:103E70008400002010B50146164800E00068036881
:103E80008B42FBD30246436813448B4204D1436800
:103E90004C682344436001460A464B681344046857
:103EA000A34211D10C4C03682468A34208D04B688C
:103EB0000468646823444B6003681B680B6005E07A
:103EC000054B1B680B6001E003680B60884200D063
:103ED000016010BDC8000020D00000202DE9F0478F
:103EE00007460C4690460026206848B320464168A5
:103EF0004968416000F1080142688A4202D1416884
:103F0000496841604168D1F80C9000BF2046416883
:103F10004968416000F1080142688A4202D1416863
:103F2000496841604168CD6806EBC60007EB800137
:103F300043460122284601F023F8761C4D45E5D181
:103F40003046BDE8F0872DE9F047044689469046A3
:103F50009A46C24501D2504600E040460646002E31
:103F600038D02568A068401BB04202D2A068401B30
:103F700000E030460746474501D8012000E0002018
:103F800008B900BFFEE7E819A168884201D80120FE
:103F900000E0002008B900BFFEE7A06941193A46D9
:103FA0004846FCF717F9BE420DD9464501D8012015
:103FB00000E0002008B900BFFEE7F21B09EB070094
:103FC000A169FCF707F93544A068A84201D8A068A8
:103FD0002D1A25603046BDE8F0872DE9F84F0546DB
:103FE0008A46164698460A9F87B1D5F80090434600
:103FF0003A4669462846FFF7A6FF009CA8EB07084B
:10400000B44204D9C5F80090002400E03446434689
:10401000224651462846FFF796FF83465846BDE89C
:10402000F88F000009480068006808B9012000E026
:10403000002020B14FF0FF300549086005E003483B
:104040000068C0680068024908607047800000206E
:10405000AC0000202DE9F04302460D460027106811
:1040600000284CD01046D0F80480D8F80480C0F85E
:10407000048000F10808D0F80490C14505D1D0F8BB
:104080000480D8F80480C0F80480D0F80480D8F800
:104090000C6000BF1046D0F80480D8F80480C0F847
:1040A000048000F10808D0F80490C14505D1D0F88B
:1040B0000480D8F80480C0F80480D0F80480D8F8D0
:1040C0000C104FF0000C002311E001F13400C45C2F
:1040D000E85CA04202D04FF0010C03E014B90F4697
:1040E0004FF0010CBCF1000F00D002E05B1C0A2B6A
:1040F000EBD300BF07B101E0B142CBD100BF3846DE
:10410000BDE8F0830246002101E0521C491C1078F2
:10411000A528FAD0890888B2704700000A480068CC
:10412000401C08B9012000E0002008B900BFFEE7EC
:1041300000BF502080F31188BFF34F8FBFF36F8F04
:1041400000BF00BFFEE70000BC0000202DE9F041E9
:104150000446884616460EB1012000E0002008B94A
:1041600000BFFEE76568A068401BB04202D2A068AD
:10417000401B00E030460746E819A168884201D894
:10418000012000E0002008B900BFFEE7A16948193E
:104190003A464146FCF71EF8BE420FD9F01BA16813
:1041A000884201D8012000E0002008B900BFFEE7E6
:1041B000F21B08EB0701A069FCF70CF83544A06876
:1041C000A84201D8A0682D1A65603046BDE8F0818C
:1041D0002DE9FF47074688461D46DDF830900DB9AA
:1041E000002416E0387F00F0010040B90124029855
:1041F000A84201D2029800E02846029009E04D450D
:1042000006D30124042202A93846FFF79FFF00E0ED
:10421000002434B141463846029AFFF797FF06461C
:1042200000E00026304604B0BDE8F08770B50546D2
:104230000E4631462846FBF7F8FF2846FBF7EEFF0F
:10424000044602E020202855641C092CFAD30020E3
:104250002855281970BD00002DE9F04104464FF0A3
:10426000000800F09DFF4248006808B9FFF704FD10
:1042700040480068204000286CD1F4B104F10800E7
:10428000A0421AD9083404F00700B8B104F00700BE
:10429000C0F108002044A0420DD904F00700C0F18D
:1042A0000800044404F0070008B9012000E00020E1
:1042B00020B900BFFEE7002400E00024002C49D014
:1042C0002D480068844245D82C4E3046056801E0F0
:1042D0002E462D686868A04202D228680028F7D1CF
:1042E00023480068854235D0306800F10808286806
:1042F00030606868001B102810D92F1907F00700DC
:1043000008B9012000E0002008B900BFFEE7686896
:10431000001B78606C603846FFF7ACFD1649686892
:104320000968081A144908600846006814490968B1
:10433000884203D210480068114908600D49686836
:10434000096808436860002028600E480068401C27
:104350000C49086001F0D8FC08F0070008B90120FA
:1043600000E0002008B900BFFEE74046BDE8F0814C
:10437000D0000020E4000020D4000020C80000206D
:10438000D8000020DC000020001F4FF08073036085
:10439000001F21F001030360001F034B036014386A
:1043A00002602038704700001D41000810B509A0C8
:1043B000FEF750FC15A0FEF74DFC214800F02EFE44
:1043C0001F48FEF747FC1FA0FEF744FC1EA0FEF7A7
:1043D00041FC10BD2D2D2D2D2D2D2D2D2D2D2D2DB7
:1043E0002D2D2D2D2D2D2D2D2D2D7461736B2069CF
:1043F0006E666F2D2D2D2D2D2D2D2D2D2D2D2D2D31
:104400002D2D2D2D2D2D2D0D0A0000005461736BC7
:104410004E616D6520205461736B53746174652027
:104420005072696F7269747920204C656674537498
:1044300061636B20205461736B4E756D200D0A0013
:10444000800100200D0A00002020423A20426C6FBB
:10445000636B2020523A2052656164792020443AEF
:104460002044656C6574652020533A2053746F7046
:104470002020583A2052756E200D0A000F4A5168CC
:104480000F4A1140082814D2DFE800F0040506079F
:10449000130A130B00BF00BF00BF41EA803109E0DF
:1044A00000BF20F004004FF0805242EA80321143F6
:1044B00000E000BF00BF014A516070470010024099
:1044C000FF3FFFEF2DE9F04F8BB00746002009902A
:1044D0003EA090E8004CC068CDE905BECDF810A024
:1044E00007900FF2EC0ADAE9000ACDE9020A0FF2AE
:1044F000E00ADAE9000ACDE9000A38484068C0F36A
:1045000081000A900A9820B1012804D0022829D1FC
:1045100003E0334928E0324926E03048406800F49F
:104520008038B8F5803F09D12D4C2C48406800F404
:104530000039B9F5003F02D1641000E0294C27484A
:104540004068C0F383422548406800F0006008B12D
:1045500042F010020F2A01D2921C00E0521C04FB10
:1045600002F101E01E4900BF00BF1C484068C0F3D3
:10457000031504A8465D21FA06F318484068C0F305
:10458000022502A8465D23FA06FC14484068C0F3E1
:10459000C2251DF8056023FA06F0089037B1012FF7
:1045A00006D0022F06D0032F0AD106E0099108E0B9
:1045B000099306E0CDF824C003E00898099000E0D4
:1045C00000BF00BF09980BB0BDE8F08F00000000ED
:1045D0000000000001020304060708090010024061
:1045E00000127A0000093D00064A02EB90110968AA
:1045F00000F01F0301229A401143024B03EB90127B
:104600001160704700100240064A02EB90110968E1
:1046100000F01F0301229A409143024B03EB9012DA
:104620001160704700100240064A02EB90110968C1
:1046300000F01F0301229A401143024B03EB90123A
:1046400011607047001002407CB505460C461148C9
:10465000007800F0020018B90FA0FEF7FBFA7CBD4D
:10466000A5208DF800008DF801508DF802409DF8CE
:1046700000009DF8011008449DF802100844C0B2E3
:104680008DF80300042269460120FDF72DFF00BFCD
:10469000E5E70000040000206572726F723A205452
:1046A0004F4350555F434F4D206E6F7420696E69C4
:1046B000740A000000200021264A126842F001021C
:1046C000244B1A6000BF401C224A126802F002010B
:1046D00011B9B0F5A06FF6D11E4A126802F00202BD
:1046E0000AB900BFFEE71B4A52681A4B5A601A46C5
:1046F00052685A601A46526842F480625A601A46FA
:104700005268154B1A40134B5A601A465268134BA5
:104710001A43104B5A601A46126842F080721A60AF
:1047200000BF0C4A126802F00072002AF9D0094A50
:10473000526822F00302074B5A601A46526842F050
:1047400002025A6000BF034A526802F00802002ABF
:10475000F9D0704700100240FFFFC3F7000028089F
:1047600010B5FFF7A7FF10BDFEF7E4FF0EE04FF016
:10477000FF320021084600F027F8FFF74FF81E200F
:1047800000F0F0FA4FF48050FEF7BAFBEFE731B1DA
:10479000012906D0022906D0032908D105E0426389
:1047A00006E0826304E0C26302E0026400E000BF4E
:1047B00000BF7047016821F0010101607047016886
:1047C00041F00101016070472DE9F04104460F46B8
:1047D00016460CB9012000E0002008B900BFFEE732
:1047E00000F00AFA1C480068503050F8240080B9E4
:1047F0000121194800685430015556B13046FFF781
:1048000059F94FF0805015490860BFF34F8FBFF33F
:104810006F8F00F013FA00F0EFF90F480068503086
:1048200050F824506DB137B100210B48006850306A
:1048300040F8241005E0681E07490968503141F826
:1048400024000021044800685430015500F0F6F9B6
:104850002846BDE8F08100007C00002004ED00E067
:104860002DE9F04704460D460027B846B946002614
:104870001D49601A8C421CD006DC1C48204470B1D3
:10488000B0F5806F1FD10FE0B0F5806F16D0B0F596
:104890006C4F18D10320FFF715FE074614E00220E5
:1048A000FFF710FE07460FE00220FFF70BFE07465A
:1048B0000AE00220FFF706FE074605E00220FFF7A8
:1048C00001FE074600E000BF00BF07EB5500B0FB4C
:1048D000F5F64FF6F07006EA000806F00F0948EA10
:1048E0000900A060BDE8F087004C004000BCFFBF9D
:1048F00001464868C0F308007047C1F308024260EF
:104900007047000010B504462049601A8C4228D038
:1049100006DC1F48204490B1B0F5806F33D117E01A
:10492000B0F5806F26D0B0F56C4F2CD140F20E3030
:10493000FFF77AFE40F20E30FFF766FE24E040F209
:104940001140FFF771FE40F21140FFF75DFE1BE0E2
:1049500040F21240FFF768FE40F21240FFF754FEAB
:1049600012E040F21340FFF75FFE40F21340FFF702
:104970004BFE09E040F21440FFF756FE40F21440AF
:10498000FFF742FE00E000BF00BF10BD004C00403A
:1049900000BCFFBFC16841F40051C160704710B551
:1049A000024602EB9110006801F01F040123A340AE
:1049B000184008B1012010BD0020FCE70A46002184
:1049C000416921F400711143416170470A46002199
:1049D000416921F4807111434161704710B5C1F301
:1049E0008912825801F01F040123A3409A43C1F3A6
:1049F0008913C25010BD10B5C1F38912825801F05D
:104A00001F040123A3401A43C1F38913C25010BDF0
:104A100010B500EB91521268C1F304440123A34086
:104A20009A4300EB91531A6010BD70B50246002303
:104A30000024C1F38910105801F01F060125B5406C
:104A400000EA050302EB91500068C1F3044601251A
:104A5000B54000EA050414B10BB1012070BD00207F
:104A6000FCE7C26822F4C062C260C2680A43C26046
:104A700070470A460021C16821F004011143C1605A
:104A80007047026922F44052026102690A430261DE
:104A900070470A460021C16821F008011143C16036
:104AA0007047C26822F48052C260C2680A43C26082
:104AB000704701460A69D1E901309860D1E90103E4
:104AC00058605068884201D18868506000200861B1
:104AD0001068401E10601068704700002DE9F0411A
:104AE0000546884616460024052700F059FB214854
:104AF0000068804539D300BF7F1E07EB87021E4B3D
:104B000003EB820104EBC40205EB82000122FFF7F4
:104B1000E5F90444002FEFD104EBC40105EB81005B
:104B2000022216490968FFF7D9F9044404EBC401CD
:104B300005EB8100022212490968FFF7CFF904440E
:104B400004EBC40105EB810004220E49FFF7C6F90E
:104B5000044404EBC40105EB810003220A49FFF77A
:104B6000BDF904440EB10020306001F0CDF82046BC
:104B7000BDE8F0818C000020800200208000002031
:104B800084000020200300203403002000F10801ED
:104B900041604FF0FF31816000F10801C1600161A7
:104BA00000210160704700210161704710B5024685
:104BB0000B685C1C0CB9106907E002F1080000E00A
:104BC0004068446824689C42FAD944684C604C6848
:104BD000A160886041600A611468641C146010BDA3
:104BE00042684A6093688B6093685960916008617D
:104BF00003685B1C0360704700BF502080F311887E
:104C0000BFF34F8FBFF36F8F00BF0A480068401C8F
:104C10000849086008460068012809D1064800686C
:104C2000C0B208B9012000E0002008B900BFFEE7CB
:104C300070470000BC00002004ED00E00948006857
:104C400008B900BFFEE707480068401E0549086034
:104C50000846006820B9002080F3118800BF00BF1B
:104C600070470000BC00002070B506463546002E97
:104C700032D0083D2C46194960680968084008B1DF
:104C8000012000E0002008B900BFFEE7206808B955
:104C9000012000E0002008B900BFFEE70F4960686E
:104CA00009680840C0B12068B0B90C49606809685B
:104CB0008843606000F074FA094960680968084434
:104CC000074908602046FFF7D5F806480068401CF1
:104CD0000449086001F018F870BD0000E4000020ED
:104CE000D4000020E000002000204FF0E021086107
:104CF0008861064800684FF47A71B0FBF1F0401EFD
:104D00004FF0E0214861072008617047E80000206B
:104D100070B5FBF749FA0546102D0DD305F1E020DB
:104D200090F8F0430C480078844201DB012000E059
:104D3000002008B900BFFEE70848006800F4E06002
:104D400007490968884201D8012000E0002008B91D
:104D500000BFFEE770BD0000C00000200CED00E0C9
:104D6000C400002070B5044600258CB10D480068D1
:104D700008B9012000E0002008B900BFFEE700F0FC
:104D80000FFA00212046FEF795FE00F0BDFF054614
:104D90003DB94FF0805004490860BFF34F8FBFF317
:104DA0006F8F70BDB800002004ED00E070B50546BF
:104DB000FFF722FF15B92D48006800E02846044699
:104DC000201DFFF776FE78B9E06A00EB80002849E5
:104DD00051F8200040B994F82C1001208840254952
:104DE0000968814323480160A06A18B104F11800E2
:104DF000FFF75FFE20480068401C1F4908601B4801
:104E00000068844209D1211D1C48FFF7E9FE1C48B7
:104E10000068401C1A49086006E01A480068401EF5
:104E200018490860FFF7FEF8FFF708FF0F48006811
:104E3000844202D02046FEF715FF13480068A0B157
:104E40000A480068844210D11048006808B901205F
:104E500000E0002008B900BFFEE74FF080500C4989
:104E60000860BFF34F8FBFF36F8F70BD7C000020D1
:104E70008002002094000020A800002020030020D1
:104E8000880000208C00002098000020B80000203E
:104E900004ED00E02DE9F04705460E4690460DB9B9
:104EA00000BFFEE70EB9012000E0002008B900BFF6
:104EB000FEE7FFF72DFF2C4600BF5021EFF31180D6
:104EC00081F31188BFF34F8FBFF36F8F00BF074689
:104ED00004F1540010F8069002218155001F50F88B
:104EE0002600401C04F1500141F82600B9F1010FE1
:104EF00034D1A06A08B9012000E0002008B900BF41
:104F0000FEE719480068A8B9201DFFF7D2FD94F804
:104F10002C1001208840154909680843134908608E
:104F2000E16A01EB8101124A02EB8100211DFFF7CA
:104F300057FE04E004F118010E48FFF751FE0E4938
:104F4000E06A0968C96A884208D9B8F1000F02D03E
:104F50000120C8F8000001200849086000BF87F35D
:104F6000118800BFBDE8F087B80000209400002041
:104F7000800200200C0300207C000020A000002004
:104F80002DE9F04107460C4690461E4617B91C48CD
:104F9000006800E038460546256005F13400606091
:104FA000E86A2061286BE061286CA060A86C6061F1
:104FB0000020A061052E12D011480068854202D160
:104FC000002020730FE02673032E0CD100F0E8F8C8
:104FD000A86A08B10220207300F096FE03E028467C
:104FE000FDF7CEFE2073B8F1000F04D0286BFFF759
:104FF00089F8208401E000202084BDE8F0810000D1
:105000007C00002003490968016003490968416088
:1050100070470000A4000020900000202DE9FC4112
:105020000646002030702F4807680146096801EBEA
:10503000C1018800FFF710F90546002D50D000226D
:1050400039462846FFF74AFD0746002443E004EBB3
:10505000C40005EB8000007B062813D2DFE800F0D7
:105060000306090C0F134FF058080FE04FF05208D9
:105070000CE04FF0420809E04FF0530806E04FF013
:10508000440803E000BF4FF0000800BF00BF04EB7E
:10509000C40005EB800041683046FFF7C7F80646BC
:1050A00004EBC40005EB8000806804EBC40105EB51
:1050B0008101098CCDE9001004EBC40005EB8000F0
:1050C000424609A103693046FDF758FA3046FBF71E
:1050D000A5F80644641CBC42B9D32846FFF7C4FDBA
:1050E000BDE8FC818C000020092563092575092590
:1050F000750925750D0A000010B504460CB900BFEE
:10510000FEE7FFF779FD0448006820600348006867
:105110006060FFF793FD10BDA40000209000002008
:105120001CB5174800210B464022CDE9001015A1FF
:10513000164800F0F9FA0446012C15D100BF5020A2
:1051400080F31188BFF34F8FBFF36F8F00BF4FF015
:10515000FF300F49086001200E49086000200E4909
:10516000086000F061F807E0601C08B1012000E071
:10517000002008B900BFFEE7084800681CBD000019
:10518000B000002049444C4500000000F53C0008F8
:10519000AC0000209800002090000020B400002007
:1051A00002480068401C014908607047B8000020B0
:1051B0001848006818B101201749086029E000204C
:1051C0001549086015480068B0FA80F0C0F11F0169
:1051D00001EB8100124A52F8200008B1012000E0E2
:1051E000002008B900BFFEE701EB81020C4B03EB86
:1051F000820042685268426000F1080243689342AC
:1052000002D14268526842604268D268054B1A6017
:1052100000BF7047B8000020A000002094000020CC
:10522000800200207C0000201CB52F480146097830
:105230000191FF21024611700146097800919DF805
:10524000001001F0F0019DF80020914201D10121F0
:1052500000E0002109B900BFFEE79DF8001001F051
:105260005001224A11700721214A116009E02049AA
:105270000968491E1E4A11609DF800104906090E72
:1052800000919DF8001001F080018029EFD01849AD
:105290000968C1F10701042901D1012100E00021C1
:1052A00009B900BFFEE7124909680902104A1160F6
:1052B0001146098801F4E06111600B4A01991170EF
:1052C0000C48006840F470000A490860084600680D
:1052D00040F070400860FFF707FD002006490860B5
:1052E000FAF72CFF00201CBD00E400E0C000002005
:1052F000C400002020ED00E0BC00002070B5044692
:1053000025460DB900BFFEE72846FEF77BFC0646A2
:10531000304670BD2DE9F84304460E469046B8F17C
:10532000010F08D10127042C01D9012000E0002041
:1053300048B900BFFEE700270CB1012000E00020C3
:1053400008B900BFFEE7A64201D8012000E0002016
:1053500008B900BFFEE706B9012604F12500844222
:1053600006D2641C04F12400FEF776FF054600E037
:1053700000253DB13346224605F124012846009719
:10538000FEF7CCFC2846BDE8F8832DE9F84F8046AF
:10539000894693461F4644464FF0000AB9F1000F74
:1053A00001D100BFFEE70CB900BFFEE7207F00F08F
:1053B000010008B1042600E0002647B3FFF71CFCFB
:1053C0002046FEF71FFC0546B5420ED800210846D0
:1053D00000F02EFB206908B9012000E0002008B988
:1053E00000BFFEE700F0A8FB2061FFF727FCB542F5
:1053F00011D800231A4619461846009700F03EFBC4
:10540000002020612046FEF7FDFB054603E0204614
:10541000FEF7F8FB0546B5421AD92B465A464946CF
:1054200020460096FEF7D9FD8246BAF1000F0FD054
:10543000FFF7B6FE606948B1002000906069002364
:105440001A46194600F0A0F90020606100F05CFCEB
:105450005046BDE8F88F2DE9FF4F83B0804689465E
:105460009A4644464FF0000BB9F1000F01D100BF3E
:10547000FEE70CB900BFFEE7207F00F0010008B195
:10548000042600E000262046FEF7BCFB0546B54298
:1054900028D92B46009649462046059AFEF79DFDE1
:1054A0008346BBF1000F1DD000BF5021EFF31180E8
:1054B00081F31188BFF34F8FBFF36F8F00BF074693
:1054C000606950B10020CDE9000A606900231A46E6
:1054D000194600F0F5F90020606100BF87F31188DC
:1054E00000BF00BF584607B0BDE8F08F2DE9FF4F61
:1054F00083B006468B46174634464FF000093D46BA
:10550000A068A0F1010ABBF1000F01D100BFFEE7C6
:105510000CB900BFFEE7207F00F0010068B12D1D2F
:10552000BD4201D9012000E0002008B900BFFEE71C
:10553000554505D90020069002E0554500D955464D
:10554000069888B301A8FFF7D7FD00BFFFF754FB0B
:10555000204600F0A0F88146A9450FD20021084658
:1055600000F066FA606908B9012000E0002008B97F
:1055700000BFFEE700F0E0FA606102E0FFF75EFBCB
:1055800011E0FFF75BFB069800231A4619460090CE
:10559000184600F073FA0020606106A901A800F027
:1055A0008DF80028D2D000BFB9F1000F03D12046FA
:1055B00000F071F881464B463A4659462046009520
:1055C000FEF706FE8046B8F1000F15D02046FEF724
:1055D00019FBE16888420FD3FFF7E2FD206948B16B
:1055E00000200090206900231A46194600F0CCF8EC
:1055F0000020206100F088FB404607B0BDE8F08F36
:105600002DE9FE4F0746884691469A463C46CB46D2
:10561000B8F1000F01D100BFFEE70CB900BFFEE7F3
:10562000207F00F0010008B10BF1040B204600F0D0
:1056300032F80290CDF800B04A4641462046029B1F
:10564000FEF7C6FD05461DB32046FEF7DBFAE1680E
:1056500088421DD300BF5021EFF3118081F31188E0
:10566000BFF34F8FBFF36F8F00BF0646206950B165
:105670000020CDE9000A206900231A46194600F0EF
:105680001FF90020206100BF86F3118800BF00BF12
:105690002846BDE8FE8F10B50246114609B900BF85
:1056A000FEE70C688B6818194B68C01A401E8B689F
:1056B000834201D88B68C01A10BD000070B5054642
:1056C0000C460DB900BFFEE70CB900BFFEE7FFF7BF
:1056D00093FA1348036868681A1A2068401C08B9CE
:1056E000002619E00F4928680968884206D06868D2
:1056F000984203D80126002020600DE020689042E7
:1057000007D92068801A20602846FFF77BFC002616
:1057100002E0002020600126FFF790FA304670BDBD
:1057200090000020A40000202DE9FF4F85B08046A6
:1057300089461746DDE912ABB800FEF78DFD064637
:1057400056B15820FEF788FD04460CB1266304E0EC
:105750003046FFF789FA00E000247CB10020CDE953
:1057600000ABCDE902403A4649464046089BFEF769
:10577000F7FA2046FEF7EAF9012501E04FF0FF3580
:10578000284609B0BDE8F08F2DE9F05F07460D46C9
:1057900016469846DDF828A04FF0010B0DB9012000
:1057A00000E0002008B900BFFEE70FB900BFFEE728
:1057B0003C46FFF721FABAF1000F05D004F1500082
:1057C00050F82500CAF8000004F1540010F80590C4
:1057D00002214155B8F1050F29D2DFE808F027036F
:1057E0000D171C0004F1500050F82500304304F15F
:1057F000500141F8250024E004F1500050F8250044
:10580000401C04F1500141F825001AE004F1500059
:1058100040F8256015E0B9F1020F04D004F1500002
:1058200040F8256001E04FF0000B0AE009E01F4856
:10583000006808B9012000E0002008B900BFFEE7B9
:1058400000BF00BFB9F1010F2AD1201DFFF731F9C8
:1058500094F82C1001208840154909680843144920
:105860000860E16A01EB8101124A02EB8100211D0F
:10587000FFF7B6F9A06A08B9012000E0002008B9D6
:1058800000BFFEE70C49E06A0968C96A884207D987
:105890004FF0805009490860BFF34F8FBFF36F8FFF
:1058A000FFF7CCF95846BDE8F09F000090000020BB
:1058B00094000020800200207C00002004ED00E025
:1058C0002DE9F84F80460D4617469946DDF828B079
:1058D00001200090B8F1000F01D100BFFEE70DB923
:1058E000012000E0002008B900BFFEE7FFF710FA32
:1058F000444600BF5021EFF3118081F31188BFF3BC
:105900004F8FBFF36F8F00BF0646BBF1000F05D06E
:1059100004F1500050F82500CBF8000004F15400C9
:1059200010F805A002214155B9F1050F29D2DFE891
:1059300009F027030D171C0004F1500050F8250052
:10594000384304F1500141F8250024E004F15000EF
:1059500050F82500401C04F1500141F825001AE0E0
:1059600004F1500040F8257015E0BAF1020F04D0A0
:1059700004F1500040F8257001E0002000900AE09A
:1059800009E02448006808B9012000E0002008B9B7
:1059900000BFFEE700BF00BFBAF1010F33D1A06A1C
:1059A00008B9012000E0002008B900BFFEE71A484E
:1059B0000068A8B9201DFFF77CF894F82C1001208E
:1059C000884016490968084314490860E16A01EBF8
:1059D0008101134A02EB8100211DFFF701F904E068
:1059E00004F118010F48FFF7FBF80F49E06A096856
:1059F000C96A884207D90B9810B101210B98016040
:105A000001200A49086000BF86F3118800BF009892
:105A1000BDE8F88F90000020B8000020940000201E
:105A2000800200200C0300207C000020A000002049
:105A30002DE9F04106460C460CB9012000E000209B
:105A400008B900BFFEE716B90B48006800E0304611
:105A50000746FFF7D1F807F15400005D022805D191
:105A6000002107F154000155012500E00025FFF752
:105A7000E5F82846BDE8F0817C0000202DE9F047DC
:105A800004460F4690461D46DDF820900CB90120D3
:105A900000E0002008B900BFFEE7FFF7ADF824489A
:105AA00000685430005D02281AD02149096850313D
:105AB00001EB84000168B943016001211C480068C2
:105AC00054300155B9F1000F0AD04846FDF7F2FFF6
:105AD0004FF0805017490860BFF34F8FBFF36F8FAF
