:020000040800F2
:10000000504B0020B1010008E91F0008C10F000893
:10001000811F0008890900080D2400080000000065
:1000200000000000000000000000000019010008AE
:10003000390E0008000000005D010008FD200008E6
:10004000CB010008CB010008CB010008CB01000860
:10005000CB010008CB010008CB010008CB01000850
:10006000CB010008CB010008CB010008CB01000840
:10007000CB010008CB010008CB010008CB01000830
:10008000CB010008CB010008CB010008CB01000820
:10009000CB010008CB010008CB010008CB01000810
:1000A000CB010008CB010008CB010008CB01000800
:1000B000CD210008CB010008CB010008CB010008CE
:1000C000CB010008CB010008CB010008CB010008E0
:1000D000CB010008A9220008F1220008CB0100088A
:1000E000950E0008CB010008CB01000800000000BD
:1000F0000000000000000000000000000000000000
:10010000CB010008DFF80CD000F032FB00480047BC
:10011000A1340008504B0020224B19680868B0E851
:10012000F00F80F30988BFF36F8F4FF0000080F36A
:1001300011884EF00D0E7047000000000648006860
:10014000006880F3088862B661B6BFF34F8FBFF3D3
:100150006F8F00DF00BF00BF08ED00E0EFF3098004
:10016000BFF36F8F0F4B1A6820E9F00F106008B5CE
:100170004FF0500080F31188BFF34F8FBFF36F8FA4
:1001800004F0EAFF4FF0000080F31188BDE808405A
:1001900019680868B0E8F00F80F30988BFF36F8F23
:1001A000704700BF84000020EFF305807047000017
:1001B0000648804706480047FEE7FEE7FEE7FEE701
:1001C000FEE7FEE7FEE7FEE7FEE7FEE73121000877
:1001D00005010008202A04DB203A21FA02F0002160
:1001E000704721FA02F3D040C2F120029140084347
:1001F0001946704740EA01039B0703D009E008C98C
:10020000121F08C0042AFAD203E011F8013B00F8DB
:10021000013B521EF9D27047D2B201E000F8012B27
:10022000491EFBD270470022F6E710B513460A4676
:1002300004461946FFF7F0FF204610BD421C10F897
:10024000011B0029FBD1801A7047034611F8012BCE
:1002500000F8012B002AF9D1184670472DE9FE4F0E
:10026000804681EA0300C00F0C46009021F0004157
:1002700023F00045B8EB0200A94105D240462146D3
:1002800090461C460B46024623F00040104347D0E0
:10029000270DC7F30A00C3F30A510290401A0190D8
:1002A00040286BDAC3F3130040F4801B0098924699
:1002B00020B10023D2EB030A63EB0B0B01985946E4
:1002C000C0F14002504600F09EF906460D465046E9
:1002D0005946019A00F0A6F910EB0800614100248C
:1002E00087EA115284EAE7731A4340D0009A62B356
:1002F000019A012A4FEA075215DC001B61EB02014B
:100300004FF0004202EA0752CDE90042001C41F5DD
:10031000801132462B4600F0DDF903B0BDE8F08FC6
:1003200040462146F9E7001B61EB0201001C41F544
:10033000801300185B412018A2F5001747EB03015A
:1003400040EAD570B6196D4111E06D084FEA3606E6
:1003500045EAC0754FEA0752001B61EB0201001C21
:1003600041F5801149084FEA3000001951413246E9
:100370002B4603B0BDE8F04F00F09DB90098012274
:1003800040000023D0EB020263EBE07300982146AB
:100390004FEAE074B8EB000061EB0401E9E783F099
:1003A00000435BE781F0004158E72DE9FE4F81EA09
:1003B000030404F0004421F0004100944FF0000BCE
:1003C00023F0004350EA01045ED052EA03045BD0FC
:1003D000C3F30A54C1F30A552C44A4F2F334019434
:1003E000A0FB0254C1F3130141F48011C3F31303C2
:1003F00043F4801301FB024400FB034E840A970A76
:1004000044EA815447EA8357A4FB076802958D0AA2
:1004100005FB07854FEA932C04FB0C542705029D2E
:100420004FEA065847EA1637B5EB08056EEB070C9E
:10043000870E920E47EA811742EA8312A7FB020158
:10044000B6EB0B0164EB00042B0D43EA0C335E1892
:1004500044EB1C50DA465146E7FB0201C5F3130496
:100460004FEA0B3343EA14534FEA0432019C43EA48
:100470000603A4F10C040294009CCDE900B400F042
:1004800029F903B0BDE8F08F00200146F9E72DE916
:10049000F04D81EA030404F0004B21F000451446BE
:1004A0004FF0000A23F0004150EA050220D054EA40
:1004B00001021DD0C5F30A570246C5F31303C1F369
:1004C0001300C1F30A5640F4801543F48013A7EBE0
:1004D0000608101BD64608F2FD3873EB050002D360
:1004E00008F1010801E092185B41B8F1000F03DA4E
:1004F00000200146BDE8F08D00204FF48011064633
:1005000084460EE0171B73EB050705D3121B63EB44
:10051000050306434CEA010C49084FEA30009218E3
:100520005B4150EA0107EDD152EA030012D082EAA2
:10053000040083EA0501084305D0101BAB4106D235
:100540000122002306E000224FF0004302E06FF09A
:10055000010253101AEB06004CEB085110EB0A0095
:1005600041EB0B01BDE8F04D00F0A5B89623002249
:10057000114600F072B870B5C1F30A5201F000459F
:100580000024C1F3130140F2FF3341F480119A4279
:1005900001DA002070BD40F233439A42A2F23342A6
:1005A00003DC5242FFF716FE00E090402C43F1D0EE
:1005B000404270BD00F0004230F000400AD0C10D52
:1005C00001F56071C0F3160042EA0151C20840070C
:1005D0001143704700200146704730B50B46014675
:1005E00000202022012409E021FA02F59D4205D3D2
:1005F00003FA02F5491B04FA02F52844151EA2F17C
:100600000102F1DC30BD202A04DB203A00FA02F1BD
:10061000002070479140C2F1200320FA03F31943F0
:1006200090407047202A06DBCB17203A41FA02F0AF
:1006300043EAE07306E041FA02F3D040C2F120023F
:1006400091400843194670470029A8BF7047401CD5
:10065000490008BF20F00100704710B4B0FA80FCD8
:1006600000FA0CF050EA010404BF10BC704749B115
:10067000CCF1200421FA04F411FA0CF118BF012185
:1006800021430843A3EB0C01CB1D4FEA00614FEA65
:10069000102042BF002010BC704700EBC350104434
:1006A0000029A4BF10BC7047401C490008BF20F0BF
:1006B000010010BC704710B5141E73F1000408DA75
:1006C000401C41F1000192185B411A4301D120F016
:1006D000010010BD2DE9F04D92469B4611B1B1FAD3
:1006E00081F202E0B0FA80F220329046FFF78BFFF1
:1006F00004460F4640EA0A0041EA0B0153465A46B7
:10070000084313D0114653EA010019D0C8F1400242
:100710005046FFF75FFD05460E4650465946424695
:10072000FFF771FF084305D0012004E02046394659
:10073000BDE8F08D0020054346EAE0762C433743C0
:100740000A986305E40AA0EB08000022FD0A44EAC7
:1007500047540A3002D500200146E9E70105101987
:100760006941DDE9084500196941BDE8F04DA2E79E
:10077000064C074D06E0E06840F0010394E80700EE
:1007800098471034AC42F6D3FFF7C0FC085E00086F
:10079000285E000810B540F2096003F061FE0320F6
:1007A00003F0A8FD002002F091F800224FF48071C0
:1007B000184802F002F900220221164802F0FDF862
:1007C00001221146134802F036F80021114802F0C8
:1007D00027F8012211460F4801F0FFFF02F01AF935
:1007E0000523102200210B4802F07EF84FF460220E
:1007F0000121084802F04EF8064802F042F80120B4
:1008000004F084FA034801F0D3FF0121014802F00B
:10081000C5F810BD002401401FB50446404903C976
:10082000CDE9020120788DF8090000208DF80A003A
:100830002078323811285FD2DFE800F0205E090E00
:10084000135E14262A333B3E42474A595A006078C9
:10085000012102F0F9FC56E06078002102F0F4FC7E
:1008600051E050E0607820B10121282002F0ECFC3A
:1008700003E00021282002F0E7FC44E0607802F069
:10088000D3FA8DF80A003EE0607803F04FFE3AE0BC
:1008900002F0C4FA642190FBF1F0C0B28DF80A00B6
:1008A00031E0607810B102F007FC01E002F0E2FBF9
:1008B00029E002F02FFC26E0607802F0A1FC22E0A3
:1008C00002F06CFC8DF80A001DE002F089FC1AE0D1
:1008D00014A005F00BF948B900200421034650226A
:1008E000CDE900100FA1114804F0F2FE0BE00AE080
:1008F000607801F059FB06E0FF208DF80A000CA09B
:1009000002F092F800BF00BF032102A800F03EF8F9
:100910008DF80B00042102A800F08CF81FBD000028
:10092000E05D00086C743932313100000D190008A7
:100930006572726F723A20637075207561727420EF
:1009400073656E6420756E6B6F776E20636D6421C6
:10095000210D0A0010B54FF4407002F0DDFF4FF496
:10096000C06003F07DFD0121064802F039FB00F074
:10097000E3FA4FF4E13000F0D3F902F015FC02F095
:10098000D5FC10BD0002300000BFFEE710B50246E6
:100990000B460021002004E0545C0444E0B24C1CEF
:1009A000E1B29942F8DB10BD10B5002211460248B1
:1009B000006804F043FA10BD240000201CB500209C
:1009C0000090064803F068FFC0B201906B46012218
:1009D00001A90348006804F0E7FD1CBD0044004085
:1009E000200000201CB5002000901048006804F092
:1009F00059FC04462CB940F207310D4803F0C2FF00
:100A00001CBD6B46012201A90848006804F0F7FCF0
:100A100028B19DF80410012001F0B0FC04E040F280
:100A20000731034803F0AEFF00BFE9E71C000020D8
:100A30000044004070B505460E46002404E0285DE1
:100A400001F0E6FC601CC4B2B442F8DB70BD0000EB
:100A500010B50446A4F13000082805D2DFE800F004
:100A60000A15191D20262A2B17A001F0DDFF00F022
:100A700085F800BF1B48006801F0D6FF1AA001F0FE
:100A8000D3FF1AA001F0D0FF1BE021A001F0CCFFA2
:100A900017E024A001F0C8FF13E003F0C3FB10E04F
:100AA00024A001F0C1FF00F09AFD0AE026A001F0A9
:100AB000BBFF06E005E02BA001F0B6FF02F090FBC3
:100AC00000BF00BF10BD00004552524F523A2043B4
:100AD0006F6D6D616E6420556E6B6E6F77200D0AC1
:100AE00000000000000000200D0A0000417574683D
:100AF0006F723A4A432644615A6869203C76783AD4
:100B00003238353430383133363E0D0A00000000BB
:100B1000675F6C63645F70776D203D203130300D0E
:100B20000A000000675F6C63645F70776D203D2092
:100B3000300D0A007265736574204C4344202620F2
:100B4000393231310D0A0000576174636820446FF7
:100B50006720537461747573203A206F66660D0ABE
:100B600000000000726573657420636F7265206217
:100B70006F61726421210D0A0000000010B50FA002
:100B800001F052FF11A001F04FFF18A001F04CFF3F
:100B900024A001F049FF31A001F046FF35A001F08B
:100BA00043FF3AA001F040FF41A001F03DFF48A003
:100BB00001F03AFF4CA001F037FF10BD0D0A44656B
:100BC00062756720636D643A0D0A0000302E207054
:100BD00072696E742050726F6772616D2062756900
:100BE0006C642074696D650D0A000000312E203799
:100BF00020696E6368206C63642050574D20696ED5
:100C00006372656163652835696E6368206C63642F
:100C100020686173206E6F20656666656374290DB8
:100C20000A000000322E203720696E6368206C6352
:100C3000642050574D206465637265616365283593
:100C4000696E6368206C636420686173206E6F2036
:100C5000656666656374290D0A000000332E2070F6
:100C600072696E74206D79207461736B5F696E6652
:100C70006F0D0A00342E207265736574204C434456
:100C8000202620393231310D0A000000352E207027
:100C900072696E74204861726420576174636820C1
:100CA000446F67205374617475730D0A000000006F
:100CB000362E207072696E74204D637520696E74D3
:100CC00065726E616C5F74656D700D0A00000000E6
:100CD000372E20726573657420636F726520626FB2
:100CE00061726421210D0A006F746865722E207094
:100CF00072696E742068656C700D0A0008B50CE0AE
:100D00004FF0FF33012269460448006804F011FBEC
:100D100018B19DF80000FFF79BFEF1E70C000020E2
:100D200010B504464FF4E131002001F0FBFF002232
:100D30000121402004F0C2FA044908600022012188
:100D4000402004F0BBFA0249086010BD08000020F2
:100D50000C00002008B504254FF000084FF4E130E6
:100D600000F050F84AE04FF0FF321146002003F047
:100D7000FFFC00BF2248006804F094FA0646AE4229
:100D800000D23AE0C5F1040000F0FF080DEB0801C5
:100D900000232A461A48006804F0CBFA40B39DF8B5
:100DA0000000A52809D10421684601F01CFB20B9E8
:100DB0000DF10100FFF730FD1BE0012405E01DF8F7
:100DC0000400A52800D102E0641C042CF7D300BF66
:100DD000042C0BD0E5B2002705E01DF804000DF847
:100DE0000700641C7F1C042CF7D302E0042500E0FC
:100DF00003E0A8EB05000428BCDA00BFB3E700005D
:100E00002000002010B504462146012001F08AFF91
:100E100000220121102004F051FA05490860002247
:100E20000C21102004F04AFA0249086010BD0000AD
:100E30001C0000202000002070470000F0B5034691
:100E400000224FF0E0277D69104F3F68DFF840C077
:100E5000B7FBFCF7FEB203FB06F44FF0E027B969DD
:100E600010E04FF0E027B86988420BD0884202D2E8
:100E70000F1A3A4402E02F1A0F443A440146A242A4
:100E800000D300E0EDE700BFF0BD0000F00000205F
:100E900040420F0010B54FF4805001F029FF28B1F7
:100EA0004FF4805001F01EFF01F09CFE10BD0000C9
:100EB0002DE9F05F0221102001F0CEF9834658465B
:100EC000FFF754FB8046FFF775FB06464FF066328E
:100ED000124BFFF76AFA04460D4622462B4610488D
:100EE0001049FFF75CFA80460F4A104BFFF7CFFA24
:100EF000064600220E4BFFF7B1F904460D460022CC
:100F00000C4B20462946FFF750FA0646FFF733FB05
:100F10000FFA80FA5046BDE8F09F000066664A3F2F
:100F2000E17A14AE47E1F63F22FDF675E09C713F91
:100F3000000024400000594010B501F023F802F0F1
:100F40006DFA01F053F810BD38B50446002000904A
:100F500001226946204600F007F810B19DF8000014
:100F600038BD0020FCE70000F8B504460D461646E3
:100F70002B462246064800960178002000F0C0F972
:100F800008B9012000E0002007463846F8BD0000FF
:100F90004100002033B581B00446012002AB224657
:100FA000009006480178002000F0D8F908B9012027
:100FB00000E00020054628463EBD0000410000201C
:100FC00000BFFEE710B504460021204600F066FA97
:100FD000204601F075F80021204600F08BFA04202D
:100FE000FFF72CFF0121204600F058FA0620FFF7FA
:100FF00025FF0021204600F051FA0320FFF71EFFD5
:1010000010BD000070B5054640F2036003F028FAF9
:10101000012D02D14FF4406405E0022D02D14FF4BE
:10102000407400E0C024234602221021054801F04C
:1010300075FF0121284600F031FA0121284600F011
:1010400059FA70BD000C014010B50446002120463D
:1010500000F024FA204601F033F80121204600F088
:1010600049FA0420FFF7EAFE0121204600F016FAB3
:101070000620FFF7E3FE0021204600F00FFA0320D0
:10108000FFF7DCFE10BD2DE9F04107460D460024B8
:101090000021384600F002FA384600F0F3FF032042
:1010A000FFF7CCFE00261EE00021384600F0F6F9DE
:1010B0000520FFF7C3FE0121384600F0EFF9600676
:1010C000040E0420FFF7BAFE384600F0C3FF08B153
:1010D000601CC4B20420FFF7B1FE0021384600F0C6
:1010E000DDF9701CC6B2082EDEDB1DB93846FFF7ED
:1010F000ABFF02E03846FFF765FF2046BDE8F08110
:1011000070B506460C460021304600F0C7F930465F
:1011100000F0D6FF00251CE00320FFF78FFE04F04F
:101120008001304600F0E6F96006040E0420FFF767
:1011300085FE0121304600F0B1F90620FFF77EFE62
:101140000021304600F0AAF90320FFF777FE681C63
:10115000C5B2082DE0DB70BD10B50446204600F096
:10116000AFFF0121204600F0C5F90121204600F023
:1011700095F90620FFF762FE0021204600F0BAF93B
:101180000620FFF75BFE0021204600F087F910BD26
:1011900010B504460021204600F080F9204600F0FA
:1011A0008FFF0021204600F0A5F90620FFF746FE3C
:1011B0000121204600F072F90320FFF73FFE0121D4
:1011C000204600F097F90620FFF738FE10BD70B5F5
:1011D000054600240021284600F060F90320FFF7AF
:1011E0002DFE0121284600F085F90320FFF726FE99
:1011F000284600F047FF0121284600F04FF9032060
:10120000FFF71CFE0BE0601CC4B2FA2C04DD28467C
:10121000FFF7BEFF012070BD0120FFF70FFE28463B
:1012200000F018FF0028EED10021284600F036F922
:101230000320FFF703FE0020EDE7000010B5044691
:101240000120A04008490978084000B110BD20469F
:10125000FFF7D8FE0120A04003490978084302495E
:10126000087000BFF2E70000100000202DE9F041F7
:1012700080460F4615461E4603F066FF4046FFF7C0
:101280006BFF47F001014046FFF73AFF4046FFF78A
:101290009EFF50B104F00CFD11A001F0C5FB4046CB
:1012A000FFF776FF0220BDE8F08100240FE0701EFA
:1012B000A04205D100214046FFF7E5FE285504E095
:1012C00001214046FFF7DFFE2855601CC4B2B4423E
:1012D000EDDB4046FFF75CFF04F0EAFC0020E2E7AC
:1012E0004552524F523A4949435F576169745F41D1
:1012F000636B28696E64657829213D20300D0A00F2
:101300002DE9F84306460F4690461C46DDF820902E
:1013100000200346424639460090304600F01EF851
:101320000546FF2D07D14B46224639463046FFF78A
:101330009DFFBDE8F88302A001F076FB2846F8E7A0
:101340004552524F523A204969634170705F57725B
:101350006974655F42797465730D0A002DE9F04781
:1013600081460D4616461F46DDF8208003F0ECFE50
:101370004846FFF7F1FE05F0FE014846FFF7C0FEC4
:101380004846FFF724FF50B104F092FC20A001F082
:101390004BFB4846FFF7FCFE0220BDE8F0873146D4
:1013A0004846FFF7ADFE4846FFF711FF48B104F08D
:1013B0007FFC23A001F038FB4846FFF7E9FE03203D
:1013C000EBE7B8F1000F03D104F072FCFF20E4E773
:1013D000002413E0395D4846FFF792FE4846FFF7C8
:1013E000F6FE48B104F064FC21A001F01DFB484664
:1013F000FFF7CEFE0420D0E7601CC4B24445E9DB11
:101400004846FFF7C5FE04F053FC0020C5E7000086
:101410004552524F523A2073656E64206465765F80
:1014200061646472204949435F576169745F416335
:101430006B28696E64657829213D20300D0A000013
:101440004552524F523A2073656E6420776F726432
:101450005F61646472204949435F576169745F4109
:10146000636B28696E64657829213D20300D0A0080
:101470004552524F523A2073656E64206461746124
:10148000204949435F576169745F41636B28696E06
:1014900064657829213D20300D0A000070B50546AD
:1014A0000C46012D0BD124B18102114801F0E8FC5A
:1014B0001DE04FF480610E4801F0E0FC17E0022DC2
:1014C0000BD124B1E9010A4801F0DAFC0FE04FF436
:1014D0008071074801F0D2FC09E024B140210448A2
:1014E00001F0CEFC03E04021014801F0C7FC70BDD3
:1014F000000C014070B505460C46012D0BD124B1FE
:10150000C102114801F0BCFC1DE04FF400610E481F
:1015100001F0B4FC17E0022D0BD124B129020A48D6
:1015200001F0AEFC0FE04FF40071074801F0A6FC9B
:1015300009E024B18021044801F0A2FC03E08021ED
:10154000014801F09BFC70BD000C0140FFF722F93F
:1015500007E0FFF7ADFC034908804FF47A7003F011
:10156000D5FBF6E75C000020704710B58621FF2010
:10157000FFF710FD01210020FFF70CFD4FF49670DE
:1015800003F0C4FB00240820FFF7DEFC00F00F048A
:1015900024020920FFF7D8FC044424020A20FFF7A4
:1015A000D3FC04448621FF20FFF7F4FC0A2100202D
:1015B000FFF7F0FC4FF4967003F0A8FB002408201E
:1015C000FFF7C2FC00F00F0424020920FFF7BCFC67
:1015D000044424020A20FFF7B7FC044410BD10B5F0
:1015E000012001F017FE01F007FF00F0A1F900F063
:1015F00007F8002001F00EFE032000F00DFD10BDE5
:1016000010B517A001F010FAFFF7AEFF00F0EAF9ED
:101610000A2003F07BFB00F025F900F005F900F04B
:1016200013FA00F065F90A2003F070FB00F03AF8B5
:101630000A2003F06BFB00F0E7FA00F097FA00F0E5
:1016400049FA0A2003F062FB01F018FF01F00CFFD9
:101650000A2003F05BFBFFF788FF00F069FB10BD79
:101660000D0A204C54393231315F6D697069207434
:101670006F2054544C0D0A0010B50020FFF7DEFD1A
:1016800040F2066002F0ECFE02231A4610210448E4
:1016900001F044FC0221024801F0F0FB10BD000003
:1016A0000018014070B5D021FF20FFF773FC6021C6
:1016B0000C20FFF76FFC60211C20FFF76BFC7021F2
:1016C0002420FFF767FC30212D20FFF763FC0A215F
:1016D0003120FFF75FFCF0212520FFF75BFC302174
:1016E0002A20FFF757FC4F212120FFF753FC002150
:1016F0002220FFF74FFC01211E20FFF74BFC802129
:101700002320FFF747FC02210A20FFF743FC0221B8
:101710003820FFF73FFC04213920FFF73BFC08216C
:101720003A20FFF737FC10213B20FFF733FC042160
:101730003F20FFF72FFC08214020FFF72BFC102152
:101740004120FFF727FC20214220FFF723FCA021A6
:101750002B20FFF71FFCD021FF20FFF71BFC2620CA
:10176000FFF7F2FB044604F07F0421462620FFF732
:1017700011FC0F212720FFF70DFC8121FF20FFF72F
:1017800009FCBF212020FFF705FCFF212020FFF7E7
:1017900001FC052003F0BAFA6F210B20FFF7FAFBDA
:1017A000FF210B20FFF7F6FB4FF4487003F0AEFA71
:1017B000002515E0C82003F0A9FAD021FF20FFF78B
:1017C000E9FB8720FFF7C0FB00F0080018B10AA072
:1017D00001F02AF906E00DA001F026F9681CC5B257
:1017E0000A2DE7DB00BFD021FF20FFF7D3FB9420B9
:1017F000FFF7AAFB70BD00000D0A4C54393231319D
:101800002070637220737461626C65000D0A4C5421
:10181000393231312070637220756E737461626C7D
:10182000652121212100000010B58621FF20FFF74E
:10183000B1FB85213020FFF7ADFBD821FF20FFF75A
:10184000A9FB00211620FFF7A5FBD021FF20FFF701
:10185000A1FB12214320FFF79DFB05210220FFF78A
:1018600099FB10BD10B5D021FF20FFF793FB00219D
:101870000846FFF78FFB8221FF20FFF78BFB4421F7
:101880000220FFF787FB36210520FFF783FB262187
:101890000D20FFF77FFB0C211720FFF77BFB0C21AE
:1018A0001D20FFF777FB81210A20FFF773FB002142
:1018B0000B20FFF76FFB9F210720FFF76BFBFC213D
:1018C0000820FFF767FB01210920FFF763FB0121D7
:1018D0001120FFF75FFB8621FF20FFF75BFB1B2139
:1018E0003320FFF757FB1B213420FFF753FB10BDBC
:1018F00010B58221FF20FFF74DFB48212D20FFF777
:1019000049FB82213520FFF745FB10BD10B5044689
:10191000FFF7B2FE0A2003F0F9F9FFF760FE4FF47B
:101920007A7003F0F3F9002003F014FA10BD000000
:1019300010B50221064801F0A1FA642003F0E6F98F
:101940000221034801F09CFA642003F0DFF910BD86
:101950000018014010B50446642003F0D7F9D021E7
:10196000FF20FFF717FB608A01120D20FFF712FB23
:10197000A17C0E20FFF70EFB208A01120F20FFF73B
:1019800009FB217C1020FFF705FB217B1520FFF7C9
:1019900001FB608901121720FFF7FCFAA17A1820D9
:1019A000FFF7F8FA208901121120FFF7F3FA217AE4
:1019B0001220FFF7EFFAE08801121320FFF7EAFA8E
:1019C000A1791420FFF7E6FAA1781620FFF7E2FAD2
:1019D000208801121920FFF7DDFA21781A20FFF77D
:1019E000D9FA10BD10B58221FF20FFF7D3FA1821D4
:1019F0000120FFF7CFFA8621FF20FFF7CBFA612104
:101A00000620FFF7C7FAA8210720FFF7C3FA8721AE
:101A1000FF20FFF7BFFA08211420FFF7BBFA0021CF
:101A20001520FFF7B7FA0F211820FFF7B3FA0821A6
:101A30002220FFF7AFFA00212320FFF7ABFA0F2196
:101A40002620FFF7A7FA10BD2DE9F04100274FF43B
:101A5000FA7003F05BF9D021FF20FFF79BFA832097
:101A6000FFF772FA80468220FFF76EFA08EB00203B
:101A700084B2032094FBF0F084B28420FFF764FA70
:101A800000F00F068620FFF75FFA80468520FFF7FB
:101A90005BFA08EB002085B29C20FFF755FA074659
:101AA000642003F033F90120044908700448FFF76B
:101AB00051FF04A000F0B8FFBDE8F0814000002015
:101AC0004400002031303234783630305F363048D0
:101AD0007A0D0A0010B51EA000F0A6FF8521FF2098
:101AE000FFF758FA40215920FFF754FAAA215A204B
:101AF000FFF750FAAA215B20FFF74CFA00215C2087
:101B0000FFF748FA50218820FFF744FA7721A120F7
:101B1000FFF740FA8621FF20FFF73CFA40210846F4
:101B2000FFF738FA34214120FFF734FA1021422020
:101B3000FFF730FA23214320FFF72CFA41214420FC
:101B4000FFF728FA02214520FFF724FA10BD000014
:101B50000D4C54393231312073657420746F204F2D
:101B600055545055545F4C564453000010B58221D3
:101B7000FF20FFF70FFA00216220FFF70BFA082180
:101B80003B20FFF707FA92213E20FFF703FA482196
:101B90003F20FFF7FFF931214020FFF7FBF98021BB
:101BA0004320FFF7F7F900214420FFF7F3F9002164
:101BB0004520FFF7EFF900214920FFF7EBF901215C
:101BC0004A20FFF7E7F900214E20FFF7E3F9002153
:101BD0004F20FFF7DFF900215020FFF7DBF900214C
:101BE0005320FFF7D7F901215420FFF7D3F98121C2
:101BF000FF20FFF7CFF979212020FFF7CBF9FF2154
:101C00002020FFF7C7F910BD10B58221FF20FFF794
:101C1000C1F901213620FFF7BDF929213720FFF74F
:101C2000B9F906213820FFF7B5F930213920FFF73F
:101C3000B1F98E213A20FFF7ADF98121FF20FFF79E
:101C4000A9F9F7212020FFF7A5F9FF212020FFF7B0
:101C5000A1F98721FF20FFF79DF914213720FFF715
:101C600099F900211320FFF795F980211320FFF740
:101C700091F9642003F04AF800241FE08721FF2037
:101C8000FFF788F91F20FFF75FF900F0800080B1AF
:101C90002020FFF759F900F0800018B10BA000F0E8
:101CA000C3FE02E00FA000F0BFFE15A000F0BCFED6
:101CB00006E00CA000F0B8FE601CC4B20A2CDDDB0C
:101CC00000BF16A000F0B0FE10BD00004C54393229
:101CD000313120747820706C6C206C6F636B0D0A4E
:101CE000000000004C543932313120747820706C7F
:101CF0006C20756E6C6F636B65640D0A00000000EC
:101D00004C543932313120747820706C6C2063610E
:101D10006C20646F6E650D0A0000000020737973FB
:101D200074656D20737563636573730D0A0000003D
:101D300010B58621FF20FFF72DF97020FFF704F979
:101D400004467120FFF700F9574908807220FFF719
:101D5000FBF8564908807320FFF7F6F853490978D5
:101D600000EB0120514908807420FFF7EDF850493D
:101D700008807520FFF7E8F84E4908807620FFF7C5
:101D8000E3F84D4908807720FFF7DEF84A490978E3
:101D900000EB0120484908807820FFF7D5F8474933
:101DA00008807920FFF7D0F84449097800EB01203A
:101DB000424908807A20FFF7C7F8414908807B2014
:101DC000FFF7C2F83E49097800EB01203C49088042
:101DD0007C20FFF7B9F83B4908807D20FFF7B4F875
:101DE0003849097800EB0120364908807E20FFF74A
:101DF000ABF8354908807F20FFF7A6F8324909780B
:101E000000EB0120304908808020FFF79DF82F4922
:101E100008808120FFF798F82C49097800EB012011
:101E20002A4908801022214629A000F00BFE0A2230
:101E3000224801882BA000F005FE0A221B480188D9
:101E40002AA000F0FFFD0A221B48018829A000F00B
:101E5000F9FD0A221D48018828A000F0F3FD0A229E
:101E60001848018827A000F0EDFD0A2211480188DA
:101E700027A000F0E7FD0A220B48018826A000F009
:101E8000E1FD0A220A48018825A000F0DBFD0A22B4
:101E90000D48018824A000F0D5FD0A2208480188D9
:101EA00023A000F0CFFD10BD320000203000002044
:101EB000360000203E000020340000203C000020BE
:101EC0003A000020380000202E0000202C000020C6
:101ED00073796E635F706F6C6172697479203D20F5
:101EE00000000000686670203D2000006873203DFF
:101EF00020000000686270203D200000686163746B
:101F0000203D200068746F74616C203D200000004B
:101F1000766670203D2000007673203D2000000092
:101F2000766270203D20000076616374203D2000C1
:101F300076746F74616C203D2000000010B5102194
:101F4000014800F09DFF10BD000C014010B51021AC
:101F5000014800F093FF10BD000C014010B540F2A5
:101F6000036002F07DFA102302221946034800F0B4
:101F7000D5FF1021014800F081FF10BD000C014089
:101F800000BFFEE710B540F2056002F069FA402399
:101F900002221021034800F0C1FF4021014800F057
:101FA0006DFF10BD0014014010B5044606A000F0FE
:101FB0003BFD24B140210B4800F062FF03E04021CB
:101FC000084800F05BFF10BD4D696343746C5F43CC
:101FD0006F6E74726F6C5F4F7574486967680D0A35
:101FE00000000000001401407047000010B540F2EE
:101FF000046002F035FA0F2302221021054800F098
:102000008DFF0421034800F039FF0B21014800F047
:1020100037FF10BD0010014010B50446002C08DD4C
:10202000052C06DA601E012202FA00F1014800F0D8
:1020300027FF10BD0010014010B5044624B14FF039
:10204000804002F0FFFA03E04FF0804002F0F5FA22
:1020500010BD000010B50446012C04D1C10208488F
:1020600000F0B2FF10BD022C04D12102044800F0A0
:10207000ABFFF7E78021024800F0A6FFF2E700007F
:10208000000C014010B50446012C06D1C302022207
:1020900048210A4800F042FF0EE0022C06D123023C
:1020A00002224821054800F039FF05E08023022282
:1020B0004821024800F032FF10BD0000000C014032
:1020C00010B50446012C06D1C302022210210A4891
:1020D00000F024FF0EE0022C06D123020222102180
:1020E000054800F01BFF05E0802302221021024872
:1020F00000F014FF10BD0000000C014010B500BF3F
:10210000502080F31188BFF34F8FBFF36F8F00BF54
:1021100003F034FD18B14FF080500449086000BF4F
:10212000002080F3118800BF10BD000004ED00E026
:1021300010B51448006840F00100124908600846D4
:102140004068114908400F494860084600680F4937
:1021500008400C4908600846006820F480200860A8
:10216000084640680A490840064948600846006831
:1021700006490840034908604FF41F00886002F0D8
:1021800045FA10BD001002400C00FFE8FFFFF6FE0C
:10219000FFFF00F77FB505460C464FF4E06002F004
:1021A0005FF9684602F0D8FA0295ADF8004069463A
:1021B0004FF0804002F04CFA002207211C2001F071
:1021C00055FB0121880702F0B3FA7FBD10B501214C
:1021D000880702F0B5FAD8B110480078401C0F49C2
:1021E00008700846007814280FDC0D48007809783C
:1021F000884203D1002001F025F909E00748007862
:10220000012805D101F01EF902E000200349087001
:102210000121880702F090FA10BD00008000002024
:102220007000002070B5044600250221094800F026
:1022300049FB084800F0AEFB054605232246002175
:10224000044800F051FB0121024800F0A7FB28469A
:1022500070BD0000002401402DE9F04107460C4606
:102260000025002608E03846FFF7DCFF054405207E
:1022700002F04CFD701CC6B2A642F4DBB5FBF4F0D4
:1022800080B2BDE8F081FFF769FE00BF0BE0FFF709
:102290005DFE4FF4FA7002F039FDFFF74FFE4FF488
:1022A000FA7002F033FDF2E710B500240D490E4834
:1022B00002F08FFB30B10B490B4802F07DFB00F0C0
:1022C000DFF80DE00949084802F083FB30B1074907
:1022D000054802F071FB00F015FC01E000F0ECF99C
:1022E00010BD00000503050000380140070307008A
:1022F00010B51D491D4802F06CFB88B11A491B48F6
:1023000002F05AFBFEF75AFB1948007850BB4FF415
:102310004171164802F043FB01201549087021E085
:102320001449124802F055FB30B112490F4802F02F
:1023300043FBFEF757FB15E00F490C4802F049FB41
:1023400080B1FEF731FB0C49084802F035FB084824
:10235000007838B14FF44171044802F013FB0020BB
:102360000349087010BD000005030500004400404B
:102370002800002007030700040304007CB504467E
:102380000D460E4903C9CDE90001012C00DD7CBDDD
:102390000120A0400A490978084060B100BF5DF8FB
:1023A0002400072102F0CFFA0028F8D05DF82400BD
:1023B000294602F076FA00BFE9E70000D05D000888
:1023C000040000202DE9F04107460D461646002482
:1023D00005E0295D3846FFF7D1FF601CC4B2B44266
:1023E000F7DBBDE8F081F0B504460D464FF0FF374E
:1023F0000CB93846F0BD681E265CC1B22046FEF717
:10240000C5FAB04200D100273846F3E700BFFEE727
:1024100031B50A240A23012269460548006803F001
:1024200039F840F20731034802F0B9FA009838BD94
:102430001C000020004400400FB4054B10B503A958
:10244000044A029800F056F810BC5DF814FB000036
:10245000152D0008F40000200FB4084B10B504A996
:1024600002AA039800F046F8044602A9002000F0F2
:102470001DF9204610BC5DF814FB0000AD260008D5
:102480001CB5084802F008FAC0B201900020009084
:102490006B46012201A90448006803F085F89DF805
:1024A00004001CBD003801400C00002031B50A2496
:1024B0000A23012269460548006802F0EBFF40F25A
:1024C0000731034802F06BFA009838BD080000207D
:1024D0000038014002E008C8121F08C1002AFAD1E2
:1024E00070477047002001E001C1121F002AFBD194
:1024F000704700002DE9FF4F8BB09A460F46054606
:10250000002606E025280BD052460D9990476D1CF9
:10251000761C28780028F5D10FB03046BDE8F08F42
:102520000024A0460122604900E0044315F8013F61
:10253000203B02FA03F00842F7D128782E2817D161
:1025400015F8010F44F004042A280ED06FF02F0272
:102550002878A0F1300109290AD808EB880102EB9C
:10256000410100EB01086D1CF2E757F8048B6D1C6C
:10257000287869283ED006DC0028CDD063280BD00F
:10258000642804D136E0732810D075284BD0524609
:102590000D999047761C85E017F8040B8DF8000024
:1025A00000208DF80100E946012003E057F8049B64
:1025B0004FF0FF3061074FF0000401D40AE0641CC3
:1025C00044450DDA8442FADB19F804100029F6D1EB
:1025D00006E0641C8442FCDB19F804100029F8D1E1
:1025E000264404E019F8010B52460D999047641EE9
:1025F000F8D257E001CF4FF00A0B002802DA404230
:102600002D2102E0210504D52B218DF82410012174
:1026100003E0E10705D02021F7E70DF1200908913B
:102620000CE00021F9E701CF4FF00A0BF9E759461A
:10263000FDF7D3FF01F1300209F8012D0028F6D192
:10264000ADEB090000F1200B600701D44FF0010849
:10265000D84502DDA8EB0B0000E0002080460024F6
:1026600006E009A85246005D0D999047641C761C4F
:1026700008988442F5DB04E0302052460D999047DB
:10268000761CB8F10001A8F10108F5DC05E019F8A5
:10269000010B52460D999047761CBBF10001ABF13E
:1026A000010BF4DC6D1C34E7092801000A68531C97
:1026B0000B6010707047000010B54FF442711A485B
:1026C00002F087F940B119A000F0AEF94FF4427161
:1026D000154802F071F925E01C49134802F079F918
:1026E00038B11BA000F0A0F918490F4802F064F9B6
:1026F00018E01E490C4802F06CF938B11CA000F03B
:1027000093F91A49084802F057F90BE020490648A6
:1027100002F05FF930B11FA000F086F91C490248B1
:1027200002F04AF910BD0000003801402A2A2A2090
:1027300055534152542070617269747920657272E8
:102740006F7221202A2A2A0A0000000000050100D9
:102750002A2A2A205553415254206672616D652001
:102760006572726F7221202A2A2A0A00000503006E
:102770002A2A2A205553415254206F766572727569
:102780006E206572726F7221202A2A2A0A000000C8
:10279000000502002A2A2A205553415254206E6F08
:1027A000697365206572726F7221202A2A2A0A00D5
:1027B000816841F00801816000BF816801F0080173
:1027C0000029FAD1816841F00401816000BF81686D
:1027D00001F004010029FAD1704730B5012902D077
:1027E00002291AD10CE0C36A23F47003C362C36ADE
:1027F000541E4FF4700505EA04542343C3620DE0F0
:10280000836B23F440138363836B541E4FF4401592
:1028100005EA04542343836300E000BF00BF30BDDA
:1028200021B1826842F40062826003E0826822F48F
:1028300000628260704730B5436823F4C053436040
:10284000012904D0022913D0042916D116E04368C7
:1028500023F4604343604368541E4FF4604505EA27
:10286000443423434360436843F40063436006E019
:10287000436843F48053436001E000BF00BF00BFE2
:1028800030BD816801F0010119B9816841F0010191
:1028900081607047012902D0022910D107E08368C6
:1028A00023F46023836083681343836008E08368B4
:1028B00023F4E043836083681343836000E000BF38
:1028C00000BF704702688A43026070470549096883
:1028D00021F47021034A1160114609680143116017
:1028E0007047000004240140F0B51D4606290CDAAB
:1028F000436B01EB81071F26BE40B34301EB81060A
:1029000002FA06F63343436322E00C290EDA036B26
:102910008E1F06EB86071F26BE40B3438E1F06EBB5
:10292000860602FA06F63343036311E010290FDA34
:10293000C36AA1F10C0606EB86071F26BE40B3430F
:10294000A1F10C0606EB860602FA06F63343C362D3
:102950000A2A0CDA046902EB42070726BE40B44398
:1029600002EB420605FA06F63443046111E0122A2E
:102970000FDAC468A2F10A0606EB46070726BE4036
:10298000B443A2F10A0606EB460605FA06F63443FE
:10299000C460F0BD0146C86C80B2704701F001020E
:1029A0001AB1826842F48002826001F002021AB118
:1029B000826842F4001282607047AAB101F4807309
:1029C0001BB1436843F48073436001F480631BB11F
:1029D000436843F48063436001F00203CBB1836832
:1029E00043F00203836014E001F480731BB1436879
:1029F00023F48073436001F480631BB1436823F4C4
:102A00008063436001F002031BB1836823F002037B
:102A1000836070470348006840F400000149086083
:102A2000704700000824014010B5044604B910BDE9
:102A300003E014F8010BFFF739FD20780028F8D1E6
:102A400000BFF4E770B506460C4615463046FFF762
:102A5000EBFF2946204600F007F802A0FFF7E4FF4D
:102A600070BD00000D0A00007FB505460E4600202F
:102A700000900190029003908DF80F000A2E13D160
:102A80000E240CE00A20B5FBF0F100FB11503030B1
:102A90000DF804000A20B5FBF0F5601EC4B2102C3E
:102AA00023DA002DEED120E00E2417E005F00F0010
:102AB0000DF804001DF804000A2806DA1DF80400C9
:102AC0003030C0B20DF8040005E01DF804005730A6
:102AD000C0B20DF804002D09601EC4B2102C01DA3A
:102AE000002DE3D105A0FFF79FFF0DEB0401481C6B
:102AF000FFF79AFF02A0FFF797FF7FBD2030780015
:102B0000200000001CB5002000901048006802F072
:102B1000C9FB04462CB940F207310D4801F032FFE1
:102B20001CBD6B46012201A90848006802F067FC41
:102B300028B19DF804100020FFF720FC04E040F2CB
:102B40000731034801F01EFF00BFE9E7080000203D
:102B5000003801402DE9F04707463E460EB900BF58
:102B6000FEE71B480068864201D100242DE002F0F8
:102B700017F875691748D0F800801748D0F800900A
:102B800002F030F8454501D04D4501D102241CE04A
:102B90001248854212D1B06A70B90324002007E0C0
:102BA00006F15401095C012901D1022402E0401C14
:102BB0000128F5DB00BF08E0022406E00848854252
:102BC00000D00DB9042400E001242046BDE8F087C0
:102BD00084000020880000208C0000203C0300209E
:102BE000280300200EB50020029002A80021022335
:102BF0000A46CDE900100448006802F035FE4FF4A3
:102C0000805000F05FF80EBD1400002010B52C4B72
:102C10001B6883432A4C2360231D1B688343241DA8
:102C20002360231D1B688343241D2360231D1B6811
:102C30008343241D236011B101290ED105E0204BEF
:102C40001B6803431E4C236008E01D4B1B1D1B68C3
:102C500003431B4C241D236000E000BF00BF22B1D2
:102C6000012A0FD0022A27D119E0154B08331B681F
:102C70000343134C08342360231D1B688343241D26
:102C800023601AE00E4B08331B6883430C4C083456
:102C90002360231D1B680343241D23600DE0084BA4
:102CA00008331B680343064C08342360231D1B684C
:102CB0000343241D236000E000BF00BF10BD0000DF
:102CC00000040140024909688143014A11607047CC
:102CD00000040140024909680143014A116070473C
:102CE00000040140014908607047000014040140DD
:102CF00001460748006800EA0102054814380068E8
:102D000000EA010312B10BB1012070470020FCE77B
:102D10001404014070B504460D462046FFF7C6FB7B
:102D2000204670BD70B504460D46324E012C00D1D0
:102D3000314E0120A04031490978084000B170BDF2
:102D40002F4931F8140001F08BFB2E4931F81400A3
:102D500001F086FB2C4951F824302C4951F824000D
:102D60000222182100F0DAF8294951F824302749C5
:102D700051F824000222042100F0D0F8304601F07E
:102D800095FD2946304601F03FFD0021304601F017
:102D90005CFE0021304601F048FE0021304601F083
:102DA00034FE0021304601F0E5FD0021304601F0FF
:102DB000D9FD0421304601F030FE0821304601F0F3
:102DC0003CFE304601F0BAFD40F20531304601F0DC
:102DD000E6FD104A115D104A12F82400002200F0AE
:102DE00045FD0120A04005490978084303490870C2
:102DF00000BFA4E700380140004400400400002068
:102E0000C05D0008A45D0008A85D0008B85D00086A
:102E1000B05D0008CC5D0008C45D00080148B0F951
:102E2000000070475C00002070B50646322E04DDBD
:102E300007A0FFF7F9FDFF2070BD0F48324630C8EC
:102E400020462946FDF7C6F901210840C0B2F3E744
:102E50006572726F723A6765745F6C65645F7374F4
:102E6000617475732077686963686C6564203E20BF
:102E7000343021210D0A00007800002041617047A4
:102E80000161704710B500228B071C0F0F2303FA56
:102E900004F204290EDA204B9B6893431E4CA36076
:102EA00023469B688C07240F00FA04F423431A4C32
:102EB000A3602FE008290EDA174BDB689343164C0A
:102EC000E3602346DB688C07240F00FA04F42343F5
:102ED000114CE3601EE00C290EDA0F4B1B69934383
:102EE0000D4C236123461B698C07240F00FA04F460
:102EF0002343094C23610DE0074B5B699343064C68
:102F0000636123465B698C07240F00FA04F42343B2
:102F1000014C636110BD000000000140F0B50446A3
:102F200016460025002201F00F0501F0100707B139
:102F3000354300201EE0012787401F40C7B12268AB
:102F40004FEA800C0F2707FA0CF7BA43870005FAFF
:102F500007F73A43282904D1012787401F406761BA
:102F600005E0482903D1012787401F4027612260DF
:102F7000471CB8B20828DED3082022E0012787408A
:102F80001F40E7B16268A0F108074FEA870C0F27DE
:102F900007FA0CF7BA43A0F10807BF0005FA07F7D4
:102FA0003A43282904D1012787401F40676105E083
:102FB000482903D1012787401F4027616260471CD1
:102FC000B8B21028DAD3F0BD02469068084008B1C4
:102FD000012070470020FCE70146C86880B27047B6
:102FE000F0B50A46002300240021002500F0004629
:102FF000B6F1004F02D11D4EF16901E01B4E716820
:10300000C0F3034583B200F44016B6F5401F08D163
:1030100021F07061154E766826F07066134F7E6061
:1030200012E000F48016B6F5801F06D1032606FADA
:1030300005F4A14341F0706106E0460D360103FA44
:1030400006F6B14341F0706122B1460D360103FA34
:1030500006F6314300F00046B6F1004F02D1034EB0
:10306000F16101E0014E7160F0BD0000000001401F
:10307000C160704710B500200649087006A0FFF730
:10308000D3FC0AA002F032FD18B10A48006801F032
:1030900061FE10BD60000020686172645F77746437
:1030A0005F64697361626C650D0A0000687774641F
:1030B00000000000640000201CB5012009490870D0
:1030C000094800880949088009A0FFF7ADFC0D48B0
:1030D000022100232022CDE900100BA10C4802F0B0
:1030E000F7FA1CBD60000020680000206A00002084
:1030F000686172645F7774645F656E61626C650DB0
:103100000A0000006400002068777464000000007A
:103110004131000810B5044800880449088004A023
:10312000FFF782FC10BD0000680000206A0000204C
:10313000686172645F7774645F666565640D0A0038
:1031400017E00C48007888B10B48008870B10A4835
:103150000088401E084908800846008830B907A04A
:10316000FFF762FC00F03CF8FFF784FF642001F0F9
:10317000CDFDE6E7600000206A000020686172640F
:103180005F7774645F666565645F7461736B2074F8
:10319000696D656F75740D0A0000000001480088B4
:1031A000C0B270476800002010B540F2026001F024
:1031B00057F980210948FFF761FE40210748FFF7D2
:1031C0005FFEE023022210210448FFF7A7FE102330
:1031D000022248210148FFF7A1FE10BD000801406E
:1031E00010B540210548FFF749FEC82001F08EFDCB
:1031F00040210248FFF744FE10BD000000080140D6
:10320000024908800988024A11807047680000203E
:103210006A00002010B504462146282000F014F86A
:1032200010BD000010B504462CB14FF48071054864
:10323000FFF724FE04E04FF480710248FFF720FE00
:1032400010BD00000018014070B504460D4623A0D3
:10325000FFF7EAFB292C03DA204600F0A9F803E087
:1032600026A0FFF7E1FB70BD0120FFF7DBFFBDB13A
:103270004FF480412B48FFF703FE282C05D14FF077
:10328000FF31294A1160516020E00120A040C117A0
:10329000254AD2E9003218431143234A03C215E0FC
:1032A0004FF480411F48FFF7E9FD282C04D100218D
:1032B0001D4A1160516009E00120A040C043C117C0
:1032C000194B0CCB10401940174A03C2012001F0E2
:1032D0001DFD0020FFF7A6FF00BFC4E7656E746503
:1032E00072206B65795F6C696768745F6C65647385
:1032F0005F636F6E74726F6C0D0A00006B65795FAF
:103300006C696768745F6C6564735F636F6E747219
:103310006F6C206F75746F66206C696D69740D0A2F
:1033200000000000001401407800002070B540F259
:10333000056001F095F84FF49043022210211848DF
:10334000FFF7ECFD4FF490411548FFF797FD40F271
:10335000066001F085F87C242346022210211148E2
:10336000FFF7DCFD21460F48FFF788FD4FF440735F
:10337000022210210B48FFF7D1FD4FF4407109489C
:10338000FFF77EFD084800680849B0FBF1F0401ED9
:1033900085B2294640F2E730FEF7FCFE70BD000022
:1033A0000014014000180140F000002040420F00CE
:1033B00070B504460E48FFF70FFE054625F07C0564
:1033C00004F03E0045EA400529460948FFF750FE53
:1033D00004F0010028B14FF400610648FFF750FDEA
:1033E00004E04FF400610348FFF748FD70BD0000A2
:1033F000001801400014014010B54FF480710648D8
:10340000FFF73CFD642001F081FC4FF4807102481D
:10341000FFF736FD10BD00000014014010B540F26A
:10342000056001F01DF84FF480730222102104485A
:10343000FFF774FD4FF480710148FFF721FD10BDC7
:103440000014014010B504462CB14FF4007105483A
:10345000FFF716FD04E04FF400710248FFF70EFD80
:1034600010BD00000018014010B58221FF20FDF7BB
:1034700091FD38213B20FDF78DFD10BD10B5812158
:10348000FF20FDF787FDFB210D20FDF783FD0A20BE
:1034900001F03CFCFF210D20FDF77CFD10BD00007C
:1034A0001CB5FDF757FA25A0FFF7BEFA29480068BA
:1034B000FFF7BAFA26A0FFF7B7FA00200221034669
:1034C0002022CDE9001024A1264802F001F90020B5
:1034D000022103465022CDE9001023A1244802F026
:1034E000F7F80020042103465022CDE9001021A165
:1034F000224802F0EDF82248042100235022CDE9B1
:10350000001020A1214802F0E3F821480321002304
:103510004022CDE900101FA1204802F0D9F8002078
:10352000022103464022CDE900101DA11E4802F0F1
:10353000CFF801F0C9FD00BFFEE7000066726565C7
:1035400072746F73202C20696E6974206F6B212157
:103550000D0A0000000000205461736B4C6564315B
:103560000000000087220008646562756772000031
:10357000FD0C00086C743932313100000D1900085F
:1035800024000020546F437075000000550D0008A2
:10359000140000206B65795F626F640015460008B7
:1035A00074656D70000000004D15000808B51EA080
:1035B00000680090022000F011F96A460021022004
:1035C00000F029F900231A461946022000F034F9C8
:1035D00040F2036000F044FF4FF4C06000F040FF91
:1035E0004FF48053022248211048FFF797FC0C212A
:1035F0000120FFF747FC012200211003FFF706FB23
:103600004FF48050FFF766FB4FF48050FFF76AFBE2
:1036100000220621282000F029F900F00BF8902163
:103620000348FCF700FE08BD00FF0000000C01404D
:10363000F800002008B56B4601220021022000F0AE
:10364000D3F860B99DF8000000F03F003F2804D097
:103650009DF8000000F03F0008BD3F20FCE702A0FD
:10366000FEF7EAFEFF20F7E74552524F523A204B51
:1036700045595F524F575F5343414E206E63613946
:103680003535355F726561645F696E706F72740D98
:103690000A0000002DE9F0410027FFF7CBFF0746A5
:1036A0003F2F55DA002550E03C48435D002211468B
:1036B000022000F0C1F820B1294639A0FEF7BCFE77
:1036C00041E0FFF7B7FF0746002639E0062000FB80
:1036D0000560C4B247FA06F000F00100E8B93D48C1
:1036E00030F81400022829DA3A4830F81400401C57
:1036F00081B2384820F8141030F8140002281DD187
:103700000120344948390855611CC8B2012100F034
:10371000D7FE01203049087010E02E484838005D7F
:1037200060B100202B4948390855611CC8B20021FE
:1037300000F0C6FE0021274820F81410701CC6B205
:10374000062EC3DB00BF681CC5B2062DACDB1CE037
:1037500021480078C8B1002412E01E484838005DB6
:1037600060B100201B4948390855611CC8B20021CE
:1037700000F0A6FE0021174820F81410601CC4B207
:10378000242CEADB00201449087000231A4619464D
:10379000022000F051F80020BDE8F081D85D00085B
:1037A0004552524F523A204B45595F524F575F5343
:1037B00043414E206E6361393535355F77726974E8
:1037C000655F6F7574706F727420693D25640D0AB2
:1037D00000000000400100201800002010B5044641
:1037E0002046FDF72BFD10BDF8B506460D461446E4
:1037F0001F4605F00E0545F040050CB1012000E024
:10380000002004460120E2B23B46294600903046A3
:10381000FDF776FDF8BDF8B506460C46154604F0F2
:103820000E0444F0400402202B460622214600905C
:103830003046FDF793FDF8BD7FB582B006460C46D5
:10384000154604F00E0444F040040DB1012000E0E0
:103850000020054601200090A81CC2B205AB2146FD
:103860003046FDF77BFD06B070BD00002DE9F0414C
:1038700003460D46164600240027A046244800684B
:1038800000F4E060B0F5A06F15D006DCB0F5407F25
:1038900018D0B0F5806F19D110E0B0F5C06F06D028
:1038A000B0F5E06F12D100274FF0040815E00127B2
:1038B0004FF0030811E00227B8460EE003274FF04F
:1038C00001080AE004274FF0000806E04FF4A0606A
:1038D00000F022F80227B84600BF00BFC7F104007D
:1038E00005FA00F4C8F104010F20C8403040044339
:1038F00024010848C45403F01F01012088405911D5
:10390000890001F1E021C1F80001BDE8F08100006B
:103910000CED00E000E400E002490143024A1160BE
:10392000704700000000FA050CED00E02DE9F041C1
:1039300005460E461C4807681C480068001D01F03B
:103940008CF850B91948006890F82C100120884074
:1039500017490968814316480160681C38B936B1B7
:1039600012480168091D134801F00EF91AE07C198C
:103970000E4800684460BC4207D20C480168091D2B
:103980000D48006801F0E6F80CE008480168091DE0
:103990000A48006801F0DEF809480068844201D254
:1039A00007480460BDE8F0819800002084000020F2
:1039B0009C0000203C0300208C0000208800002098
:1039C000B400002010B5044601F0EAF8244800686D
:1039D000401C234908602348006840B9214804601E
:1039E0000846006801280DD100F04CF90AE01E4895
:1039F000006838B91B480068C06AE16A884201D88B
:103A00001848046019480068401C184908600846B6
:103A10000068206494F82C1001208840144909683B
:103A2000084313490860E16A01EB8101114A02EB86
:103A30008100211D01F0A8F801F0D4F80A480068BF
:103A400068B108480068C06AE16A884207D24FF04E
:103A5000805009490860BFF34F8FBFF36F8F10BDCF
:103A60009400002084000020A0000020B00000206E
:103A70009C0000208802002004ED00E00146D1E90E
:103A80000132D0180A68801A8A68824201D88A688E
:103A9000801A704710B516E001F082F80C48C06833
:103AA000C468201D00F0D9FF0A480068401E09497B
:103AB000086009480068401E0749086001F092F854
:103AC000204600F00BF8044800680028E4D110BD3F
:103AD00028030020940000209000002010B5044628
:103AE000206B01F095F8204601F092F810BD00001F
:103AF00030B54FF42053174800F007042CB1C01D17
:103B000020F00700134C041B1B1B0246124C2260C2
:103B10000024114D6C60D018083820F007000F4CBD
:103B2000206000240D4D2D686C600C4D2D682C60BC
:103B30001146441A4C60094C24680C60084D4C68CE
:103B40002C60084D4C682C604FF00044064D2C60F2
:103B500030BD000050030020D0000020D80000201D
:103B6000E0000020DC000020EC00002000BFFFF798
:103B700091FF064800680128F9D94FF080500449A8
:103B80000860BFF34F8FBFF36F8FF0E7880200200C
:103B900004ED00E02DE9F04704460D4616461F46A9
:103BA000DDF820804FF05509324655212846FCF7B4
:103BB0003CFBA84201D1012000E0002008B900BF71
:103BC000FEE724212046FCF72EFBA561A660E760F6
:103BD00084F81C80BDE8F0872DE9F05F82460E4630
:103BE00090469B460A9F0C9C4FEA8801A522206BB9
:103BF000FCF712FBA8F10100216B01EB800929F011
:103C0000070909F0070008B9012000E0002008B901
:103C100000BFFEE786B1002507E0715D04F13400C6
:103C20004155705D00B902E06D1C0A2DF5D300BF4F
:103C300000213D20015502E0002084F83400052FCA
:103C400000D30427E762A7640020E064201D00F091
:103C50007EFF04F1180000F07AFF2461C7F105002F
:103C6000A06164620020206584F854005A465146E1
:103C7000484600F0C5FA20600B9808B10B98046024
:103C8000BDE8F09F10B5002407E004EB84010F4A63
:103C900002EB810000F04EFF641C052CF5D30C48AC
:103CA00000F048FF0B4800F045FF0B4800F042FFD2
:103CB0000A4800F03FFF0A4800F03CFF0448094969
:103CC000086004480849086010BD00008802002010
:103CD000EC02002000030020140300202803002031
:103CE0003C030020880000208C00002010B5014615
:103CF000164800E0006803688B42FBD30246436825
:103D000013448B4204D143684C682344436001460A
:103D10000A464B6813440468A34211D10C4C036853
:103D20002468A34208D04B680468646823444B604D
:103D300003681B680B6005E0054B1B680B6001E026
:103D400003680B60884200D0016010BDD0000020E5
:103D5000D80000202DE9F04707460C469046002683
:103D6000206848B3204641684968416000F1080175
:103D700042688A4202D14168496841604168D1F88D
:103D80000C9000BF204641684968416000F108017D
:103D900042688A4202D14168496841604168CD6801
:103DA00006EBC60007EB800143460122284601F0DE
:103DB000BBF8761C4D45E5D13046BDE8F0872DE9CE
:103DC000F0470446894690469A46C24501D250467D
:103DD00000E040460646002E38D02568A068401B0B
:103DE000B04202D2A068401B00E03046074647457B
:103DF00001D8012000E0002008B900BFFEE7E81963
:103E0000A168884201D8012000E0002008B900BF65
:103E1000FEE7A06941193A464846FCF7EBF9BE4275
:103E20000DD9464501D8012000E0002008B900BFA7
:103E3000FEE7F21B09EB0700A169FCF7DBF935444B
:103E4000A068A84201D8A0682D1A25603046BDE8B8
:103E5000F0872DE9F84F05468A46164698460A9F90
:103E600087B1D5F8009043463A4669462846FFF7A1
:103E7000A6FF009CA8EB0708B44204D9C5F800903F
:103E8000002400E034464346224651462846FFF7C8
:103E900096FF83465846BDE8F88F00000948006841
:103EA000006808B9012000E0002020B14FF0FF3089
:103EB0000549086005E003480068C06800680249D9
:103EC0000860704788000020B40000202DE9F0430E
:103ED00002460D460027106800284CD01046D0F846
:103EE0000480D8F80480C0F8048000F10808D0F8F5
:103EF0000490C14505D1D0F80480D8F80480C0F8FA
:103F00000480D0F80480D8F80C6000BF1046D0F8C8
:103F10000480D8F80480C0F8048000F10808D0F8C4
:103F20000490C14505D1D0F80480D8F80480C0F8C9
:103F30000480D0F80480D8F80C104FF0000C002357
:103F400011E001F13400C45CE85CA04202D04FF003
:103F5000010C03E014B90F464FF0010CBCF1000F47
:103F600000D002E05B1C0A2BEBD300BF07B101E0DD
:103F7000B142CBD100BF3846BDE8F08302460021F4
:103F800001E0521C491C1078A528FAD0890888B293
:103F9000704700000A480068401C08B9012000E092
:103FA000002008B900BFFEE700BF502080F3118851
:103FB000BFF34F8FBFF36F8F00BF00BFFEE700005E
:103FC000C40000202DE9F0410446884616460EB193
:103FD000012000E0002008B900BFFEE76568A06886
:103FE000401BB04202D2A068401B00E030460746AA
:103FF000E819A168884201D8012000E0002008B932
:1040000000BFFEE7A16948193A464146FCF7F2F8BD
:10401000BE420FD9F01BA168884201D8012000E000
:10402000002008B900BFFEE7F21B08EB0701A069FA
:10403000FCF7E0F83544A068A84201D8A0682D1A22
:1040400065603046BDE8F0812DE9FF4707468846A8
:104050001D46DDF830900DB9002416E0387F00F0E1
:10406000010040B901240298A84201D2029800E060
:104070002846029009E04D4506D30124042202A9F6
:104080003846FFF79FFF00E0002434B14146384630
:10409000029AFFF797FF064600E00026304604B07C
:1040A000BDE8F08770B505460E4631462846FCF758
:1040B000CCF82846FCF7C2F8044602E02020285538
:1040C000641C092CFAD300202855281970BD000063
:1040D0002DE9F04104464FF0000801F035F8424860
:1040E000006808B9FFF704FD404800682040002838
:1040F0006CD1F4B104F10800A0421AD9083404F0DC
:104100000700B8B104F00700C0F108002044A04245
:104110000DD904F00700C0F10800044404F00700C2
:1041200008B9012000E0002020B900BFFEE700240C
:1041300000E00024002C49D02D480068844245D876
:104140002C4E3046056801E02E462D686868A04276
:1041500002D228680028F7D123480068854235D06C
:10416000306800F10808286830606868001B102873
:1041700010D92F1907F0070008B9012000E000202E
:1041800008B900BFFEE76868001B78606C603846BD
:10419000FFF7ACFD164968680968081A14490860F9
:1041A0000846006814490968884203D2104800682C
:1041B000114908600D496868096808436860002073
:1041C00028600E480068401C0C49086001F070FD32
:1041D00008F0070008B9012000E0002008B900BF7E
:1041E000FEE74046BDE8F081D8000020EC0000204A
:1041F000DC000020D0000020E0000020E4000020CF
:10420000001F4FF080730360001F21F00103036063
:10421000001F034B03601438026020387047000011
:10422000953F000810B509A0FEF7FEFB15A0FEF7AC
:10423000FBFB214800F0C6FE1F48FEF7F5FB1FA060
:10424000FEF7F2FB1EA0FEF7EFFB10BD2D2D2D2D6E
:104250002D2D2D2D2D2D2D2D2D2D2D2D2D2D2D2D8E
:104260002D2D7461736B20696E666F2D2D2D2D2D94
:104270002D2D2D2D2D2D2D2D2D2D2D2D2D2D2D0D8E
:104280000A0000005461736B4E616D65202054611B
:10429000736B5374617465205072696F72697479BD
:1042A00020204C656674537461636B2020546173E5
:1042B0006B4E756D200D0A00880100200D0A00006C
:1042C0002020423A20426C6F636B2020523A2052E9
:1042D000656164792020443A2044656C65746520EA
:1042E00020533A2053746F702020583A2052756E34
:1042F000200D0A000F4A51680F4A1140082814D2B5
:10430000DFE800F004050607130A130B00BF00BF27
:1043100000BF41EA803109E000BF20F004004FF007
:10432000805242EA8032114300E000BF00BF014AE0
:104330005160704700100240FF3FFFEF2DE9F04F42
:104340008BB00746002009903EA090E8004CC06862
:10435000CDE905BECDF810A007900FF2EC0ADAE91E
:10436000000ACDE9020A0FF2E00ADAE9000ACDE913
:10437000000A38484068C0F381000A900A9820B1CA
:10438000012804D0022829D103E0334928E032492A
:1043900026E03048406800F48038B8F5803F09D105
:1043A0002D4C2C48406800F40039B9F5003F02D18B
:1043B000641000E0294C27484068C0F38342254838
:1043C000406800F0006008B142F010020F2A01D2EC
:1043D000921C00E0521C04FB02F101E01E4900BFE8
:1043E00000BF1C484068C0F3031504A8465D21FACD
:1043F00006F318484068C0F3022502A8465D23FA78
:1044000006FC14484068C0F3C2251DF8056023FA75
:1044100006F0089037B1012F06D0022F06D0032FE7
:104420000AD106E0099108E0099306E0CDF824C01E
:1044300003E00898099000E000BF00BF09980BB0A6
:10444000BDE8F08F0000000000000000010203043E
:10445000060708090010024000127A0000093D001A
:10446000064A02EB9011096800F01F0301229A40EE
:104470001143024B03EB9012116070470010024091
:10448000064A02EB9011096800F01F0301229A40CE
:104490009143024B03EB90121160704700100240F1
:1044A000064A02EB9011096800F01F0301229A40AE
:1044B0001143024B03EB9012116070470010024051
:1044C0007CB505460C461148007800F0020018B98A
:1044D0000FA0FEF7A9FA7CBDA5208DF800008DF88D
:1044E00001508DF802409DF800009DF8011008442D
:1044F0009DF802100844C0B28DF8030004226946FA
:104500000120FDF75FFF00BFE5E700000400002089
:104510006572726F723A20544F4350555F434F4D4E
:10452000206E6F7420696E69740A000010B504462D
:10453000642C00DD6424052094FBF0F0074908702A
:10454000642C06D10020FDF777FD0120FEF77AFFED
:1045500002E00120FDF770FD10BD0000700000209A
:1045600000200021264A126842F00102244B1A6002
:1045700000BF401C224A126802F0020111B9B0F5D6
:10458000A06FF6D11E4A126802F002020AB900BFFB
:10459000FEE71B4A52681A4B5A601A4652685A6024
:1045A0001A46526842F480625A601A465268154BA5
:1045B0001A40134B5A601A465268134B1A43104B59
:1045C0005A601A46126842F080721A6000BF0C4AA4
:1045D000126802F00072002AF9D0094A526822F0EB
:1045E0000302074B5A601A46526842F002025A60B0
:1045F00000BF034A526802F00802002AF9D070474F
:1046000000100240FFFFC3F70000280810B5FFF7B5
:10461000A7FF10BDFEF7CAFF0EE04FF0FF320021EA
:10462000084600F0A5F8FFF735F81E2000F06EFBF5
:104630004FF48050FEF74EFBEFE7016821F00101D7
:1046400001607047016841F001010160704700009E
:104650000A888262294A904220D0B0F1804F1DD052
:10466000274A90421AD0274A904217D0264A9042B1
:1046700014D0264A904211D0254A90420ED0254AA5
:1046800090420BD0244A904208D0244A904205D050
:10469000234A904202D0234A90420FD1026822F06E
:1046A0007002026002688B7803F060031A430260B4
:1046B00002680B7903F010031A4302608A68C26231
:1046C000194A90420CD0194A904209D0026822F44B
:1046D0004072026002688B8903F440731A430260DF
:1046E000064A904202D0094A904201D18A7B026375
:1046F000426942F00102426170470000002C014013
:104700000004004000080040000C0040003401405C
:10471000004C01400050014000540140001800408E
:10472000001C004000200040001000400014004029
:10473000C2680A43C260704702698A4302617047D7
:104740000246D06800EA01031069084010B10BB1BD
:10475000012070470020FCE700210180418081801A
:104760004FF6FF71816000218181817370470000E5
:104770002DE9F04104460F4616460CB9012000E031
:10478000002008B900BFFEE700F00AFA1C480068E4
:10479000503050F8240080B9012119480068543085
:1047A000015556B13046FFF7C1F84FF0805015491A
:1047B0000860BFF34F8FBFF36F8F00F013FA00F064
:1047C000EFF90F480068503050F824506DB137B100
:1047D00000210B480068503040F8241005E0681EA6
:1047E00007490968503141F8240000210448006855
:1047F0005430015500F0F6F92846BDE8F08100007C
:104800008400002004ED00E02DE9F04704460D4649
:104810000027B846B94600261D49601A8C421CD0B4
:1048200006DC1C48204470B1B0F5806F1FD10FE04A
:10483000B0F5806F16D0B0F56C4F18D10320FFF79C
:104840007DFD074614E00220FFF778FD07460FE0E4
:104850000220FFF773FD07460AE00220FFF76EFD16
:10486000074605E00220FFF769FD074600E000BFAC
:1048700000BF07EB5500B0FBF5F64FF6F07006EA07
:10488000000806F00F0948EA0900A060BDE8F087BB
:10489000004C004000BCFFBF01464868C0F3080060
:1048A0007047C1F3080242607047000010B504462B
:1048B0002049601A8C4228D006DC1F48204490B161
:1048C000B0F5806F33D117E0B0F5806F26D0B0F52A
:1048D0006C4F2CD140F20E30FFF7E2FD40F20E306B
:1048E000FFF7CEFD24E040F21140FFF7D9FD40F282
:1048F0001140FFF7C5FD1BE040F21240FFF7D0FD6D
:1049000040F21240FFF7BCFD12E040F21340FFF707
:10491000C7FD40F21340FFF7B3FD09E040F2144039
:10492000FFF7BEFD40F21440FFF7AAFD00E000BF14
:1049300000BF10BD004C004000BCFFBFC16841F487
:104940000051C160704710B5024602EB911000683B
:1049500001F01F040123A340184008B1012010BD3D
:104960000020FCE70A460021416921F4007111434F
:10497000416170470A460021416921F48071114369
:104980004161704710B5C1F38912825801F01F04CC
:104990000123A3409A43C1F38913C25010BD10B53F
:1049A000C1F38912825801F01F040123A3401A4366
:1049B000C1F38913C25010BD10B500EB91521268BB
:1049C000C1F304440123A3409A4300EB91531A60BE
:1049D00010BD70B5024600230024C1F389101058A1
:1049E00001F01F060125B54000EA050302EB9150D6
:1049F0000068C1F304460125B54000EA050414B17E
:104A00000BB1012070BD0020FCE7C26822F4C06237
:104A1000C260C2680A43C26070470A460021C1688A
:104A200021F004011143C1607047026922F4405231
:104A3000026102690A43026170470A460021C168A7
:104A400021F008011143C1607047C26822F480520E
:104A5000C260C2680A43C260704701460A69D1E970
:104A600001309860D1E9010358605068884201D153
:104A700088685060002008611068401E106010684F
:104A8000704700002DE9F04105468846164600248F
:104A9000052700F059FB21480068804539D300BF45
:104AA0007F1E07EB87021E4B03EB820104EBC4025F
:104AB00005EB82000122FFF74DF90444002FEFD1EE
:104AC00004EBC40105EB8100022216490968FFF7D7
:104AD00041F9044404EBC40105EB810002221249B0
:104AE0000968FFF737F9044404EBC40105EB8100C2
:104AF00004220E49FFF72EF9044404EBC40105EB30
:104B0000810003220A49FFF725F904440EB1002071
:104B1000306001F0CDF82046BDE8F081940000201F
:104B200088020020880000208C000020280300203C
:104B30003C03002000F1080141604FF0FF3181602B
:104B400000F10801C160016100210160704700218E
:104B50000161704710B502460B685C1C0CB9106906
:104B600007E002F1080000E04068446824689C42C5
:104B7000FAD944684C604C68A160886041600A6161
:104B80001468641C146010BD42684A6093688B60AE
:104B9000936859609160086103685B1C036070470B
:104BA00000BF502080F31188BFF34F8FBFF36F8F8A
:104BB00000BF0A480068401C0849086008460068B1
:104BC000012809D106480068C0B208B9012000E0F8
:104BD000002008B900BFFEE770470000C4000020B5
:104BE00004ED00E00948006808B900BFFEE7074887
:104BF0000068401E054908600846006820B900208A
:104C000080F3118800BF00BF70470000C40000207F
:104C100070B506463546002E32D0083D2C4619495F
:104C200060680968084008B1012000E0002008B968
:104C300000BFFEE7206808B9012000E0002008B9A5
:104C400000BFFEE70F49606809680840C0B12068EE
:104C5000B0B90C49606809688843606000F074FA74
:104C60000949606809680844074908602046FFF759
:104C70003DF806480068401C0449086001F018F837
:104C800070BD0000EC000020DC000020E8000020E7
:104C900000204FF0E02108618861064800684FF469
:104CA0007A71B0FBF1F0401E4FF0E021486107201F
:104CB00008617047F000002070B5FBF775FA0546F3
:104CC000102D0DD305F1E02090F8F0430C4800784A
:104CD000844201DB012000E0002008B900BFFEE7AC
:104CE0000848006800F4E06007490968884201D874
:104CF000012000E0002008B900BFFEE770BD000001
:104D0000C80000200CED00E0CC00002070B5044687
:104D100000258CB10D48006808B9012000E0002092
:104D200008B900BFFEE700F00FFA00212046FEF7A9
:104D3000FDFD00F0BDFF05463DB94FF08050044930
:104D40000860BFF34F8FBFF36F8F70BDC0000020AE
:104D500004ED00E070B50546FFF722FF15B92D48B8
:104D6000006800E028460446201DFFF776FE78B96B
:104D7000E06A00EB8000284951F8200040B994F81F
:104D80002C1001208840254909688143234801608F
:104D9000A06A18B104F11800FFF75FFE2048006810
:104DA000401C1F4908601B480068844209D1211D2E
:104DB0001C48FFF7E9FE1C480068401C1A490860BF
:104DC00006E01A480068401E18490860FFF766F8B8
:104DD000FFF708FF0F480068844202D02046FEF724
:104DE0007DFE13480068A0B10A480068844210D1D3
:104DF0001048006808B9012000E0002008B900BF91
:104E0000FEE74FF080500C490860BFF34F8FBFF3AF
:104E10006F8F70BD84000020880200209C0000205D
:104E2000B000002028030020900000209400002003
:104E3000A0000020C000002004ED00E02DE9F047B4
:104E400005460E4690460DB900BFFEE70EB901209B
:104E500000E0002008B900BFFEE7FFF72DFF2C4659
:104E600000BF5021EFF3118081F31188BFF34F8F02
:104E7000BFF36F8F00BF074604F1540010F806908F
:104E800002218155001F50F82600401C04F15001FA
:104E900041F82600B9F1010F34D1A06A08B9012008
:104EA00000E0002008B900BFFEE719480068A8B973
:104EB000201DFFF7D2FD94F82C10012088401549E1
:104EC0000968084313490860E16A01EB8101124A4D
:104ED00002EB8100211DFFF757FE04E004F11801E9
:104EE0000E48FFF751FE0E49E06A0968C96A884218
:104EF00008D9B8F1000F02D00120C8F80000012045
:104F00000849086000BF87F3118800BFBDE8F0873B
:104F1000C00000209C000020880200201403002014
:104F200084000020A80000202DE9F04107460C462F
:104F300090461E4617B91C48006800E038460546F2
:104F4000256005F134006060E86A2061286BE0614B
:104F5000286CA060A86C60610020A061052E12D0B2
:104F600011480068854202D1002020730FE02673AB
:104F7000032E0CD100F0E8F8A86A08B102202073D3
:104F800000F096FE03E02846FDF7E4FD2073B8F13B
:104F9000000F04D0286BFEF7F1FF208401E0002011
:104FA0002084BDE8F08100008400002003490968E6
:104FB000016003490968416070470000AC000020AF
:104FC000980000202DE9FC410646002030702F4853
:104FD00007680146096801EBC1018800FFF778F80E
:104FE0000546002D50D0002239462846FFF74AFDDD
:104FF0000746002443E004EBC40005EB8000007B7F
:10500000062813D2DFE800F00306090C0F134FF057
:1050100058080FE04FF052080CE04FF0420809E04A
:105020004FF0530806E04FF0440803E000BF4FF094
:10503000000800BF00BF04EBC40005EB800041681E
:105040003046FFF72FF8064604EBC40005EB80005E
:10505000806804EBC40105EB8101098CCDE90010E7
:1050600004EBC40005EB8000424609A10369304609
:10507000FDF7F2F93046FBF7E1F80644641CBC4248
:10508000B9D32846FFF7C4FDBDE8FC819400002099
:105090000925630925750925750925750D0A00007F
:1050A00010B504460CB900BFFEE7FFF779FD0448D0
:1050B00000682060034800686060FFF793FD10BD42
:1050C000AC000020980000201CB5174800210B46BA
:1050D0004022CDE9001015A1164800F0F9FA044667
:1050E000012C15D100BF502080F31188BFF34F8FE2
:1050F000BFF36F8F00BF4FF0FF300F4908600120F2
:105100000E49086000200E49086000F061F807E0D1
:10511000601C08B1012000E0002008B900BFFEE7D4
:10512000084800681CBD0000B800002049444C45F8
:10513000000000006D3B0008B4000020A00000202B
:1051400098000020BC00002002480068401C014973
:1051500008607047C00000201848006818B101209E
:105160001749086029E000201549086015480068C3
:10517000B0FA80F0C0F11F0101EB8100124A52F831
:10518000200008B1012000E0002008B900BFFEE7C0
:1051900001EB81020C4B03EB8200426852684260D3
:1051A00000F108024368934202D1426852684260AB
:1051B0004268D268054B1A6000BF7047C0000020EB
:1051C000A80000209C00002088020020840000200D
:1051D0001CB52F48014609780191FF210246117044
:1051E0000146097800919DF8001001F0F0019DF84A
:1051F0000020914201D1012100E0002109B900BF46
:10520000FEE79DF8001001F05001224A11700721BD
:10521000214A116009E020490968491E1E4A1160AF
:105220009DF800104906090E00919DF8001001F04C
:1052300080018029EFD018490968C1F107010429CC
:1052400001D1012100E0002109B900BFFEE71249A8
:1052500009680902104A11601146098801F4E061E9
:1052600011600B4A019911700C48006840F47000FD
:105270000A4908600846006840F070400860FFF77F
:1052800007FD002006490860FAF758FF00201CBD02
:1052900000E400E0C8000020CC00002020ED00E089
:1052A000C400002070B5044625460DB900BFFEE7D6
:1052B0002846FEF7E3FB0646304670BD2DE9F8436D
:1052C00004460E469046B8F1010F08D10127042C80
:1052D00001D9012000E0002048B900BFFEE7002707
:1052E0000CB1012000E0002008B900BFFEE7A64293
:1052F00001D8012000E0002008B900BFFEE706B990
:10530000012604F12500844206D2641C04F1240025
:10531000FEF7DEFE054600E000253DB1334622469D
:1053200005F1240128460097FEF734FC2846BDE825
:10533000F8832DE9F84F8046894693461F46444638
:105340004FF0000AB9F1000F01D100BFFEE70CB920
:1053500000BFFEE7207F00F0010008B1042600E056
:10536000002647B3FFF71CFC2046FEF787FB0546E7
:10537000B5420ED80021084600F02EFB206908B97E
:10538000012000E0002008B900BFFEE700F0A8FB04
:105390002061FFF727FCB54211D800231A461946B1
:1053A0001846009700F03EFB002020612046FEF7E3
:1053B00065FB054603E02046FEF760FB0546B54267
:1053C0001AD92B465A46494620460096FEF741FD1B
:1053D0008246BAF1000F0FD0FFF7B6FE606948B100
:1053E00000200090606900231A46194600F0A0F9D9
:1053F0000020606100F05CFC5046BDE8F88F2DE9AC
:10540000FF4F83B0804689469A4644464FF0000BD2
:10541000B9F1000F01D100BFFEE70CB900BFFEE7F4
:10542000207F00F0010008B1042600E0002620469D
:10543000FEF724FB0546B54228D92B46009649467F
:105440002046059AFEF705FD8346BBF1000F1DD0EF
:1054500000BF5021EFF3118081F31188BFF34F8F0C
:10546000BFF36F8F00BF0746606950B10020CDE9E0
:10547000000A606900231A46194600F0F5F9002079
:10548000606100BF87F3118800BF00BF584607B0B6
:10549000BDE8F08F2DE9FF4F83B006468B461746D7
:1054A00034464FF000093D46A068A0F1010ABBF167
:1054B000000F01D100BFFEE70CB900BFFEE7207F5F
:1054C00000F0010068B12D1DBD4201D9012000E0AE
:1054D000002008B900BFFEE7554505D90020069019
:1054E00002E0554500D95546069888B301A8FFF754
:1054F000D7FD00BFFFF754FB204600F0A0F881461F
:10550000A9450FD20021084600F066FA606908B983
:10551000012000E0002008B900BFFEE700F0E0FA3B
:10552000606102E0FFF75EFB11E0FFF75BFB0698AE
:1055300000231A4619460090184600F073FA00201E
:10554000606106A901A800F08DF80028D2D000BF44
:10555000B9F1000F03D1204600F071F881464B46A7
:105560003A46594620460095FEF76EFD8046B8F152
:10557000000F15D02046FEF781FAE16888420FD36C
:10558000FFF7E2FD206948B1002000902069002368
:105590001A46194600F0CCF80020206100F088FB84
:1055A000404607B0BDE8F08F2DE9FE4F074688461C
:1055B00091469A463C46CB46B8F1000F01D100BF58
:1055C000FEE70CB900BFFEE7207F00F0010008B144
:1055D0000BF1040B204600F032F80290CDF800B039
:1055E0004A4641462046029BFEF72EFD05461DB366
:1055F0002046FEF743FAE16888421DD300BF5021E0
:10560000EFF3118081F31188BFF34F8FBFF36F8FDA
:1056100000BF0646206950B10020CDE9000A20698C
:1056200000231A46194600F01FF90020206100BF30
:1056300086F3118800BF00BF2846BDE8FE8F10B575
:105640000246114609B900BFFEE70C688B681819BD
:105650004B68C01A401E8B68834201D88B68C01A01
:1056600010BD000070B505460C460DB900BFFEE741
:105670000CB900BFFEE7FFF793FA134803686868A8
:105680001A1A2068401C08B9002619E00F4928683A
:105690000968884206D06868984203D8012600202D
:1056A00020600DE02068904207D92068801A2060B1
:1056B0002846FFF77BFC002602E000202060012640
:1056C000FFF790FA304670BD98000020AC00002033
:1056D0002DE9FF4F85B0804689461746DDE912ABBC
:1056E000B800FEF7F5FC064656B15820FEF7F0FC70
:1056F00004460CB1266304E03046FFF789FA00E067
:1057000000247CB10020CDE900ABCDE902403A464F
:1057100049464046089BFEF75FFA2046FEF752F9DD
:10572000012501E04FF0FF35284609B0BDE8F08FB4
:105730002DE9F05F07460D4616469846DDF828A08D
:105740004FF0010B0DB9012000E0002008B900BFA7
:10575000FEE70FB900BFFEE73C46FFF721FABAF1BA
:10576000000F05D004F1500050F82500CAF80000E1
:1057700004F1540010F8059002214155B8F1050FCD
:1057800029D2DFE808F027030D171C0004F15000B0
:1057900050F82500304304F1500141F8250024E081
:1057A00004F1500050F82500401C04F1500141F86C
:1057B00025001AE004F1500040F8256015E0B9F129
:1057C000020F04D004F1500040F8256001E04FF0D2
:1057D000000B0AE009E01F48006808B9012000E05A
:1057E000002008B900BFFEE700BF00BFB9F1010FFC
:1057F0002AD1201DFFF731F994F82C1001208840A0
:1058000015490968084314490860E16A01EB810100
:10581000124A02EB8100211DFFF7B6F9A06A08B910
:10582000012000E0002008B900BFFEE70C49E06A53
:105830000968C96A884207D94FF080500949086051
:10584000BFF34F8FBFF36F8FFFF7CCF95846BDE81A
:10585000F09F0000980000209C000020880200209B
:105860008400002004ED00E02DE9F84F80460D464D
:1058700017469946DDF828B001200090B8F1000FD6
:1058800001D100BFFEE70DB9012000E0002008B9FA
:1058900000BFFEE7FFF710FA444600BF5021EFF3C8
:1058A000118081F31188BFF34F8FBFF36F8F00BF5B
:1058B0000646BBF1000F05D004F1500050F825005A
:1058C000CBF8000004F1540010F805A00221415566
:1058D000B9F1050F29D2DFE809F027030D171C00E5
:1058E00004F1500050F82500384304F1500141F80C
:1058F000250024E004F1500050F82500401C04F17C
:10590000500141F825001AE004F1500040F82570DC
:1059100015E0BAF1020F04D004F1500040F82570F0
:1059200001E0002000900AE009E02448006808B97E
:10593000012000E0002008B900BFFEE700BF00BF63
:10594000BAF1010F33D1A06A08B9012000E00020AC
:1059500008B900BFFEE71A480068A8B9201DFFF784
:105960007CF894F82C1001208840164909680843F7
:1059700014490860E16A01EB8101134A02EB8100DE
:10598000211DFFF701F904E004F118010F48FFF7AA
:10599000FBF80F49E06A0968C96A884207D90B9881
:1059A00010B101210B98016001200A49086000BF75
:1059B00086F3118800BF0098BDE8F88F980000209A
:1059C000C00000209C00002088020020140300205A
:1059D00084000020A80000202DE9F04106460C4676
:1059E0000CB9012000E0002008B900BFFEE716B99D
:1059F0000B48006800E030460746FFF7D1F807F192
:105A00005400005D022805D1002107F15400015522
:105A1000012500E00025FFF7E5F82846BDE8F08104
:105A2000840000202DE9F04704460F4690461D46AD
:105A3000DDF820900CB9012000E0002008B900BF7B
:105A4000FEE7FFF7ADF8244800685430005D0228F7
:105A50001AD021490968503101EB84000168B9432B
:105A6000016001211C48006854300155B9F1000F54
:105A70000AD04846FDF75AFF4FF08050174908609A
:105A8000BFF34F8FBFF36F8FFFF7ACF8FFF788F8C6
:105A90002DB111480068503050F8240028600E489D
:105AA00000685430005D022801D0002609E00A4950
:105AB0000968503101EB8400016821EA08010160A6
:105AC000012600210448006854300155FFF78AF888
:105AD0003046BDE8F08700008400002004ED00E0BF
