:020000040800F2
:1000000058490020B1010008B9010008BB010008EF
:10001000BD010008BF010008C10100080000000088
:1000200000000000000000000000000019010008AE
:10003000C5010008000000005D0100087D06000801
:10004000CB010008CB010008CB010008CB01000860
:10005000CB010008CB010008CB010008CB01000850
:10006000CB010008CB010008CB010008CB01000840
:10007000CB010008CB010008CB010008CB01000830
:10008000CB010008CB010008CB010008CB01000820
:10009000CB010008CB010008CB010008CB01000810
:1000A000CB010008CB010008CB010008CB01000800
:1000B000CB010008CB010008CB010008CB010008F0
:1000C000CB010008CB010008CB010008CB010008E0
:1000D000CB01000835070008CB010008CB01000860
:1000E000CB010008CB010008CB0100080000000094
:1000F0000000000000000000000000000000000000
:10010000CB010008DFF80CD000F0BAF80048004737
:10011000310E000858490020224B19680868B0E8E1
:10012000F00F80F30988BFF36F8F4FF0000080F36A
:1001300011884EF00D0E7047000000000648006860
:10014000006880F3088862B661B6BFF34F8FBFF3D3
:100150006F8F00DF00BF00BF08ED00E0EFF3098004
:10016000BFF36F8F0F4B1A6820E9F00F106008B5CE
:100170004FF0500080F31188BFF34F8FBFF36F8FA4
:1001800001F094FE4FF0000080F31188BDE80840B4
:1001900019680868B0E8F00F80F30988BFF36F8F23
:1001A000704700BF14000020EFF305807047000087
:1001B0000648804706480047FEE7FEE7FEE7FEE701
:1001C000FEE7FEE7FEE7FEE7FEE7FEE7B106000812
:1001D0000501000840EA01039B0703D009E008C9B4
:1001E000121F08C0042AFAD203E011F8013B00F8FC
:1001F000013B521EF9D27047D2B201E000F8012B48
:10020000491EFBD270470022F6E710B513460A4696
:1002100004461946FFF7F0FF204610BD2DE9F05FB8
:100220000546002092469B46884606468146402465
:100230001BE0284641464746224600F042F8534616
:100240005A46C01A914110D311461846224600F072
:1002500029F82D1A67EB01084F462246012000219C
:1002600000F020F817EB00094E41201EA4F1010414
:10027000DFDC484631462A464346BDE8F09F000091
:10028000064C074D06E0E06840F0010394E80700E3
:1002900098471034AC42F6D3FFF738FF0C2A000819
:1002A0002C2A0008202A04DB203A00FA02F1002060
:1002B00070479140C2F1200320FA03F319439040A4
:1002C0007047202A04DB203A21FA02F0002170470F
:1002D00021FA02F3D040C2F12002914008431946AE
:1002E0007047000010B54FF4407000F045FE4FF429
:1002F000C06001F0A9FA0121044800F051FD4FF45B
:10030000E13000F063F900F0A7F910BD0002300001
:1003100010B50446A4F13000072805D2DFE800F04C
:100320000B14181C20242500214611A000F03AFAD5
:1003300000F072F800BF1848016818A000F032FA07
:1003400018A000F02FFA11E01FA000F02BFA0DE02A
:1003500022A000F027FA09E024A000F023FA05E02B
:1003600028A000F01FFA01E000E000BF00BF10BDB0
:100370004552524F523A20436F6D6D616E64205565
:100380006E6B6E6F7720636D64203D20307825782A
:100390002121210D0A0000000000002025730D0A14
:1003A00000000000417574686F723A4A4326446148
:1003B0005A6869203C76783A3238353430383133EF
:1003C000363E0D0A00000000675F6C63645F707763
:1003D0006D203D203130300D0A000000675F6C63F6
:1003E000645F70776D203D20300D0A007265736583
:1003F0007420636F726520626F61726421210D0A3F
:10040000000000007265736574204C434420262070
:10041000393231310D0A000010B50EA000F0C2F9DA
:1004200010A000F0BFF917A000F0BCF923A000F065
:10043000B9F930A000F0B6F934A000F0B3F939A052
:1004400000F0B0F940A000F0ADF947A000F0AAF923
:1004500010BD00000D0A446562756720636D643A43
:100460000D0A0000302E207072696E742050726F79
:100470006772616D206275696C642074696D650DC9
:100480000A000000312E203720696E6368206C63FB
:10049000642050574D20696E63726561636528352D
:1004A000696E6368206C636420686173206E6F20DE
:1004B000656666656374290D0A000000322E2037D8
:1004C00020696E6368206C63642050574D2064651A
:1004D0006372656163652835696E6368206C636467
:1004E00020686173206E6F20656666656374290DF0
:1004F0000A000000332E20726573657420636F72EA
:100500006520626F61726421210D0A00342E207211
:1005100065736574204C4344202620393231310DF7
:100520000A000000352E207072696E7420486172D6
:100530006420576174636820446F6720537461744A
:1005400075730D0A00000000362E207072696E74FB
:10055000204D637520696E7465726E616C5F7465A1
:100560006D700D0A000000006F746865722E2070B7
:1005700072696E742068656C700D0A0008B54FF0E2
:10058000FF340CE02346012269460548006801F06B
:100590006EFD20B19DF80010002000F0DFF8F1E7BB
:1005A0000800002008B54FF0FF340BE0234601227D
:1005B00069460548006801F05AFD18B19DF8000031
:1005C000FFF7A6FEF2E700000C00002010B504467D
:1005D0004FF4E131002000F00DFB00234FF4806266
:1005E000194610484FF0FF3000234FF4806219463F
:1005F0000D484FF0FF3000234FF4806219460B483E
:100600004FF0FF3000220121080201F0F5FC0849FB
:10061000086000220121402001F0EEFC054908603D
:1006200010BD000084000020880000208C00002005
:10063000080000200C00002010B51021014800F037
:1006400057FB10BD000C014010B51021014800F00F
:100650004DFB10BD000C014010B540F2036001F0ED
:10066000F3F8102302221946034800F043FB10213F
:10067000014800F03BFB10BD000C014010B500BF6D
:10068000502080F31188BFF34F8FBFF36F8F00BFEF
:1006900002F07EF818B14FF080500449086000BFA6
:1006A000002080F3118800BF10BD000004ED00E0C1
:1006B00010B51448006840F001001249086008466F
:1006C0004068114908400F494860084600680F49D2
:1006D00008400C4908600846006820F48020086043
:1006E000084640680A4908400649486008460068CC
:1006F00006490840034908604FF41F00886001F074
:1007000029F910BD001002400C00FFE8FFFFF6FEC3
:10071000FFFF00F700BF0BE0FFF796FF4FF4FA7002
:1007200001F038FBFFF788FF4FF4FA7001F032FB5D
:10073000F2E7000010B50749074801F0E7F930B1CA
:100740000449054801F0D5F900F03CF801E000F05B
:10075000CDF910BD05030500003801407CB5044605
:100760000D460E4903C9CDE90001012C00DD7CBD19
:100770000120A0400A490978084060B100BF5DF837
:100780002400072101F089F90028F8D05DF8240041
:10079000294601F030F900BFE9E70000E42900082C
:1007A000040000200FB4054B10B503A9044A0298B9
:1007B00000F03CF810BC5DF814FB0000E50B0008ED
:1007C000880000201CB5084801F010F9C0B2019063
:1007D000002000906B46012201A90448006801F046
:1007E00036FD9DF804001CBD003801400C000020BF
:1007F00001B54FF0FF33012269460348006801F05C
:100800009CFC009808BD00000800002002E008C819
:10081000121F08C1002AFAD170477047002001E07A
:1008200001C1121F002AFBD1704700002DE9FF4FC4
:100830008DB09B460F460446002606E025280BD0C7
:100840005A460F999047641C761C20780028F5D1F1
:1008500011B03046BDE8F08F0025A8460122984926
:1008600000E0054314F8013F203B02FA03F0084280
:10087000F7D120782E2817D114F8010F45F0040580
:100880002A280ED06FF02F022078A0F1300109291C
:100890000AD808EB880102EB410100EB0108641C57
:1008A000F2E757F8048B641C20786C280DD004DC28
:1008B0004C2812D06A2811D104E074280DD07A286F
:1008C0000CD10AE045F4001507E0617845F4801585
:1008D000814202D1641C05F58015641C2278692AC6
:1008E00045D008DC002AB3D0582A69D0632A10D03A
:1008F000642A08D13BE0702A67D0732A13D0752A86
:100900005CD0782A5CD010465A460F999047761CE6
:10091000D3E017F8040B8DF8000000208DF80100DB
:10092000E946012003E057F8049B4FF0FF306907C8
:100930004FF0000501D40AE06D1C45450DDA8542F3
:10094000FADB19F805100029F6D106E06D1C854286
:10095000FCDB19F805100029F8D12E4404E019F841
:10096000010B5A460F9990476D1EF8D2A5E00A2058
:100970000021CDE90801C5F3025002280DD001CFB6
:10098000C117031E71F100030DDA4FF0000CD0EB1C
:100990000C006CEB01012D2308E0FF1D27F0070779
:1009A000F7E80201EDE72B0504D52B238DF828305D
:1009B00001233BE0EB0739D02023F7E70A2000E0D2
:1009C00010200021CDE9080107E01020002145F0AA
:1009D0000405CDE908014FF00808C5F302500228CC
:1009E0000FD001CF00214FF0000A2B071FD5702A2E
:1009F0000DD0DDE908C38CF0100C5CEA030C0CD0C0
:100A000015E0FF1D27F00707F7E80201EBE740229A
:100A10008DF828204FF0010A0BE050EA010306D0C0
:100A200030238DF828308DF8292002239A46582A41
:100A300004D024A20DF120090B9209E026A2F9E7C7
:100A4000DDE90823FFF7EAFB0B9B9B5C09F8013DFE
:100A500050EA0102F4D1ADEB09002030089068079C
:100A600001D44FF001080899884502DDA8EB010088
:100A700000E000208046002506E00AA85A46405DB6
:100A80000F9990476D1C761C5545F6DB04E030202D
:100A90005A460F999047761CB8F10001A8F1010859
:100AA000F5DC05E019F8010B5A460F999047761CC2
:100AB0000899481E08900029F4DC641CC5E6000073
:100AC0000928010030313233343536373839616224
:100AD00063646566000000003031323334353637E8
:100AE00038394142434445460000000010B54FF4F8
:100AF00042711A4801F00AF840B119A0FFF752FEFE
:100B00004FF44271154800F0F4FF25E01C491348EA
:100B100000F0FCFF38B11BA0FFF744FE18490F4856
:100B200000F0E7FF18E01E490C4800F0EFFF38B175
:100B30001CA0FFF737FE1A49084800F0DAFF0BE067
:100B40002049064800F0E2FF30B11FA0FFF72AFE5F
:100B50001C49024800F0CDFF10BD000000380140E4
:100B60002A2A2A205553415254207061726974799F
:100B7000206572726F7221202A2A2A0A0000000062
:100B8000000501002A2A2A2055534152542066723A
:100B9000616D65206572726F7221202A2A2A0A000F
:100BA000000503002A2A2A205553415254206F760B
:100BB000657272756E206572726F7221202A2A2A00
:100BC0000A000000000502002A2A2A20555341523B
:100BD00054206E6F697365206572726F7221202ACE
:100BE0002A2A0A0070B504460D462046FFF700FE8B
:100BF000204670BD70B504460D46324E012C00D122
:100C0000314E0120A04031490978084000B170BD43
:100C10002F4931F8140000F017FE2E4931F8140066
:100C200000F012FE2C4951F824302C4951F82400D0
:100C30000222182100F05EF8294951F82430274992
:100C400051F824000222042100F054F8304600F04C
:100C5000D7FE2946304600F081FE0021304600F0E4
:100C600091FF0021304600F07DFF0021304600F06A
:100C700069FF0021304600F027FF0021304600F0D8
:100C80001BFF0421304600F065FF0821304600F0CC
:100C900071FF304600F0FCFE40F20531304600F0B6
:100CA0001BFF104A115D104A12F82400002200F0C8
:100CB0000DF90120A040054909780843034908704F
:100CC00000BFA4E7003801400044004004000020B9
:100CD000D4290008B8290008BC290008CC2900083C
:100CE000C4290008E0290008D8290008416170479C
:100CF00001617047F0B5044616460025002201F058
:100D00000F0501F0100707B1354300201EE0012751
:100D100087401F40C7B122684FEA800C0F2707FAAF
:100D20000CF7BA43870005FA07F73A43282904D19C
:100D3000012787401F40676105E0482903D101274B
:100D400087401F4027612260471CB8B20828DED3C5
:100D5000082022E0012787401F40E7B16268A0F128
:100D600008074FEA870C0F2707FA0CF7BA43A0F1E0
:100D70000807BF0005FA07F73A43282904D10127DD
:100D800087401F40676105E0482903D1012787405C
:100D90001F4027616260471CB8B21028DAD3F0BD4B
:100DA000F0B50A46002300240021002500F000468B
:100DB000B6F1004F02D11D4EF16901E01B4E716882
:100DC000C0F3034583B200F44016B6F5401F08D1C6
:100DD00021F07061154E766826F07066134F7E60C4
:100DE00012E000F48016B6F5801F06D1032606FA3D
:100DF00005F4A14341F0706106E0460D360103FAA7
:100E000006F6B14341F0706122B1460D360103FA96
:100E100006F6314300F00046B6F1004F02D1034E12
:100E2000F16101E0014E7160F0BD00000000014081
:100E30001CB5FFF757FA15A0FFF7B4FC1648016878
:100E400016A0FFF7AFFC0020022103468222CDE965
:100E5000001014A1164801F08DFA0020012103466C
:100E60008222CDE9001013A1144801F083FA00207A
:100E7000012103468222CDE9001011A1124801F0A0
:100E800079FA00F0CBFF00BFFEE70000696E6974DD
:100E9000206F6B21210D0A000000002025730D0A30
:100EA000000000005461736B4C6564310000000069
:100EB0001507000864656275670000007D0500087D
:100EC0006465627567720000A50500082DE9F041B0
:100ED00003460D46164600240027A0462448006815
:100EE00000F4E060B0F5A06F15D006DCB0F5407FEF
:100EF00018D0B0F5806F19D110E0B0F5C06F06D0F2
:100F0000B0F5E06F12D100274FF0040815E001277B
:100F10004FF0030811E00227B8460EE003274FF018
:100F200001080AE004274FF0000806E04FF4A06033
:100F300000F022F80227B84600BF00BFC7F1040046
:100F400005FA00F4C8F104010F20C8403040044302
:100F500024010848C45403F01F010120884059119E
:100F6000890001F1E021C1F80001BDE8F081000035
:100F70000CED00E000E400E002490143024A116088
:100F8000704700000000FA050CED00E02DE9F0418B
:100F900005460E461C4807681C480068001D00F006
:100FA000F9FD50B91948006890F82C1001208840CC
:100FB00017490968814316480160681C38B936B181
:100FC00012480168091D134800F022FE1AE07C193E
:100FD0000E4800684460BC4207D20C480168091DF5
:100FE0000D48006800F0FAFD0CE008480168091D92
:100FF0000A48006800F0F2FD09480068844201D206
:1010000007480460BDE8F08128000020140000209B
:101010002C000020440100201C00002018000020AB
:101020004400002010B5044600F0FEFD244800688E
:10103000401C234908602348006840B921480460E7
:101040000846006801280DD100F04CF90AE01E485E
:10105000006838B91B480068C06AE16A884201D854
:101060001848046019480068401C18490860084680
:101070000068206494F82C10012088401449096805
:10108000084313490860E16A01EB8101114A02EB50
:101090008100211D00F0BCFD00F0E8FD0A48006859
:1010A00068B108480068C06AE16A884207D24FF018
:1010B000805009490860BFF34F8FBFF36F8F10BD99
:1010C00024000020140000203000002040000020F8
:1010D0002C0000209000002004ED00E00146D1E942
:1010E0000132D0180A68801A8A68824201D88A6858
:1010F000801A704710B516E000F096FD0C48C068E5
:10110000C468201D00F046FD0A480068401E0949D9
:10111000086009480068401E0749086000F0A6FD05
:10112000204600F00BF8044800680028E4D110BD08
:1011300030010020240000202000002010B50446CB
:10114000206B00F0A9FD204600F0A6FD10BD0000B8
:1011500030B54FF42053174800F007042CB1C01DE0
:1011600020F00700134C041B1B1B0246124C22608C
:101170000024114D6C60D018083820F007000F4C87
:10118000206000240D4D2D686C600C4D2D682C6086
:101190001146441A4C60094C24680C60084D4C6898
:1011A0002C60084D4C682C604FF00044064D2C60BC
:1011B00030BD0000580100206000002068000020C1
:1011C000700000206C0000207C00002000BFFFF7B2
:1011D00091FF064800680128F9D94FF08050044972
:1011E0000860BFF34F8FBFF36F8FF0E790000020D0
:1011F00004ED00E02DE9F04704460D4616461F4673
:10120000DDF820804FF05509324655212846FEF77B
:10121000FCFFA84201D1012000E0002008B900BF76
:10122000FEE724212046FEF7EEFFA561A660E760F9
:1012300084F81C80BDE8F0872DE9F05F82460E46F9
:1012400090469B460A9F0C9C4FEA8801A522206B82
:10125000FEF7D2FFA8F10100216B01EB800929F014
:10126000070909F0070008B9012000E0002008B9CB
:1012700000BFFEE786B1002507E0715D04F1340090
:101280004155705D00B902E06D1C0A2DF5D300BF19
:1012900000213D20015502E0002084F83400052F94
:1012A00000D30427E762A7640020E064201D00F05B
:1012B00092FC04F1180000F08EFC2461C7F10500D7
:1012C000A06164620020206584F854005A465146AB
:1012D000484600F015FA20600B9808B10B9804609E
:1012E000BDE8F09F10B5002407E004EB84010F4A2D
:1012F00002EB810000F062FC641C052CF5D30C4865
:1013000000F05CFC0B4800F059FC0B4800F056FC68
:101310000A4800F053FC0A4800F050FC0448094910
:10132000086004480849086010BD000090000020D3
:10133000F4000020080100201C01002030010020E2
:1013400044010020180000201C00002010B50146B8
:10135000164800E0006803688B42FBD302464368EE
:1013600013448B4204D143684C68234443600146D4
:101370000A464B6813440468A34211D10C4C03681D
:101380002468A34208D04B680468646823444B6017
:1013900003681B680B6005E0054B1B680B6001E0F0
:1013A00003680B60884200D0016010BD600000201F
:1013B000680000202DE9F0470446894690469A4689
:1013C000C24501D2504600E040460646002E38D0C5
:1013D0002568A068401BB04202D2A068401B00E014
:1013E00030460746474501D8012000E0002008B9F3
:1013F00000BFFEE7E819A168884201D8012000E09B
:10140000002008B900BFFEE7A06941193A464846E6
:10141000FEF7E0FEBE420DD9464501D8012000E0AE
:10142000002008B900BFFEE7F21B09EB0700A16925
:10143000FEF7D0FE3544A068A84201D8A0682D1A56
:1014400025603046BDE8F0872DE9F84F05468A460D
:10145000164698460A9F87B1D5F8009043463A460B
:1014600069462846FFF7A6FF009CA8EB0708B44290
:1014700004D9C5F80090002400E0344643462246D3
:1014800051462846FFF796FF83465846BDE8F88F39
:1014900009480068006808B9012000E0002020B178
:1014A0004FF0FF300549086005E003480068C06858
:1014B00000680249086070471800002044000020BE
:1014C0000A480068401C08B9012000E0002008B963
:1014D00000BFFEE700BF502080F31188BFF34F8F9D
:1014E000BFF36F8F00BF00BFFEE700005400002075
:1014F0002DE9F0410446884616460EB1012000E071
:10150000002008B900BFFEE76568A068401BB04234
:1015100002D2A068401B00E030460746E819A168E7
:10152000884201D8012000E0002008B900BFFEE792
:10153000A16948193A464146FEF74CFEBE420FD912
:10154000F01BA168884201D8012000E0002008B902
:1015500000BFFEE7F21B08EB0701A069FEF73AFEA9
:101560003544A068A84201D8A0682D1A65603046AD
:10157000BDE8F0812DE9FF47074688461D46DDF8A6
:1015800030900DB9002416E0387F00F0010040B91A
:1015900001240298A84201D2029800E02846029055
:1015A00009E04D4506D30124042202A93846FFF77D
:1015B0009FFF00E0002434B141463846029AFFF70D
:1015C00097FF064600E00026304604B0BDE8F087ED
:1015D0002DE9F04104464FF0000800F05FFC42485E
:1015E000006808B9FFF7B4FD4048006820400028B3
:1015F0006CD1F4B104F10800A0421AD9083404F007
:101600000700B8B104F00700C0F108002044A04270
:101610000DD904F00700C0F10800044404F00700ED
:1016200008B9012000E0002020B900BFFEE7002437
:1016300000E00024002C49D02D480068844245D8A1
:101640002C4E3046056801E02E462D686868A042A1
:1016500002D228680028F7D123480068854235D097
:10166000306800F10808286830606868001B10289E
:1016700010D92F1907F0070008B9012000E0002059
:1016800008B900BFFEE76868001B78606C603846E8
:10169000FFF75CFE164968680968081A1449086073
:1016A0000846006814490968884203D21048006857
:1016B000114908600D49686809680843686000209E
:1016C00028600E480068401C0C49086001F0FAF8D8
:1016D00008F0070008B9012000E0002008B900BFA9
:1016E000FEE74046BDE8F081680000207C00002055
:1016F0006C000020600000207000002074000020BA
:10170000001F4FF080730360001F21F0010303608E
:10171000001F034B0360143802602038704700003C
:10172000C11400082DE9F04F8BB007460020099046
:101730003EA090E8004CC068CDE905BECDF810A0F1
:1017400007900FF2EC0ADAE9000ACDE9020A0FF27B
:10175000E00ADAE9000ACDE9000A38484068C0F337
:1017600081000A900A9820B1012804D0022829D1CA
:1017700003E0334928E0324926E03048406800F46D
:101780008038B8F5803F09D12D4C2C48406800F4D2
:101790000039B9F5003F02D1641000E0294C274818
:1017A0004068C0F383422548406800F0006008B1FB
:1017B00042F010020F2A01D2921C00E0521C04FBDE
:1017C00002F101E01E4900BF00BF1C484068C0F3A1
:1017D000031504A8465D21FA06F318484068C0F3D3
:1017E000022502A8465D23FA06FC14484068C0F3AF
:1017F000C2251DF8056023FA06F0089037B1012FC5
:1018000006D0022F06D0032F0AD106E0099108E086
:10181000099306E0CDF824C003E00898099000E0A1
:1018200000BF00BF09980BB0BDE8F08F00000000BA
:10183000000000000102030406070809001002402E
:1018400000127A0000093D00064A02EB9011096877
:1018500000F01F0301229A401143024B03EB901248
:101860001160704700100240064A02EB90110968AF
:1018700000F01F0301229A409143024B03EB9012A8
:101880001160704700100240064A02EB901109688F
:1018900000F01F0301229A401143024B03EB901208
:1018A000116070470010024000200021264A126893
:1018B00042F00102244B1A6000BF401C224A126809
:1018C00002F0020111B9B0F5A06FF6D11E4A1268FC
:1018D00002F002020AB900BFFEE71B4A52681A4B27
:1018E0005A601A4652685A601A46526842F4806238
:1018F0005A601A465268154B1A40134B5A601A46E2
:101900005268134B1A43104B5A601A46126842F041
:1019100080721A6000BF0C4A126802F00072002A3E
:10192000F9D0094A526822F00302074B5A601A465E
:10193000526842F002025A6000BF034A526802F045
:101940000802002AF9D0704700100240FFFFC3F7D9
:101950000000280810B5FFF7A7FF10BD2DE9F047DC
:1019600004460D460027B846B94600261D49601AB0
:101970008C421CD006DC1C48204470B1B0F5806F4E
:101980001FD10FE0B0F5806F16D0B0F56C4F18D1B5
:101990000320FFF7C7FE074614E00220FFF7C2FE50
:1019A00007460FE00220FFF7BDFE07460AE00220CF
:1019B000FFF7B8FE074605E00220FFF7B3FE074633
:1019C00000E000BF00BF07EB5500B0FBF5F64FF697
:1019D000F07006EA000806F00F0948EA0900A06066
:1019E000BDE8F087004C004000BCFFBF01464868DE
:1019F000C0F308007047C1F308024260704700005E
:101A000010B504462049601A8C4228D006DC1F48D5
:101A1000204490B1B0F5806F33D117E0B0F5806FFE
:101A200026D0B0F56C4F2CD140F20E30FFF72CFFD2
:101A300040F20E30FFF718FF24E040F21140FFF7AC
:101A400023FF40F21140FFF70FFF1BE040F212406E
:101A5000FFF71AFF40F21240FFF706FF12E040F2D4
:101A60001340FFF711FF40F21340FFF7FDFE09E0BE
:101A700040F21440FFF708FF40F21440FFF7F4FE75
:101A800000E000BF00BF10BD004C004000BCFFBF25
:101A9000C16841F40051C160704710B5024602EBC5
:101AA0009110006801F01F040123A340184008B101
:101AB000012010BD0020FCE70A460021416921F405
:101AC00000711143416170470A460021416921F4C8
:101AD000807111434161704710B5C1F3891282587A
:101AE00001F01F040123A3401A43C1F38913C2501C
:101AF00010BD10B500EB91521268C1F304440123EC
:101B0000A3409A4300EB91531A6010BD70B5024692
:101B100000230024C1F38910105801F01F0601258D
:101B2000B54000EA050302EB91500068C1F304469A
:101B30000125B54000EA050414B10BB1012070BDC8
:101B40000020FCE7C26822F4C062C260C2680A4397
:101B5000C26070470A460021C16821F004011143A8
:101B6000C1607047026922F44052026102690A436F
:101B7000026170470A460021C16821F00801114343
:101B8000C1607047C26822F48052C260C2680A43D2
:101B9000C260704701460A69D1E901309860D1E915
:101BA000010358605068884201D188685060002065
:101BB00008611068401E10601068704700F108014D
:101BC00041604FF0FF31816000F10801C1600161A7
:101BD00000210160704700210161704710B5024685
:101BE0000B685C1C0CB9106907E002F1080000E00A
:101BF0004068446824689C42FAD944684C604C6848
:101C0000A160886041600A611468641C146010BDA2
:101C100042684A6093688B6093685960916008617C
:101C200003685B1C0360704700BF502080F311887D
:101C3000BFF34F8FBFF36F8F00BF0A480068401C8F
:101C40000849086008460068012809D1064800686C
:101C5000C0B208B9012000E0002008B900BFFEE7CB
:101C6000704700005400002004ED00E009480068BF
:101C700008B900BFFEE707480068401E0549086034
:101C80000846006820B9002080F3118800BF00BF1B
:101C9000704700005400002070B506463546002EFF
:101CA00032D0083D2C46194960680968084008B1DF
:101CB000012000E0002008B900BFFEE7206808B955
:101CC000012000E0002008B900BFFEE70F4960686E
:101CD00009680840C0B12068B0B90C49606809685B
:101CE0008843606000F0DAF80949606809680844D0
:101CF000074908602046FFF729FB06480068401C9A
:101D00000449086000F0DEFD70BD00007C0000208A
:101D10006C0000207800002000204FF0E0210861D6
:101D20008861064800684FF47A71B0FBF1F0401EFC
:101D30004FF0E021486107200861704780000020D3
:101D400070B5FEF731FA0546102D0DD305F1E020F0
:101D500090F8F0430C480078844201DB012000E059
:101D6000002008B900BFFEE70848006800F4E06002
:101D700007490968884201D8012000E0002008B91D
:101D800000BFFEE770BD0000580000200CED00E031
:101D90005C00002070B5044600258CB10D48006839
:101DA00008B9012000E0002008B900BFFEE700F0FC
:101DB00075F800212046FFF7E9F800F083FD05469D
:101DC0003DB94FF0805004490860BFF34F8FBFF317
:101DD0006F8F70BD5000002004ED00E003490968DA
:101DE0000160034909684160704700003C00002021
:101DF0002800002010B504460CB900BFFEE7FFF72D
:101E000013FF044800682060034800686060FFF723
:101E10002DFF10BD3C000020280000201CB51748F5
:101E200000210B468222CDE9001015A1164800F0D2
:101E3000A1FA0446012C15D100BF502080F311886F
:101E4000BFF34F8FBFF36F8F00BF4FF0FF300F49CD
:101E5000086001200E49086000200E49086000F06B
:101E600061F807E0601C08B1012000E0002008B91B
:101E700000BFFEE7084800681CBD000048000020C5
:101E800049444C4500000000CD11000844000020EA
:101E900030000020280000204C000020024800688C
:101EA000401C014908607047500000201848006835
:101EB00018B101201749086029E000201549086081
:101EC00015480068B0FA80F0C0F11F0101EB8100F5
:101ED000124A52F8200008B1012000E0002008B9A1
:101EE00000BFFEE701EB81020C4B03EB820042686E
:101EF0005268426000F108024368934202D142688E
:101F0000526842604268D268054B1A6000BF704751
:101F100050000020380000202C00002090000020FD
:101F2000140000201CB52F48014609780191FF21BB
:101F3000024611700146097800919DF8001001F0E9
:101F4000F0019DF80020914201D1012100E0002123
:101F500009B900BFFEE79DF8001001F05001224AC8
:101F600011700721214A116009E020490968491EC2
:101F70001E4A11609DF800104906090E00919DF857
:101F8000001001F080018029EFD018490968C1F1E3
:101F90000701042901D1012100E0002109B900BF96
:101FA000FEE7124909680902104A116011460988C2
:101FB00001F4E06111600B4A019911700C4800684E
:101FC00040F470000A4908600846006840F070401C
:101FD0000860FFF7A1FE002006490860FEF7AEF892
:101FE00000201CBD00E400E0580000205C00002040
:101FF00020ED00E0540000202DE9F84304460E4691
:102000009046B8F1010F08D10127042C01D9012015
:1020100000E0002048B900BFFEE700270CB1012016
:1020200000E0002008B900BFFEE7A64201D8012069
:1020300000E0002008B900BFFEE706B9012604F160
:102040002500844206D2641C04F12400FFF7C0FA84
:10205000054600E000253DB13346224605F1240146
:1020600028460097FFF7C6F82846BDE8F8832DE913
:10207000F84F8046894693461F4644464FF0000A73
:10208000B9F1000F01D100BFFEE70CB900BFFEE7B8
:10209000207F00F0010008B1042600E0002647B3CD
:1020A000FFF7C2FD2046FFF719F80546B5420ED8E6
:1020B0000021084600F0E2FA206908B9012000E09A
:1020C000002008B900BFFEE700F05CFB2061FFF7CD
:1020D000CDFDB54211D800231A461946184600977F
:1020E00000F0F2FA002020612046FEF7F7FF0546D7
:1020F00003E02046FEF7F2FF0546B5421AD92B460B
:102100005A46494620460096FFF79EF98246BAF1A4
:10211000000F0FD0FFF7C2FE606948B100200090A9
:10212000606900231A46194600F054F900206061E6
:1021300000F0C8FB5046BDE8F88F2DE9FF4F83B093
:1021400006468B46174634464FF000093D46A068C8
:10215000A0F1010ABBF1000F01D100BFFEE70CB9ED
:1021600000BFFEE7207F00F0010068B12D1DBD42D9
:1021700001D9012000E0002008B900BFFEE7554565
:1021800005D90020069002E0554500D9554606982D
:1021900088B301A8FFF72EFE00BFFFF745FD2046DC
:1021A00000F0A0F88146A9450FD20021084600F0B2
:1021B00065FA606908B9012000E0002008B900BF95
:1021C000FEE700F0DFFA606102E0FFF74FFD11E08B
:1021D000FFF74CFD069800231A4619460090184652
:1021E00000F072FA0020606106A901A800F08CF8E6
:1021F0000028D2D000BFB9F1000F03D1204600F073
:1022000071F881464B463A46594620460095FFF7FD
:10221000B1F98046B8F1000F15D02046FEF75EFFF9
:10222000E16888420FD3FFF739FE206948B10020EA
:102230000090206900231A46194600F0CBF80020D0
:10224000206100F03FFB404607B0BDE8F08F2DE96C
:10225000FE4F0746884691469A463C46CB46B8F123
:10226000000F01D100BFFEE70CB900BFFEE7207FE1
:1022700000F0010008B10BF1040B204600F032F829
:102280000290CDF800B04A4641462046029BFFF737
:1022900071F905461DB32046FEF720FFE16888422C
:1022A0001DD300BF5021EFF3118081F31188BFF3DC
:1022B0004F8FBFF36F8F00BF0646206950B10020DB
:1022C000CDE9000A206900231A46194600F01EF9DC
:1022D0000020206100BF86F3118800BF00BF2846A0
:1022E000BDE8FE8F10B50246114609B900BFFEE7F2
:1022F0000C688B6818194B68C01A401E8B688342A3
:1023000001D88B68C01A10BD70B505460C460DB9D2
:1023100000BFFEE70CB900BFFEE7FFF785FC1348DE
:10232000036868681A1A2068401C08B9002619E07A
:102330000F4928680968884206D06868984203D81F
:102340000126002020600DE02068904207D9206817
:10235000801A20602846FFF741FD002602E0002099
:1023600020600126FFF782FC304670BD2800002067
:102370003C0000202DE9FF4F85B080468946174676
:10238000DDE912ABB800FFF723F9064656B1582035
:10239000FFF71EF904460CB1266304E03046FFF750
:1023A0007BFC00E000247CB10020CDE900ABCDE94E
:1023B00002403A4649464046089BFEF73DFF20460C
:1023C000FEF730FE012501E04FF0FF35284609B049
:1023D000BDE8F08F2DE9F05F07460D46164698469A
:1023E000DDF828A04FF0010B0DB9012000E000201E
:1023F00008B900BFFEE70FB900BFFEE73C46FFF794
:1024000013FCBAF1000F05D004F1500050F825007C
:10241000CAF8000004F1540010F80590022141555B
:10242000B8F1050F29D2DFE808F027030D171C00CB
:1024300004F1500050F82500304304F1500141F8F8
:10244000250024E004F1500050F82500401C04F160
:10245000500141F825001AE004F1500040F82560D1
:1024600015E0B9F1020F04D004F1500040F82560E6
:1024700001E04FF0000B0AE009E01F48006808B9CE
:10248000012000E0002008B900BFFEE700BF00BF48
:10249000B9F1010F2AD1201DFFF77CFB94F82C1015
:1024A0000120884015490968084314490860E16A19
:1024B00001EB8101124A02EB8100211DFFF7A8FB0D
:1024C000A06A08B9012000E0002008B900BFFEE7BB
:1024D0000C49E06A0968C96A884207D94FF0805000
:1024E00009490860BFF34F8FBFF36F8FFFF7BEFB43
:1024F0005846BDE8F09F0000280000202C00002076
:10250000900000201400002004ED00E02DE9F84FB9
:1025100080460D4617469946DDF828B00120009008
:10252000B8F1000F01D100BFFEE70DB9012000E0B6
:10253000002008B900BFFEE7FFF702FC444600BFD9
:102540005021EFF3118081F31188BFF34F8FBFF358
:102550006F8F00BF0646BBF1000F05D004F150009D
:1025600050F82500CBF8000004F1540010F805A045
:1025700002214155B9F1050F29D2DFE809F02703FF
:102580000D171C0004F1500050F82500384304F1E9
:10259000500141F8250024E004F1500050F82500D6
:1025A000401C04F1500141F825001AE004F15000EC
:1025B00040F8257015E0BAF1020F04D004F1500084
:1025C00040F8257001E0002000900AE009E024486E
:1025D000006808B9012000E0002008B900BFFEE74C
:1025E00000BF00BFBAF1010F33D1A06A08B90120C2
:1025F00000E0002008B900BFFEE71A480068A8B94B
:10260000201DFFF7C7FA94F82C10012088401649C6
:102610000968084314490860E16A01EB8101134A23
:1026200002EB8100211DFFF7F3FA04E004F1180129
:102630000F48FFF7EDFA0F49E06A0968C96A884256
:1026400007D90B9810B101210B98016001200A49AC
:10265000086000BF86F3118800BF0098BDE8F88FBE
:1026600028000020500000202C00002090000020B6
:102670001C01002014000020380000202DE9F0414A
:1026800006460C460CB9012000E0002008B900BF46
:10269000FEE716B90B48006800E030460746FFF732
:1026A000C3FA07F15400005D022805D1002107F1AB
:1026B00054000155012500E00025FFF7D7FA284610
:1026C000BDE8F081140000202DE9F04704460F46D4
:1026D00090461D46DDF820900CB9012000E0002056
:1026E00008B900BFFEE7FFF79FFA2448006854309E
:1026F000005D02281AD021490968503101EB84009D
:102700000168B943016001211C480068543001553B
:10271000B9F1000F0AD04846FEF738FC4FF0805060
:1027200017490860BFF34F8FBFF36F8FFFF79EFA13
:10273000FFF77AFA2DB111480068503050F82400A4
:1027400028600E4800685430005D022801D0002641
:1027500009E00A490968503101EB8400016821EA67
:102760000801016001260021044800685430015529
:10277000FFF77CFA3046BDE8F08700001400002027
:1027800004ED00E0014908687047000014000020D3
:102790002DE9F0414FF000083F480068002873D150
:1027A0003E480068451C3D480560CDB93C4800687E
:1027B000006808B9012000E0002008B900BFFEE76A
:1027C000374807683748006835490860354807606A
:1027D00035480068401C34490860FEF759FE00BFC8
:1027E0003248006885423CD300BF2D48006800682D
:1027F00008B9012000E0002020B14FF0FF302B4944
:1028000008602DE026480068C068C4686668B54264
:1028100002D22648066023E0201DFFF7BBF9A06A1C
:1028200018B104F11800FFF7B5F994F82C10012045
:1028300088401F49096808431D490860E16A01EBA7
:1028400081011C4A02EB8100211DFFF7E1F91A49C1
:10285000E06A0968C96A8842C7D34FF00108C4E733
:1028600000BF15480068C06A00EB8000114951F8AC
:102870002000012801D94FF001081048006808B174
:102880004FF0010805E0FFE70D480068401C0C49C7
:1028900008604046BDE8F08150000020280000207C
:1028A000180000201C0000203C00002044000020F4
:1028B0002C00002090000020140000203800002090
:1028C0003400002070B5002400263248006808B9A2
:1028D00000BFFEE7FFF7A8F92E480068401E2D490B
:1028E00008600846006800284FD12B48006800287F
:1028F0004BD024E02948C068C46804F11800FFF7F1
:1029000049F9201DFFF746F994F82C100120884062
:1029100023490968084322490860E16A01EB810103
:10292000204A02EB8100211DFFF772F91E49E06A7F
:102930000968C96A884202D301201C490860174807
:10294000006808B9012000E000200028D2D00CB1B6
:10295000FEF79EFD1648056865B100BFFFF718FF3A
:1029600010B10120114908606D1E002DF6D1002024
:102970000F4908600D48006838B1012630070D493D
:102980000860BFF34F8FBFF36F8FFFF76FF93046CB
:1029900070BD000050000020240000201C01002019
:1029A0002C0000209000002014000020380000209F
:1029B0003400002004ED00E00E06110700020000C4
:1029C00004000000000400000800000000080140AE
:1029D0000008014002060206250000002600000053
:1029E0000806000000380140004400404275696C50
:1029F0006474696D65203A53657020203920323047
:102A000032322031363A35363A3032002C2A00083C
:102A100000000020900000000C080008BC2A0008FC
:102A200090000020C84800001C080008EC2900089D
:102A30000000000000000000000000000000000096
:102A40000000000000000000000000000000000086
:102A50000000000000000000000000000000000076
:102A60000000000000000000000000000000000066
:102A70000000000000000000040000000000000052
:102A8000AAAAAAAA0000000000000000000000009E
:102A90000000000000000000000000000000000036
:102AA00000000000000000000000000000F36F06BE
:0C2AB0000000000000000000000000001A
:0400000508000105E9
:00000001FF
