:020000040800F2
:10000000704B0020B1010008D9210008FD11000843
:1000100071210008A1090008652600080000000001
:1000200000000000000000000000000019010008AE
:10003000CD0F0008000000005D010008D12200087B
:10004000CB010008CB010008CB010008CB01000860
:10005000CB010008CB010008CB010008CB01000850
:10006000CB010008CB010008CB010008CB01000840
:10007000CB010008CB010008CB010008CB01000830
:10008000CB010008CB010008CB010008CB01000820
:10009000CB010008CB010008CB010008CB01000810
:1000A000CB010008CB010008CB010008CB01000800
:1000B000B1230008CB010008CB010008CB010008E8
:1000C000CB010008CB010008CB010008CB010008E0
:1000D000CB0100080525000849250008CB010008D0
:1000E00029100008CB010008CB0100080000000027
:1000F0000000000000000000000000000000000000
:10010000CB010008DFF80CD000F032FB00480047BC
:10011000653A0008704B0020224B19680868B0E867
:10012000F00F80F30988BFF36F8F4FF0000080F36A
:1001300011884EF00D0E7047000000000648006860
:10014000006880F3088862B661B6BFF34F8FBFF3D3
:100150006F8F00DF00BF00BF08ED00E0EFF3098004
:10016000BFF36F8F0F4B1A6820E9F00F106008B5CE
:100170004FF0500080F31188BFF34F8FBFF36F8FA4
:1001800005F06EFC4FF0000080F31188BDE80840D8
:1001900019680868B0E8F00F80F30988BFF36F8F23
:1001A000704700BF78000020EFF305807047000023
:1001B0000648804706480047FEE7FEE7FEE7FEE701
:1001C000FEE7FEE7FEE7FEE7FEE7FEE705230008A1
:1001D00005010008202A04DB203A21FA02F0002160
:1001E000704721FA02F3D040C2F120029140084347
:1001F0001946704740EA01039B0703D009E008C98C
:10020000121F08C0042AFAD203E011F8013B00F8DB
:10021000013B521EF9D27047D2B201E000F8012B27
:10022000491EFBD270470022F6E710B513460A4676
:1002300004461946FFF7F0FF204610BD421C10F897
:10024000011B0029FBD1801A7047034611F8012BCE
:1002500000F8012B002AF9D1184670472DE9FE4F0E
:10026000804681EA0300C00F0C46009021F0004157
:1002700023F00045B8EB0200A94105D240462146D3
:1002800090461C460B46024623F00040104347D0E0
:10029000270DC7F30A00C3F30A510290401A0190D8
:1002A00040286BDAC3F3130040F4801B0098924699
:1002B00020B10023D2EB030A63EB0B0B01985946E4
:1002C000C0F14002504600F09EF906460D465046E9
:1002D0005946019A00F0A6F910EB0800614100248C
:1002E00087EA115284EAE7731A4340D0009A62B356
:1002F000019A012A4FEA075215DC001B61EB02014B
:100300004FF0004202EA0752CDE90042001C41F5DD
:10031000801132462B4600F0DDF903B0BDE8F08FC6
:1003200040462146F9E7001B61EB0201001C41F544
:10033000801300185B412018A2F5001747EB03015A
:1003400040EAD570B6196D4111E06D084FEA3606E6
:1003500045EAC0754FEA0752001B61EB0201001C21
:1003600041F5801149084FEA3000001951413246E9
:100370002B4603B0BDE8F04F00F09DB90098012274
:1003800040000023D0EB020263EBE07300982146AB
:100390004FEAE074B8EB000061EB0401E9E783F099
:1003A00000435BE781F0004158E72DE9FE4F81EA09
:1003B000030404F0004421F0004100944FF0000BCE
:1003C00023F0004350EA01045ED052EA03045BD0FC
:1003D000C3F30A54C1F30A552C44A4F2F334019434
:1003E000A0FB0254C1F3130141F48011C3F31303C2
:1003F00043F4801301FB024400FB034E840A970A76
:1004000044EA815447EA8357A4FB076802958D0AA2
:1004100005FB07854FEA932C04FB0C542705029D2E
:100420004FEA065847EA1637B5EB08056EEB070C9E
:10043000870E920E47EA811742EA8312A7FB020158
:10044000B6EB0B0164EB00042B0D43EA0C335E1892
:1004500044EB1C50DA465146E7FB0201C5F3130496
:100460004FEA0B3343EA14534FEA0432019C43EA48
:100470000603A4F10C040294009CCDE900B400F042
:1004800029F903B0BDE8F08F00200146F9E72DE916
:10049000F04D81EA030404F0004B21F000451446BE
:1004A0004FF0000A23F0004150EA050220D054EA40
:1004B00001021DD0C5F30A570246C5F31303C1F369
:1004C0001300C1F30A5640F4801543F48013A7EBE0
:1004D0000608101BD64608F2FD3873EB050002D360
:1004E00008F1010801E092185B41B8F1000F03DA4E
:1004F00000200146BDE8F08D00204FF48011064633
:1005000084460EE0171B73EB050705D3121B63EB44
:10051000050306434CEA010C49084FEA30009218E3
:100520005B4150EA0107EDD152EA030012D082EAA2
:10053000040083EA0501084305D0101BAB4106D235
:100540000122002306E000224FF0004302E06FF09A
:10055000010253101AEB06004CEB085110EB0A0095
:1005600041EB0B01BDE8F04D00F0A5B89623002249
:10057000114600F072B870B5C1F30A5201F000459F
:100580000024C1F3130140F2FF3341F480119A4279
:1005900001DA002070BD40F233439A42A2F23342A6
:1005A00003DC5242FFF716FE00E090402C43F1D0EE
:1005B000404270BD00F0004230F000400AD0C10D52
:1005C00001F56071C0F3160042EA0151C20840070C
:1005D0001143704700200146704730B50B46014675
:1005E00000202022012409E021FA02F59D4205D3D2
:1005F00003FA02F5491B04FA02F52844151EA2F17C
:100600000102F1DC30BD202A04DB203A00FA02F1BD
:10061000002070479140C2F1200320FA03F31943F0
:1006200090407047202A06DBCB17203A41FA02F0AF
:1006300043EAE07306E041FA02F3D040C2F120023F
:1006400091400843194670470029A8BF7047401CD5
:10065000490008BF20F00100704710B4B0FA80FCD8
:1006600000FA0CF050EA010404BF10BC704749B115
:10067000CCF1200421FA04F411FA0CF118BF012185
:1006800021430843A3EB0C01CB1D4FEA00614FEA65
:10069000102042BF002010BC704700EBC350104434
:1006A0000029A4BF10BC7047401C490008BF20F0BF
:1006B000010010BC704710B5141E73F1000408DA75
:1006C000401C41F1000192185B411A4301D120F016
:1006D000010010BD2DE9F04D92469B4611B1B1FAD3
:1006E00081F202E0B0FA80F220329046FFF78BFFF1
:1006F00004460F4640EA0A0041EA0B0153465A46B7
:10070000084313D0114653EA010019D0C8F1400242
:100710005046FFF75FFD05460E4650465946424695
:10072000FFF771FF084305D0012004E02046394659
:10073000BDE8F08D0020054346EAE0762C433743C0
:100740000A986305E40AA0EB08000022FD0A44EAC7
:1007500047540A3002D500200146E9E70105101987
:100760006941DDE9084500196941BDE8F04DA2E79E
:10077000064C074D06E0E06840F0010394E80700EE
:1007800098471034AC42F6D3FFF7C0FC146700085A
:100790003467000810B540F2096004F043F9032003
:1007A00004F08AF8002002F017FA00224FF480715A
:1007B000184802F088FA00220221164802F083FA53
:1007C00001221146134802F0BCF90021114802F041
:1007D000ADF9012211460F4802F085F902F0A0FAA6
:1007E0000523102200210B4802F004FA4FF4602286
:1007F0000121084802F0D4F9064802F0C8F90120A6
:1008000004F008FF034802F059F90121014802F001
:100810004BFA10BD002401401FB50446464903C9E8
:10082000CDE9020120788DF8090000208DF80A003A
:100830002078323815286CD2DFE800F0226B0B10DC
:10084000156B162829323A3D41464958595A5E6778
:1008500062006078012102F057FF61E060780021BA
:1008600002F052FF5CE05BE0607820B101212820BB
:1008700002F04AFF03E00021282002F045FF4FE08C
:10088000607802F0C1FC8DF80A0049E048E002F00F
:100890008DFC642190FBF1F0C0B28DF80A003FE0BE
:1008A000607810B102F0EEFD01E002F0C9FD37E022
:1008B00002F016FE34E0607802F0D2FE30E002F082
:1008C00085FE8DF80A002BE002F0BAFE28E01BA09E
:1008D00005F090FD48B90020042103465022CDE9DF
:1008E000001016A1174805F077FB19E018E017E093
:1008F000607803F07DF813E0607801F04DFC0FE0C4
:1009000000F0DAFB8DF80A000AE0607801F0BEFE24
:1009100006E0FF208DF80A000BA002F00BFA00BFE2
:1009200000BF032102A800F03DF88DF80B00042160
:1009300002A800F08BF81FBDE86600086C7439321D
:1009400031310000791C00086572726F723A2063C1
:10095000707520756172742073656E6420756E6B9E
:100960006F776E20636D6421210D0A0010B54FF47E
:10097000407003F0B3FA4FF4C06004F053F8012163
:10098000064802F013FD00F0E5FB4FF4E13000F003
:1009900091FA02F021FE02F025FF10BD00023000A6
:1009A00000BFFEE710B502460B460021002004E020
:1009B000545C0444E0B24C1CE1B29942F8DB10BD37
:1009C00010B5002211460248006804F0BBFE10BDBD
:1009D000240000201CB500200090064804F0E0FB35
:1009E000C0B201906B46012201A90348006805F0DE
:1009F0005FFA1CBD00440040200000201CB5002010
:100A000000901048006805F0D1F804462CB940F277
:100A100007310D4804F03AFC1CBD6B46012201A9C8
:100A20000848006805F06FF928B19DF8041001200E
:100A300001F0D0FD04E040F20731034804F026FC49
:100A400000BFE9E71C0000200044004070B50546E7
:100A50000E46002404E0285D01F060FE601CC4B274
:100A6000B442F8DB70BD000070B504462046352C5A
:100A70005CD008DCA0F13000052810D2DFE800F0DF
:100A80001523384D5000382874D004DC36285BD04C
:100A9000372804D165E039286FD0612870D03BA099
:100AA00002F048F900F000F900BF3FA002F042F95F
:100AB0004048006802F03EF93FA002F03BF93FA039
:100AC00002F038F95FE000F0F7FA80B144480078AE
:100AD000642809DA424800780A3040B201F0E4FAAA
:100AE00040A002F027F902E045A002F023F94AE015
:100AF00000F0E2FA80B13A4800780A2809DB384968
:100B000009780A3948B201F0CFFA42A002F012F98E
:100B100002E047A002F00EF935E003F065FE32E096
:100B200047A002F007F900F016FF2CE049A002F000
:100B300001F902F035FB18B14BA002F0FBF802E01E
:100B40004BA002F0F7F81EE04BA002F0F3F802F021
:100B50002DFB05460A2102F0FBF817A002F0EAF887
:100B600011E04BA002F0E6F802F06AFD0BE001E0B4
:100B700003E005E000F0DEFE05E001F0BFFD02E06D
:100B800002F08CFD00BF00BF70BD00004552524F07
:100B9000523A20436F6D6D616E6420556E6B6E6FBF
:100BA00077200D0A000000002A4672656552544FF6
:100BB000532A2000000000200D0A000041757468CF
:100BC0006F723A4A432644615A6869203C76783A03
:100BD0003238353430383133363E0D0A00000000EB
:100BE0004A000020696E6372656173652037206971
:100BF0006E6368206C63642050574D0D0A0000003E
:100C0000675F6C63645F70776D203D203130300D1D
:100C10000A000000646563726561736520372069AE
:100C20006E6368206C63642050574D0D0A0000000D
:100C3000675F6C63645F70776D203D20300D0A0044
:100C40007265736574204C4344202620393231315B
:100C50000D0A0000576174636820446F6720537465
:100C600061747573203A20006F6E0D0A0000000059
:100C70006F66660D0A0000004D637520696E74652D
:100C8000726E616C5F74656D70203D200000000025
:100C9000726573657420636F726520626F61726440
:100CA00021210D0A0000000010B515A001F04AFD39
:100CB00017A001F047FD00F0FFF928B11CA001F0DA
:100CC00041FD29A001F03EFD35A001F03BFD3BA018
:100CD00001F038FD3FA001F035FD47A001F032FDE5
:100CE0004DA001F02FFD52A001F02CFD56A001F007
:100CF00029FD5CA001F026FD60A001F023FD10BDE0
:100D00000D0A446562756720636D643A0D0A000040
:100D1000302E207072696E742050726F6772616D30
:100D2000206275696C642074696D650D0A000000AD
:100D3000312E203720696E6368206C636420505721
:100D40004D20696E6372656163652835696E6368FD
:100D5000206C636420686173206E6F206566666531
:100D60006374290D0A000000322E203720696E635B
:100D700068206C63642050574D2064656372656120
:100D800063652835696E6368206C636420686173ED
:100D9000206E6F20656666656374290D0A00000089
:100DA000332E206672656552746F73207461736BA5
:100DB00020737461747321210D0A0000342E207297
:100DC00065736574204C4344202620393231310D3F
:100DD0000A000000352E207072696E74204861721E
:100DE0006420576174636820446F67205374617492
:100DF00075730D0A00000000362E207072696E7443
:100E0000204D637520696E7465726E616C5F7465E8
:100E10006D700D0A00000000372E20726573657436
:100E200020636F726520626F61726421210D0A0078
:100E3000382E204C53504B5F436F6E74726F6C2092
:100E4000746573740D0A0000392E205631325F43E9
:100E5000544C284D4F5253452920746573740D0A24
:100E600000000000612E206B65794C4544532070D2
:100E7000776D20746573740D0A0000006F746865E7
:100E8000722E207072696E742068656C700D0A0095
:100E900008B50CE04FF0FF330122694604480068B2
:100EA00004F0CBFE18B19DF80000FFF7DDFDF1E77F
:100EB0000C00002010B504464FF4E131002002F090
:100EC000E9F800220121402004F07CFE044908607A
:100ED00000220121402004F075FE0249086010BD87
:100EE000080000200C00002008B504254FF0000881
:100EF0004FF4E13000F050F84AE04FF0FF32114675
:100F0000002004F0B9F800BF2248006804F04EFE4B
:100F10000646AE4200D23AE0C5F1040000F0FF08F8
:100F20000DEB080100232A461A48006804F085FEEC
:100F300040B39DF80000A52809D10421684601F0BE
:100F40007EFB20B90DF10100FFF766FC1BE00124D8
:100F500005E01DF80400A52800D102E0641C042C63
:100F6000F7D300BF042C0BD0E5B2002705E01DF835
:100F700004000DF80700641C7F1C042CF7D302E06A
:100F8000042500E003E0A8EB05000428BCDA00BF5C
:100F9000B3E700002000002010B5044621460120E0
:100FA00002F078F800220121102004F00BFE054920
:100FB000086000220C21102004F004FE02490860A1
:100FC00010BD00001C000020200000207047000021
:100FD000F0B5034600224FF0E0277D69104F3F68CF
:100FE000DFF840C0B7FBFCF7FEB203FB06F44FF09E
:100FF000E027B96910E04FF0E027B86988420BD0CC
:10100000884202D20F1A3A4402E02F1A0F443A449F
:101010000146A24200D300E0EDE700BFF0BD0000B2
:10102000E400002040420F0010B54FF4805001F062
:10103000D3FF08B101F04AFF4FF4805001F0C6FF22
:1010400010BD000010B500F02BF8642004F0E2FAA7
:101050000C49097809B9462101E00A49097848B2E2
:1010600001F022F8642004F0D5FA074803F062FF8B
:10107000642004F0CFFA00F013F804A001F05AFE47
:1010800010BD00004A000020002C0140456E616246
:101090006C655F4C63644C696768740D0A000000FE
:1010A00010B500F0E7FF4FF48041024802F0C2F8AB
:1010B00010BD0000000C014010B502F067F80628D2
:1010C00001D1012010BD0020FCE700002DE9F05FF8
:1010D0000221102001F0EEF983465846FFF746FA48
:1010E0008046FFF767FA06464FF06632124BFFF76D
:1010F0005CF904460D4622462B4610481049FFF77E
:101100004EF980460F4A104BFFF7C1F90646002200
:101110000E4BFFF7A3F804460D4600220C4B204669
:101120002946FFF742F90646FFF725FA0FFA80FA3B
:101130005046BDE8F09F000066664A3FE17A14AE73
:1011400047E1F63F22FDF675E09C713F0000244028
:101150000000594010B5FFF7AFFF10B1462002F074
:10116000B3FB01F007F802F02FFC01F037F8FFF7AE
:10117000A3FF08B100F06AFF00F098FB01F074FAD9
:1011800000F082FF10BD38B5044600200090012217
:101190006946204600F006F810B19DF8000038BD01
:1011A0000020FCE7F8B504460D4616462B462246BD
:1011B000064800960178002000F0C0F908B9012027
:1011C00000E0002007463846F8BD00002C00002053
:1011D00033B581B00446012002AB22460090064898
:1011E0000178002000F0D8F908B9012000E00020C3
:1011F000054628463EBD00002C00002000BFFEE74B
:1012000010B504460021204600F066FA204601F0A1
:1012100041F80021204600F08BFA0420FFF7D8FEA9
:101220000121204600F058FA0620FFF7D1FE0021E8
:10123000204600F051FA0320FFF7CAFE10BD00005F
:1012400070B5054640F2036003F0ECFB012D02D1BE
:101250004FF4406405E0022D02D14FF4407400E0E9
:10126000C024234602221021054802F031F8012152
:10127000284600F031FA0121284600F059FA70BDE5
:10128000000C014010B504460021204600F024FA6D
:10129000204600F0FFFF0121204600F049FA04201B
:1012A000FFF796FE0121204600F016FA0620FFF710
:1012B0008FFE0021204600F00FFA0320FFF788FE82
:1012C00010BD2DE9F04107460D46002400213846A7
:1012D00000F002FA384600F0BFFF0320FFF778FE67
:1012E00000261EE00021384600F0F6F90520FFF741
:1012F0006FFE0121384600F0EFF96006040E04206D
:10130000FFF766FE384600F08FFF08B1601CC4B2DC
:101310000420FFF75DFE0021384600F0DDF9701C67
:10132000C6B2082EDEDB1DB93846FFF7ABFF02E080
:101330003846FFF765FF2046BDE8F08170B50646E8
:101340000C460021304600F0C7F9304600F0A2FFFD
:1013500000251CE00320FFF73BFE04F0800130462F
:1013600000F0E6F96006040E0420FFF731FE0121CB
:10137000304600F0B1F90620FFF72AFE0021304682
:1013800000F0AAF90320FFF723FE681CC5B2082D60
:10139000E0DB70BD10B50446204600F07BFF012164
:1013A000204600F0C5F90121204600F095F90620FD
:1013B000FFF70EFE0021204600F0BAF90620FFF7E5
:1013C00007FE0021204600F087F910BD10B5044645
:1013D0000021204600F080F9204600F05BFF00214C
:1013E000204600F0A5F90620FFF7F2FD0121204676
:1013F00000F072F90320FFF7EBFD0121204600F019
:1014000097F90620FFF7E4FD10BD70B505460024EE
:101410000021284600F060F90320FFF7D9FD0121E3
:10142000284600F085F90320FFF7D2FD284600F09A
:1014300013FF0121284600F04FF90320FFF7C8FDF4
:101440000BE0601CC4B2FA2C04DD2846FFF7BEFF97
:10145000012070BD0120FFF7BBFD284600F0E4FE2F
:101460000028EED10021284600F036F90320FFF7CE
:10147000AFFD0020EDE7000010B504460120A040BC
:1014800008490978084000B110BD2046FFF7D8FE92
:101490000120A0400349097808430249087000BFB1
:1014A000F2E70000100000202DE9F04180460F46D1
:1014B00015461E4604F0CCFA4046FFF76BFF47F096
:1014C00001014046FFF73AFF4046FFF79EFF50B14B
:1014D00005F072F811A001F02DFC4046FFF776FFF1
:1014E0000220BDE8F08100240FE0701EA04205D16B
:1014F00000214046FFF7E5FE285504E00121404663
:10150000FFF7DFFE2855601CC4B2B442EDDB05F0E6
:1015100053F84046FFF75AFF0020E2E74552524F8A
:10152000523A4949435F576169745F41636B286967
:101530006E64657829213D20300D0A002DE9F843BD
:1015400006460F4690461C46DDF8209000200346D4
:10155000424639460090304600F01EF80546FF2D01
:1015600007D14B46224639463046FFF79DFFBDE87E
:10157000F88302A001F0DEFB2846F8E74552524FFF
:10158000523A204969634170705F57726974655FB0
:1015900042797465730D0A002DE9F04781460D46C6
:1015A00016461F46DDF8208004F052FA4846FFF741
:1015B000F1FE05F0FE014846FFF7C0FE4846FFF782
:1015C00024FF50B104F0F8FF20A001F0B3FB48461F
:1015D000FFF7FCFE0220BDE8F08731464846FFF7E2
:1015E000ADFE4846FFF711FF48B104F0E5FF23A028
:1015F00001F0A0FB4846FFF7E9FE0320EBE7B8F156
:10160000000F03D104F0D8FFFF20E4E7002413E02B
:10161000395D4846FFF792FE4846FFF7F6FE48B1AF
:1016200004F0CAFF21A001F085FB4846FFF7CEFE7B
:101630000420D0E7601CC4B24445E9DB04F0BCFFE1
:101640004846FFF7C3FE0020C5E700004552524F51
:10165000523A2073656E64206465765F61646472DB
:10166000204949435F576169745F41636B28696E24
:1016700064657829213D20300D0A00004552524F03
:10168000523A2073656E6420776F72645F616464A0
:1016900072204949435F576169745F41636B2869F0
:1016A0006E64657829213D20300D0A004552524F65
:1016B000523A2073656E6420646174612049494325
:1016C0005F576169745F41636B28696E646578294F
:1016D000213D20300D0A000070B505460C46012D55
:1016E0000BD124B18102114801F0A4FD1DE04FF49B
:1016F00080610E4801F09CFD17E0022D0BD124B152
:10170000E9010A4801F096FD0FE04FF480710748A7
:1017100001F08EFD09E024B14021044801F08AFD6A
:1017200003E04021014801F083FD70BD000C014041
:1017300070B505460C46012D0BD124B1C1021148EC
:1017400001F078FD1DE04FF400610E4801F070FDDE
:1017500017E0022D0BD124B129020A4801F06AFDDD
:101760000FE04FF40071074801F062FD09E024B179
:101770008021044801F05EFD03E08021014801F072
:1017800057FD70BD000C0140FFF704F807E0FFF7BC
:101790009DFC034908804FF47A7003F03BFFF6E7A5
:1017A0004C00002070B50446002C08DD0C48007881
:1017B000642804DA0A480078204445B20BE0002C83
:1017C00008DA07480078002804DD0548007820443E
:1017D00045B200E070BDE8B203F08AF900BFF9E756
:1017E0007400002030B587B0044640F2036003F077
:1017F00019F9012302221821264801F069FD40F25F
:10180000017003F00FF9642C00DD64242248047099
:1018100003A803F025FC21480088401E05902048BD
:1018200000682049B0FBF1F0401E80B2ADF80C001A
:1018300003A91D4803F084FB684603F06EFB0120FA
:10184000ADF800006A460221174803F003FA70223F
:101850000221154803F0F4FAC4F164000F49098825
:101860004843642190FBF1F52A4602210E4803F01B
:1018700014FB002202210C4803F022FB01210A483C
:1018800003F0E2FB084803F0E0F9074803F052FBDD
:1018900007B030BD000C0140740000207200002031
:1018A000E400002040420F000004004010B540F268
:1018B000026003F0B7F88021044801F0BBFC8023EC
:1018C00002221021014801F003FD10BD0008014073
:1018D00010B5044600BF09A000F034FF21460BA05C
:1018E00000F030FF00BF24B18021114801F0A2FCBC
:1018F00003E080210E4801F09BFC10BD3C3C4D599B
:101900005F44454255473E3E200000004C53504B3B
:101910005F436F6E74726F6C5F4F75744869676870
:1019200020737461747573203D2025640D0A0000D6
:101930000008014010B58021054801F02BFD044648
:101940000CB9012100E000210846FFF7C1FF10BDDE
:1019500000080140704710B5012001F0BBFE02F005
:1019600021F800F09FF900F007F8002001F0B2FE26
:10197000032000F049FC10BD10B515A001F0DAF904
:10198000FFF7E8FF00F0E8F90A2003F043FE00F05B
:101990001FF900F0FFF800F011FA00F05FF90A20DB
:1019A00003F038FE00F036F80A2003F033FE00F0B2
:1019B000B9FA00F069FA00F017FA0A2003F02AFEDB
:1019C00002F03EF802F032F80A2003F023FE10BDC8
:1019D0000D0A204C54393231315F6D6970692074C1
:1019E0006F2054544C0D0A0010B50020FFF744FD41
:1019F00040F2066003F016F802231A46102104484C
:101A000001F066FC0221024801F012FC10BD00004A
:101A10000018014070B5D021FF20FFF7D9FB6021ED
:101A20000C20FFF7D5FB60211C20FFF7D1FB7021B4
:101A30002420FFF7CDFB30212D20FFF7C9FB0A2121
:101A40003120FFF7C5FBF0212520FFF7C1FB302136
:101A50002A20FFF7BDFB4F212120FFF7B9FB002112
:101A60002220FFF7B5FB01211E20FFF7B1FB8021EB
:101A70002320FFF7ADFB02210A20FFF7A9FB02217B
:101A80003820FFF7A5FB04213920FFF7A1FB08212F
:101A90003A20FFF79DFB10213B20FFF799FB042123
:101AA0003F20FFF795FB08214020FFF791FB102115
:101AB0004120FFF78DFB20214220FFF789FBA02169
:101AC0002B20FFF785FBD021FF20FFF781FB26208D
:101AD000FFF759FB044604F07F0421462620FFF758
:101AE00077FB0F212720FFF773FB8121FF20FFF7F2
:101AF0006FFBBF212020FFF76BFBFF212020FFF7AA
:101B000067FB052003F086FD6F210B20FFF760FBCC
:101B1000FF210B20FFF75CFB642003F07BFD002519
:101B200015E0C82003F076FDD021FF20FFF750FB21
:101B30008720FFF728FB00F0080018B109A001F08A
:101B4000F9F806E00CA001F0F5F8681CC5B20A2D02
:101B5000E7DB00BFD021FF20FFF73AFB9420FFF71F
:101B600012FB70BD0D0A4C54393231312070637252
:101B700020737461626C65000D0A4C543932313146
:101B80002070637220756E737461626C652121210F
:101B90002100000010B58621FF20FFF719FB8521E9
:101BA0003020FFF715FBD821FF20FFF711FB0021A4
:101BB0001620FFF70DFBD021FF20FFF709FB1221B4
:101BC0004320FFF705FB05210220FFF701FB10BDB5
:101BD00010B5D021FF20FFF7FBFA00210846FFF7E0
:101BE000F7FA8221FF20FFF7F3FA44210220FFF7E2
:101BF000EFFA36210520FFF7EBFA26210D20FFF73B
:101C0000E7FA0C211720FFF7E3FA0C211D20FFF75C
:101C1000DFFA81210A20FFF7DBFA00210B20FFF712
:101C2000D7FA9F210720FFF7D3FAFC210820FFF7FE
:101C3000CFFA01210920FFF7CBFA01211120FFF78C
:101C4000C7FA8621FF20FFF7C3FA1B213320FFF7D5
:101C5000BFFA1B213420FFF7BBFA10BD10B582215B
:101C6000FF20FFF7B5FA48212D20FFF7B1FA8221B6
:101C70003520FFF7ADFA10BD10B50446FFF7B4FEEE
:101C80000A2003F0C7FCFFF766FEFFF715FA08B15C
:101C9000FFF7D8F9642003F0BDFC002003F0DEFC60
:101CA00010BD000010B50221064801F0C1FA642001
:101CB00003F0B0FC0221034801F0BCFA642003F0F9
:101CC000A9FC10BD0018014010B50446642003F0C3
:101CD000A1FCD021FF20FFF77BFA608A01120D20C2
:101CE000FFF776FAA17C0E20FFF772FA208A011224
:101CF0000F20FFF76DFA217C1020FFF769FA217B96
:101D00001520FFF765FA608901121720FFF760FAC6
:101D1000A17A1820FFF75CFA208901121120FFF741
:101D200057FA217A1220FFF753FAE08801121320A4
:101D3000FFF74EFAA1791420FFF74AFAA17816208E
:101D4000FFF746FA208801121920FFF741FA21789F
:101D50001A20FFF73DFA10BD10B58221FF20FFF7D2
:101D600037FA18210120FFF733FA8621FF20FFF709
:101D70002FFA61210620FFF72BFAA8210720FFF791
:101D800027FA8721FF20FFF723FA08211420FFF705
:101D90001FFA00211520FFF71BFA0F211820FFF76B
:101DA00017FA08212220FFF713FA00212320FFF75A
:101DB0000FFA0F212620FFF70BFA10BD10B5642093
:101DC00003F028FC0348FFF77FFF03A000F0B2FFF9
:101DD00010BD000030000020313032347836303011
:101DE0005F3630487A0D0A0010B54024FFF764F9D9
:101DF00000B150241DA000F09DFF8521FF20FFF7BA
:101E0000E7F921465920FFF7E3F9AA215A20FFF705
:101E1000DFF9AA215B20FFF7DBF900215C20FFF747
:101E2000D7F950218820FFF7D3F97721A120FFF7B8
:101E3000CFF98621FF20FFF7CBF940210846FFF7B5
:101E4000C7F934214120FFF7C3F910214220FFF7E1
:101E5000BFF923214320FFF7BBF941214420FFF7BD
:101E6000B7F902214520FFF7B3F910BD0D4C5439E5
:101E70003231312073657420746F204F55545055A2
:101E8000545F4C564453000010B58221FF20FFF7E9
:101E90009FF900216220FFF79BF908213B20FFF703
:101EA00097F992213E20FFF793F948213F20FFF751
:101EB0008FF931214020FFF78BF980214320FFF774
:101EC00087F900214420FFF783F900214520FFF71F
:101ED0007FF900214920FFF77BF901214A20FFF714
:101EE00077F900214E20FFF773F900214F20FFF70B
:101EF0006FF900215020FFF76BF900215320FFF705
:101F000067F901215420FFF763F98121FF20FFF7D2
:101F10005FF979212020FFF75BF9FF212020FFF7EF
:101F200057F910BD10B58221FF20FFF751F90121AB
:101F30003620FFF74DF929213720FFF749F906210F
:101F40003820FFF745F930213920FFF741F98E217C
:101F50003A20FFF73DF98121FF20FFF739F9F721FA
:101F60002020FFF735F9FF212020FFF731F98721E5
:101F7000FF20FFF72DF914213720FFF729F9002161
:101F80001320FFF725F980211320FFF721F96420A2
:101F900003F040FB00241FE08721FF20FFF718F922
:101FA0001F20FFF7F0F800F0800080B12020FFF73D
:101FB000EAF800F0800018B10BA000F0BBFE02E0D0
:101FC0000FA000F0B7FE15A000F0B4FE06E00CA0D4
:101FD00000F0B0FE601CC4B20A2CDDDB00BF16A00E
:101FE00000F0A8FE10BD00004C543932313120748D
:101FF0007820706C6C206C6F636B0D0A0000000021
:102000004C543932313120747820706C6C20756EEC
:102010006C6F636B65640D0A000000004C5439322C
:10202000313120747820706C6C2063616C20646F97
:102030006E650D0A000000002073797374656D20D1
:10204000737563636573730D0A00000010B540F289
:10205000066002F0E7FC4FF400430222102104481E
:1020600001F036F94FF40041014801F0E1F810BDEC
:102070000018014010B54FF40041024801F0DAF8B1
:1020800010BD00000018014010B540F2046002F0DD
:10209000C9FC4FF4E06302224821024801F018F91C
:1020A00010BD00000010014070B50446642C01DD35
:1020B000642402E0002C00DA00240D490C7000BFFB
:1020C0000CA000F03FFB0A4801780EA000F03AFB9C
:1020D00000BFC4F16400134909884843642190FBA0
:1020E000F1F52A460221104802F0D7FE70BD00002B
:1020F0004A0000203C3C4D595F44454255473E3E16
:10210000200000004C63645F70776D5F6F75742012
:10211000675F6C63645F70776D203D2025640D0AF6
:102120000000000048000020002C014010B51021E4
:10213000014801F07FF810BD000C014010B51021DE
:10214000014801F075F810BD000C014010B540F2D7
:10215000036002F067FC102302221946034801F0D5
:10216000B7F81021014801F063F810BD000C0140E0
:1021700000BFFEE710B540F2056002F053FC4023BB
:1021800002221021034801F0A3F84021014801F088
:102190004FF810BD0014014010B5044606A000F031
:1021A000C9FD24B140210B4801F044F803E040216F
:1021B000084801F03DF810BD4D696343746C5F43FE
:1021C0006F6E74726F6C5F4F7574486967680D0A43
:1021D00000000000001401407047000010B540F2FC
:1021E000046002F01FFC0F2302221021054801F0B9
:1021F0006FF80421034801F01BF80B21014801F09E
:1022000019F810BD0010014010B50446002C08DD7F
:10221000052C06DA601E012202FA00F1014801F0E5
:1022200009F810BD0010014010B50446012C04D17E
:10223000C102084801F0A2F810BD022C04D121020D
:10224000044801F09BF8F7E78021024801F096F876
:10225000F2E70000000C014010B50446012C06D145
:10226000C302022248210A4801F032F80EE0022C93
:1022700006D1230202224821054801F029F805E091
:10228000802302224821024801F022F810BD0000FC
:10229000000C014010B50446012C06D1C3020222F5
:1022A00010210A4801F014F80EE0022C06D1230296
:1022B00002221021054801F00BF805E080230222DC
:1022C0001021024801F004F810BD0000000C01408C
:1022D00010B500BF502080F31188BFF34F8FBFF3BC
:1022E0006F8F00BF04F0CEF818B14FF08050044952
:1022F000086000BF002080F3118800BF10BD0000FF
:1023000004ED00E010B51448006840F001001249E7
:10231000086008464068114908400F49486008466F
:1023200000680F4908400C4908600846006820F41E
:1023300080200860084640680A490840064948600D
:102340000846006806490840034908604FF41F002A
:10235000886002F063FC10BD001002400C00FFE832
:10236000FFFFF6FEFFFF00F77FB505460C464FF472
:10237000E06002F057FB684602F072FE0295ADF88D
:10238000004069464FF0804002F0DAFD4FF0804097
:1023900002F0CBFD0121880702F046FE0022072152
:1023A0001C2001F045FD0121880702F039FE7FBDA8
:1023B00038B50025002000900121880702F038FE82
:1023C000002850D02A48007800F001008DF8000065
:1023D0002748007800F002008DF8010024480078BA
:1023E00000F004008DF802002148007800F0080099
:1023F0008DF80300002414E01E48005D04280CDA68
:102400001C48005D1C49085C48B91A48005D1DF86D
:102410000010204601F09EF901E0681CC5B2601C66
:10242000C4B2282CE8DB002416E01348005D401CF1
:10243000114908550846005D1049095D884209DBCD
:1024400000200D4908550120A0400949097848405D
:1024500007490870601CC4B2042CE6DB282D02D1A9
:10246000E80602F062FD0121880702F0DDFD38BDBB
:10247000700000207C0100206C000020F066000845
:1024800070B5044600250221094800F0A1FB084868
:1024900000F006FC0546052322460021044800F012
:1024A000A9FB0121024800F0FFFB284670BD000097
:1024B000002401402DE9F04107460C460025002686
:1024C00008E03846FFF7DCFF0544052003F0A2F8DA
:1024D000701CC6B2A642F4DBB5FBF4F080B2BDE8D6
:1024E000F081FFF733FE00BF0BE0FFF727FE4FF44C
:1024F000FA7003F08FF8FFF719FE4FF4FA7003F04B
:1025000089F8F2E710B50D490D4802F0E6FE30B14A
:102510000A490B4802F0D4FE00F038F90DE00949F1
:10252000074802F0DAFE30B10649054802F0C8FE5D
:1025300000F05CFC01E000F045FA10BD0503050069
:10254000003801400703070010B51D491D4802F07F
:10255000C4FE88B11A491B4802F0B2FEFEF73AFAEF
:102560001948007850BB4FF44171164802F09BFEA9
:1025700001201549087021E01449124802F0ADFE0F
:1025800030B112490F4802F09BFEFEF737FA15E012
:102590000F490C4802F0A1FE80B1FEF711FA0C4978
:1025A000084802F08DFE0848007838B14FF44171B8
:1025B000044802F06BFE00200349087010BD0000C3
:1025C0000503050000440040280000200703070021
:1025D000040304007CB504460D460E4903C9CDE949
:1025E0000001012C00DD7CBD0120A0400A490978D2
:1025F000084060B100BF5DF82400072102F027FE0B
:102600000028F8D05DF82400294602F0CEFD00BF76
:10261000E9E70000D8660008040000202DE9F04139
:1026200007460D461646002405E0295D3846FFF7AB
:10263000D1FF601CC4B2B442F7DBBDE8F081F0B555
:1026400004460D464FF0FF370CB93846F0BD681E02
:10265000265CC1B22046FEF7A5F9B04200D10027A2
:102660003846F3E700BFFEE710B540F2046002F021
:10267000D9F94021044800F0DBFD4023022210215B
:10268000014800F025FE10BD0010014010B50446C1
:1026900000BF09A000F056F821460BA000F052F848
:1026A00000BF24B14021144800F0C4FD03E04021E4
:1026B000114800F0BDFD10BD3C3C4D595F44454202
:1026C00055473E3E200000005631325F43544C5F78
:1026D000436F6E74726F6C284D4F525345295F4F94
:1026E00075744869676820737461747573203D2040
:1026F00025640D0A000000000010014010B54021C3
:10270000054800F047FE04460CB9012100E0002115
:102710000846FFF7BBFF10BD0010014031B50A2489
:102720000A23012269460548006803F037FB40F29E
:102730000731034802F0B7FD009838BD1C000020A7
:10274000004400400FB4054B10B503A9044A029899
:1027500000F056F810BC5DF814FB0000FD2F0008D7
:10276000E80000200FB4084B10B504A902AA039892
:1027700000F046F8044602A9002000F01DF92046AA
:1027800010BC5DF814FB0000B92900081CB508480E
:1027900002F006FDC0B20190002000906B460122BD
:1027A00001A90448006803F083FB9DF804001CBDE8
:1027B000003801400C00002031B50A240A23012210
:1027C00069460548006803F0E9FA40F2073103481A
:1027D00002F069FD009838BD080000200038014073
:1027E00002E008C8121F08C1002AFAD170477047DA
:1027F000002001E001C1121F002AFBD17047000038
:102800002DE9FF4F8BB09A460F460546002606E09D
:1028100025280BD052460D9990476D1C761C2878C0
:102820000028F5D10FB03046BDE8F08F0024A04657
:102830000122604900E0044315F8013F203B02FA01
:1028400003F00842F7D128782E2817D115F8010F88
:1028500044F004042A280ED06FF02F022878A0F14B
:10286000300109290AD808EB880102EB410100EB8D
:1028700001086D1CF2E757F8048B6D1C2878692855
:102880003ED006DC0028CDD063280BD0642804D1CC
:1028900036E0732810D075284BD052460D999047DA
:1028A000761C85E017F8040B8DF8000000208DF8E9
:1028B0000100E946012003E057F8049B4FF0FF3088
:1028C00061074FF0000401D40AE0641C44450DDAAE
:1028D0008442FADB19F804100029F6D106E0641CE2
:1028E0008442FCDB19F804100029F8D1264404E0E6
:1028F00019F8010B52460D999047641EF8D257E023
:1029000001CF4FF00A0B002802DA40422D2102E0ED
:10291000210504D52B218DF82410012103E0E107C6
:1029200005D02021F7E70DF1200908910CE00021E6
:10293000F9E701CF4FF00A0BF9E75946FDF74DFED5
:1029400001F1300209F8012D0028F6D1ADEB0900A4
:1029500000F1200B600701D44FF00108D84502DDDB
:10296000A8EB0B0000E000208046002406E009A848
:102970005246005D0D999047641C761C089884426D
:10298000F5DB04E0302052460D999047761CB8F1F3
:102990000001A8F10108F5DC05E019F8010B524629
:1029A0000D999047761CBBF10001ABF1010BF4DCF3
:1029B0006D1C34E7092801000A68531C0B60107075
:1029C0007047000010B54FF442711A4802F085FCC0
:1029D00040B119A000F0AEF94FF44271154802F071
:1029E0006FFC25E01C49134802F077FC38B11BA0AE
:1029F00000F0A0F918490F4802F062FC18E01E49E7
:102A00000C4802F06AFC38B11CA000F093F91A4996
:102A1000084802F055FC0BE02049064802F05DFC36
:102A200030B11FA000F086F91C49024802F048FCB2
:102A300010BD0000003801402A2A2A205553415277
:102A40005420706172697479206572726F722120EE
:102A50002A2A2A0A00000000000501002A2A2A204A
:102A60005553415254206672616D65206572726FD4
:102A70007221202A2A2A0A00000503002A2A2A2075
:102A80005553415254206F76657272756E2065728F
:102A9000726F7221202A2A2A0A0000000005020013
:102AA0002A2A2A205553415254206E6F697365209B
:102AB0006572726F7221202A2A2A0A00816841F009
:102AC0000801816000BF816801F008010029FAD186
:102AD000816841F00401816000BF816801F0040158
:102AE0000029FAD1704730B5012902D002291AD144
:102AF0000CE0C36A23F47003C362C36A541E4FF42C
:102B0000700505EA04542343C3620DE0836B23F48C
:102B100040138363836B541E4FF4401505EA04543D
:102B20002343836300E000BF00BF30BD21B1826852
:102B300042F40062826003E0826822F400628260F4
:102B4000704730B5436823F4C0534360012904D073
:102B5000022913D0042916D116E0436823F46043F8
:102B600043604368541E4FF4604505EA44342343F0
:102B70004360436843F40063436006E0436843F402
:102B80008053436001E000BF00BF00BF30BD8168DB
:102B900001F0010119B9816841F0010181607047BC
:102BA000012902D0022910D107E0836823F46023B1
:102BB000836083681343836008E0836823F4E04301
:102BC000836083681343836000E000BF00BF7047E9
:102BD00002688A43026070470549096821F4702140
:102BE000034A1160114609680143116070470000F3
:102BF00004240140F0B51D4606290CDA436B01EBB5
:102C000081071F26BE40B34301EB810602FA06F698
:102C10003343436322E00C290EDA036B8E1F06EB6D
:102C200086071F26BE40B3438E1F06EB860602FAB8
:102C300006F63343036311E010290FDAC36AA1F1EA
:102C40000C0606EB86071F26BE40B343A1F10C0617
:102C500006EB860602FA06F63343C3620A2A0CDA4A
:102C6000046902EB42070726BE40B44302EB42066A
:102C700005FA06F63443046111E0122A0FDAC4683B
:102C8000A2F10A0606EB46070726BE40B443A2F1AE
:102C90000A0606EB460605FA06F63443C460F0BDA4
:102CA0000146C86C80B2704701F001021AB1826817
:102CB00042F48002826001F002021AB1826842F49A
:102CC000001282607047AAB101F480731BB143689F
:102CD00043F48073436001F480631BB1436843F4A1
:102CE0008063436001F00203CBB1836843F00203C9
:102CF000836014E001F480731BB1436823F4807394
:102D0000436001F480631BB1436823F48063436034
:102D100001F002031BB1836823F002038360704754
:102D20000348006840F40000014908607047000053
:102D30000824014010B5044604B910BD03E014F89E
:102D4000010BFFF739FD20780028F8D100BFF4E728
:102D50007FB505460E46002000900190029003903A
:102D60008DF80F000A2E13D10E240CE00A20B5FBBB
:102D7000F0F100FB115030300DF804000A20B5FBD3
:102D8000F0F5601EC4B2102C23DA002DEED120E045
:102D90000E2417E005F00F000DF804001DF80400E4
:102DA0000A2806DA1DF804003030C0B20DF804001D
:102DB00005E01DF804005730C0B20DF804002D09DD
:102DC000601EC4B2102C01DA002DE3D105A0FFF77C
:102DD000B1FF0DEB0401481CFFF7ACFF02A0FFF7A9
:102DE000A9FF7FBD20307800200000001CB5002026
:102DF00000901048006802F0D9FE04462CB940F259
:102E000007310D4802F042FA1CBD6B46012201A9B0
:102E10000848006802F077FF28B19DF804100020F0
:102E2000FFF7D8FB04E040F20731034802F02EFA26
:102E300000BFE9E708000020003801402DE9F04715
:102E400007463E460EB900BFFEE71B4800688642B3
:102E500001D100242DE002F027FB75691748D0F856
:102E600000801748D0F8009002F040FB454501D0A3
:102E70004D4501D102241CE01248854212D1B06AAE
:102E800070B90324002007E006F15401095C012910
:102E900001D1022402E0401C0128F5DB00BF08E05C
:102EA000022406E00848854200D00DB9042400E061
:102EB00001242046BDE8F087780000207C00002037
:102EC0008000002058030020440300200EB500209D
:102ED000029002A8002102230A46CDE9001004480E
:102EE000006803F045F94FF4805000F05FF80EBD24
:102EF0001400002010B52C4B1B6883432A4C236020
:102F0000231D1B688343241D2360231D1B688343EB
:102F1000241D2360231D1B688343241D236011B1DE
:102F200001290ED105E0204B1B6803431E4C236092
:102F300008E01D4B1B1D1B6803431B4C241D236015
:102F400000E000BF00BF22B1012A0FD0022A27D122
:102F500019E0154B08331B680343134C08342360F6
:102F6000231D1B688343241D23601AE00E4B083386
:102F70001B6883430C4C08342360231D1B680343E8
:102F8000241D23600DE0084B08331B680343064CE7
:102F900008342360231D1B680343241D236000E0C5
:102FA00000BF00BF10BD00000004014002490968D5
:102FB0008143014A116070470004014002490968D9
:102FC0000143014A11607047000401400149086053
:102FD000704700001404014001460748006800EAF9
:102FE000010205481438006800EA010312B10BB170
:102FF000012070470020FCE71404014070B504462E
:103000000D462046FFF7D8FB204670BD30B502467E
:103010000B46164C002145F25550154D286000BF57
:103020001348C06800F00101601E041E01D0002991
:10303000F6D109B1002030BD0D4843600B4C00BFF4
:103040000B48C06800F00201601E041E01D0002978
:10305000F6D109B10020EEE7C2F30B00044DA860E1
:103060004AF6AA2028600120E5E70000FFFF0F00D4
:10307000003000404CF6CC40014908607047000029
:103080000030004045F2555001490860704700008B
:103090000030004070B504460D46324E012C00D180
:1030A000314E0120A04031490978084000B170BD7F
:1030B0002F4931F8140001F0B5FC2E4931F8140005
:1030C00001F0B0FC2C4951F824302C4951F824006F
:1030D0000222182100F0FCF8294951F82430274930
:1030E00051F824000222042100F0F2F8304602F0E8
:1030F00061F82946304602F00BF80021304602F014
:1031000028F90021304602F014F90021304602F07F
:1031100000F90021304602F0B1F80021304602F0FB
:10312000A5F80421304602F0FCF80821304602F0F0
:1031300008F9304602F086F840F20531304602F0D8
:10314000B2F8104A115D104A12F82400002200F073
:103150006FFE0120A0400549097808430349087023
:1031600000BFA4E7003801400044004004000020F4
:10317000C8660008AC660008B0660008C0660008B3
:10318000B8660008D4660008CC66000810B503488D
:1031900000F0FCF8C0F3022010BD00000010014058
:1031A00001480078704700005000002010B500BFB3
:1031B00006A0FFF7C7FA0948B0F9001008A0FFF70A
:1031C000C1FA00BF0548B0F9000010BD3C3C4D59A4
:1031D0005F44454255473E3E200000004C00002021
:1031E0006765745F696E7465726E616C5F74656D3E
:1031F000702020675F696E745F74656D70203D207C
:1032000025640D0A0000000070B50646282E01DB7B
:10321000FF2070BD0548324630C820462946FCF7DD
:10322000D9FF01210840C0B2F3E700006000002090
:10323000416170470161704710B500228B071C0F78
:103240000F2303FA04F204290EDA204B9B68934300
:103250001E4CA36023469B688C07240F00FA04F4DD
:1032600023431A4CA3602FE008290EDA174BDB68C2
:103270009343164CE3602346DB688C07240F00FA67
:1032800004F42343114CE3601EE00C290EDA0F4BCB
:103290001B6993430D4C236123461B698C07240F44
:1032A00000FA04F42343094C23610DE0074B5B69EA
:1032B0009343064C636123465B698C07240F00FA35
:1032C00004F42343014C636110BD00000000014081
:1032D000F0B5044616460025002201F00F0501F066
:1032E000100707B1354300201EE0012787401F402B
:1032F000C7B122684FEA800C0F2707FA0CF7BA43D0
:10330000870005FA07F73A43282904D101278740A7
:103310001F40676105E0482903D1012787401F400E
:1033200027612260471CB8B20828DED3082022E0BB
:10333000012787401F40E7B16268A0F108074FEA04
:10334000870C0F2707FA0CF7BA43A0F10807BF0054
:1033500005FA07F73A43282904D1012787401F407F
:10336000676105E0482903D1012787401F40276195
:103370006260471CB8B21028DAD3F0BD02469068EC
:10338000084008B1012070470020FCE7014688682A
:1033900080B270470246D068084008B101207047EB
:1033A0000020FCE70146C86880B27047F0B50A46C5
:1033B000002300240021002500F00046B6F1004F54
:1033C00002D11D4EF16901E01B4E7168C0F3034547
:1033D00083B200F44016B6F5401F08D121F07061A9
:1033E000154E766826F07066134F7E6012E000F48A
:1033F0008016B6F5801F06D1032606FA05F4A14310
:1034000041F0706106E0460D360103FA06F6B1435D
:1034100041F0706122B1460D360103FA06F63143E0
:1034200000F00046B6F1004F02D1034EF16101E019
:10343000014E7160F0BD000000000140C1607047A6
:1034400010B500200649087006A0FFF773FC0AA01B
:1034500002F0D0FF18B10A48006802F0FFF810BD72
:1034600050000020686172645F7774645F64697300
:1034700061626C650D0A00006877746400000000EA
:10348000540000201CB50120094908700948008833
:103490000949088009A0FFF74DFC0D4802210023CF
:1034A0002022CDE900100BA10C4802F095FD1CBDB7
:1034B00050000020580000205A000020686172640B
:1034C0005F7774645F656E61626C650D0A00000071
:1034D0005400002068777464000000000D35000877
:1034E00010B5044800880449088004A0FFF722FCB6
:1034F00010BD0000580000205A000020686172646E
:103500005F7774645F666565640D0A0010B50446F4
:1035100043E02248007888B12148008870B12048F3
:103520000088401E1E4908800846008830B91DA04A
:10353000FFF700FC00F084F8FFF782FF21480078D5
:1035400040B320480078032807D140211E48FFF7E8
:103550006FFE02201B49087010BD1A48007802282F
:1035600007D140211848FFF765FE01201549087072
:10357000F2E714480078012804D1002011490870AE
:1035800000F078F80F48007820B10E480078401E0F
:103590000C490870642002F03DF8BAE750000020A2
:1035A0005A000020686172645F7774645F666565C5
:1035B000645F7461736B2074696D656F75740D0A57
:1035C000000000005C000020000801400148008865
:1035D000C0B270475800002010B540F2026001F000
:1035E00021FA80211548FFF723FE40211348FFF7F9
:1035F00021FEE023022210211048FFF769FE10236C
:10360000022248210D48FFF763FE4FF4C06001F02D
:1036100009FA04210020FFF70FFE012200211020EB
:10362000FFF768FC1020FFF7C9FC1020FFF7CEFC65
:10363000022201210A2000F0FBFB10BD000801401E
:1036400010B504210448FFF7F3FDFFF7F9FE03204E
:103650000249087010BD0000001001405C0000200D
:10366000024908800988024A1180704758000020EA
:103670005A0000200446FFF705FD2CB9012140F651
:10368000FF70FFF7C3FC04E0042140F6FF70FFF772
:10369000BDFCFFF7EFFC00BFFEE7000010B50B48D4
:1036A0000078642803DBFF200949087005E007481B
:1036B000007810B90120064908700549097801EB26
:1036C0008101490048B2FEF76DF810BD740000207A
:1036D0007500002010B504462146282000F014F89B
:1036E00010BD000010B504462CB14FF480710548A0
:1036F000FFF7A0FD04E04FF480710248FFF798FD4A
:1037000010BD00000018014070B504460E46012CA3
:1037100001DB282C00DD70BD601EC4B2272C0DD14A
:103720004FF0804001F001FC002504E0052008492D
:103730004855681CC5B2282DF8DB02E00520044975
:1037400008553146204600F005F800BFE3E70000C9
:103750007C01002070B504460D46282C04DA611C5B
:10376000C8B200F08DF800E070BDB5B14FF48041F3
:103770001A48FFF75FFD272C05D14FF0FF30184A9C
:10378000106050601FE00120A040C117144B0CCB0B
:1037900010431943124A03C215E04FF480410F4809
:1037A000FFF746FD272C04D100210D4A116051601E
:1037B00009E00120A040C043C117094B0CCB1040C9
:1037C0001940074A03C20120FFF78CFF1E20FDF7B6
:1037D000FFFB0020FFF786FF00BFC5E70014014094
:1037E0006000002070B540F2056001F01BF94FF455
:1037F0009043022210211E48FFF76AFD4FF49041CA
:103800001B48FFF715FD40F2066001F00BF97C251F
:103810002B46022210211748FFF75AFD294615486A
:10382000FFF706FD4FF44073022210211148FFF705
:103830004FFD4FF440710F48FFF7FCFC6420FDF78B
:10384000D1FF0D48006842F21071B0FBF1F0401E4C
:1038500086B2314640F2E730FEF786FD002404E0F0
:10386000052006490855601CC4B2282CF8DB70BD41
:103870000014014000180140E40000207C010020F9
:1038800070B504460E48FFF78DFD054625F07C0512
:1038900004F03E0045EA400529460948FFF7CEFD01
:1038A00004F0010028B14FF400610648FFF7C2FCA4
:1038B00004E04FF400610348FFF7BAFC70BD00005C
:1038C000001801400014014030B587B0044640F2B2
:1038D000036001F0A7F84FF40043022218212B489F
:1038E000FFF7F6FC40F20B6001F09CF8642C00DD61
:1038F00064242748047003A801F0B2FB254800881F
:10390000401E0590244800682449B0FBF1F0401E99
:1039100080B2ADF80C0003A9214801F011FB684604
:1039200001F0FBFA0420ADF802006A4602211C48AF
:1039300001F090F970220221194801F081FAC4F1D6
:103940006400144909884843642190FBF1F52A4634
:103950000221134801F0A1FA00220221104801F0CF
:10396000AFFA01210E4801F06FFB0D4801F06DF92F
:103970004FF48043022210210448FFF7A9FC4FF4C2
:1039800080410248FFF754FC07B030BD000C0140F5
:103990004A00002048000020E400002040420F00C0
:1039A000002C014010B54FF480710648FFF740FC31
:1039B000642001F02FFE4FF480710248FFF73AFCBB
:1039C00010BD00000014014010B540F2056001F088
:1039D00029F84FF48073022210210448FFF778FC85
:1039E0004FF480710148FFF725FC10BD0014014021
:1039F00070B50446A61104F03F00401EC4B2282C46
:103A000010DA4FF0804001F095FA272C08D10025FC
:103A100003E005484655681CC5B2282DF9DB01E0D6
:103A20000148065570BD00007C01002010B58221C0
:103A3000FF20FDF7CDFB38213B20FDF7C9FB10BD72
:103A400010B58121FF20FDF7C3FBFB210D20FDF701
:103A5000BFFB0A2001F0DEFDFF210D20FDF7B8FBC2
:103A600010BD00001CB5FCF781FF25A0FFF762F92F
:103A700029480068FFF75EF926A0FFF75BF90020F0
:103A8000022103462022CDE9001024A1264802F09D
:103A9000A3FA0020022103467022CDE9001023A1E1
:103AA000244802F099FA0020042103465022CDE96F
:103AB000001021A1224802F08FFA2248042100239D
:103AC0005022CDE9001020A1214802F085FA2148BA
:103AD000032100234022CDE900101FA1204802F05D
:103AE0007BFA0020022103464022CDE900101DA1EF
:103AF0001E4802F071FA01F06BFF00BFFEE7000004
:103B00006672656572746F73202C20696E6974200B
:103B10006F6B21210D0A0000000000205461736BBF
:103B20004C65643100000000E324000864656275A0
:103B300067720000910E00086C7439323131000058
:103B4000791C000824000020546F437075000000A9
:103B5000E90E0008140000206B65795F626F640055
:103B6000254C000874656D7000000000891700087E
:103B700008B51EA000680090022000F011F96A4606
:103B80000021022000F029F900231A4619460220DC
:103B900000F034F940F2036000F044FF4FF4C060DD
:103BA00000F040FF4FF48053022248211048FFF7F5
:103BB0008FFB0C210120FFF73FFB012200211003A6
:103BC000FFF798F94FF48050FFF7F8F94FF4805061
:103BD000FFF7FCF900220721282000F029F900F066
:103BE0000BF890210348FCF71EFB08BD00FF000006
:103BF000000C0140EC00002008B56B4601220021BA
:103C0000022000F0D3F860B99DF8000000F03F00FA
:103C10003F2804D09DF8000000F03F0008BD3F2081
:103C2000FCE702A0FEF78EFDFF20F7E74552524F5A
:103C3000523A204B45595F524F575F5343414E20F4
:103C40006E6361393535355F726561645F696E70C9
:103C50006F72740D0A0000002DE9F0410027FFF794
:103C6000CBFF07463F2F55DA002550E03C48435D27
:103C700000221146022000F0C1F820B1294639A0E7
:103C8000FEF760FD41E0FFF7B7FF0746002639E089
:103C9000062000FB0560C4B247FA06F000F0010000
:103CA000E8B93D4830F81400022829DA3A4830F8DB
:103CB0001400401C81B2384820F8141030F8140069
:103CC00002281DD10120344948390855611CC8B269
:103CD000012100F0D7FE01203049087010E02E4885
:103CE0004838005D60B100202B4948390855611CF7
:103CF000C8B2002100F0C6FE0021274820F81410A9
:103D0000701CC6B2062EC3DB00BF681CC5B2062DF0
:103D1000ACDB1CE021480078C8B1002412E01E484A
:103D20004838005D60B100201B4948390855611CC6
:103D3000C8B2002100F0A6FE0021174820F8141098
:103D4000601CC4B2242CEADB002014490870002354
:103D50001A461946022000F051F80020BDE8F08113
:103D6000E06600084552524F523A204B45595F5287
:103D70004F575F5343414E206E6361393535355F90
:103D800077726974655F6F7574706F727420693DC6
:103D900025640D0A000000003401002018000020F6
:103DA00010B504462046FDF767FB10BDF8B5064682
:103DB0000D4614461F4605F00E0545F040050CB1B2
:103DC000012000E0002004460120E2B23B462946E3
:103DD00000903046FDF7B2FBF8BDF8B506460C463C
:103DE000154604F00E0444F0400402202B4606223F
:103DF000214600903046FDF7CFFBF8BD7FB582B07D
:103E000006460C46154604F00E0444F040040DB17D
:103E1000012000E00020054601200090A81CC2B24D
:103E200005AB21463046FDF7B7FB06B070BD00007C
:103E30002DE9F04103460D46164600240027A04612
:103E40002448006800F4E060B0F5A06F15D006DCEF
:103E5000B0F5407F18D0B0F5806F19D110E0B0F503
:103E6000C06F06D0B0F5E06F12D100274FF0040804
:103E700015E001274FF0030811E00227B8460EE0D5
:103E800003274FF001080AE004274FF0000806E07E
:103E90004FF4A06000F022F80227B84600BF00BF30
:103EA000C7F1040005FA00F4C8F104010F20C8406E
:103EB0003040044324010848C45403F01F0101208A
:103EC00088405911890001F1E021C1F80001BDE8E5
:103ED000F08100000CED00E000E400E00249014345
:103EE000024A1160704700000000FA050CED00E086
:103EF0002DE9F04105460E461C4807681C4800683D
:103F0000001D01F02EFA50B91948006890F82C10E5
:103F10000120884017490968814316480160681CE0
:103F200038B936B112480168091D134801F0B0FADA
:103F30001AE07C190E4800684460BC4207D20C4865
:103F40000168091D0D48006801F088FA0CE0084876
:103F50000168091D0A48006801F080FA09480068F4
:103F6000844201D207480460BDE8F0818C00002043
:103F700078000020900000205803002080000020DE
:103F80007C000020A800002010B5044601F08CFA47
:103F900024480068401C234908602348006840B951
:103FA000214804600846006801280DD100F04CF952
:103FB0000AE01E48006838B91B480068C06AE16A18
:103FC000884201D81848046019480068401C184904
:103FD000086008460068206494F82C10012088408E
:103FE00014490968084313490860E16A01EB81013B
:103FF000114A02EB8100211D01F04AFA01F076FA24
:104000000A48006868B108480068C06AE16A8842E6
:1040100007D24FF0805009490860BFF34F8FBFF3BC
:104020006F8F10BD880000207800002094000020D1
:10403000A400002090000020A402002004ED00E075
:104040000146D1E90132D0180A68801A8A68824292
:1040500001D88A68801A704710B516E001F024FA7A
:104060000C48C068C468201D01F07BF90A4800684C
:10407000401E0949086009480068401E0749086059
:1040800001F034FA204600F00BF8044800680028DC
:10409000E4D110BD440300208800002084000020EB
:1040A00010B50446206B01F037FA204601F034FACF
:1040B00010BD000030B54FF42053174800F007043E
:1040C0002CB1C01D20F00700134C041B1B1B024623
:1040D000124C22600024114D6C60D018083820F07A
:1040E00007000F4C206000240D4D2D686C600C4DB6
:1040F0002D682C601146441A4C60094C24680C60F1
:10410000084D4C682C60084D4C682C604FF0004402
:10411000064D2C6030BD00006C030020C400002060
:10412000CC000020D4000020D0000020E0000020BF
:1041300000BFFFF791FF064800680128F9D94FF04A
:10414000805004490860BFF34F8FBFF36F8FF0E7D3
:10415000A402002004ED00E02DE9F04704460D46DE
:1041600016461F46DDF820804FF05509324655218E
:104170002846FCF75AF8A84201D1012000E00020AF
:1041800008B900BFFEE724212046FCF74CF8A561E2
:10419000A660E76084F81C80BDE8F0872DE9F05F39
:1041A00082460E4690469B460A9F0C9C4FEA880129
:1041B000A522206BFCF730F8A8F10100216B01EB80
:1041C000800929F0070909F0070008B9012000E07B
:1041D000002008B900BFFEE786B1002507E0715D49
:1041E00004F134004155705D00B902E06D1C0A2DE8
:1041F000F5D300BF00213D20015502E0002084F8E6
:104200003400052F00D30427E762A7640020E06490
:10421000201D01F020F904F1180001F01CF92461BF
:10422000C7F10500A06164620020206584F8540095
:104230005A465146484600F0C5FA20600B9808B12E
:104240000B980460BDE8F09F10B5002407E004EB74
:1042500084010F4A02EB810001F0F0F8641C052C88
:10426000F5D30C4801F0EAF80B4801F0E7F80B48E9
:1042700001F0E4F80A4801F0E1F80A4801F0DEF83C
:1042800004480949086004480849086010BD000056
:10429000A4020020080300201C030020300300209B
:1042A00044030020580300207C00002080000020F0
:1042B00010B50146164800E0006803688B42FBD346
:1042C0000246436813448B4204D143684C6823443C
:1042D000436001460A464B6813440468A34211D167
:1042E0000C4C03682468A34208D04B6804686468D7
:1042F00023444B6003681B680B6005E0054B1B689B
:104300000B6001E003680B60884200D0016010BDC3
:10431000C4000020CC0000202DE9F04707460C46E1
:1043200090460026206848B32046416849684160AD
:1043300000F1080142688A4202D14168496841603F
:104340004168D1F80C9000BF20464168496841603F
:1043500000F1080142688A4202D14168496841601F
:104360004168CD6806EBC60007EB80014346012299
:10437000284601F05DFA761C4D45E5D13046BDE892
:10438000F0872DE9F0470446894690469A46C24593
:1043900001D2504600E040460646002E38D025683F
:1043A000A068401BB04202D2A068401B00E030462B
:1043B0000746474501D8012000E0002008B900BFAA
:1043C000FEE7E819A168884201D8012000E000203A
:1043D00008B900BFFEE7A06941193A464846FBF715
:1043E00009FFBE420DD9464501D8012000E000205A
:1043F00008B900BFFEE7F21B09EB0700A169FBF754
:10440000F9FE3544A068A84201D8A0682D1A25609D
:104410003046BDE8F0872DE9F84F05468A46164636
:1044200098460A9F87B1D5F8009043463A466946B8
:104430002846FFF7A6FF009CA8EB0708B44204D962
:10444000C5F80090002400E0344643462246514619
:104450002846FFF796FF83465846BDE8F88F0000D0
:1044600009480068006808B9012000E0002020B178
:104470004FF0FF300549086005E003480068C06858
:1044800000680249086070477C000020A8000020F6
:104490002DE9F04302460D460027106800284CD055
:1044A0001046D0F80480D8F80480C0F8048000F1E9
:1044B0000808D0F80490C14505D1D0F80480D8F898
:1044C0000480C0F80480D0F80480D8F80C6000BFE5
:1044D0001046D0F80480D8F80480C0F8048000F1B9
:1044E0000808D0F80490C14505D1D0F80480D8F868
:1044F0000480C0F80480D0F80480D8F80C104FF085
:10450000000C002311E001F13400C45CE85CA0421F
:1045100002D04FF0010C03E014B90F464FF0010C2C
:10452000BCF1000F00D002E05B1C0A2BEBD300BFF4
:1045300007B101E0B142CBD100BF3846BDE8F083FE
:104540000246002101E0521C491C1078A528FAD02F
:10455000890888B2704700000A480068401C08B902
:10456000012000E0002008B900BFFEE700BF502096
:1045700080F31188BFF34F8FBFF36F8F00BF00BF71
:10458000FEE70000B80000202DE9F041044688460F
:1045900016460EB1012000E0002008B900BFFEE77A
:1045A0006568A068401BB04202D2A068401B00E0D2
:1045B00030460746E819A168884201D8012000E08A
:1045C000002008B900BFFEE7A16948193A464146F4
:1045D000FBF710FEBE420FD9F01BA168884201D83C
:1045E000012000E0002008B900BFFEE7F21B08EB45
:1045F0000701A069FBF7FEFD3544A068A84201D879
:10460000A0682D1A65603046BDE8F0812DE9FF47AE
:10461000074688461D46DDF830900DB9002416E0A7
:10462000387F00F0010040B901240298A84201D26D
:10463000029800E02846029009E04D4506D3012487
:10464000042202A93846FFF79FFF00E0002434B19E
:1046500041463846029AFFF797FF064600E00026DB
:10466000304604B0BDE8F08770B505460E463146C9
:104670002846FBF7EAFD2846FBF7E0FD044602E08A
:1046800020202855641C092CFAD30020285528190D
:1046900070BD00002DE9F04104464FF0000801F024
:1046A000D7F94248006808B9FFF704FD40480068A0
:1046B000204000286CD1F4B104F10800A0421AD9BE
:1046C000083404F00700B8B104F00700C0F1080096
:1046D0002044A0420DD904F00700C0F108000444B2
:1046E00004F0070008B9012000E0002020B900BF55
:1046F000FEE7002400E00024002C49D02D4800688B
:10470000844245D82C4E3046056801E02E462D687F
:104710006868A04202D228680028F7D123480068C0
:10472000854235D0306800F1080828683060686834
:10473000001B102810D92F1907F0070008B9012015
:1047400000E0002008B900BFFEE76868001B786041
:104750006C603846FFF7ACFD164968680968081AAE
:10476000144908600846006814490968884203D261
:1047700010480068114908600D49686809680843D5
:104780006860002028600E480068401C0C490860E2
:1047900001F012FF08F0070008B9012000E0002036
:1047A00008B900BFFEE74046BDE8F081CC0000201C
:1047B000E0000020D0000020C4000020D400002031
:1047C000D8000020001F4FF080730360001F21F00D
:1047D00001030360001F034B03601438026020389C
:1047E000704700005945000810B509A0FEF7A2FA6D
:1047F00015A0FEF79FFA214801F068F81F48FEF760
:1048000099FA1FA0FEF796FA1EA0FEF793FA10BDC4
:104810002D2D2D2D2D2D2D2D2D2D2D2D2D2D2D2DC8
:104820002D2D2D2D2D2D7461736B20696E666F2DCE
:104830002D2D2D2D2D2D2D2D2D2D2D2D2D2D2D2DA8
:104840002D2D2D0D0A0000005461736B4E616D65B6
:1048500020205461736B5374617465205072696FCA
:104860007269747920204C656674537461636B209F
:10487000205461736B4E756D200D0A00A401002059
:104880000D0A00002020423A20426C6F636B20200A
:10489000523A2052656164792020443A2044656C84
:1048A0006574652020533A2053746F702020583A65
:1048B0002052756E200D0A000F4A51680F4A1140B0
:1048C000082814D2DFE800F004050607130A130BCA
:1048D00000BF00BF00BF41EA803109E000BF20F007
:1048E00004004FF0805242EA8032114300E000BFE2
:1048F00000BF014A5160704700100240FF3FFFEFC8
:104900002DE9F04F8BB00746002009903EA090E8BB
:10491000004CC068CDE905BECDF810A007900FF29D
:10492000EC0ADAE9000ACDE9020A0FF2E00ADAE954
:10493000000ACDE9000A38484068C0F381000A90B7
:104940000A9820B1012804D0022829D103E0334974
:1049500028E0324926E03048406800F48038B8F555
:10496000803F09D12D4C2C48406800F40039B9F53E
:10497000003F02D1641000E0294C27484068C0F392
:1049800083422548406800F0006008B142F0100200
:104990000F2A01D2921C00E0521C04FB02F101E03C
:1049A0001E4900BF00BF1C484068C0F3031504A89F
:1049B000465D21FA06F318484068C0F3022502A8B4
:1049C000465D23FA06FC14484068C0F3C2251DF872
:1049D000056023FA06F0089037B1012F06D0022FA8
:1049E00006D0032F0AD106E0099108E0099306E0FA
:1049F000CDF824C003E00898099000E000BF00BF94
:104A000009980BB0BDE8F08F000000000000000026
:104A100001020304060708090010024000127A0090
:104A200000093D00064A02EB9011096800F01F03DF
:104A300001229A401143024B03EB90121160704720
:104A400000100240064A02EB9011096800F01F03B3
:104A500001229A409143024B03EB90121160704780
:104A600000100240064A02EB9011096800F01F0393
:104A700001229A401143024B03EB901211607047E0
:104A8000001002407CB505460C461148007800F045
:104A9000020018B90FA0FEF74DF97CBDA5208DF8D6
:104AA00000008DF801508DF802409DF800009DF83F
:104AB000011008449DF802100844C0B28DF80300AC
:104AC000042269460120FDF7A9FD00BFE5E70000CB
:104AD000040000206572726F723A20544F435055A3
:104AE0005F434F4D206E6F7420696E69740A000039
:104AF00070B50446642C00DD64240D48047000BFCA
:104B00000CA0FDF71FFE0A4801780EA0FDF71AFE63
:104B100000BFC4F16400144909884843642190FB34
:104B2000F1F52A460221114800F0B7F970BD0000E6
:104B3000740000203C3C4D595F44454255473E3E81
:104B4000200000004B6C6564735F70776D5F6F755C
:104B50007420675F6B6C6564735F70776D203D20B8
:104B600025640D0A000000007200002000040040CF
:104B700000200021264A126842F00102244B1A60EC
:104B800000BF401C224A126802F0020111B9B0F5C0
:104B9000A06FF6D11E4A126802F002020AB900BFE5
:104BA000FEE71B4A52681A4B5A601A4652685A600E
:104BB0001A46526842F480625A601A465268154B8F
:104BC0001A40134B5A601A465268134B1A43104B43
:104BD0005A601A46126842F080721A6000BF0C4A8E
:104BE000126802F00072002AF9D0094A526822F0D5
:104BF0000302074B5A601A46526842F002025A609A
:104C000000BF034A526802F00802002AF9D0704738
:104C100000100240FFFFC3F70000280810B5FFF79F
:104C2000A7FF10BDFEF7A4FF0EE04FF0FF320021FA
:104C3000084600F021FAFFF70FF81E2000F0EAFC0A
:104C40004FF48050FEF7BAF9EFE7016841F08001B8
:104C50000160704710B531B101293FD002297DD0E4
:104C600003297CD1BFE0036A23F001030362836957
:104C700023F003038361036A148823430362036AF6
:104C800023F002030362036A9488234303626A4B9E
:104C9000984202D0694B98421FD1036A23F0040363
:104CA0000362036A548823430362036A23F0080300
:104CB0000362036AD48823430362436823F4807346
:104CC00043604368148923434360436823F40073BB
:104CD00043604368548923434360ABE0036A23F095
:104CE00010030362836923F440738361036A1488A9
:104CF00043EA04130362036A23F020030362036A96
:104D0000948843EA041303624B4B984202D04B4B06
:104D1000984226D1036A23F040030362036A548851
:104D200043EA04130362036A23F080030362036A05
:104D3000D48843EA04130362436823F48063436026
:104D40004368148943EA84034360436823F400639F
:104D500043604368548943EA840301E002E068E069
:104D6000436067E0036A23F480730362C36923F03E
:104D70000303C361036A148843EA04230362036ADA
:104D800023F400730362036A948843EA04230362F2
:104D9000294B984202D0294B984223D1036A23F42D
:104DA00080630362036A548843EA04230362036A4C
:104DB00023F400630362036AD48843EA0423036292
:104DC000436823F4805343604368148943EA04131F
:104DD0004360436823F4005343604368548943EAC3
:104DE0000413436026E0036A23F480530362C3691B
:104DF00023F44073C361036A148843EA04330362F3
:104E0000036A23F400530362036A948843EA043379
:104E10000362094B984202D0084B984208D143687C
:104E200023F4804343604368148943EA8413436056
:104E300000E000BF00BF10BD002C01400034014065
:104E400031B101290CD0022913D0032922D118E055
:104E5000836923F0700383618369134383611AE0DC
:104E6000836923F4E0438361836943EA0223836116
:104E700011E0C36923F07003C361C3691343C361C5
:104E800009E0C36923F4E043C361C36943EA022331
:104E9000C36100E000BF00BF704731B1012906D0F7
:104EA000022906D0032908D105E0426306E08263A7
:104EB00004E0C26302E0026400E000BF00BF70478C
:104EC00031B101290CD0022913D0032922D118E0D5
:104ED000836923F0080383618369134383611AE0C4
:104EE000836923F400638361836943EA0223836156
:104EF00011E0C36923F00803C361C3691343C361AD
:104F000009E0C36923F40063C361C36943EA022370
:104F1000C36100E000BF00BF7047002101804180F5
:104F20008180C180018141817047016821F00101C8
:104F300001607047016841F00101016070470000A5
:104F40000A888262294A904220D0B0F1804F1DD059
:104F5000274A90421AD0274A904217D0264A9042B8
:104F600014D0264A904211D0254A90420ED0254AAC
:104F700090420BD0244A904208D0244A904205D057
:104F8000234A904202D0234A90420FD1026822F075
:104F90007002026002688B7803F060031A430260BB
:104FA00002680B7903F010031A4302608A68C26238
:104FB000194A90420CD0194A904209D0026822F452
:104FC0004072026002688B8903F440731A430260E6
:104FD000064A904202D0094A904201D18A7B02637C
:104FE000426942F00102426170470000002C01401A
:104FF0000004004000080040000C00400034014064
:10500000004C014000500140005401400018004095
:10501000001C004000200040001000400014004030
:10502000C2680A43C260704702698A4302617047DE
:105030000246D06800EA01031069084010B10BB1C4
:10504000012070470020FCE7012904D1426C42F4A2
:105050000042426403E0426C22F400424264704722
:1050600000210180418081804FF6FF718160002125
:1050700081818173704700002DE9F04104460F469D
:1050800016460CB9012000E0002008B900BFFEE779
:1050900000F00AFA1C480068503050F8240080B92B
:1050A0000121194800685430015556B13046FEF7C9
:1050B0001FFF4FF0805015490860BFF34F8FBFF3BB
:1050C0006F8F00F013FA00F0EFF90F4800685030CE
:1050D00050F824506DB137B100210B4800685030B2
:1050E00040F8241005E0681E07490968503141F86E
:1050F00024000021044800685430015500F0F6F9FE
:105100002846BDE8F08100007800002004ED00E0B2
:105110002DE9F04704460D460027B846B94600265B
:105120001D49601A8C421CD006DC1C48204470B11A
:10513000B0F5806F1FD10FE0B0F5806F16D0B0F5DD
:105140006C4F18D10320FFF7DBFB074614E0022069
:10515000FFF7D6FB07460FE00220FFF7D1FB07461B
:105160000AE00220FFF7CCFB074605E00220FFF72C
:10517000C7FB074600E000BF00BF07EB5500B0FBD0
:10518000F5F64FF6F07006EA000806F00F0948EA57
:105190000900A060BDE8F087004C004000BCFFBFE4
:1051A00001464868C0F308007047C1F30802426036
:1051B0007047000010B504462049601A8C4228D080
:1051C00006DC1F48204490B1B0F5806F33D117E062
:1051D000B0F5806F26D0B0F56C4F2CD140F20E3078
:1051E000FFF740FC40F20E30FFF72CFC24E040F2C9
:1051F0001140FFF737FC40F21140FFF723FC1BE0A2
:1052000040F21240FFF72EFC40F21240FFF71AFC6A
:1052100012E040F21340FFF725FC40F21340FFF785
:1052200011FC09E040F21440FFF71CFC40F214406E
:10523000FFF708FC00E000BF00BF10BD004C0040BD
:1052400000BCFFBFC16841F40051C160704710B598
:10525000024602EB9110006801F01F040123A340F5
:10526000184008B1012010BD0020FCE70A460021CB
:10527000416921F400711143416170470A460021E0
:10528000416921F4807111434161704710B5C1F348
:105290008912825801F01F040123A3409A43C1F3ED
:1052A0008913C25010BD10B5C1F38912825801F0A4
:1052B0001F040123A3401A43C1F38913C25010BD38
:1052C00010B500EB91521268C1F304440123A340CE
:1052D0009A4300EB91531A6010BD70B5024600234B
:1052E0000024C1F38910105801F01F060125B540B4
:1052F00000EA050302EB91500068C1F30446012562
:10530000B54000EA050414B10BB1012070BD0020C6
:10531000FCE7C26822F4C062C260C2680A43C2608D
:1053200070470A460021C16821F004011143C160A1
:105330007047026922F44052026102690A43026125
:1053400070470A460021C16821F008011143C1607D
:105350007047C26822F48052C260C2680A43C260C9
:10536000704701460A69D1E901309860D1E901032B
:1053700058605068884201D18868506000200861F8
:105380001068401E10601068704700002DE9F04161
:105390000546884616460024052700F059FB21489B
:1053A0000068804539D300BF7F1E07EB87021E4B84
:1053B00003EB820104EBC40205EB82000122FEF73D
:1053C000ABFF0444002FEFD104EBC40105EB8100D7
:1053D000022216490968FEF79FFF044404EBC4014A
:1053E00005EB8100022212490968FEF795FF04448B
:1053F00004EBC40105EB810004220E49FEF78CFF8B
:10540000044404EBC40105EB810003220A49FEF7C2
:1054100083FF04440EB10020306001F0CDF8204637
:10542000BDE8F08188000020A40200207C0000205C
:1054300080000020440300205803002000F10801F0
:1054400041604FF0FF31816000F10801C1600161EE
:1054500000210160704700210161704710B50246CC
:105460000B685C1C0CB9106907E002F1080000E051
:105470004068446824689C42FAD944684C604C688F
:10548000A160886041600A611468641C146010BDEA
:1054900042684A6093688B609368596091600861C4
:1054A00003685B1C0360704700BF502080F31188C5
:1054B000BFF34F8FBFF36F8F00BF0A480068401CD7
:1054C0000849086008460068012809D106480068B4
:1054D000C0B208B9012000E0002008B900BFFEE713
:1054E00070470000B800002004ED00E009480068A3
:1054F00008B900BFFEE707480068401E054908607C
:105500000846006820B9002080F3118800BF00BF62
:1055100070470000B800002070B506463546002EE2
:1055200032D0083D2C46194960680968084008B126
:10553000012000E0002008B900BFFEE7206808B99C
:10554000012000E0002008B900BFFEE70F496068B5
:1055500009680840C0B12068B0B90C4960680968A2
:105560008843606000F074FA09496068096808447B
:10557000074908602046FEF79BFE06480068401C6D
:105580000449086001F018F870BD0000E000002038
:10559000D0000020DC00002000204FF0E021086156
:1055A0008861064800684FF47A71B0FBF1F0401E44
:1055B0004FF0E0214861072008617047E4000020B7
:1055C00070B5FAF7F1FD0546102D0DD305F1E02079
:1055D00090F8F0430C480078844201DB012000E0A1
:1055E000002008B900BFFEE70848006800F4E0604A
:1055F00007490968884201D8012000E0002008B965
:1056000000BFFEE770BD0000BC0000200CED00E014
:10561000C000002070B5044600258CB10D4800681C
:1056200008B9012000E0002008B900BFFEE700F043
:105630000FFA00212046FEF75BFC00F0BDFF054697
:105640003DB94FF0805004490860BFF34F8FBFF35E
:105650006F8F70BDB400002004ED00E070B505460A
:10566000FFF722FF15B92D48006800E028460446E0
:10567000201DFFF776FE78B9E06A00EB800028492C
:1056800051F8200040B994F82C1001208840254999
:105690000968814323480160A06A18B104F1180029
:1056A000FFF75FFE20480068401C1F4908601B4848
:1056B0000068844209D1211D1C48FFF7E9FE1C48FF
:1056C0000068401C1A49086006E01A480068401E3D
:1056D00018490860FEF7C4FEFFF708FF0F4800688E
:1056E000844202D02046FEF7DBFC13480068A0B1DC
:1056F0000A480068844210D11048006808B90120A7
:1057000000E0002008B900BFFEE74FF080500C49D0
:105710000860BFF34F8FBFF36F8F70BD780000201C
:10572000A402002090000020A400002044030020D8
:10573000840000208800002094000020B400002095
:1057400004ED00E02DE9F04705460E4690460DB900
:1057500000BFFEE70EB9012000E0002008B900BF3D
:10576000FEE7FFF72DFF2C4600BF5021EFF311801D
:1057700081F31188BFF34F8FBFF36F8F00BF0746D0
:1057800004F1540010F8069002218155001F50F8D2
:105790002600401C04F1500141F82600B9F1010F28
:1057A00034D1A06A08B9012000E0002008B900BF88
:1057B000FEE719480068A8B9201DFFF7D2FD94F84C
:1057C0002C100120884015490968084313490860D6
:1057D000E16A01EB8101124A02EB8100211DFFF712
:1057E00057FE04E004F118010E48FFF751FE0E4980
:1057F000E06A0968C96A884208D9B8F1000F02D086
:105800000120C8F8000001200849086000BF87F3A4
:10581000118800BFBDE8F087B40000209000002090
:10582000A402002030030020780000209C0000200B
:105830002DE9F04107460C4690461E4617B91C4814
:10584000006800E038460546256005F134006060D8
:10585000E86A2061286BE061286CA060A86C606138
:105860000020A061052E12D011480068854202D1A7
:10587000002020730FE02673032E0CD100F0E8F80F
:10588000A86A08B10220207300F096FE03E02846C3
:10589000FDF7D4FA2073B8F1000F04D0286BFEF79F
:1058A0004FFE208401E000202084BDE8F08100004C
:1058B00078000020034909680160034909684160D4
:1058C00070470000A00000208C0000202DE9FC4162
:1058D0000646002030702F4807680146096801EB32
:1058E000C1018800FEF7D6FE0546002D50D00022EB
:1058F00039462846FFF74AFD0746002443E004EBFB
:10590000C40005EB8000007B062813D2DFE800F01E
:105910000306090C0F134FF058080FE04FF0520820
:105920000CE04FF0420809E04FF0530806E04FF05A
:10593000440803E000BF4FF0000800BF00BF04EBC5
:10594000C40005EB800041683046FEF78DFE064638
:1059500004EBC40005EB8000806804EBC40105EB98
:105960008101098CCDE9001004EBC40005EB800037
:10597000424609A103693046FCF7F4FE3046FAF7C7
:105980005DFC0644641CBC42B9D32846FFF7C4FD45
:10599000BDE8FC81880000200925630925750925DB
:1059A000750925750D0A000010B504460CB900BF35
:1059B000FEE7FFF779FD04480068206003480068AF
:1059C0006060FFF793FD10BDA00000208C00002058
:1059D0001CB5174800210B464022CDE9001015A147
:1059E000164800F0F9FA0446012C15D100BF5020EA
:1059F00080F31188BFF34F8FBFF36F8F00BF4FF05D
:105A0000FF300F49086001200E49086000200E4950
:105A1000086000F061F807E0601C08B1012000E0B8
:105A2000002008B900BFFEE7084800681CBD000060
:105A3000AC00002049444C45000000003141000802
:105A4000A8000020940000208C000020B00000205E
:105A500002480068401C014908607047B4000020FB
:105A60001848006818B101201749086029E0002093
:105A70001549086015480068B0FA80F0C0F11F01B0
:105A800001EB8100124A52F8200008B1012000E029
:105A9000002008B900BFFEE701EB81020C4B03EBCD
:105AA000820042685268426000F1080243689342F3
:105AB00002D14268526842604268D268054B1A605F
:105AC00000BF7047B40000209C0000209000002020
:105AD000A4020020780000201CB52F480146097858
