:020000040800F2
:10000000704B0020B101000889250008C9150008BF
:1000100061250008C5090008A12B000800000000A8
:1000200000000000000000000000000019010008AE
:1000300009110008000000005D0100080D280008FB
:10004000CB010008CB010008CB010008CB01000860
:10005000CB010008CB010008CB010008CB01000850
:10006000CB010008CB010008CB010008CB01000840
:10007000CB010008CB010008CB010008CB01000830
:10008000CB010008CB010008CB010008CB01000820
:10009000CB010008CB010008CB010008CB01000810
:1000A000CB010008CB010008CB010008CB01000800
:1000B000ED280008CB010008CB010008CB010008A7
:1000C000CB010008CB010008CB010008CB010008E0
:1000D000CB010008412A0008852A0008CB0100084E
:1000E000A1130008CB010008CB01000800000000AC
:1000F0000000000000000000000000000000000000
:10010000CB010008DFF80CD000F032FB00480047BC
:10011000553F0008704B0020224B19680868B0E872
:10012000F00F80F30988BFF36F8F4FF0000080F36A
:1001300011884EF00D0E7047000000000648006860
:10014000006880F3088862B661B6BFF34F8FBFF3D3
:100150006F8F00DF00BF00BF08ED00E0EFF3098004
:10016000BFF36F8F0F4B1A6820E9F00F106008B5CE
:100170004FF0500080F31188BFF34F8FBFF36F8FA4
:1001800005F0ECFE4FF0000080F31188BDE8084058
:1001900019680868B0E8F00F80F30988BFF36F8F23
:1001A000704700BF78000020EFF305807047000023
:1001B0000648804706480047FEE7FEE7FEE7FEE701
:1001C000FEE7FEE7FEE7FEE7FEE7FEE74128000860
:1001D00005010008202A04DB203A21FA02F0002160
:1001E000704721FA02F3D040C2F120029140084347
:1001F0001946704740EA01039B0703D009E008C98C
:10020000121F08C0042AFAD203E011F8013B00F8DB
:10021000013B521EF9D27047D2B201E000F8012B27
:10022000491EFBD270470022F6E710B513460A4676
:1002300004461946FFF7F0FF204610BD421C10F897
:10024000011B0029FBD1801A7047034611F8012BCE
:1002500000F8012B002AF9D1184670472DE9FE4F0E
:10026000804681EA0300C00F0C46009021F0004157
:1002700023F00045B8EB0200A94105D240462146D3
:1002800090461C460B46024623F00040104347D0E0
:10029000270DC7F30A00C3F30A510290401A0190D8
:1002A00040286BDAC3F3130040F4801B0098924699
:1002B00020B10023D2EB030A63EB0B0B01985946E4
:1002C000C0F14002504600F09EF906460D465046E9
:1002D0005946019A00F0A6F910EB0800614100248C
:1002E00087EA115284EAE7731A4340D0009A62B356
:1002F000019A012A4FEA075215DC001B61EB02014B
:100300004FF0004202EA0752CDE90042001C41F5DD
:10031000801132462B4600F0DDF903B0BDE8F08FC6
:1003200040462146F9E7001B61EB0201001C41F544
:10033000801300185B412018A2F5001747EB03015A
:1003400040EAD570B6196D4111E06D084FEA3606E6
:1003500045EAC0754FEA0752001B61EB0201001C21
:1003600041F5801149084FEA3000001951413246E9
:100370002B4603B0BDE8F04F00F09DB90098012274
:1003800040000023D0EB020263EBE07300982146AB
:100390004FEAE074B8EB000061EB0401E9E783F099
:1003A00000435BE781F0004158E72DE9FE4F81EA09
:1003B000030404F0004421F0004100944FF0000BCE
:1003C00023F0004350EA01045ED052EA03045BD0FC
:1003D000C3F30A54C1F30A552C44A4F2F334019434
:1003E000A0FB0254C1F3130141F48011C3F31303C2
:1003F00043F4801301FB024400FB034E840A970A76
:1004000044EA815447EA8357A4FB076802958D0AA2
:1004100005FB07854FEA932C04FB0C542705029D2E
:100420004FEA065847EA1637B5EB08056EEB070C9E
:10043000870E920E47EA811742EA8312A7FB020158
:10044000B6EB0B0164EB00042B0D43EA0C335E1892
:1004500044EB1C50DA465146E7FB0201C5F3130496
:100460004FEA0B3343EA14534FEA0432019C43EA48
:100470000603A4F10C040294009CCDE900B400F042
:1004800029F903B0BDE8F08F00200146F9E72DE916
:10049000F04D81EA030404F0004B21F000451446BE
:1004A0004FF0000A23F0004150EA050220D054EA40
:1004B00001021DD0C5F30A570246C5F31303C1F369
:1004C0001300C1F30A5640F4801543F48013A7EBE0
:1004D0000608101BD64608F2FD3873EB050002D360
:1004E00008F1010801E092185B41B8F1000F03DA4E
:1004F00000200146BDE8F08D00204FF48011064633
:1005000084460EE0171B73EB050705D3121B63EB44
:10051000050306434CEA010C49084FEA30009218E3
:100520005B4150EA0107EDD152EA030012D082EAA2
:10053000040083EA0501084305D0101BAB4106D235
:100540000122002306E000224FF0004302E06FF09A
:10055000010253101AEB06004CEB085110EB0A0095
:1005600041EB0B01BDE8F04D00F0A5B89623002249
:10057000114600F072B870B5C1F30A5201F000459F
:100580000024C1F3130140F2FF3341F480119A4279
:1005900001DA002070BD40F233439A42A2F23342A6
:1005A00003DC5242FFF716FE00E090402C43F1D0EE
:1005B000404270BD00F0004230F000400AD0C10D52
:1005C00001F56071C0F3160042EA0151C20840070C
:1005D0001143704700200146704730B50B46014675
:1005E00000202022012409E021FA02F59D4205D3D2
:1005F00003FA02F5491B04FA02F52844151EA2F17C
:100600000102F1DC30BD202A04DB203A00FA02F1BD
:10061000002070479140C2F1200320FA03F31943F0
:1006200090407047202A06DBCB17203A41FA02F0AF
:1006300043EAE07306E041FA02F3D040C2F120023F
:1006400091400843194670470029A8BF7047401CD5
:10065000490008BF20F00100704710B4B0FA80FCD8
:1006600000FA0CF050EA010404BF10BC704749B115
:10067000CCF1200421FA04F411FA0CF118BF012185
:1006800021430843A3EB0C01CB1D4FEA00614FEA65
:10069000102042BF002010BC704700EBC350104434
:1006A0000029A4BF10BC7047401C490008BF20F0BF
:1006B000010010BC704710B5141E73F1000408DA75
:1006C000401C41F1000192185B411A4301D120F016
:1006D000010010BD2DE9F04D92469B4611B1B1FAD3
:1006E00081F202E0B0FA80F220329046FFF78BFFF1
:1006F00004460F4640EA0A0041EA0B0153465A46B7
:10070000084313D0114653EA010019D0C8F1400242
:100710005046FFF75FFD05460E4650465946424695
:10072000FFF771FF084305D0012004E02046394659
:10073000BDE8F08D0020054346EAE0762C433743C0
:100740000A986305E40AA0EB08000022FD0A44EAC7
:1007500047540A3002D500200146E9E70105101987
:100760006941DDE9084500196941BDE8F04DA2E79E
:10077000064C074D06E0E06840F0010394E80700EE
:1007800098471034AC42F6D3FFF7C0FC106C000859
:10079000306C000810B540F2096004F0BDFB032086
:1007A00004F004FB002002F0B5FC00224FF480713D
:1007B000184802F026FD00220221164802F021FD11
:1007C00001221146134802F05AFC0021114802F0A0
:1007D0004BFC012211460F4802F023FC02F03EFDC3
:1007E0000523102200210B4802F0A2FC4FF46022E6
:1007F0000121084802F072FC064802F066FC012064
:1008000005F086F9034802F0F7FB0121014802F0E8
:10081000E9FC10BD002401401FB504464F4903C93F
:10082000CDE9020120788DF8090000208DF80A003A
:100830002078323816287ED2DFE800F0297D0B10B0
:10084000157D1D2F343D45484C51546366676B75CB
:1008500070796078012103F0CFF973E060780021AE
:1008600003F0CAF96EE0607810B100F0A7FD01E076
:1008700000F078FC66E0607820B10121282003F0C8
:10088000BBF903E00021282003F0B6F95AE06078B4
:1008900002F058FF8DF80A0054E0617848B204F085
:1008A000A1FB4FE002F020FF642190FBF1F0C0B209
:1008B0008DF80A0046E0607810B103F081F801E09D
:1008C00003F05CF83EE003F0A9F83BE0607803F049
:1008D0003BF937E003F0E6F88DF80A0032E003F068
:1008E0001BF92FE01EA006F003F848B900200421F0
:1008F00003465022CDE9001019A11B4805F0EAFD7E
:1009000020E003F0C5FC1DE01CE0607803F0E8FA8D
:1009100018E0607801F0C2F914E00CE002F0D4FEB7
:100920008DF80A000EE0607802F04EF90AE0607877
:1009300001F07CFE06E0FF208DF80A000BA002F01B
:1009400097FC00BF00BF032102A800F03DF88DF81E
:100950000B00042102A800F08BF81FBDE46B000817
:100960006C74393231310000492000086572726FB1
:10097000723A2063707520756172742073656E64BD
:1009800020756E6B6F776E20636D6421210D0A00F8
:1009900010B54FF4407003F01BFD4FF4C06004F03D
:1009A000BBFA0121064802F09FFF00F0B1FD4FF4B1
:1009B000E13000F019FB03F07BF803F08BF910BD78
:1009C0000002300000BFFEE710B502460B460021D2
:1009D000002004E0545C0444E0B24C1CE1B29942B3
:1009E000F8DB10BD10B5002211460248006805F082
:1009F00027F910BD240000201CB5002000900648F7
:100A000004F04CFEC0B201906B46012201A90348DC
:100A1000006805F0CBFC1CBD004400402000002015
:100A20001CB5002000901048006805F03DFB04460E
:100A30002CB940F207310D4804F0A6FE1CBD6B46F0
:100A4000012201A90848006805F0DBFB28B19DF8E8
:100A50000410012002F05CF804E040F20731034882
:100A600004F092FE00BFE9E71C00002000440040B3
:100A700070B505460E46002404E0285D02F0ECF84F
:100A8000601CC4B2B442F8DB70BD000070B504460F
:100A9000392C77D00ADCA4F13000092810D2DFE825
:100AA00000F01523384D505664727800A4F16100AF
:100AB000082805D2DFE800F07376797C7F8285898B
:100AC00045A002F0D5FB00F015F900BF49A002F0E7
:100AD000CFFB4B48006802F0CBFB4AA002F0C8FBFA
:100AE00049A002F0C5FB74E000F0C4FC80B14F489F
:100AF0000078642809DA4D4800780A3040B201F0E5
:100B0000CBFC4BA002F0B4FB02E050A002F0B0FB23
:100B10005FE000F0AFFC80B1444800780A2809DBB0
:100B2000424909780A3948B201F0B6FC4CA002F0FB
:100B30009FFB02E051A002F09BFB4AE004F0CEF8DC
:100B400047E052A002F094FB01F0EDF841E054A020
:100B500002F08EFB02F0C2FD18B156A002F088FB35
:100B600002E056A002F084FB33E056A002F080FBC6
:100B700002F0BAFD05460A2102F088FB21A002F02E
:100B800077FB26E008E055A002F072FB02F0C4FFFC
:100B90001FE001F0B7F81CE002F04EF819E002F097
:100BA000F5FF16E001F072FD13E001F0D1FD10E059
:100BB00000F06EFB0DE000F0D1FB0AE002F0E6FF72
:100BC00007E0012002F0FEFF03E0002002F0FAFF40
:100BD00000BF00BF70BD00004552524F523A204343
:100BE0006F6D6D616E6420556E6B6E6F77200D0AB0
:100BF000000000002A4672656552544F532A2000B7
:100C0000000000200D0A0000417574686F723A4AB6
:100C1000432644615A6869203C76783A3238353444
:100C200030383133363E0D0A000000004A00002003
:100C3000696E637265617365203720696E63682031
:100C40006C63642050574D0D0A000000675F6C63B1
:100C5000645F70776D203D203130300D0A00000058
:100C60006465637265617365203720696E6368200F
:100C70006C63642050574D0D0A000000675F6C6381
:100C8000645F70776D203D20300D0A0072657365DA
:100C900074204C4344202620393231310D0A0000A3
:100CA000576174636820446F67205374617475736F
:100CB000203A20006F6E0D0A000000006F66660D7E
:100CC0000A0000004D637520696E7465726E616C78
:100CD0005F74656D70203D200000000072657365D3
:100CE0007420636F726520626F61726421210D0A46
:100CF0000000000010B520A001F0C2FF22A001F00A
:100D0000BFFF00F0B7FB28B127A001F0B9FF34A066
:100D100001F0B6FF40A001F0B3FF46A001F0B0FF24
:100D20004AA001F0ADFF52A001F0AAFF58A001F0C7
:100D3000A7FF5DA001F0A4FF61A001F0A1FF67A0E3
:100D400001F09EFF6BA001F09BFF73A001F098FFE4
:100D500076A001F095FF7BA001F092FF7FA001F04B
:100D60008FFF87A001F08CFF8BA001F089FF90A07E
:100D700001F086FF10BD00000D0A44656275672012
:100D8000636D643A0D0A0000302E207072696E7433
:100D90002050726F6772616D206275696C64207497
:100DA000696D650D0A000000312E203720696E63E1
:100DB00068206C63642050574D20696E63726561D2
:100DC00063652835696E6368206C636420686173AD
:100DD000206E6F20656666656374290D0A00000049
:100DE000322E203720696E6368206C636420505770
:100DF0004D2064656372656163652835696E63685B
:100E0000206C636420686173206E6F206566666580
:100E10006374290D0A000000332E20667265655246
:100E2000746F73207461736B207374617473212108
:100E30000D0A0000342E207265736574204C434403
:100E4000202620393231310D0A000000352E207065
:100E500072696E74204861726420576174636820FF
:100E6000446F67205374617475730D0A00000000AD
:100E7000362E207072696E74204D637520696E7411
:100E800065726E616C5F74656D700D0A0000000024
:100E9000372E20726573657420636F726520626FF0
:100EA00061726421210D0A00382E204C53504B5F93
:100EB000436F6E74726F6C20746573740D0A00005A
:100EC000392E205631325F43544C284D4F525345F2
:100ED0002920746573740D0A00000000612E206BD8
:100EE00065794C4544532070776D20746573740D9B
:100EF0000A000000622E2035696E6368206C63640E
:100F000020626C61636B6C6967687420636F6E74D8
:100F1000726F6C0D0A000000632E2053504B454E3B
:100F200020636F6E74726F6C0D0A0000642E204592
:100F300041525F4C5F454E20636F6E74726F6C0D53
:100F40000A000000652E204541525F525F454E2049
:100F5000636F6E74726F6C0D0A000000662E206B5A
:100F600065795F6C6564732070776D20696E63725C
:100F7000656163652831302525290D0A00000000D0
:100F8000672E206B65795F6C65647320616C6C20E3
:100F90006F6E0D0A00000000682E206B65795F6C93
:100FA00065647320616C6C206F66660D0A0000003A
:100FB0006F746865722E207072696E742068656C3B
:100FC000700D0A0008B50CE04FF0FF3301226946AE
:100FD0000448006805F0AFF818B19DF80000FFF76D
:100FE00055FDF1E70C00002010B504464FF4E13147
:100FF000002002F0EDFA00220121402005F060F807
:101000000449086000220121402005F059F80249F6
:10101000086010BD080000200C00002008B5042660
:101020004FF0000900254FF4E13000F053F84EE096
:101030004FF0FF321146002004F09CFA00BF244814
:10104000006805F031F80746B74200D23EE0C6F12D
:10105000040000F0FF090DEB0901002332461C4893
:10106000006805F068F8C5B26DB37F1BB5420DD1BD
:101070009DF80000A52809D10421684601F07DFDF6
:1010800020B90DF10100FFF7C7FB1DE0012405E0C9
:101090001DF80400A52800D102E0641CAC42F7D37F
:1010A00000BFAC420DD0E6B24FF0000806E01DF8DC
:1010B00004000DF80800641C08F10108AC42F6D3E6
:1010C00002E0042600E001E0042FB8D200BFAFE741
:1010D0002000002010B504462146012002F078FAD5
:1010E00000220121102004F0EBFF054908600022D6
:1010F0000C21102004F0E4FF0249086010BD00003C
:101100001C0000202000002070470000F0B50346BE
:1011100000224FF0E0277D69104F3F68DFF840C0A4
:10112000B7FBFCF7FEB203FB06F44FF0E027B9690A
:1011300010E04FF0E027B86988420BD0884202D215
:101140000F1A3A4402E02F1A0F443A440146A242D1
:1011500000D300E0EDE700BFF0BD0000E400002098
:1011600040420F0010B5134890F90000002804DA3F
:1011700000F080F940B20F4908700E48007830B98D
:10118000002001F053FA0CA002F072F810E01148B0
:1011900002880221104804F0FEF8642004F0B8FC34
:1011A0000D4804F040F900F023F80CA002F060F8BC
:1011B00010BD00004B00002044697361626C655FE4
:1011C0004C63644C696768742035696E63680D0A06
:1011D0000000000048000020002C014044697361B9
:1011E000626C655F4C63644C696768740D0A00004B
:1011F00010B501F02DF94FF48041024802F0B6FA23
:1012000010BD0000000C014010B540F2046003F076
:1012100083FE4FF48051054802F0A8FA4FF4805342
:1012200002221021014802F0F1FA10BD0010014025
:1012300010B5044600BF07A001F022FD214609A019
:1012400001F01EFD00BF14B100F03AF801E000F01B
:101250002DF810BD3C3C4D595F44454255473E3E3C
:10126000200000004541525F4C5F454E5F436F6E6A
:1012700074726F6C5F5365744F757456616C207334
:101280007461747573203D2025640D0A0000000010
:1012900010B54FF48051044802F01AFB0446204672
:1012A000FFF7C6FF10BD00000010014010B54FF45D
:1012B0008051024802F05CFA10BD000000100140AD
:1012C00010B54FF48051024802F050FA10BD0000F2
:1012D0000010014010B540F2046003F01DFE4FF411
:1012E0000051054802F042FA4FF400530222102147
:1012F000014802F08BFA10BD0010014010B5044601
:1013000000BF07A001F0BCFC214609A001F0B8FC19
:1013100000BF14B100F03AF801E000F02DF810BD64
:101320003C3C4D595F44454255473E3E200000003D
:101330004541525F525F454E5F436F6E74726F6CF2
:101340005F5365744F757456616C20737461747566
:1013500073203D2025640D0A0000000010B54FF4F5
:101360000051044802F0B4FA04462046FFF7C6FFD5
:1013700010BD00000010014010B54FF400510248AC
:1013800002F0F6F910BD00000010014010B54FF456
:101390000051024802F0EAF910BD000000100140BF
:1013A00010B54FF4805002F0B5F808B102F02CF8F7
:1013B0004FF4805002F0A8F810BD000010B5194895
:1013C00090F90000002804DA00F054F840B2154902
:1013D00008701448007830B9012001F027F912A0F4
:1013E00001F046FF1CE000F039F8642004F090FBA7
:1013F0001349097809B9462101E01149097848B231
:1014000001F04AF8642004F083FB0E4804F010F861
:10141000642004F07DFB00F021F80BA001F028FF10
:1014200010BD00004B000020456E61626C655F4C92
:1014300063644C696768742035696E63680D0A00DF
:101440004A000020002C0140456E61626C655F4CD3
:1014500063644C696768740D0A00000010B501F000
:1014600001F84FF48041024802F082F910BD0000FB
:10147000000C014010B502F027F9062801D1012027
:1014800010BD0020FCE700002DE9F05F02211020D4
:1014900001F0AEFA83465846FFF768F88046FFF73A
:1014A00089F806464FF06632124BFEF77EFF04467F
:1014B0000D4622462B4610481049FEF770FF804625
:1014C0000F4A104BFEF7E3FF064600220E4BFEF7D5
:1014D000C5FE04460D4600220C4B20462946FEF769
:1014E00064FF0646FFF747F80FFA80FA5046BDE85A
:1014F000F09F000066664A3FE17A14AE47E1F63F8E
:1015000022FDF675E09C713F000024400000594028
:1015100010B5FFF7AFFF10B1462002F04DFC01F00F
:1015200021F802F0C9FC01F031F8FFF7A3FF08B180
:1015300000F07AFF00F0A0FB01F034FB00F09CFF0C
:1015400001F062F801F0C2F8FFF75EFEFFF7C2FE9D
:1015500010BD38B50446002000900122694620469F
:1015600000F006F810B19DF8000038BD0020FCE73F
:10157000F8B504460D4616462B4622460648009608
:101580000178002000F0C0F908B9012000E0002037
:1015900007463846F8BD00002C00002033B581B066
:1015A0000446012002AB2246009006480178002044
:1015B00000F0D8F908B9012000E0002005462846CF
:1015C0003EBD00002C00002000BFFEE710B5044621
:1015D0000021204600F066FA204601F0F9F80021CB
:1015E000204600F08BFA0420FFF790FD01212046F1
:1015F00000F058FA0620FFF789FD0021204600F090
:1016000051FA0320FFF782FD10BD000070B50546BA
:1016100040F2036003F080FC012D02D14FF44064DE
:1016200005E0022D02D14FF4407400E0C0242346AF
:1016300002221021054802F0E9F80121284600F0B5
:1016400031FA0121284600F059FA70BD000C014022
:1016500010B504460021204600F024FA204601F08F
:10166000B7F80121204600F049FA0420FFF74EFDAB
:101670000121204600F016FA0620FFF747FD002161
:10168000204600F00FFA0320FFF740FD10BD2DE9C2
:10169000F04107460D4600240021384600F002FACA
:1016A000384601F077F80320FFF730FD00261EE0F2
:1016B0000021384600F0F6F90520FFF727FD01214B
:1016C000384600F0EFF96006040E0420FFF71EFD17
:1016D000384600F081FF08B1601CC4B20420FFF757
:1016E00015FD0021384600F0DDF9701CC6B2082E49
:1016F000DEDB1DB93846FFF7ABFF02E03846FFF7E7
:1017000065FF2046BDE8F08170B506460C46002115
:10171000304600F0C7F9304601F05AF800251CE0C9
:101720000320FFF7F3FC04F08001304600F0E6F9F7
:101730006006040E0420FFF7E9FC0121304600F0AA
:10174000B1F90620FFF7E2FC0021304600F0AAF9CB
:101750000320FFF7DBFC681CC5B2082DE0DB70BD81
:1017600010B50446204601F033F80121204600F070
:10177000C5F90121204600F095F90620FFF7C6FCC7
:101780000021204600F0BAF90620FFF7BFFC002137
:10179000204600F087F910BD10B504460021204610
:1017A00000F080F9204601F013F80021204600F0F7
:1017B000A5F90620FFF7AAFC0121204600F072F9E6
:1017C0000320FFF7A3FC0121204600F097F9062033
:1017D000FFF79CFC10BD70B505460024002128468B
:1017E00000F060F90320FFF791FC0121284600F08A
:1017F00085F90320FFF78AFC284600F0CBFF012182
:10180000284600F04FF90320FFF780FC0BE0601C36
:10181000C4B2FA2C04DD2846FFF7BEFF012070BDDC
:101820000120FFF773FC284600F0D6FE0028EED119
:101830000021284600F036F90320FFF767FC00205E
:10184000EDE7000010B504460120A04008490978E2
:10185000084000B110BD2046FFF7D8FE0120A0408F
:101860000349097808430249087000BFF2E7000005
:10187000100000202DE9F04180460F4615461E4617
:1018800004F064FB4046FFF76BFF47F00101404660
:10189000FFF73AFF4046FFF79EFF50B105F00AF907
:1018A00011A001F0E5FC4046FFF776FF0220BDE8FD
:1018B000F08100240FE0701EA04205D100214046B7
:1018C000FFF7E5FE285504E001214046FFF7DFFE63
:1018D0002855601CC4B2B442EDDB05F0EBF840467D
:1018E000FFF75AFF0020E2E74552524F523A49496A
:1018F000435F576169745F41636B28696E64657803
:1019000029213D20300D0A002DE9F84306460F46F7
:1019100090461C46DDF8209000200346424639469A
:101920000090304600F01EF80546FF2D07D14B46CB
:10193000224639463046FFF79DFFBDE8F88302A0F6
:1019400001F096FC2846F8E74552524F523A20499A
:1019500069634170705F57726974655F427974653D
:10196000730D0A002DE9F04781460D4616461F46C5
:10197000DDF8208004F0EAFA4846FFF7F1FE05F0B2
:10198000FE014846FFF7C0FE4846FFF724FF50B16E
:1019900005F090F820A001F06BFC4846FFF7FCFE34
:1019A0000220BDE8F08731464846FFF7ADFE4846C5
:1019B000FFF711FF48B105F07DF823A001F058FCB6
:1019C0004846FFF7E9FE0320EBE7B8F1000F03D12B
:1019D00005F070F8FF20E4E7002413E0395D484685
:1019E000FFF792FE4846FFF7F6FE48B105F062F8B1
:1019F00021A001F03DFC4846FFF7CEFE0420D0E7D1
:101A0000601CC4B24445E9DB05F054F84846FFF7D2
:101A1000C3FE0020C5E700004552524F523A2073E2
:101A2000656E64206465765F616464722049494331
:101A30005F576169745F41636B28696E64657829DB
:101A4000213D20300D0A00004552524F523A20737A
:101A5000656E6420776F72645F61646472204949C7
:101A6000435F576169745F41636B28696E64657891
:101A700029213D20300D0A004552524F523A207321
:101A8000656E642064617461204949435F576169F0
:101A9000745F41636B28696E64657829213D20304D
:101AA0000D0A000070B505460C46012D0BD124B17E
:101AB0008102114801F05CFE1DE04FF480610E4888
:101AC00001F054FE17E0022D0BD124B1E9010A48C0
:101AD00001F04EFE0FE04FF48071074801F046FE22
:101AE00009E024B14021044801F042FE03E0402116
:101AF000014801F03BFE70BD000C014070B5054689
:101B00000C46012D0BD124B1C102114801F030FE69
:101B10001DE04FF400610E4801F028FE17E0022D91
:101B20000BD124B129020A4801F022FE0FE04FF444
:101B30000071074801F01AFE09E024B18021044831
:101B400001F016FE03E08021014801F00FFE70BD98
:101B5000000C0140FEF71EFE07E0FFF795FC03496D
:101B600008804FF47A7003F0D3FFF6E74C000020B2
:101B700070B50446002C08DD0C480078642804DAAF
:101B80000A480078204445B20BE0002C08DA0748E8
:101B90000078002804DD05480078204445B200E0C4
:101BA00070BD284603F01EFA00BFF9E7740000205C
:101BB00030B587B0044640F2036003F0ADF901236D
:101BC00002221821264801F021FE40F2017003F0A4
:101BD000A3F9642C00DD64242248047003A803F0F8
:101BE000BDFC21480088401E05902048006820491F
:101BF000B0FBF1F0401E80B2ADF80C0003A91D4807
:101C000003F01CFC684603F006FC0120ADF8000060
:101C10006A460221174803F09BFA702202211548F8
:101C200003F08CFBC4F164000F4909884843642128
:101C300090FBF1F52A4602210E4803F0ACFB00228E
:101C400002210C4803F0BAFB01210A4803F07AFC98
:101C5000084803F078FA074803F0EAFB07B030BD04
:101C6000000C01407400002072000020E4000020FD
:101C700040420F000004004010B540F2056003F040
:101C80004BF92021044801F073FD2023022210218A
:101C9000014801F0BBFD10BD0014014010B5044621
:101CA00000BF09A000F0ECFF21460BA000F0E8FF08
:101CB00000BF24B12021124801F05AFD03E0202189
:101CC0000F4801F053FD10BD3C3C4D595F44454267
:101CD00055473E3E200000004C53504B5F436F6E13
:101CE00074726F6C5F5365744F757456616C2073BA
:101CF0007461747573203D2025640D0A0000000096
:101D00000014014010B52021054801F0E1FD044612
:101D10000CB9012100E000210846FFF7BFFF10BD0C
:101D200000140140704710B5012001F04BFF02F094
:101D3000B1F800F0A5F900F007F8002001F042FF2B
:101D4000032000F039FC10BD10B515A001F090FA89
:101D5000FFF7E8FF00F0EEF90A2003F0D9FE00F0EB
:101D60001FF900F0FFF800F017FA00F05FF90A2001
:101D700003F0CEFE00F036F80A2003F0C9FE00F0B2
:101D8000BFFA00F06FFA00F01DFA0A2003F0C0FE5F
:101D900002F0CEF802F0C2F80A2003F0B9FE10BD3E
:101DA0000D0A204C54393231315F6D6970692074ED
:101DB0006F2054544C0D0A0010B50020FFF742FD6F
:101DC00040F2066003F0A8F802231A4610210448E6
:101DD00001F01CFD0221024801F0C8FC10BD00000A
:101DE0000018014070B5D021FF20FFF7D7FB60211C
:101DF0000C20FFF7D3FB60211C20FFF7CFFB7021E5
:101E00002420FFF7CBFB30212D20FFF7C7FB0A2151
:101E10003120FFF7C3FBF0212520FFF7BFFB302166
:101E20002A20FFF7BBFB4F212120FFF7B7FB002142
:101E30002220FFF7B3FB01211E20FFF7AFFB80211B
:101E40002320FFF7ABFB02210A20FFF7A7FB0221AB
:101E50003820FFF7A3FB04213920FFF79FFB08215F
:101E60003A20FFF79BFB10213B20FFF797FB042153
:101E70003F20FFF793FB08214020FFF78FFB102145
:101E80004120FFF78BFB20214220FFF787FBA02199
:101E90002B20FFF783FBD021FF20FFF77FFB2620BD
:101EA000FFF757FB044604F07F0421462620FFF786
:101EB00075FB0F212720FFF771FB8121FF20FFF722
:101EC0006DFBBF212020FFF769FBFF212020FFF7DA
:101ED00065FB052003F01CFE6F210B20FFF75EFB66
:101EE000FF210B20FFF75AFB642003F011FE0025B1
:101EF00015E0C82003F00CFED021FF20FFF74EFBB9
:101F00008720FFF726FB00F0080018B109A001F0B8
:101F1000AFF906E00CA001F0ABF9681CC5B20A2DC0
:101F2000E7DB00BFD021FF20FFF738FB9420FFF74D
:101F300010FB70BD0D0A4C54393231312070637280
:101F400020737461626C65000D0A4C543932313172
:101F50002070637220756E737461626C652121213B
:101F60002100000010B58621FF20FFF717FB852117
:101F70003020FFF713FBD821FF20FFF70FFB0021D4
:101F80001620FFF70BFBD021FF20FFF707FB1221E4
:101F90004320FFF703FB05210220FFF7FFFA10BDE6
:101FA00010B5D021FF20FFF7F9FA00210846FFF70E
:101FB000F5FA8221FF20FFF7F1FA44210220FFF712
:101FC000EDFA36210520FFF7E9FA26210D20FFF76B
:101FD000E5FA0C211720FFF7E1FA0C211D20FFF78D
:101FE000DDFA81210A20FFF7D9FA00210B20FFF743
:101FF000D5FA9F210720FFF7D1FAFC210820FFF72F
:10200000CDFA01210920FFF7C9FA01211120FFF7BC
:10201000C5FA8621FF20FFF7C1FA1B213320FFF705
:10202000BDFA1B213420FFF7B9FA10BD10B582218B
:10203000FF20FFF7B3FA48212D20FFF7AFFA8221E6
:102040003520FFF7ABFA10BD10B50446FFF7B4FE1C
:102050000A2003F05DFDFFF766FEFFF70BFA08B1FB
:10206000FFF7ACF94FF4FA7003F052FD00F026FBD5
:10207000642003F04DFD002003F06EFD10BD000054
:1020800010B50221064801F071FB642003F040FD09
:102090000221034801F06CFB642003F039FD10BD00
:1020A0000018014010B50446642003F031FDD02132
:1020B000FF20FFF773FA608A01120D20FFF76EFA16
:1020C000A17C0E20FFF76AFA208A01120F20FFF789
:1020D00065FA217C1020FFF761FA217B1520FFF7BC
:1020E0005DFA608901121720FFF758FAA17A1820CB
:1020F000FFF754FA208901121120FFF74FFA217AD5
:102100001220FFF74BFAE08801121320FFF746FA7E
:10211000A1791420FFF742FAA1781620FFF73EFAC2
:10212000208801121920FFF739FA21781A20FFF7C9
:1021300035FA10BD10B58221FF20FFF72FFA1821C4
:102140000120FFF72BFA8621FF20FFF727FA6121F4
:102150000620FFF723FAA8210720FFF71FFA87219F
:10216000FF20FFF71BFA08211420FFF717FA0021C0
:102170001520FFF713FA0F211820FFF70FFA082197
:102180002220FFF70BFA00212320FFF707FA0F2187
:102190002620FFF703FA10BD10B5642003F0B8FC49
:1021A0000348FFF77FFF03A001F062F810BD0000B5
:1021B0003000002031303234783630305F363048ED
:1021C0007A0D0A0010B54024FFF754F900B15024ED
:1021D0001DA001F04DF88521FF20FFF7DFF9214612
:1021E0005920FFF7DBF9AA215A20FFF7D7F9AA21D6
:1021F0005B20FFF7D3F900215C20FFF7CFF95021D6
:102200008820FFF7CBF97721A120FFF7C7F98621B6
:10221000FF20FFF7C3F940210846FFF7BFF934213B
:102220004120FFF7BBF910214220FFF7B7F9232126
:102230004320FFF7B3F941214420FFF7AFF9022112
:102240004520FFF7ABF910BD0D4C54393231312028
:1022500073657420746F204F55545055545F4C561D
:102260004453000010B58221FF20FFF797F90021A9
:102270006220FFF793F908213B20FFF78FF99221A5
:102280003E20FFF78BF948213F20FFF787F93121E6
:102290004020FFF783F980214320FFF77FF90021D9
:1022A0004420FFF77BF900214520FFF777F9002153
:1022B0004920FFF773F901214A20FFF76FF9002148
:1022C0004E20FFF76BF900214F20FFF767F900213F
:1022D0005020FFF763F900215320FFF75FF9012138
:1022E0005420FFF75BF98121FF20FFF757F979218F
:1022F0002020FFF753F9FF212020FFF74FF910BDF1
:1023000010B58221FF20FFF749F901213620FFF7A0
:1023100045F929213720FFF741F906213820FFF739
:102320003DF930213920FFF739F98E213A20FFF7A6
:1023300035F98121FF20FFF731F9F7212020FFF740
:102340002DF9FF212020FFF729F98721FF20FFF732
:1023500025F914213720FFF721F900211320FFF779
:102360001DF980211320FFF719F9642003F0D0FB39
:1023700000241FE08721FF20FFF710F91F20FFF73F
:10238000E8F800F0800080B12020FFF7E2F800F0CC
:10239000800018B10BA000F06BFF02E00FA000F06E
:1023A00067FF15A000F064FF06E00CA000F060FFDE
:1023B000601CC4B20A2CDDDB00BF16A000F058FF81
:1023C00010BD00004C543932313120747820706CCB
:1023D0006C206C6F636B0D0A000000004C543932A6
:1023E000313120747820706C6C20756E6C6F636B6B
:1023F00065640D0A000000004C54393231312074FC
:102400007820706C6C2063616C20646F6E650D0ABF
:10241000000000002073797374656D207375636329
:102420006573730D0A00000010B540F2066002F0FB
:1024300073FD4FF4004302221021044801F0E6F935
:102440004FF40041014801F091F910BD001801401E
:1024500010B54FF40041024801F088F910BD0000AA
:102460000018014010B54FF40041024801F080F916
:1024700010BD00000018014010B540F2046002F0E9
:102480004BFD4FF4E06302224821024801F0BEF9FF
:1024900010BD00000010014070B50446642C01DD41
:1024A000642402E0002C00DA00240D490C7000BF07
:1024B0000CA000F0E5FB0A4801780EA000F0E0FB5C
:1024C00000BFC4F16400134909884843642190FBAC
:1024D000F1F52A460221104802F05DFF70BD0000B0
:1024E0004A0000203C3C4D595F44454255473E3E22
:1024F000200000004C63645F70776D5F6F7574201F
:10250000675F6C63645F70776D203D2025640D0A02
:102510000000000048000020002C014010B51021F0
:10252000014801F025F910BD000C014010B5102143
:10253000014801F01BF910BD000C014010B540F23C
:10254000036002F0E9FC102302221946034801F05F
:102550005DF91021014801F009F910BD000C01409E
:1025600000BFFEE710B540F2056002F0D5FC402345
:1025700002221021034801F049F94021014801F0ED
:10258000F5F810BD001401407047000010B540F28E
:10259000046002F0C1FC0F2302221021054801F063
:1025A00035F90421034801F0E1F80B21014801F05D
:1025B000DFF810BD0010014010B50446002C08DD06
:1025C000052C06DA601E012202FA00F1014801F032
:1025D000CFF810BD0010014010B50446012C04D105
:1025E000C102084801F068F910BD022C04D1210293
:1025F000044801F061F9F7E78021024801F05CF935
:10260000F2E70000000C014010B540F2046002F057
:1026100083FC2021044801F0A9F820230222102184
:10262000014801F0F3F810BD0010014010B5044658
:1026300000BF07A000F024FB214609A000F020FB0A
:1026400000BF14B100F03AF801E000F02FF810BD1F
:102650003C3C4D595F44454255473E3E20000000FA
:1026600053485444425F35494E5F436F6E74726FF6
:102670006C5F5365744F757456616C20737461742C
:102680007573203D2025640D0A00000010B520213F
:10269000054801F01DF904460CB9012100E00021B4
:1026A0000846FFF7C3FF10BD0010014010B5202100
:1026B000014801F05BF810BD0010014010B5202169
:1026C000014801F055F810BD0010014010B540F26E
:1026D000046002F021FC4FF40061054801F046F867
:1026E0004FF4006302221021014801F08FF810BD61
:1026F0000010014010B5044600BF07A000F0C0FA6A
:10270000214609A000F0BCFA00BF14B100F038F86F
:1027100001E000F02BF810BD3C3C4D595F444542B0
:1027200055473E3E2000000053504B454E5F436FDF
:102730006E74726F6C5F5365744F757456616C2064
:10274000737461747573203D2025640D0A000000C8
:1027500010B54FF40061044801F0BAF80446204671
:10276000FFF7C8FF10BD00000010014010B54FF486
:102770000061024800F0FCFF10BD000000100140A5
:1027800010B54FF40061024800F0F0FF10BD0000EA
:102790000010014010B50446012C06D1C3020222EC
:1027A00048210A4801F032F80EE0022C06D123023B
:1027B00002224821054801F029F805E08023022281
:1027C0004821024801F022F810BD0000000C014031
:1027D00010B50446012C06D1C302022210210A487A
:1027E00001F014F80EE0022C06D12302022210217F
:1027F000054801F00BF805E0802302221021024871
:1028000001F004F810BD0000000C014010B500BF3D
:10281000502080F31188BFF34F8FBFF36F8F00BF3D
:1028200004F0AEF818B14FF080500449086000BFC2
:10283000002080F3118800BF10BD000004ED00E00F
:1028400010B51448006840F00100124908600846BD
:102850004068114908400F494860084600680F4920
:1028600008400C4908600846006820F48020086091
:10287000084640680A49084006494860084600681A
:1028800006490840034908604FF41F00886002F0C1
:1028900043FC10BD001002400C00FFE8FFFFF6FEF5
:1028A000FFFF00F77FB505460C464FF4E06002F0ED
:1028B00033FB684602F052FE0295ADF800406946CF
:1028C0004FF0804002F0BAFD4FF0804002F0ABFDC7
:1028D0000121880702F026FE002207211C2001F0BA
:1028E00021FD0121880702F019FE7FBD38B50025C2
:1028F000002000900121880702F018FE002850D027
:102900002A48007800F001008DF800002748007880
:1029100000F002008DF801002448007800F0040067
:102920008DF802002148007800F008008DF80300BF
:10293000002414E01E48005D04280CDA1C48005DE9
:102940001C49085C48B91A48005D1DF80010204673
:1029500001F078F901E0681CC5B2601CC4B2282CF3
:10296000E8DB002416E01348005D401C11490855BF
:102970000846005D1049095D884209DB00200D49C9
:1029800008550120A04009490978484007490870C6
:10299000601CC4B2042CE6DB282D02D1E80602F04C
:1029A00042FD0121880702F0BDFD38BD7000002006
:1029B0007C0100206C000020EC6B000870B5044620
:1029C00000250221094800F0A1FB084800F006FCA0
:1029D0000546052322460021044800F0A9FB0121F9
:1029E000024800F0FFFB284670BD000000240140B3
:1029F0002DE9F04107460C460025002608E0384640
:102A0000FFF7DCFF0544052003F082F8701CC6B216
:102A1000A642F4DBB5FBF4F080B2BDE8F081FFF72D
:102A20008DFD00BF0BE0FFF781FD4FF4FA7003F05E
:102A30006FF8FFF773FD4FF4FA7003F069F8F2E7EF
:102A400010B50D490D4802F0C6FE30B10A490B48D9
:102A500002F0B4FE00F038F90DE00949074802F031
:102A6000BAFE30B10649054802F0A8FE00F05CFC51
:102A700001E000F045FA10BD0503050000380140F3
:102A80000703070010B51D491D4802F0A4FE88B1D8
:102A90001A491B4802F092FEFDF7AEFF1948007874
:102AA00050BB4FF44171164802F07BFE01201549DE
:102AB000087021E01449124802F08DFE30B112492D
:102AC0000F4802F07BFEFDF7ABFF15E00F490C4805
:102AD00002F081FE80B1FDF785FF0C49084802F045
:102AE0006DFE0848007838B14FF44171044802F097
:102AF0004BFE00200349087010BD000005030500CF
:102B000000440040280000200703070004030400DD
:102B10007CB504460D460E4903C9CDE90001012CE0
:102B200000DD7CBD0120A0400A490978084060B161
:102B300000BF5DF82400072102F007FE0028F8D04E
:102B40005DF82400294602F0AEFD00BFE9E7000071
:102B5000D46B0008040000202DE9F04107460D4623
:102B60001646002405E0295D3846FFF7D1FF601CBA
:102B7000C4B2B442F7DBBDE8F081F0B504460D46BF
:102B80004FF0FF370CB93846F0BD681E265CC1B265
:102B90002046FDF719FFB04200D100273846F3E781
:102BA00000BFFEE710B540F2046002F0B5F9402125
:102BB000044800F0DBFD402302221021014800F010
:102BC00025FE10BD0010014010B5044600BF09A04D
:102BD00000F056F821460BA000F052F800BF24B1D7
:102BE0004021144800F0C4FD03E04021114800F0EA
:102BF000BDFD10BD3C3C4D595F44454255473E3EEE
:102C0000200000005631325F43544C5F436F6E74B6
:102C1000726F6C284D4F525345295F4F7574486948
:102C2000676820737461747573203D2025640D0AF4
:102C3000000000000010014010B54021054800F0E0
:102C400047FE04460CB9012100E000210846FFF7C9
:102C5000BBFF10BD0010014031B50A240A23012238
:102C600069460548006803F017FB40F20731034846
:102C700002F097FD009838BD1C0000200044004081
:102C80000FB4054B10B503A9044A029800F056F89A
:102C900010BC5DF814FB000039350008E800002086
:102CA0000FB4084B10B504A902AA039800F046F827
:102CB000044602A9002000F01DF9204610BC5DF872
:102CC00014FB0000F52E00081CB5084802F0E6FCD5
:102CD000C0B20190002000906B46012201A9044877
:102CE000006803F063FB9DF804001CBD0038014040
:102CF0000C00002031B50A240A2301226946054848
:102D0000006803F0C9FA40F20731034802F049FDB8
:102D1000009838BD080000200038014002E008C8D3
:102D2000121F08C1002AFAD170477047002001E045
:102D300001C1121F002AFBD1704700002DE9FF4F8F
:102D40008BB09A460F460546002606E025280BD094
:102D500052460D9990476D1C761C28780028F5D1B5
:102D60000FB03046BDE8F08F0024A0460122604934
:102D700000E0044315F8013F203B02FA03F008424B
:102D8000F7D128782E2817D115F8010F44F0040444
:102D90002A280ED06FF02F022878A0F130010929DF
:102DA0000AD808EB880102EB410100EB01086D1C19
:102DB000F2E757F8048B6D1C287869283ED006DCB2
:102DC0000028CDD063280BD0642804D136E07328C6
:102DD00010D075284BD052460D999047761C85E04F
:102DE00017F8040B8DF8000000208DF80100E9466B
:102DF000012003E057F8049B4FF0FF3061074FF0CC
:102E0000000401D40AE0641C44450DDA8442FADB74
:102E100019F804100029F6D106E0641C8442FCDB9A
:102E200019F804100029F8D1264404E019F8010B20
:102E300052460D999047641EF8D257E001CF4FF0EB
:102E40000A0B002802DA40422D2102E0210504D5B8
:102E50002B218DF82410012103E0E10705D020216A
:102E6000F7E70DF1200908910CE00021F9E701CF07
:102E70004FF00A0BF9E75946FDF7AFFB01F13002BD
:102E800009F8012D0028F6D1ADEB090000F1200B67
:102E9000600701D44FF00108D84502DDA8EB0B0014
:102EA00000E000208046002406E009A85246005DAC
:102EB0000D999047641C761C08988442F5DB04E069
:102EC000302052460D999047761CB8F10001A8F1C8
:102ED0000108F5DC05E019F8010B52460D99904701
:102EE000761CBBF10001ABF1010BF4DC6D1C34E787
:102EF000092801000A68531C0B601070704700001D
:102F000010B54FF442711A4802F065FC40B119A0A7
:102F100000F0AEF94FF44271154802F04FFC25E085
:102F20001C49134802F057FC38B11BA000F0A0F96F
:102F300018490F4802F042FC18E01E490C4802F004
:102F40004AFC38B11CA000F093F91A49084802F075
:102F500035FC0BE02049064802F03DFC30B11FA0D3
:102F600000F086F91C49024802F028FC10BD000060
:102F7000003801402A2A2A205553415254207061BA
:102F800072697479206572726F7221202A2A2A0A66
:102F900000000000000501002A2A2A205553415252
:102FA00054206672616D65206572726F7221202AED
:102FB0002A2A0A00000503002A2A2A2055534152D2
:102FC00054206F76657272756E206572726F722111
:102FD000202A2A2A0A000000000502002A2A2A20A4
:102FE0005553415254206E6F697365206572726F3C
:102FF0007221202A2A2A0A00816841F00801816092
:1030000000BF816801F008010029FAD1816841F010
:103010000401816000BF816801F004010029FAD138
:10302000704730B5012902D002291AD10CE0C36AD9
:1030300023F47003C362C36A541E4FF4700505EA9B
:1030400004542343C3620DE0836B23F44013836372
:10305000836B541E4FF4401505EA045423438363E5
:1030600000E000BF00BF30BD21B1826842F40062C1
:10307000826003E0826822F400628260704730B5AB
:10308000436823F4C0534360012904D0022913D0BC
:10309000042916D116E0436823F460434360436873
:1030A000541E4FF4604505EA4434234343604368AB
:1030B00043F40063436006E0436843F48053436095
:1030C00001E000BF00BF00BF30BD816801F0010119
:1030D00019B9816841F0010181607047012902D06E
:1030E000022910D107E0836823F46023836083689A
:1030F0001343836008E0836823F4E04383608368BC
:103100001343836000E000BF00BF704702688A433A
:10311000026070470549096821F47021034A116073
:103120001146096801431160704700000424014002
:10313000F0B51D4606290CDA436B01EB81071F260B
:10314000BE40B34301EB810602FA06F63343436304
:1031500022E00C290EDA036B8E1F06EB86071F2672
:10316000BE40B3438E1F06EB860602FA06F63343D3
:10317000036311E010290FDAC36AA1F10C0606EB14
:1031800086071F26BE40B343A1F10C0606EB860658
:1031900002FA06F63343C3620A2A0CDA046902EB28
:1031A00042070726BE40B44302EB420605FA06F684
:1031B0003443046111E0122A0FDAC468A2F10A064E
:1031C00006EB46070726BE40B443A2F10A0606EB0B
:1031D000460605FA06F63443C460F0BD0146C86CE5
:1031E00080B2704701F001021AB1826842F4800295
:1031F000826001F002021AB1826842F40012826019
:103200007047AAB101F480731BB1436843F4807323
:10321000436001F480631BB1436843F480634360FF
:1032200001F00203CBB1836843F00203836014E032
:1032300001F480731BB1436823F48073436001F48D
:1032400080631BB1436823F48063436001F0020391
:103250001BB1836823F00203836070470348006852
:1032600040F4000001490860704700000824014054
:1032700010B5044604B910BD03E014F8010BFFF7C4
:1032800039FD20780028F8D100BFF4E77FB5054666
:103290000E46002000900190029003908DF80F00E0
:1032A0000A2E13D10E240CE00A20B5FBF0F100FB2E
:1032B000115030300DF804000A20B5FBF0F5601E07
:1032C000C4B2102C23DA002DEED120E00E2417E03A
:1032D00005F00F000DF804001DF804000A2806DAB6
:1032E0001DF804003030C0B20DF8040005E01DF8F0
:1032F00004005730C0B20DF804002D09601EC4B29E
:10330000102C01DA002DE3D105A0FFF7B1FF0DEB82
:103310000401481CFFF7ACFF02A0FFF7A9FF7FBD27
:1033200020307800200000001CB5002000901048DC
:10333000006802F0B9FE04462CB940F207310D488E
:1033400002F022FA1CBD6B46012201A90848006860
:1033500002F057FF28B19DF804100020FFF7D8FBBA
:1033600004E040F20731034802F00EFA00BFE9E73B
:1033700008000020003801402DE9F04707463E468E
:103380000EB900BFFEE71B480068864201D1002449
:103390002DE002F007FB75691748D0F80080174848
:1033A000D0F8009002F020FB454501D04D4501D1F9
:1033B00002241CE01248854212D1B06A70B903247D
:1033C000002007E006F15401095C012901D1022423
:1033D00002E0401C0128F5DB00BF08E0022406E003
:1033E0000848854200D00DB9042400E0012420469D
:1033F000BDE8F087780000207C00002080000020DD
:1034000058030020440300200EB50020029002A8BB
:10341000002102230A46CDE900100448006803F0A9
:1034200025F94FF4805000F05FF80EBD1400002025
:1034300010B52C4B1B6883432A4C2360231D1B684B
:103440008343241D2360231D1B688343241D2360A5
:10345000231D1B688343241D236011B101290ED154
:1034600005E0204B1B6803431E4C236008E01D4B06
:103470001B1D1B6803431B4C241D236000E000BF81
:1034800000BF22B1012A0FD0022A27D119E0154B23
:1034900008331B680343134C08342360231D1B6847
:1034A0008343241D23601AE00E4B08331B688343BB
:1034B0000C4C08342360231D1B680343241D236028
:1034C0000DE0084B08331B680343064C08342360A7
:1034D000231D1B680343241D236000E000BF00BFC1
:1034E00010BD000000040140024909688143014AFF
:1034F0001160704700040140024909680143014A14
:1035000011607047000401400149086070470000E5
:103510001404014001460748006800EA010205481A
:103520001438006800EA010312B10BB101207047A2
:103530000020FCE71404014070B504460D46204607
:10354000FFF7D8FB204670BD30B502460B46164C3F
:10355000002145F25550154D286000BF1348C06842
:1035600000F00101601E041E01D00029F6D109B14E
:10357000002030BD0D4843600B4C00BF0B48C068B5
:1035800000F00201601E041E01D00029F6D109B12D
:103590000020EEE7C2F30B00044DA8604AF6AA2013
:1035A00028600120E5E70000FFFF0F000030004029
:1035B0004CF6CC40014908607047000000300040E4
:1035C00045F2555001490860704700000030004046
:1035D00070B504460D46324E012C00D1314E01200B
:1035E000A04031490978084000B170BD2F4931F839
:1035F000140001F091FC2E4931F8140001F08CFC0C
:103600002C4951F824302C4951F824000222182169
:1036100000F0FCF8294951F82430274951F82400DA
:103620000222042100F0F2F8304602F041F8294667
:10363000304601F0EBFF0021304602F008F900218E
:10364000304602F0F4F80021304602F0E0F80021A4
:10365000304602F091F80021304602F085F804214E
:10366000304602F0DCF80821304602F0E8F8304637
:1036700002F066F840F20531304602F092F8104A46
:10368000115D104A12F82400002200F04BFE0120C8
:10369000A0400549097808430349087000BFA4E722
:1036A000003801400044004004000020C46B0008C2
:1036B000A86B0008AC6B0008BC6B0008B46B00087A
:1036C000D06B0008C86B000810B5034800F0FCF888
:1036D000C0F30224204610BD0010014001480078CC
:1036E000704700005000002010B500BF06A0FFF793
:1036F000C7FA0948B0F9001008A0FFF7C1FA00BFE7
:103700000548B0F9000010BD3C3C4D595F444542AE
:1037100055473E3E200000004C0000206765745F66
:10372000696E7465726E616C5F74656D7020206780
:103730005F696E745F74656D70203D2025640D0AAD
:103740000000000070B50646282E01DBFF2070BD8A
:103750000548324630C820462946FCF73BFD01218A
:103760000840C0B2F3E700006000002041617047EC
:103770000161704710B500228B071C0F0F2303FA5D
:1037800004F204290EDA204B9B6893431E4CA3607D
:1037900023469B688C07240F00FA04F423431A4C39
:1037A000A3602FE008290EDA174BDB689343164C11
:1037B000E3602346DB688C07240F00FA04F42343FC
:1037C000114CE3601EE00C290EDA0F4B1B6993438A
:1037D0000D4C236123461B698C07240F00FA04F467
:1037E0002343094C23610DE0074B5B699343064C6F
:1037F000636123465B698C07240F00FA04F42343BA
:10380000014C636110BD000000000140F0B50446AA
:1038100016460025002201F00F0501F0100707B140
:10382000354300201EE0012787401F40C7B12268B2
:103830004FEA800C0F2707FA0CF7BA43870005FA06
:1038400007F73A43282904D1012787401F406761C1
:1038500005E0482903D1012787401F4027612260E6
:10386000471CB8B20828DED3082022E00127874091
:103870001F40E7B16268A0F108074FEA870C0F27E5
:1038800007FA0CF7BA43A0F10807BF0005FA07F7DB
:103890003A43282904D1012787401F40676105E08A
:1038A000482903D1012787401F4027616260471CD8
:1038B000B8B21028DAD3F0BD02469068084008B1CB
:1038C000012070470020FCE70146886880B27047FD
:1038D0000246D068084008B1012070470020FCE78C
:1038E0000146C86880B27047F0B50A46002300243C
:1038F0000021002500F00046B6F1004F02D11D4E18
:10390000F16901E01B4E7168C0F3034583B200F416
:103910004016B6F5401F08D121F07061154E76684B
:1039200026F07066134F7E6012E000F48016B6F544
:10393000801F06D1032606FA05F4A14341F0706109
:1039400006E0460D360103FA06F6B14341F0706118
:1039500022B1460D360103FA06F6314300F0004667
:10396000B6F1004F02D1034EF16101E0014E7160EA
:10397000F0BD000000000140C160704710B500209C
:103980000649087006A0FFF773FC0AA002F0B0FF1A
:1039900018B10A48006802F0DFF810BD500000209E
:1039A000686172645F7774645F64697361626C6597
:1039B0000D0A0000687774640000000054000020C5
:1039C0001CB5012009490870094800880949088088
:1039D00009A0FFF74DFC0D48022100234022CDE94C
:1039E00000100BA10C4802F075FD1CBD500000201A
:1039F000580000205A000020686172645F77746488
:103A00005F656E61626C650D0A0000005400002065
:103A10006877746400000000493A000810B5044853
:103A200000880449088004A0FFF722FC10BD0000B4
:103A3000580000205A000020686172645F77746447
:103A40005F666565640D0A0017E00C48007888B170
:103A50000B48008870B10A480088401E0849088059
:103A60000846008830B9FFF789FF06A0FFF700FC81
:103A700000F052F8642002F04BF8E6E75000002016
:103A80005A000020686172645F7774645F666565E0
:103A9000645F7461736B2074696D656F75740D0A72
:103AA0000000000001480088C0B2704758000020A4
:103AB00010B540F2026001F02FFA80211548FFF79F
:103AC00055FE40211348FFF753FEE0230222102148
:103AD0001048FFF79BFE1023022248210D48FFF7F4
:103AE00095FE4FF4C06001F017FA04210020FFF7A3
:103AF00041FE012200211020FFF79AFC1020FFF761
:103B0000FBFC1020FFF700FD022201210A2000F03B
:103B100009FC10BD0008014010B504210848FFF75A
:103B200025FEFFF72BFF40210648FFF71FFEC820A8
:103B300001F0EEFF40210348FFF71AFE10BD000020
:103B40000010014000080140024908800988024A2B
:103B500011807047580000205A00002004460421BC
:103B60000948FFF703FEFFF72BFD24B90121FF20D1
:103B7000FFF7EAFC04E0042140F6FF70FFF7E4FCE5
:103B8000FFF716FD00BFFEE70010014010B50B481F
:103B90000078642803DBFF200949087005E0074826
:103BA000007810B90120064908700549097801EB31
:103BB0008101490048B2FDF7DBFF10BD7400002011
:103BC0007500002010B504462146282000F014F8A6
:103BD00010BD000010B504462CB14FF480710548AB
:103BE000FFF7C6FD04E04FF480710248FFF7BEFD09
:103BF00010BD00000018014070B504460E46012CAF
:103C000001DB282C00DD70BD601EC4B2272C0DD155
:103C10004FF0804001F007FC002504E00520084932
:103C20004855681CC5B2282DF8DB02E00520044980
:103C300008553146204600F005F800BFE3E70000D4
:103C40007C01002070B504460D46282C04DA611C66
:103C5000C8B200F08DF800E070BDB5B14FF48041FE
:103C60001A48FFF785FD272C05D14FF0FF30184A81
:103C7000106050601FE00120A040C117144B0CCB16
:103C800010431943124A03C215E04FF480410F4814
:103C9000FFF76CFD272C04D100210D4A1160516003
:103CA00009E00120A040C043C117094B0CCB1040D4
:103CB0001940074A03C20120FFF78CFF1E20FDF7C1
:103CC00025FA0020FFF786FF00BFC5E7001401407A
:103CD0006000002070B540F2056001F01DF94FF45E
:103CE0009043022210211E48FFF790FD4FF49041AF
:103CF0001B48FFF73BFD40F2066001F00DF97C2503
:103D00002B46022210211748FFF780FD294615484F
:103D1000FFF72CFD4FF44073022210211148FFF7EA
:103D200075FD4FF440710F48FFF722FD6420FDF749
:103D30003FFF0D48006842F21071B0FBF1F0401EE9
:103D400086B2314640F2E730FEF7ACFD002404E0D5
:103D5000052006490855601CC4B2282CF8DB70BD4C
:103D60000014014000180140E40000207C01002004
:103D700070B504460E48FFF7B3FD054625F07C05F7
:103D800004F03E0045EA400529460948FFF7F4FDE6
:103D900004F0010028B14FF400610648FFF7E8FC89
:103DA00004E04FF400610348FFF7E0FC70BD000041
:103DB000001801400014014030B587B0044640F2BD
:103DC000036001F0A9F84FF40043022218212B48A8
:103DD000FFF71CFD40F20B6001F09EF8642C00DD43
:103DE00064242748047003A801F0B8FB2548008824
:103DF000401E0590244800682449B0FBF1F0401EA5
:103E000080B2ADF80C0003A9214801F017FB684609
:103E100001F001FB0420ADF802006A4602211C48B3
:103E200001F096F970220221194801F087FAC4F1D5
:103E30006400144909884843642190FBF1F52A463F
:103E40000221134801F0A7FA00220221104801F0D4
:103E5000B5FA01210E4801F075FB0D4801F073F928
:103E60004FF48043022210210448FFF7CFFC4FF4A7
:103E700080410248FFF77AFC07B030BD000C0140DA
:103E80004A00002048000020E400002040420F00CB
:103E9000002C014010B54FF480710648FFF766FC16
:103EA000642001F035FE4FF480710248FFF760FC9A
:103EB00010BD00000014014010B540F2056001F093
:103EC0002BF84FF48073022210210448FFF79EFC68
:103ED0004FF480710148FFF74BFC10BD0014014006
:103EE00070B50446A61104F03F00401EC4B2282C51
:103EF00010DA4FF0804001F09BFA272C08D1002502
:103F000003E005484655681CC5B2282DF9DB01E0E1
:103F10000148065570BD00007C01002010B58221CB
:103F2000FF20FDF73BFB38213B20FDF737FB10BDA1
:103F300010B58121FF20FDF731FBFB210D20FDF79E
:103F40002DFB0A2001F0E4FDFF210D20FDF726FBEB
:103F500010BD00001CB5FCF71BFD25A0FFF788F97C
:103F600029480068FFF784F926A0FFF781F90020AF
:103F7000022103462022CDE9001024A1264802F0A8
:103F8000A9FA0020022103467022CDE9001023A1E6
:103F9000244802F09FFA0020042103465022CDE974
:103FA000001021A1224802F095FA224804210023A2
:103FB0008022CDE9001020A1214802F08BFA21488F
:103FC000032100234022CDE900101FA1204802F068
:103FD00081FA0020022103464022CDE900101DA1F4
:103FE0001E4802F077FA01F071FF00BFFEE7000003
:103FF0006672656572746F73202C20696E69742017
:104000006F6B21210D0A0000000000205461736BCA
:104010004C656431000000001F2A00086465627569
:1040200067720000C50F00086C743932313100002E
:104030004920000824000020546F437075000000E0
:104040001D100008140000206B65795F626F64002A
:104050002151000874656D7000000000551B0008B8
:1040600008B51EA000680090022000F014F96A460E
:104070000021022000F02CF900231A4619460220E4
:1040800000F037F940F2036000F046FF4FF4C060E3
:1040900000F042FF4FF48053022248211048FFF7FE
:1040A000B5FB0C210120FFF765FB01220021100365
:1040B000FFF7BEF94FF48050FFF71EFA4FF480501F
:1040C000FFF722FA00220721282000F02BF900F048
:1040D0000BF890210348FCF7A6F808BD00FF00008C
:1040E000000C0140EC00002008B56B4601220021C5
:1040F000022000F0D6F860B99DF8000000F03F0003
:104100003F2804D09DF8000000F03F0008BD3F208C
:10411000FCE702A0FEF7B4FDFF20F7E74552524F3F
:10412000523A204B45595F524F575F5343414E20FF
:104130006E6361393535355F726561645F696E70D4
:104140006F72740D0A0000002DE9F0410027FFF79F
:10415000CBFF07463F2F55DA002550E03C48435D32
:1041600000221146022000F0C4F820B1294639A0EF
:10417000FEF786FD41E0FFF7B7FF0746002639E06E
:10418000062000FB0560C4B247FA06F000F001000B
:10419000E8B93D4830F81400022829DA3A4830F8E6
:1041A0001400401C81B2384820F8141030F8140074
:1041B00002281DD10120344948390855611CC8B274
:1041C000012100F0D9FE01203049087010E02E488E
:1041D0004838005D60B100202B4948390855611C02
:1041E000C8B2002100F0C8FE0021274820F81410B2
:1041F000701CC6B2062EC3DB00BF681CC5B2062DFC
:10420000ACDB1CE021480078C8B1002412E01E4855
:104210004838005D60B100201B4948390855611CD1
:10422000C8B2002100F0A8FE0021174820F81410A1
:10423000601CC4B2242CEADB00201449087000235F
:104240001A461946022000F054F80020BDE8F0811B
:10425000DC6B00084552524F523A204B45595F5291
:104260004F575F5343414E206E6361393535355F9B
:1042700077726974655F6F7574706F727420693DD1
:1042800025640D0A00000000340100201800002001
:104290000020FFF763FC10B504462046FDF7D2FA74
:1042A00010BDF8B506460D4614461F4605F00E052E
:1042B00045F040050CB1012000E00020044601203B
:1042C000E2B23B46294600903046FDF71DFBF8BDA3
:1042D000F8B506460C46154604F00E0444F04004BA
:1042E00002202B460622214600903046FDF73AFB7D
:1042F000F8BD7FB582B006460C46154604F00E04A4
:1043000044F040040DB1012000E0002005460120EA
:104310000090A81CC2B205AB21463046FDF722FB37
:1043200006B070BD2DE9F04103460D461646002447
:104330000027A0462448006800F4E060B0F5A06FB4
:1043400015D006DCB0F5407F18D0B0F5806F19D1DC
:1043500010E0B0F5C06F06D0B0F5E06F12D10027C5
:104360004FF0040815E001274FF0030811E0022781
:10437000B8460EE003274FF001080AE004274FF08B
:10438000000806E04FF4A06000F022F80227B846CB
:1043900000BF00BFC7F1040005FA00F4C8F1040132
:1043A0000F20C8403040044324010848C45403F09F
:1043B0001F01012088405911890001F1E021C1F855
:1043C0000001BDE8F08100000CED00E000E400E039
:1043D00002490143024A1160704700000000FA05DB
:1043E0000CED00E02DE9F04105460E461C4807683B
:1043F0001C480068001D01F032FA50B919480068E5
:1044000090F82C100120884017490968814316480C
:104410000160681C38B936B112480168091D13489B
:1044200001F0B4FA1AE07C190E4800684460BC42FE
:1044300007D20C480168091D0D48006801F08CFA8C
:104440000CE008480168091D0A48006801F084FA78
:1044500009480068844201D207480460BDE8F08141
:104460008C000020780000209000002058030020DD
:10447000800000207C000020A800002010B5044629
:1044800001F090FA24480068401C23490860234842
:10449000006840B9214804600846006801280DD131
:1044A00000F04CF90AE01E48006838B91B48006863
:1044B000C06AE16A884201D8184804601948006857
:1044C000401C1849086008460068206494F82C10C5
:1044D0000120884014490968084313490860E16ACB
:1044E00001EB8101114A02EB8100211D01F04EFA1E
:1044F00001F07AFA0A48006868B108480068C06AA2
:10450000E16A884207D24FF0805009490860BFF342
:104510004F8FBFF36F8F10BD880000207800002000
:1045200094000020A400002090000020A40200209D
:1045300004ED00E00146D1E90132D0180A68801A82
:104540008A68824201D88A68801A704710B516E0DE
:1045500001F028FA0C48C068C468201D01F07FF9FA
:104560000A480068401E0949086009480068401E62
:104570000749086001F038FA204600F00BF80448BB
:1045800000680028E4D110BD44030020880000200A
:104590008400002010B50446206B01F03BFA204651
:1045A00001F038FA10BD000030B54FF42053174821
:1045B00000F007042CB1C01D20F00700134C041BB1
:1045C0001B1B0246124C22600024114D6C60D01857
:1045D000083820F007000F4C206000240D4D2D6896
:1045E0006C600C4D2D682C601146441A4C60094CCF
:1045F00024680C60084D4C682C60084D4C682C6099
:104600004FF00044064D2C6030BD00006C030020CC
:10461000C4000020CC000020D4000020D0000020E6
:10462000E000002000BFFFF791FF06480068012866
:10463000F9D94FF0805004490860BFF34F8FBFF3A2
:104640006F8FF0E7A402002004ED00E02DE9F047B1
:1046500004460D4616461F46DDF820804FF05509EA
:10466000324655212846FBF7E0FDA84201D1012042
:1046700000E0002008B900BFFEE724212046FBF738
:10468000D2FDA561A660E76084F81C80BDE8F087D4
:104690002DE9F05F82460E4690469B460A9F0C9C91
:1046A0004FEA8801A522206BFBF7B6FDA8F10100B7
:1046B000216B01EB800929F0070909F0070008B90F
:1046C000012000E0002008B900BFFEE786B1002508
:1046D00007E0715D04F134004155705D00B902E0FE
:1046E0006D1C0A2DF5D300BF00213D20015502E0CD
:1046F000002084F83400052F00D30427E762A76464
:104700000020E064201D01F024F904F1180001F0FC
:1047100020F92461C7F10500A061646200202065D2
:1047200084F854005A465146484600F0C5FA2060C5
:104730000B9808B10B980460BDE8F09F10B50024F9
:1047400007E004EB84010F4A02EB810001F0F4F86A
:10475000641C052CF5D30C4801F0EEF80B4801F071
:10476000EBF80B4801F0E8F80A4801F0E5F80A48D0
:1047700001F0E2F804480949086004480849086063
:1047800010BD0000A4020020080300201C0300202C
:104790003003002044030020580300207C00002048
:1047A0008000002010B50146164800E0006803684C
:1047B0008B42FBD30246436813448B4204D14368C7
:1047C0004C682344436001460A464B68134404681E
:1047D000A34211D10C4C03682468A34208D04B6853
:1047E0000468646823444B6003681B680B6005E041
:1047F000054B1B680B6001E003680B60884200D02A
:10480000016010BDC4000020CC0000202DE9F0475D
:1048100007460C4690460026206848B3204641686B
:104820004968416000F1080142688A4202D141684A
:10483000496841604168D1F80C9000BF204641684A
:104840004968416000F1080142688A4202D141682A
:10485000496841604168CD6806EBC60007EB8001FE
:1048600043460122284601F061FA761C4D45E5D108
:104870003046BDE8F0872DE9F0470446894690466A
:104880009A46C24501D2504600E040460646002EF8
:1048900038D02568A068401BB04202D2A068401BF7
:1048A00000E030460746474501D8012000E00020DF
:1048B00008B900BFFEE7E819A168884201D80120C5
:1048C00000E0002008B900BFFEE7A06941193A46A0
:1048D0004846FBF78FFCBE420DD9464501D8012062
:1048E00000E0002008B900BFFEE7F21B09EB07005B
:1048F000A169FBF77FFC3544A068A84201D8A068F5
:104900002D1A25603046BDE8F0872DE9F84F0546A1
:104910008A46164698460A9F87B1D5F800904346C6
:104920003A4669462846FFF7A6FF009CA8EB070811
:10493000B44204D9C5F80090002400E03446434650
:10494000224651462846FFF796FF83465846BDE863
:10495000F88F000009480068006808B9012000E0ED
:10496000002020B14FF0FF300549086005E0034802
:104970000068C06800680249086070477C00002039
:10498000A80000202DE9F04302460D4600271068DC
:1049900000284CD01046D0F80480D8F80480C0F825
:1049A000048000F10808D0F80490C14505D1D0F882
:1049B0000480D8F80480C0F80480D0F80480D8F8C7
:1049C0000C6000BF1046D0F80480D8F80480C0F80E
:1049D000048000F10808D0F80490C14505D1D0F852
:1049E0000480D8F80480C0F80480D0F80480D8F897
:1049F0000C104FF0000C002311E001F13400C45CF6
:104A0000E85CA04202D04FF0010C03E014B90F465D
:104A10004FF0010CBCF1000F00D002E05B1C0A2B30
:104A2000EBD300BF07B101E0B142CBD100BF3846A4
:104A3000BDE8F0830246002101E0521C491C1078B9
:104A4000A528FAD0890888B2704700000A48006893
:104A5000401C08B9012000E0002008B900BFFEE7B3
:104A600000BF502080F31188BFF34F8FBFF36F8FCB
:104A700000BF00BFFEE70000B80000202DE9F041B4
:104A80000446884616460EB1012000E0002008B911
:104A900000BFFEE76568A068401BB04202D2A06874
:104AA000401B00E030460746E819A168884201D85B
:104AB000012000E0002008B900BFFEE7A169481905
:104AC0003A464146FBF796FBBE420FD9F01BA16860
:104AD000884201D8012000E0002008B900BFFEE7AD
:104AE000F21B08EB0701A069FBF784FB3544A068C3
:104AF000A84201D8A0682D1A65603046BDE8F08153
:104B00002DE9FF47074688461D46DDF830900DB970
:104B1000002416E0387F00F0010040B9012402981B
:104B2000A84201D2029800E02846029009E04D45D3
:104B300006D30124042202A93846FFF79FFF00E0B4
:104B4000002434B141463846029AFFF797FF0646E3
:104B500000E00026304604B0BDE8F08770B5054699
:104B60000E4631462846FBF770FB2846FBF766FBEE
:104B7000044602E020202855641C092CFAD30020AA
:104B80002855281970BD00002DE9F04104464FF06A
:104B9000000801F0DBF94248006808B9FFF704FD9E
:104BA00040480068204000286CD1F4B104F10800AE
:104BB000A0421AD9083404F00700B8B104F0070085
:104BC000C0F108002044A0420DD904F00700C0F154
:104BD0000800044404F0070008B9012000E00020A8
:104BE00020B900BFFEE7002400E00024002C49D0DB
:104BF0002D480068844245D82C4E3046056801E0B7
:104C00002E462D686868A04202D228680028F7D195
:104C100023480068854235D0306800F108082868CC
:104C200030606868001B102810D92F1907F00700A2
:104C300008B9012000E0002008B900BFFEE768685D
:104C4000001B78606C603846FFF7ACFD1649686859
:104C50000968081A14490860084600681449096878
:104C6000884203D210480068114908600D496868FD
:104C7000096808436860002028600E480068401CEE
:104C80000C49086001F016FF08F0070008B9012080
:104C900000E0002008B900BFFEE74046BDE8F08113
:104CA000CC000020E0000020D0000020C400002044
:104CB000D4000020D8000020001F4FF08073036054
:104CC000001F21F001030360001F034B0360143831
:104CD00002602038704700004D4A000810B509A056
:104CE000FEF7C6FA15A0FEF7C3FA214801F06CF8EA
:104CF0001F48FEF7BDFA1FA0FEF7BAFA1EA0FEF786
:104D0000B7FA10BD2D2D2D2D2D2D2D2D2D2D2D2D09
:104D10002D2D2D2D2D2D2D2D2D2D7461736B206995
:104D20006E666F2D2D2D2D2D2D2D2D2D2D2D2D2DF7
:104D30002D2D2D2D2D2D2D0D0A0000005461736B8E
:104D40004E616D6520205461736B537461746520EE
:104D50005072696F7269747920204C65667453745F
:104D600061636B20205461736B4E756D200D0A00DA
:104D7000A40100200D0A00002020423A20426C6F5E
:104D8000636B2020523A2052656164792020443AB6
:104D90002044656C6574652020533A2053746F700D
:104DA0002020583A2052756E200D0A000F4A516893
:104DB0000F4A1140082814D2DFE800F00405060766
:104DC000130A130B00BF00BF00BF41EA803109E0A6
:104DD00000BF20F004004FF0805242EA80321143BD
:104DE00000E000BF00BF014A516070470010024060
:104DF000FF3FFFEF2DE9F04F8BB0074600200990F1
:104E00003EA090E8004CC068CDE905BECDF810A0EA
:104E100007900FF2EC0ADAE9000ACDE9020A0FF274
:104E2000E00ADAE9000ACDE9000A38484068C0F330
:104E300081000A900A9820B1012804D0022829D1C3
:104E400003E0334928E0324926E03048406800F466
:104E50008038B8F5803F09D12D4C2C48406800F4CB
:104E60000039B9F5003F02D1641000E0294C274811
:104E70004068C0F383422548406800F0006008B1F4
:104E800042F010020F2A01D2921C00E0521C04FBD7
:104E900002F101E01E4900BF00BF1C484068C0F39A
:104EA000031504A8465D21FA06F318484068C0F3CC
:104EB000022502A8465D23FA06FC14484068C0F3A8
:104EC000C2251DF8056023FA06F0089037B1012FBE
:104ED00006D0022F06D0032F0AD106E0099108E080
:104EE000099306E0CDF824C003E00898099000E09B
:104EF00000BF00BF09980BB0BDE8F08F00000000B4
:104F00000000000001020304060708090010024027
:104F100000127A0000093D00064A02EB9011096870
:104F200000F01F0301229A401143024B03EB901241
:104F30001160704700100240064A02EB90110968A8
:104F400000F01F0301229A409143024B03EB9012A1
:104F50001160704700100240064A02EB9011096888
:104F600000F01F0301229A401143024B03EB901201
:104F700011607047001002407CB505460C46114890
:104F8000007800F0020018B90FA0FEF771F97CBD9F
:104F9000A5208DF800008DF801508DF802409DF895
:104FA00000009DF8011008449DF802100844C0B2AA
:104FB0008DF80300042269460120FDF7CDFD00BFF6
:104FC000E5E70000040000206572726F723A205419
:104FD0004F4350555F434F4D206E6F7420696E698B
:104FE000740A000070B50446642C01DD642402E0FC
:104FF000002C00DA00240D490C7000BF0CA0FDF756
:105000003FFE0A4801780EA0FDF73AFE00BFC4F14A
:105010006400144909884843642190FBF1F52A464D
:105020000221114800F0B7F970BD000074000020A3
:105030003C3C4D595F44454255473E3E20000000F0
:105040004B6C6564735F70776D5F6F757420675F1D
:105050006B6C6564735F70776D203D2025640D0A6D
:105060000000000072000020000400400020002129
:10507000264A126842F00102244B1A6000BF401C0D
:10508000224A126802F0020111B9B0F5A06FF6D100
:105090001E4A126802F002020AB900BFFEE71B4A6C
:1050A00052681A4B5A601A4652685A601A46526839
:1050B00042F480625A601A465268154B1A40134BEC
:1050C0005A601A465268134B1A43104B5A601A46DC
:1050D000126842F080721A6000BF0C4A126802F037
:1050E0000072002AF9D0094A526822F00302074BE5
:1050F0005A601A46526842F002025A6000BF034AE0
:10510000526802F00802002AF9D0704700100240ED
:10511000FFFFC3F70000280810B5FFF7A7FF10BD79
:10512000FEF79EFF0EE04FF0FF320021084600F030
:1051300021FAFFF709F81E2000F0EAFC4FF4805036
:10514000FEF7DAF9EFE7016841F08001016070478E
:1051500010B531B101293FD002297DD003297CD17E
:10516000BFE0036A23F001030362836923F00303B2
:105170008361036A148823430362036A23F00203F2
:105180000362036A9488234303626A4B984202D005
:10519000694B98421FD1036A23F004030362036A38
:1051A000548823430362036A23F008030362036AFB
:1051B000D48823430362436823F4807343604368C5
:1051C000148923434360436823F4007343604368B6
:1051D000548923434360ABE0036A23F01003036266
:1051E000836923F440738361036A148843EA0413D8
:1051F0000362036A23F020030362036A948843EA8C
:10520000041303624B4B984202D04B4B984226D179
:10521000036A23F040030362036A548843EA0413D9
:105220000362036A23F080030362036AD48843EABB
:1052300004130362436823F4806343604368148962
:1052400043EA84034360436823F400634360436894
:10525000548943EA840301E002E068E0436067E0C8
:10526000036A23F480730362C36923F00303C361F9
:10527000036A148843EA04230362036A23F4007375
:105280000362036A948843EA04230362294B984229
:1052900002D0294B984223D1036A23F4806303622E
:1052A000036A548843EA04230362036A23F4006315
:1052B0000362036AD48843EA04230362436823F445
:1052C000805343604368148943EA0413436043688E
:1052D00023F4005343604368548943EA0413436052
:1052E00026E0036A23F480530362C36923F4407306
:1052F000C361036A148843EA04330362036A23F434
:1053000000530362036A948843EA04330362094B3F
:10531000984202D0084B984208D1436823F4804356
:1053200043604368148943EA8413436000E000BF8C
:1053300000BF10BD002C01400034014031B10129F3
:105340000CD0022913D0032922D118E0836923F05D
:10535000700383618369134383611AE0836923F4D3
:10536000E0438361836943EA0223836111E0C369F7
:1053700023F07003C361C3691343C36109E0C369C8
:1053800023F4E043C361C36943EA0223C36100E03D
:1053900000BF00BF704731B1012906D0022906D0F5
:1053A000032908D105E0426306E0826304E0C2639A
:1053B00002E0026400E000BF00BF704731B1012984
:1053C0000CD0022913D0032922D118E0836923F0DD
:1053D000080383618369134383611AE0836923F4BB
:1053E00000638361836943EA0223836111E0C36937
:1053F00023F00803C361C3691343C36109E0C369B0
:1054000023F40063C361C36943EA0223C36100E07C
:1054100000BF00BF70470021018041808180C180B2
:10542000018141817047016821F0010101607047ED
:10543000016841F001010160704700000A88826242
:10544000294A904220D0B0F1804F1DD0274A904287
:105450001AD0274A904217D0264A904214D0264AA2
:10546000904211D0254A90420ED0254A90420BD04E
:10547000244A904208D0244A904205D0234A9042C0
:1054800002D0234A90420FD1026822F070020260DB
:1054900002688B7803F060031A43026002680B799C
:1054A00003F010031A4302608A68C262194A9042EC
:1054B0000CD0194A904209D0026822F4407202606E
:1054C00002688B8903F440731A430260064A9042D3
:1054D00002D0094A904201D18A7B0263426942F0BC
:1054E0000102426170470000002C014000040040AE
:1054F00000080040000C004000340140004C014016
:10550000005001400054014000180040001C0040C1
:10551000002000400010004000140040C2680A4310
:10552000C260704702698A43026170470246D068D0
:1055300000EA01031069084010B10BB10120704767
:105540000020FCE7012904D1426C42F4004242648D
:1055500003E0426C22F40042426470470021018063
:10556000418081804FF6FF718160002181818173CC
:10557000704700002DE9F04104460F4616460CB96D
:10558000012000E0002008B900BFFEE700F00AFAA1
:105590001C480068503050F8240080B90121194897
:1055A00000685430015556B13046FEF71BFF4FF0EE
:1055B000805015490860BFF34F8FBFF36F8F00F025
:1055C00013FA00F0EFF90F480068503050F82450FB
:1055D0006DB137B100210B480068503040F82410FD
:1055E00005E0681E07490968503141F82400002190
:1055F000044800685430015500F0F6F92846BDE82B
:10560000F08100007800002004ED00E02DE9F04773
:1056100004460D460027B846B94600261D49601AC3
:105620008C421CD006DC1C48204470B1B0F5806F61
:105630001FD10FE0B0F5806F16D0B0F56C4F18D1C8
:105640000320FFF7D7FB074614E00220FFF7D2FB49
:1056500007460FE00220FFF7CDFB07460AE00220D5
:10566000FFF7C8FB074605E00220FFF7C3FB07462C
:1056700000E000BF00BF07EB5500B0FBF5F64FF6AA
:10568000F07006EA000806F00F0948EA0900A06079
:10569000BDE8F087004C004000BCFFBF01464868F1
:1056A000C0F308007047C1F3080242607047000071
:1056B00010B504462049601A8C4228D006DC1F48E9
:1056C000204490B1B0F5806F33D117E0B0F5806F12
:1056D00026D0B0F56C4F2CD140F20E30FFF73CFCD9
:1056E00040F20E30FFF728FC24E040F21140FFF7B3
:1056F00033FC40F21140FFF71FFC1BE040F2124068
:10570000FFF72AFC40F21240FFF716FC12E040F2CD
:105710001340FFF721FC40F21340FFF70DFC09E0B6
:1057200040F21440FFF718FC40F21440FFF704FC6D
:1057300000E000BF00BF10BD004C004000BCFFBF38
:10574000C16841F40051C160704710B5024602EBD8
:105750009110006801F01F040123A340184008B114
:10576000012010BD0020FCE70A460021416921F418
:1057700000711143416170470A460021416921F4DB
:10578000807111434161704710B5C1F3891282588D
:1057900001F01F040123A3409A43C1F38913C250AF
:1057A00010BD10B5C1F38912825801F01F04012306
:1057B000A3401A43C1F38913C25010BD10B500EBCA
:1057C00091521268C1F304440123A3409A4300EBB1
:1057D00091531A6010BD70B5024600230024C1F336
:1057E0008910105801F01F060125B54000EA050395
:1057F00002EB91500068C1F304460125B54000EA70
:10580000050414B10BB1012070BD0020FCE7C26893
:1058100022F4C062C260C2680A43C26070470A468E
:105820000021C16821F004011143C1607047026981
:1058300022F44052026102690A43026170470A463B
:105840000021C16821F008011143C1607047C2689E
:1058500022F48052C260C2680A43C26070470146A7
:105860000A69D1E901309860D1E9010358605068B4
:10587000884201D188685060002008611068401E8D
:1058800010601068704700002DE9F0410546884619
:1058900016460024052700F059FB21480068804582
:1058A00039D300BF7F1E07EB87021E4B03EB82013B
:1058B00004EBC40205EB82000122FEF7A7FF0444BB
:1058C000002FEFD104EBC40105EB81000222164941
:1058D0000968FEF79BFF044404EBC40105EB81005B
:1058E000022212490968FEF791FF044404EBC40147
:1058F00005EB810004220E49FEF788FF044404EB07
:10590000C40105EB810003220A49FEF77FFF04442E
:105910000EB10020306001F0CDF82046BDE8F081E6
:1059200088000020A40200207C00002080000020CD
:10593000440300205803002000F1080141604FF0AB
:10594000FF31816000F10801C16001610021016047
:10595000704700210161704710B502460B685C1C5E
:105960000CB9106907E002F1080000E040684468E3
:1059700024689C42FAD944684C604C68A1608860F5
:1059800041600A611468641C146010BD42684A607A
:1059900093688B60936859609160086103685B1C31
:1059A0000360704700BF502080F31188BFF34F8F12
:1059B000BFF36F8F00BF0A480068401C08490860A9
:1059C00008460068012809D106480068C0B208B935
:1059D000012000E0002008B900BFFEE7704700008A
:1059E000B800002004ED00E00948006808B900BFD5
:1059F000FEE707480068401E054908600846006841
:105A000020B9002080F3118800BF00BF704700005C
:105A1000B800002070B506463546002E32D0083D4D
:105A20002C46194960680968084008B1012000E067
:105A3000002008B900BFFEE7206808B9012000E097
:105A4000002008B900BFFEE70F49606809680840F8
:105A5000C0B12068B0B90C496068096888436060CB
:105A600000F074FA09496068096808440749086049
:105A70002046FEF797FE06480068401C044908606F
:105A800001F018F870BD0000E0000020D0000020F8
:105A9000DC00002000204FF0E0210861886106480A
:105AA00000684FF47A71B0FBF1F0401E4FF0E02136
:105AB0004861072008617047E400002070B5FAF7DC
:105AC00073FB0546102D0DD305F1E02090F8F0434F
:105AD0000C480078844201DB012000E0002008B976
