:020000040800F2
:10000000704B0020B101000875250008C1150008DB
:100010004D250008C50900088D2B000800000000D0
:1000200000000000000000000000000019010008AE
:1000300001110008000000005D010008F927000818
:10004000CB010008CB010008CB010008CB01000860
:10005000CB010008CB010008CB010008CB01000850
:10006000CB010008CB010008CB010008CB01000840
:10007000CB010008CB010008CB010008CB01000830
:10008000CB010008CB010008CB010008CB01000820
:10009000CB010008CB010008CB010008CB01000810
:1000A000CB010008CB010008CB010008CB01000800
:1000B000D9280008CB010008CB010008CB010008BB
:1000C000CB010008CB010008CB010008CB010008E0
:1000D000CB0100082D2A0008712A0008CB01000876
:1000E00099130008CB010008CB01000800000000B4
:1000F0000000000000000000000000000000000000
:10010000CB010008DFF80CD000F032FB00480047BC
:10011000A13F0008704B0020224B19680868B0E826
:10012000F00F80F30988BFF36F8F4FF0000080F36A
:1001300011884EF00D0E7047000000000648006860
:10014000006880F3088862B661B6BFF34F8FBFF3D3
:100150006F8F00DF00BF00BF08ED00E0EFF3098004
:10016000BFF36F8F0F4B1A6820E9F00F106008B5CE
:100170004FF0500080F31188BFF34F8FBFF36F8FA4
:1001800005F012FF4FF0000080F31188BDE8084031
:1001900019680868B0E8F00F80F30988BFF36F8F23
:1001A000704700BF78000020EFF305807047000023
:1001B0000648804706480047FEE7FEE7FEE7FEE701
:1001C000FEE7FEE7FEE7FEE7FEE7FEE72D28000874
:1001D00005010008202A04DB203A21FA02F0002160
:1001E000704721FA02F3D040C2F120029140084347
:1001F0001946704740EA01039B0703D009E008C98C
:10020000121F08C0042AFAD203E011F8013B00F8DB
:10021000013B521EF9D27047D2B201E000F8012B27
:10022000491EFBD270470022F6E710B513460A4676
:1002300004461946FFF7F0FF204610BD421C10F897
:10024000011B0029FBD1801A7047034611F8012BCE
:1002500000F8012B002AF9D1184670472DE9FE4F0E
:10026000804681EA0300C00F0C46009021F0004157
:1002700023F00045B8EB0200A94105D240462146D3
:1002800090461C460B46024623F00040104347D0E0
:10029000270DC7F30A00C3F30A510290401A0190D8
:1002A00040286BDAC3F3130040F4801B0098924699
:1002B00020B10023D2EB030A63EB0B0B01985946E4
:1002C000C0F14002504600F09EF906460D465046E9
:1002D0005946019A00F0A6F910EB0800614100248C
:1002E00087EA115284EAE7731A4340D0009A62B356
:1002F000019A012A4FEA075215DC001B61EB02014B
:100300004FF0004202EA0752CDE90042001C41F5DD
:10031000801132462B4600F0DDF903B0BDE8F08FC6
:1003200040462146F9E7001B61EB0201001C41F544
:10033000801300185B412018A2F5001747EB03015A
:1003400040EAD570B6196D4111E06D084FEA3606E6
:1003500045EAC0754FEA0752001B61EB0201001C21
:1003600041F5801149084FEA3000001951413246E9
:100370002B4603B0BDE8F04F00F09DB90098012274
:1003800040000023D0EB020263EBE07300982146AB
:100390004FEAE074B8EB000061EB0401E9E783F099
:1003A00000435BE781F0004158E72DE9FE4F81EA09
:1003B000030404F0004421F0004100944FF0000BCE
:1003C00023F0004350EA01045ED052EA03045BD0FC
:1003D000C3F30A54C1F30A552C44A4F2F334019434
:1003E000A0FB0254C1F3130141F48011C3F31303C2
:1003F00043F4801301FB024400FB034E840A970A76
:1004000044EA815447EA8357A4FB076802958D0AA2
:1004100005FB07854FEA932C04FB0C542705029D2E
:100420004FEA065847EA1637B5EB08056EEB070C9E
:10043000870E920E47EA811742EA8312A7FB020158
:10044000B6EB0B0164EB00042B0D43EA0C335E1892
:1004500044EB1C50DA465146E7FB0201C5F3130496
:100460004FEA0B3343EA14534FEA0432019C43EA48
:100470000603A4F10C040294009CCDE900B400F042
:1004800029F903B0BDE8F08F00200146F9E72DE916
:10049000F04D81EA030404F0004B21F000451446BE
:1004A0004FF0000A23F0004150EA050220D054EA40
:1004B00001021DD0C5F30A570246C5F31303C1F369
:1004C0001300C1F30A5640F4801543F48013A7EBE0
:1004D0000608101BD64608F2FD3873EB050002D360
:1004E00008F1010801E092185B41B8F1000F03DA4E
:1004F00000200146BDE8F08D00204FF48011064633
:1005000084460EE0171B73EB050705D3121B63EB44
:10051000050306434CEA010C49084FEA30009218E3
:100520005B4150EA0107EDD152EA030012D082EAA2
:10053000040083EA0501084305D0101BAB4106D235
:100540000122002306E000224FF0004302E06FF09A
:10055000010253101AEB06004CEB085110EB0A0095
:1005600041EB0B01BDE8F04D00F0A5B89623002249
:10057000114600F072B870B5C1F30A5201F000459F
:100580000024C1F3130140F2FF3341F480119A4279
:1005900001DA002070BD40F233439A42A2F23342A6
:1005A00003DC5242FFF716FE00E090402C43F1D0EE
:1005B000404270BD00F0004230F000400AD0C10D52
:1005C00001F56071C0F3160042EA0151C20840070C
:1005D0001143704700200146704730B50B46014675
:1005E00000202022012409E021FA02F59D4205D3D2
:1005F00003FA02F5491B04FA02F52844151EA2F17C
:100600000102F1DC30BD202A04DB203A00FA02F1BD
:10061000002070479140C2F1200320FA03F31943F0
:1006200090407047202A06DBCB17203A41FA02F0AF
:1006300043EAE07306E041FA02F3D040C2F120023F
:1006400091400843194670470029A8BF7047401CD5
:10065000490008BF20F00100704710B4B0FA80FCD8
:1006600000FA0CF050EA010404BF10BC704749B115
:10067000CCF1200421FA04F411FA0CF118BF012185
:1006800021430843A3EB0C01CB1D4FEA00614FEA65
:10069000102042BF002010BC704700EBC350104434
:1006A0000029A4BF10BC7047401C490008BF20F0BF
:1006B000010010BC704710B5141E73F1000408DA75
:1006C000401C41F1000192185B411A4301D120F016
:1006D000010010BD2DE9F04D92469B4611B1B1FAD3
:1006E00081F202E0B0FA80F220329046FFF78BFFF1
:1006F00004460F4640EA0A0041EA0B0153465A46B7
:10070000084313D0114653EA010019D0C8F1400242
:100710005046FFF75FFD05460E4650465946424695
:10072000FFF771FF084305D0012004E02046394659
:10073000BDE8F08D0020054346EAE0762C433743C0
:100740000A986305E40AA0EB08000022FD0A44EAC7
:1007500047540A3002D500200146E9E70105101987
:100760006941DDE9084500196941BDE8F04DA2E79E
:10077000064C074D06E0E06840F0010394E80700EE
:1007800098471034AC42F6D3FFF7C0FC5C6C00080D
:100790007C6C000810B540F2096004F0E3FB032014
:1007A00004F02AFB002002F0ABFC00224FF4807121
:1007B000184802F01CFD00220221164802F017FD25
:1007C00001221146134802F050FC0021114802F0AA
:1007D00041FC012211460F4802F019FC02F034FDE1
:1007E0000523102200210B4802F098FC4FF46022F0
:1007F0000121084802F068FC064802F05CFC012078
:1008000005F0ACF9034802F0EDFB0121014802F0CC
:10081000DFFC10BD002401401FB504464F4903C949
:10082000CDE9020120788DF8090000208DF80A003A
:100830002078323816287ED2DFE800F0297D0B10B0
:10084000157D1D2F343D45484C51546366676B75CB
:1008500070796078012103F0F5F973E06078002188
:1008600003F0F0F96EE0607810B100F0A3FD01E054
:1008700000F074FC66E0607820B10121282003F0CC
:10088000E1F903E00021282003F0DCF95AE0607868
:1008900002F056FF8DF80A0054E0617848B204F087
:1008A000C7FB4FE002F01EFF642190FBF1F0C0B2E5
:1008B0008DF80A0046E0607810B103F07FF801E09F
:1008C00003F05AF83EE003F0A7F83BE0607803F04D
:1008D00063F937E003F016F98DF80A0032E003F00F
:1008E0004BF92FE01EA006F029F848B9002004219A
:1008F00003465022CDE9001019A11B4805F010FE57
:1009000020E003F0EBFC1DE01CE0607803F00EFB40
:1009100018E0607801F0BEF914E00CE002F0D2FEBD
:100920008DF80A000EE0607802F044F90AE0607881
:1009300001F072FE06E0FF208DF80A000BA002F025
:100940008DFC00BF00BF032102A800F03DF88DF828
:100950000B00042102A800F08BF81FBD306C0008CA
:100960006C74393231310000412000086572726FB9
:10097000723A2063707520756172742073656E64BD
:1009800020756E6B6F776E20636D6421210D0A00F8
:1009900010B54FF4407003F041FD4FF4C06004F017
:1009A000E1FA0121064802F09DFF00F0ADFD4FF491
:1009B000E13000F019FB03F0ABF803F0B1F910BD22
:1009C0000002300000BFFEE710B502460B460021D2
:1009D000002004E0545C0444E0B24C1CE1B29942B3
:1009E000F8DB10BD10B5002211460248006805F082
:1009F0004DF910BD240000201CB5002000900648D1
:100A000004F072FEC0B201906B46012201A90348B6
:100A1000006805F0F1FC1CBD0044004020000020EF
:100A20001CB5002000901048006805F063FB0446E8
:100A30002CB940F207310D4804F0CCFE1CBD6B46CA
:100A4000012201A90848006805F001FC28B19DF8C1
:100A50000410012002F052F804E040F2073103488C
:100A600004F0B8FE00BFE9E71C000020004400408D
:100A700070B505460E46002404E0285D02F0E2F859
:100A8000601CC4B2B442F8DB70BD000070B504460F
:100A9000392C77D00ADCA4F13000092810D2DFE825
:100AA00000F01523384D505664727800A4F16100AF
:100AB000082805D2DFE800F07376797C7F8285898B
:100AC00045A002F0CBFB00F015F900BF49A002F0F1
:100AD000C5FB4B48006802F0C1FB4AA002F0BEFB18
:100AE00049A002F0BBFB74E000F0C0FC80B14F48AD
:100AF0000078642809DA4D4800780A3040B201F0E5
:100B0000C1FC4BA002F0AAFB02E050A002F0A6FB41
:100B10005FE000F0ABFC80B1444800780A2809DBB4
:100B2000424909780A3948B201F0ACFC4CA002F005
:100B300095FB02E051A002F091FB4AE004F0F4F8CA
:100B400047E052A002F08AFB01F0E9F841E054A02E
:100B500002F084FB02F0C0FD18B156A002F07EFB4B
:100B600002E056A002F07AFB33E056A002F076FBDA
:100B700002F0B8FD05460A2102F07EFB21A002F03A
:100B80006DFB26E008E055A002F068FB02F0F4FFE0
:100B90001FE001F0B3F81CE002F044F819E003F0A4
:100BA0001BF816E001F068FD13E001F0C7FD10E04E
:100BB00000F06AFB0DE000F0CDFB0AE003F00CF85A
:100BC00007E0012003F024F803E0002003F020F800
:100BD00000BF00BF70BD00004552524F523A204343
:100BE0006F6D6D616E6420556E6B6E6F77200D0AB0
:100BF000000000002A4672656552544F532A2000B7
:100C0000000000200D0A0000417574686F723A4AB6
:100C1000432644615A6869203C76783A3238353444
:100C200030383133363E0D0A000000004A00002003
:100C3000696E637265617365203720696E63682031
:100C40006C63642050574D0D0A000000675F6C63B1
:100C5000645F70776D203D203130300D0A00000058
:100C60006465637265617365203720696E6368200F
:100C70006C63642050574D0D0A000000675F6C6381
:100C8000645F70776D203D20300D0A0072657365DA
:100C900074204C4344202620393231310D0A0000A3
:100CA000576174636820446F67205374617475736F
:100CB000203A20006F6E0D0A000000006F66660D7E
:100CC0000A0000004D637520696E7465726E616C78
:100CD0005F74656D70203D200000000072657365D3
:100CE0007420636F726520626F61726421210D0A46
:100CF0000000000010B520A001F0B8FF22A001F014
:100D0000B5FF00F0B3FB28B127A001F0AFFF34A07E
:100D100001F0ACFF40A001F0A9FF46A001F0A6FF42
:100D20004AA001F0A3FF52A001F0A0FF58A001F0DB
:100D30009DFF5DA001F09AFF61A001F097FF67A001
:100D400001F094FF6BA001F091FF73A001F08EFF02
:100D500076A001F08BFF7BA001F088FF7FA001F05F
:100D600085FF87A001F082FF8BA001F07FFF90A09C
:100D700001F07CFF10BD00000D0A4465627567201C
:100D8000636D643A0D0A0000302E207072696E7433
:100D90002050726F6772616D206275696C64207497
:100DA000696D650D0A000000312E203720696E63E1
:100DB00068206C63642050574D20696E63726561D2
:100DC00063652835696E6368206C636420686173AD
:100DD000206E6F20656666656374290D0A00000049
:100DE000322E203720696E6368206C636420505770
:100DF0004D2064656372656163652835696E63685B
:100E0000206C636420686173206E6F206566666580
:100E10006374290D0A000000332E20667265655246
:100E2000746F73207461736B207374617473212108
:100E30000D0A0000342E207265736574204C434403
:100E4000202620393231310D0A000000352E207065
:100E500072696E74204861726420576174636820FF
:100E6000446F67205374617475730D0A00000000AD
:100E7000362E207072696E74204D637520696E7411
:100E800065726E616C5F74656D700D0A0000000024
:100E9000372E20726573657420636F726520626FF0
:100EA00061726421210D0A00382E204C53504B5F93
:100EB000436F6E74726F6C20746573740D0A00005A
:100EC000392E205631325F43544C284D4F525345F2
:100ED0002920746573740D0A00000000612E206BD8
:100EE00065794C4544532070776D20746573740D9B
:100EF0000A000000622E2035696E6368206C63640E
:100F000020626C61636B6C6967687420636F6E74D8
:100F1000726F6C0D0A000000632E2053504B454E3B
:100F200020636F6E74726F6C0D0A0000642E204592
:100F300041525F4C5F454E20636F6E74726F6C0D53
:100F40000A000000652E204541525F525F454E2049
:100F5000636F6E74726F6C0D0A000000662E206B5A
:100F600065795F6C6564732070776D20696E63725C
:100F7000656163652831302525290D0A00000000D0
:100F8000672E206B65795F6C65647320616C6C20E3
:100F90006F6E0D0A00000000682E206B65795F6C93
:100FA00065647320616C6C206F66660D0A0000003A
:100FB0006F746865722E207072696E742068656C3B
:100FC000700D0A0008B50CE04FF0FF3301226946AE
:100FD0000448006805F0D5F818B19DF80000FFF747
:100FE00055FDF1E70C00002010B504464FF4E13147
:100FF000002002F0EBFA00220121402005F086F8E3
:101000000449086000220121402005F07FF80249D0
:10101000086010BD080000200C00002008B5042561
:101020004FF000084FF4E13000F050F84AE04FF084
:10103000FF321146002004F0C3FA00BF22480068C6
:1010400005F058F80646AE4200D23AE0C5F1040079
:1010500000F0FF080DEB080100232A461A4800683B
:1010600005F08FF840B39DF80000A52809D10421B0
:10107000684601F078FD20B90DF10100FFF7CCFBC7
:101080001BE0012405E01DF80400A52800D102E0C2
:10109000641C042CF7D300BF042C0BD0E5B200274E
:1010A00005E01DF804000DF80700641C7F1C042CEB
:1010B000F7D302E0042500E003E0A8EB05000428D4
:1010C000BCDA00BFB3E700002000002010B50446E2
:1010D0002146012002F07AFA00220121102005F0B9
:1010E00015F80549086000220C21102005F00EF8C3
:1010F0000249086010BD00001C00002020000020F4
:1011000070470000F0B5034600224FF0E0277D69EC
:10111000104F3F68DFF840C0B7FBFCF7FEB203FB9F
:1011200006F44FF0E027B96910E04FF0E027B86906
:1011300088420BD0884202D20F1A3A4402E02F1A9A
:101140000F443A440146A24200D300E0EDE700BF5D
:10115000F0BD0000E400002040420F0010B513482D
:1011600090F90000002804DA00F080F940B20F493D
:1011700008700E48007830B9002001F04DFA0CA03C
:1011800002F06CF810E0114802880221104804F0C7
:1011900028F9642004F0E2FC0D4804F06AF900F03C
:1011A00023F80CA002F05AF810BD00004B000020FC
:1011B00044697361626C655F4C63644C6967687411
:1011C0002035696E63680D0A0000000048000020A9
:1011D000002C014044697361626C655F4C63644C30
:1011E000696768740D0A000010B501F027F94FF423
:1011F0008041024802F0B8FA10BD0000000C014026
:1012000010B540F2046003F0ADFE4FF48051054884
:1012100002F0AAFA4FF4805302221021014802F092
:10122000F3FA10BD0010014010B5044600BF07A03E
:1012300001F01CFD214609A001F018FD00BF14B10A
:1012400000F03AF801E000F02DF810BD3C3C4D599B
:101250005F44454255473E3E200000004541525FF5
:101260004C5F454E5F436F6E74726F6C5F53657475
:101270004F757456616C20737461747573203D20D2
:1012800025640D0A0000000010B54FF48051044899
:1012900002F01CFB04462046FFF7C6FF10BD00000D
:1012A0000010014010B54FF48051024802F05EFA80
:1012B00010BD00000010014010B54FF480510248ED
:1012C00002F052FA10BD00000010014010B540F2CB
:1012D000046003F047FE4FF40051054802F044FA61
:1012E0004FF4005302221021014802F08DFA10BD84
:1012F0000010014010B5044600BF07A001F0B6FC85
:10130000214609A001F0B2FC00BF14B100F03AF888
:1013100001E000F02DF810BD3C3C4D595F444542C2
:1013200055473E3E200000004541525F525F454E0A
:101330005F436F6E74726F6C5F5365744F75745654
:10134000616C20737461747573203D2025640D0AEF
:101350000000000010B54FF40051044802F0B6FA46
:1013600004462046FFF7C6FF10BD000000100140F4
:1013700010B54FF40051024802F0F8F910BD00001A
:101380000010014010B54FF40051024802F0ECF992
:1013900010BD00000010014010B54FF4805002F065
:1013A000AFF808B102F026F84FF4805002F0A2F82E
:1013B00010BD000010B5194890F90000002804DAAB
:1013C00000F054F840B2154908701448007830B95C
:1013D000012001F021F912A001F040FF1CE000F013
:1013E00039F8642004F0BAFB1349097809B9462199
:1013F00001E01149097848B201F044F8642004F092
:10140000ADFB0E4804F03AF8642004F0A7FB00F0AE
:1014100021F80BA001F022FF10BD00004B000020BE
:10142000456E61626C655F4C63644C6967687420EB
:1014300035696E63680D0A004A000020002C0140E7
:10144000456E61626C655F4C63644C696768740DDE
:101450000A00000010B500F0FBFF4FF48041024885
:1014600002F084F910BD0000000C014010B502F03C
:1014700029F9062801D1012010BD0020FCE7000059
:101480002DE9F05F0221102001F0A8FA83465846AA
:10149000FFF76CF88046FFF78DF806464FF066328E
:1014A000124BFEF782FF04460D4622462B4610489B
:1014B0001049FEF774FF80460F4A104BFEF7E7FF16
:1014C000064600220E4BFEF7C9FE04460D460022DA
:1014D0000C4B20462946FEF768FF0646FFF74BF8FF
:1014E0000FFA80FA5046BDE8F09F000066664A3F5A
:1014F000E17A14AE47E1F63F22FDF675E09C713FBC
:10150000000024400000594010B5FFF7AFFF10B1B4
:10151000462002F077FC01F01BF802F0F3FC01F02A
:101520002BF8FFF7A3FF08B100F074FF00F0A0FB59
:1015300001F02EFB00F096FF01F05CF801F0BCF822
:10154000FFF75EFEFFF7C2FE10BD38B5044600206F
:10155000009001226946204600F006F810B19DF87F
:10156000000038BD0020FCE7F8B504460D461646DD
:101570002B462246064800960178002000F0C0F96C
:1015800008B9012000E0002007463846F8BD0000F9
:101590002C00002033B581B00446012002AB224666
:1015A000009006480178002000F0D8F908B9012021
:1015B00000E00020054628463EBD00002C0000202B
:1015C00000BFFEE710B504460021204600F066FA91
:1015D000204601F0F3F80021204600F08BFA0420A9
:1015E000FFF790FD0121204600F058FA0620FFF792
:1015F00089FD0021204600F051FA0320FFF782FD0B
:1016000010BD000070B5054640F2036003F0AAFC6F
:10161000012D02D14FF4406405E0022D02D14FF4B8
:10162000407400E0C024234602221021054802F045
:10163000EBF80121284600F031FA0121284600F09C
:1016400059FA70BD000C014010B504460021204637
:1016500000F024FA204601F0B1F80121204600F004
:1016600049FA0420FFF74EFD0121204600F016FA4A
:101670000620FFF747FD0021204600F00FFA032067
:10168000FFF740FD10BD2DE9F04107460D4600244F
:101690000021384600F002FA384601F071F80320C4
:1016A000FFF730FD00261EE00021384600F0F6F975
:1016B0000520FFF727FD0121384600F0EFF960060D
:1016C000040E0420FFF71EFD384600F07BFF08B132
:1016D000601CC4B20420FFF715FD0021384600F05D
:1016E000DDF9701CC6B2082EDEDB1DB93846FFF7E7
:1016F000ABFF02E03846FFF765FF2046BDE8F0810A
:1017000070B506460C460021304600F0C7F9304659
:1017100001F054F800251CE00320FFF7F3FC04F06F
:101720008001304600F0E6F96006040E0420FFF761
:10173000E9FC0121304600F0B1F90620FFF7E2FC98
:101740000021304600F0AAF90320FFF7DBFC681CFB
:10175000C5B2082DE0DB70BD10B50446204601F08F
:101760002DF80121204600F0C5F90121204600F0A6
:1017700095F90620FFF7C6FC0021204600F0BAF9D3
:101780000620FFF7BFFC0021204600F087F910BDBE
:1017900010B504460021204600F080F9204601F0F3
:1017A0000DF80021204600F0A5F90620FFF7AAFC5D
:1017B0000121204600F072F90320FFF7A3FC01216C
:1017C000204600F097F90620FFF79CFC10BD70B58D
:1017D000054600240021284600F060F90320FFF7A9
:1017E00091FC0121284600F085F90320FFF78AFCCF
:1017F000284600F0C5FF0121284600F04FF90320DC
:10180000FFF780FC0BE0601CC4B2FA2C04DD284614
:10181000FFF7BEFF012070BD0120FFF773FC2846D3
:1018200000F0D0FE0028EED10021284600F036F965
:101830000320FFF767FC0020EDE7000010B5044629
:101840000120A04008490978084000B110BD204699
:10185000FFF7D8FE0120A040034909780843024958
:10186000087000BFF2E70000100000202DE9F041F1
:1018700080460F4615461E4604F08EFB4046FFF795
:101880006BFF47F001014046FFF73AFF4046FFF784
:101890009EFF50B105F034F911A001F0DFFC404685
:1018A000FFF776FF0220BDE8F08100240FE0701EF4
:1018B000A04205D100214046FFF7E5FE285504E08F
:1018C00001214046FFF7DFFE2855601CC4B2B44238
:1018D000EDDB05F015F94046FFF75AFF0020E2E77F
:1018E0004552524F523A4949435F576169745F41CB
:1018F000636B28696E64657829213D20300D0A00EC
:101900002DE9F84306460F4690461C46DDF8209028
:1019100000200346424639460090304600F01EF84B
:101920000546FF2D07D14B46224639463046FFF784
:101930009DFFBDE8F88302A001F090FC2846F8E77F
:101940004552524F523A204969634170705F577255
:101950006974655F42797465730D0A002DE9F0477B
:1019600081460D4616461F46DDF8208004F014FB24
:101970004846FFF7F1FE05F0FE014846FFF7C0FEBE
:101980004846FFF724FF50B105F0BAF820A001F057
:1019900065FC4846FFF7FCFE0220BDE8F0873146B3
:1019A0004846FFF7ADFE4846FFF711FF48B105F086
:1019B000A7F823A001F052FC4846FFF7E9FE0320F8
:1019C000EBE7B8F1000F03D105F09AF8FF20E4E748
:1019D000002413E0395D4846FFF792FE4846FFF7C2
:1019E000F6FE48B105F08CF821A001F037FC48461E
:1019F000FFF7CEFE0420D0E7601CC4B24445E9DB0B
:101A000005F07EF84846FFF7C3FE0020C5E700005A
:101A10004552524F523A2073656E64206465765F7A
:101A200061646472204949435F576169745F41632F
:101A30006B28696E64657829213D20300D0A00000D
:101A40004552524F523A2073656E6420776F72642C
:101A50005F61646472204949435F576169745F4103
:101A6000636B28696E64657829213D20300D0A007A
:101A70004552524F523A2073656E6420646174611E
:101A8000204949435F576169745F41636B28696E00
:101A900064657829213D20300D0A000070B50546A7
:101AA0000C46012D0BD124B18102114801F05EFEDC
:101AB0001DE04FF480610E4801F056FE17E0022D44
:101AC0000BD124B1E9010A4801F050FE0FE04FF4B8
:101AD0008071074801F048FE09E024B14021044824
:101AE00001F044FE03E04021014801F03DFE70BDDD
:101AF000000C014070B505460C46012D0BD124B1F8
:101B0000C102114801F032FE1DE04FF400610E48A1
:101B100001F02AFE17E0022D0BD124B129020A4858
:101B200001F024FE0FE04FF40071074801F01CFEA5
:101B300009E024B18021044801F018FE03E080216F
:101B4000014801F011FE70BD000C0140FEF722FEBD
:101B500007E0FFF795FC034908804FF47A7003F023
:101B6000FDFFF6E74C00002070B50446002C08DDB0
:101B70000C480078642804DA0A480078204445B20A
:101B80000BE0002C08DA07480078002804DD05483F
:101B90000078204445B200E070BD284603F048FAC2
:101BA00000BFF9E77400002030B587B0044640F26A
:101BB000036003F0D7F9012302221821264801F01F
:101BC00023FE40F2017003F0CDF9642C00DD6424A3
:101BD0002248047003A803F0E7FC21480088401E57
:101BE0000590204800682049B0FBF1F0401E80B20B
:101BF000ADF80C0003A91D4803F046FC684603F04D
:101C000030FC0120ADF800006A460221174803F0BD
:101C1000C5FA70220221154803F0B6FBC4F1640036
:101C20000F4909884843642190FBF1F52A460221B7
:101C30000E4803F0D6FB002202210C4803F0E4FB1F
:101C400001210A4803F0A4FC084803F0A2FA07485F
:101C500003F014FC07B030BD000C014074000020FC
:101C600072000020E400002040420F000004004009
:101C700010B540F2056003F075F92021044801F029
:101C800075FD202302221021014801F0BDFD10BD89
:101C90000014014010B5044600BF09A000F0E6FFA3
:101CA00021460BA000F0E2FF00BF24B12021124822
:101CB00001F05CFD03E020210F4801F055FD10BD4F
:101CC0003C3C4D595F44454255473E3E2000000094
:101CD0004C53504B5F436F6E74726F6C5F536574FF
:101CE0004F757456616C20737461747573203D2058
:101CF00025640D0A000000000014014010B52021E9
:101D0000054801F0E3FD04460CB9012100E0002183
:101D10000846FFF7BFFF10BD00140140704710B523
:101D2000012001F075FF02F0DBF800F09FF900F0F0
:101D300007F8002001F06CFF032000F033FC10BD19
:101D400010B515A001F08AFAFFF7E8FF00F0E8F9F6
:101D50000A2003F003FF00F01FF900F0FFF800F085
:101D600011FA00F05FF90A2003F0F8FE00F036F8EF
:101D70000A2003F0F3FE00F0B9FA00F069FA00F06F
:101D800017FA0A2003F0EAFE02F0F8F802F0ECF885
:101D90000A2003F0E3FE10BD0D0A204C5439323105
:101DA000315F6D69706920746F2054544C0D0A00C6
:101DB00010B50020FFF742FD40F2066003F0D2F8B4
:101DC00002231A461021044801F01EFD0221024898
:101DD00001F0CAFC10BD00000018014070B5D02110
:101DE000FF20FFF7D7FB60210C20FFF7D3FB60211A
:101DF0001C20FFF7CFFB70212420FFF7CBFB302105
:101E00002D20FFF7C7FB0A213120FFF7C3FBF0218C
:101E10002520FFF7BFFB30212A20FFF7BBFB4F2116
:101E20002120FFF7B7FB00212220FFF7B3FB0121A0
:101E30001E20FFF7AFFB80212320FFF7ABFB022121
:101E40000A20FFF7A7FB02213820FFF7A3FB04219C
:101E50003920FFF79FFB08213A20FFF79BFB102159
:101E60003B20FFF797FB04213F20FFF793FB08215E
:101E70004020FFF78FFB10214120FFF78BFB202133
:101E80004220FFF787FBA0212B20FFF783FBD02107
:101E9000FF20FFF77FFB2620FFF757FB044604F0E7
:101EA0007F0421462620FFF775FB0F212720FFF72F
:101EB00071FB8121FF20FFF76DFBBF212020FFF781
:101EC00069FBFF212020FFF765FB052003F046FE9C
:101ED0006F210B20FFF75EFBFF210B20FFF75AFB62
:101EE000642003F03BFE002515E0C82003F036FE19
:101EF000D021FF20FFF74EFB8720FFF726FB00F0E5
:101F0000080018B109A001F0A9F906E00CA001F041
:101F1000A5F9681CC5B20A2DE7DB00BFD021FF2060
:101F2000FFF738FB9420FFF710FB70BD0D0A4C54EF
:101F3000393231312070637220737461626C6500D4
:101F40000D0A4C54393231312070637220756E7332
:101F50007461626C652121212100000010B5862189
:101F6000FF20FFF717FB85213020FFF713FBD82157
:101F7000FF20FFF70FFB00211620FFF70BFBD021FE
:101F8000FF20FFF707FB12214320FFF703FB05218A
:101F90000220FFF7FFFA10BD10B5D021FF20FFF798
:101FA000F9FA00210846FFF7F5FA8221FF20FFF732
:101FB000F1FA44210220FFF7EDFA36210520FFF760
:101FC000E9FA26210D20FFF7E5FA0C211720FFF78B
:101FD000E1FA0C211D20FFF7DDFA81210A20FFF72D
:101FE000D9FA00210B20FFF7D5FA9F210720FFF730
:101FF000D1FAFC210820FFF7CDFA01210920FFF7D3
:10200000C9FA01211120FFF7C5FA8621FF20FFF749
:10201000C1FA1B213320FFF7BDFA1B213420FFF743
:10202000B9FA10BD10B58221FF20FFF7B3FA48219D
:102030002D20FFF7AFFA82213520FFF7ABFA10BD54
:1020400010B50446FFF7B4FE0A2003F087FDFFF742
:1020500066FEFFF70BFA08B1FFF7ACF9642003F056
:102060007DFD002003F09EFD10BD000010B5022193
:10207000064801F079FB642003F070FD022103485B
:1020800001F074FB642003F069FD10BD00180140ED
:1020900010B50446642003F061FDD021FF20FFF756
:1020A00079FA608A01120D20FFF774FAA17C0E20E4
:1020B000FFF770FA208A01120F20FFF76BFA217CDC
:1020C0001020FFF767FA217B1520FFF763FA60897C
:1020D00001121720FFF75EFAA17A1820FFF75AFACB
:1020E000208901121120FFF755FA217A1220FFF7FB
:1020F00051FAE08801121320FFF74CFAA17914205D
:10210000FFF748FAA1781620FFF744FA2088011259
:102110001920FFF73FFA21781A20FFF73BFA10BD8C
:1021200010B58221FF20FFF735FA18210120FFF7B3
:1021300031FA8621FF20FFF72DFA61210620FFF7F3
:1021400029FAA8210720FFF725FA8721FF20FFF7AA
:1021500021FA08211420FFF71DFA00211520FFF7AE
:1021600019FA0F211820FFF715FA08212220FFF78E
:1021700011FA00212320FFF70DFA0F212620FFF787
:1021800009FA10BD10B5642003F0E8FC0348FFF71E
:102190007FFF03A001F062F810BD000030000020B6
:1021A00031303234783630305F3630487A0D0A00BC
:1021B00010B54024FFF75AF900B150241DA001F0DA
:1021C0004DF88521FF20FFF7E5F921465920FFF75B
:1021D000E1F9AA215A20FFF7DDF9AA215B20FFF7D8
:1021E000D9F900215C20FFF7D5F950218820FFF7AD
:1021F000D1F97721A120FFF7CDF98621FF20FFF744
:10220000C9F940210846FFF7C5F934214120FFF7FD
:10221000C1F910214220FFF7BDF923214320FFF728
:10222000B9F941214420FFF7B5F902214520FFF714
:10223000B1F910BD0D4C5439323131207365742021
:10224000746F204F55545055545F4C564453000002
:1022500010B58221FF20FFF79DF900216220FFF7D2
:1022600099F908213B20FFF795F992213E20FFF7CD
:1022700091F948213F20FFF78DF931214020FFF7E8
:1022800089F980214320FFF785F900214420FFF7D9
:1022900081F900214520FFF77DF900214920FFF752
:1022A00079F901214A20FFF775F900214E20FFF747
:1022B00071F900214F20FFF76DF900215020FFF741
:1022C00069F900215320FFF765F901215420FFF738
:1022D00061F98121FF20FFF75DF979212020FFF7C7
:1022E00059F9FF212020FFF755F910BD10B58221C3
:1022F000FF20FFF74FF901213620FFF74BF9292185
:102300003720FFF747F906213820FFF743F930213E
:102310003920FFF73FF98E213A20FFF73BF9812161
:10232000FF20FFF737F9F7212020FFF733F9FF21CE
:102330002020FFF72FF98721FF20FFF72BF9142129
:102340003720FFF727F900211320FFF723F9802119
:102350001320FFF71FF9642003F000FC00241FE0A6
:102360008721FF20FFF716F91F20FFF7EEF800F096
:10237000800080B12020FFF7E8F800F0800018B15D
:102380000BA000F06BFF02E00FA000F067FF15A0AC
:1023900000F064FF06E00CA000F060FF601CC4B217
:1023A0000A2CDDDB00BF16A000F058FF10BD0000B6
:1023B0004C543932313120747820706C6C206C6F41
:1023C000636B0D0A000000004C5439323131207427
:1023D0007820706C6C20756E6C6F636B65640D0A91
:1023E000000000004C543932313120747820706C78
:1023F0006C2063616C20646F6E650D0A0000000044
:102400002073797374656D20737563636573730DE1
:102410000A00000010B540F2066002F0A3FD4FF480
:10242000004302221021044801F0EEF94FF400416C
:10243000014801F099F910BD0018014010B54FF4A2
:102440000041024801F090F910BD00000018014061
:1024500010B54FF40041024801F088F910BD0000AA
:102460000018014010B540F2046002F07BFD4FF40B
:10247000E06302224821024801F0C6F910BD0000C5
:102480000010014070B50446642C01DD642402E0B4
:10249000002C00DA00240D490C7000BF0CA000F0E5
:1024A000E5FB0A4801780EA000F0E0FB00BFC4F194
:1024B0006400134909884843642190FBF1F52A46DA
:1024C0000221104802F08DFF70BD00004A0000207C
:1024D0003C3C4D595F44454255473E3E200000007C
:1024E0004C63645F70776D5F6F757420675F6C63BA
:1024F000645F70776D203D2025640D0A00000000A8
:1025000048000020002C014010B51021014801F0C6
:102510002DF910BD000C014010B51021014801F04B
:1025200023F910BD000C014010B540F2036002F029
:1025300019FD102302221946034801F065F9102104
:10254000014801F011F910BD000C014000BFFEE789
:1025500010B540F2056002F005FD40230222102173
:10256000034801F051F94021014801F0FDF810BD88
:10257000001401407047000010B540F2046002F002
:10258000F1FC0F2302221021054801F03DF904213E
:10259000034801F0E9F80B21014801F0E7F810BD0C
:1025A0000010014010B50446002C08DD052C06DAA9
:1025B000601E012202FA00F1014801F0D7F810BDB7
:1025C0000010014010B50446012C04D1C102084896
:1025D00001F070F910BD022C04D12102044801F071
:1025E00069F9F7E78021024801F064F9F2E7000099
:1025F000000C014010B540F2046002F0B3FC202151
:10260000044801F0B3F8202302221021014801F010
:10261000FBF810BD0010014010B5044600BF07A034
:1026200000F024FB214609A000F020FB00BF14B1FC
:1026300000F03AF801E000F02FF810BD3C3C4D5995
:102640005F44454255473E3E2000000053485444F5
:10265000425F35494E5F436F6E74726F6C5F5365B6
:10266000744F757456616C20737461747573203D7A
:102670002025640D0A00000010B52021054801F056
:1026800025F904460CB9012100E000210846FFF7B6
:10269000C3FF10BD0010014010B52021014801F01A
:1026A00063F810BD0010014010B52021014801F071
:1026B0005DF810BD0010014010B540F2046002F05A
:1026C00051FC4FF40061054801F04EF84FF40063EF
:1026D00002221021014801F097F810BD00100140BE
:1026E00010B5044600BF07A000F0C0FA214609A0BB
:1026F00000F0BCFA00BF14B100F038F801E000F0BF
:102700002BF810BD3C3C4D595F44454255473E3E79
:102710002000000053504B454E5F436F6E74726F44
:102720006C5F5365744F757456616C20737461747B
:102730007573203D2025640D0A00000010B54FF48C
:102740000061044801F0C2F804462046FFF7C8FFC4
:1027500010BD00000010014010B54FF400610248A8
:1027600001F004F810BD00000010014010B54FF456
:102770000061024800F0F8FF10BD000000100140A9
:1027800010B50446012C06D1C302022248210A4892
:1027900001F03AF80EE0022C06D123020222482171
:1027A000054801F031F805E0802302224821024863
:1027B00001F02AF810BD0000000C014010B50446DD
:1027C000012C06D1C302022210210A4801F01CF894
:1027D0000EE0022C06D1230202221021054801F04E
:1027E00013F805E0802302221021024801F00CF8C2
:1027F00010BD0000000C014010B500BF502080F358
:102800001188BFF34F8FBFF36F8F00BF04F0DEF866
:1028100018B14FF080500449086000BF002080F3D9
:10282000118800BF10BD000004ED00E010B5144891
:10283000006840F0010012490860084640681149EC
:1028400008400F494860084600680F4908400C4995
:1028500008600846006820F4802008600846406848
:102860000A49084006494860084600680649084089
:10287000034908604FF41F00886002F073FC10BD2C
:10288000001002400C00FFE8FFFFF6FEFFFF00F71C
:102890007FB505460C464FF4E06002F063FB6846E6
:1028A00002F082FE0295ADF8004069464FF080408C
:1028B00002F0EAFD4FF0804002F0DBFD01218807C5
:1028C00002F056FE002207211C2001F051FD0121DB
:1028D000880702F049FE7FBD38B500250020009032
:1028E0000121880702F048FE002850D02A480078CD
:1028F00000F001008DF800002748007800F0020089
:102900008DF801002448007800F004008DF80200E2
:102910002148007800F008008DF80300002414E03E
:102920001E48005D04280CDA1C48005D1C49085C48
:1029300048B91A48005D1DF80010204601F0A8F9BA
:1029400001E0681CC5B2601CC4B2282CE8DB00247E
:1029500016E01348005D401C114908550846005D0B
:102960001049095D884209DB00200D490855012006
:10297000A04009490978484007490870601CC4B262
:10298000042CE6DB282D02D1E80602F072FD0121BD
:10299000880702F0EDFD38BD700000207C010020AA
:1029A0006C000020386C000870B504460025022138
:1029B000094800F0A1FB084800F006FC0546052385
:1029C00022460021044800F0A9FB0121024800F042
:1029D000FFFB284670BD0000002401402DE9F041B6
:1029E00007460C460025002608E03846FFF7DCFFC6
:1029F0000544052003F0B2F8701CC6B2A642F4DB11
:102A0000B5FBF4F080B2BDE8F081FFF78DFD00BFAB
:102A10000BE0FFF781FD4FF4FA7003F09FF8FFF72A
:102A200073FD4FF4FA7003F099F8F2E710B50D4911
:102A30000D4802F0F6FE30B10A490B4802F0E4FE00
:102A400000F038F90DE00949074802F0EAFE30B11C
:102A50000649054802F0D8FE00F05CFC01E000F0F9
:102A600045FA10BD050305000038014007030700C3
:102A700010B51D491D4802F0D4FE88B11A491B4803
:102A800002F0C2FEFDF7B8FF1948007850BB4FF4C2
:102A90004171164802F0ABFE01201549087021E093
:102AA0001449124802F0BDFE30B112490F4802F03D
:102AB000ABFEFDF7B5FF15E00F490C4802F0B1FE83
:102AC00080B1FDF78FFF0C49084802F09DFE0848D1
:102AD000007838B14FF44171044802F07BFE0020C9
:102AE0000349087010BD00000503050000440040C4
:102AF0002800002007030700040304007CB50446F7
:102B00000D460E4903C9CDE90001012C00DD7CBD55
:102B10000120A0400A490978084060B100BF5DF873
:102B20002400072102F037FE0028F8D05DF82400C9
:102B3000294602F0DEFD00BFE9E70000206C000836
:102B4000040000202DE9F04107460D4616460024FA
:102B500005E0295D3846FFF7D1FF601CC4B2B442DE
:102B6000F7DBBDE8F081F0B504460D464FF0FF37C6
:102B70000CB93846F0BD681E265CC1B22046FDF790
:102B800023FFB04200D100273846F3E700BFFEE73D
:102B900010B540F2046002F0E5F94021044800F06D
:102BA000E3FD402302221021014800F02DFE10BD5C
:102BB0000010014010B5044600BF09A000F056F80F
:102BC00021460BA000F052F800BF24B14021144868
:102BD00000F0CCFD03E04021114800F0C5FD10BD20
:102BE0003C3C4D595F44454255473E3E2000000065
:102BF0005631325F43544C5F436F6E74726F6C2872
:102C00004D4F525345295F4F75744869676820736B
:102C10007461747573203D2025640D0A0000000066
:102C20000010014010B54021054800F04FFE044659
:102C30000CB9012100E000210846FFF7BBFF10BDE1
:102C40000010014031B50A240A23012269460548D3
:102C5000006803F047FB40F20731034802F0C7FD6C
:102C6000009838BD1C000020004400400FB4054B04
:102C700010B503A9044A029800F056F810BC5DF89C
:102C800014FB000025350008E80000200FB4084BB5
:102C900010B504A902AA039800F046F8044602A958
:102CA000002000F01DF9204610BC5DF814FB000068
:102CB000E12E00081CB5084802F016FDC0B20190D4
:102CC000002000906B46012201A90448006803F02F
:102CD00093FB9DF804001CBD003801400C0000204F
:102CE00031B50A240A23012269460548006803F029
:102CF000F9FA40F20731034802F079FD009838BD37
:102D0000080000200038014002E008C8121F08C176
:102D1000002AFAD170477047002001E001C1121F5C
:102D2000002AFBD1704700002DE9FF4F8BB09A4677
:102D30000F460546002606E025280BD052460D9981
:102D400090476D1C761C28780028F5D10FB03046CE
:102D5000BDE8F08F0024A0460122604900E0044352
:102D600015F8013F203B02FA03F00842F7D128781A
:102D70002E2817D115F8010F44F004042A280ED08C
:102D80006FF02F022878A0F1300109290AD808EB4A
:102D9000880102EB410100EB01086D1CF2E757F8D6
:102DA000048B6D1C287869283ED006DC0028CDD025
:102DB00063280BD0642804D136E0732810D075281E
:102DC0004BD052460D999047761C85E017F8040BBE
:102DD0008DF8000000208DF80100E946012003E095
:102DE00057F8049B4FF0FF3061074FF0000401D407
:102DF0000AE0641C44450DDA8442FADB19F8041039
:102E00000029F6D106E0641C8442FCDB19F80410AA
:102E10000029F8D1264404E019F8010B52460D9917
:102E20009047641EF8D257E001CF4FF00A0B0028FC
:102E300002DA40422D2102E0210504D52B218DF834
:102E40002410012103E0E10705D02021F7E70DF16F
:102E5000200908910CE00021F9E701CF4FF00A0B9F
:102E6000F9E75946FDF7B9FB01F1300209F8012DE8
:102E70000028F6D1ADEB090000F1200B600701D46A
:102E80004FF00108D84502DDA8EB0B0000E0002060
:102E90008046002406E009A85246005D0D9990473F
:102EA000641C761C08988442F5DB04E0302052460E
:102EB0000D999047761CB8F10001A8F10108F5DCE6
:102EC00005E019F8010B52460D999047761CBBF1AD
:102ED0000001ABF1010BF4DC6D1C34E709280100A3
:102EE0000A68531C0B6010707047000010B54FF457
:102EF00042711A4802F095FC40B119A000F0AEF9F9
:102F00004FF44271154802F07FFC25E01C4913483C
:102F100002F087FC38B11BA000F0A0F918490F4857
:102F200002F072FC18E01E490C4802F07AFC38B13D
:102F30001CA000F093F91A49084802F065FC0BE068
:102F40002049064802F06DFC30B11FA000F086F960
:102F50001C49024802F058FC10BD00000038014036
:102F60002A2A2A205553415254207061726974797B
:102F7000206572726F7221202A2A2A0A000000003E
:102F8000000501002A2A2A20555341525420667216
:102F9000616D65206572726F7221202A2A2A0A00EB
:102FA000000503002A2A2A205553415254206F76E7
:102FB000657272756E206572726F7221202A2A2ADC
:102FC0000A000000000502002A2A2A205553415217
:102FD00054206E6F697365206572726F7221202AAA
:102FE0002A2A0A00816841F00801816000BF8168D7
:102FF00001F008010029FAD1816841F004018160E3
:1030000000BF816801F004010029FAD1704730B592
:10301000012902D002291AD10CE0C36A23F47003FB
:10302000C362C36A541E4FF4700505EA0454234377
:10303000C3620DE0836B23F440138363836B541EE0
:103040004FF4401505EA04542343836300E000BFB6
:1030500000BF30BD21B1826842F40062826003E0AB
:10306000826822F400628260704730B5436823F4BE
:10307000C0534360012904D0022913D0042916D17A
:1030800016E0436823F4604343604368541E4FF4E2
:10309000604505EA443423434360436843F40063D6
:1030A000436006E0436843F48053436001E000BF9F
:1030B00000BF00BF30BD816801F0010119B981680E
:1030C00041F0010181607047012902D0022910D12D
:1030D00007E0836823F4602383608368134383607D
:1030E00008E0836823F4E0438360836813438360CC
:1030F00000E000BF00BF704702688A43026070476B
:103100000549096821F47021034A116011460968D4
:10311000014311607047000004240140F0B51D46D2
:1031200006290CDA436B01EB81071F26BE40B3432F
:1031300001EB810602FA06F63343436322E00C29D1
:103140000EDA036B8E1F06EB86071F26BE40B343C5
:103150008E1F06EB860602FA06F63343036311E080
:1031600010290FDAC36AA1F10C0606EB86071F26A9
:10317000BE40B343A1F10C0606EB860602FA06F642
:103180003343C3620A2A0CDA046902EB42070726BA
:10319000BE40B44302EB420605FA06F6344304612E
:1031A00011E0122A0FDAC468A2F10A0606EB4607FC
:1031B0000726BE40B443A2F10A0606EB460605FA0E
:1031C00006F63443C460F0BD0146C86C80B2704757
:1031D00001F001021AB1826842F48002826001F0BB
:1031E00002021AB1826842F4001282607047AAB1EA
:1031F00001F480731BB1436843F48073436001F4AE
:1032000080631BB1436843F48063436001F00203B1
:10321000CBB1836843F00203836014E001F4807350
:103220001BB1436823F48073436001F480631BB1D6
:10323000436823F48063436001F002031BB1836899
:1032400023F00203836070470348006840F40000E5
:1032500001490860704700000824014010B5044689
:1032600004B910BD03E014F8010BFFF739FD207815
:103270000028F8D100BFF4E77FB505460E460020D0
:1032800000900190029003908DF80F000A2E13D148
:103290000E240CE00A20B5FBF0F100FB1150303099
:1032A0000DF804000A20B5FBF0F5601EC4B2102C26
:1032B00023DA002DEED120E00E2417E005F00F00F8
:1032C0000DF804001DF804000A2806DA1DF80400B1
:1032D0003030C0B20DF8040005E01DF8040057308E
:1032E000C0B20DF804002D09601EC4B2102C01DA22
:1032F000002DE3D105A0FFF7B1FF0DEB0401481C41
:10330000FFF7ACFF02A0FFF7A9FF7FBD20307800D8
:10331000200000001CB5002000901048006802F05A
:10332000E9FE04462CB940F207310D4802F052FA8A
:103330001CBD6B46012201A90848006802F087FF06
:1033400028B19DF804100020FFF7D8FB04E040F2FC
:103350000731034802F03EFA00BFE9E70800002009
:10336000003801402DE9F04707463E460EB900BF40
:10337000FEE71B480068864201D100242DE002F0E0
:1033800037FB75691748D0F800801748D0F80090CF
:1033900002F050FB454501D04D4501D102241CE00F
:1033A0001248854212D1B06A70B90324002007E0A8
:1033B00006F15401095C012901D1022402E0401CFC
:1033C0000128F5DB00BF08E0022406E0084885423A
:1033D00000D00DB9042400E001242046BDE8F087A8
:1033E000780000207C00002080000020580300208E
:1033F000440300200EB50020029002A80021022301
:103400000A46CDE900100448006803F055F94FF46E
:10341000805000F05FF80EBD1400002010B52C4B5A
:103420001B6883432A4C2360231D1B688343241D90
:103430002360231D1B688343241D2360231D1B68F9
:103440008343241D236011B101290ED105E0204BD7
:103450001B6803431E4C236008E01D4B1B1D1B68AB
:1034600003431B4C241D236000E000BF00BF22B1BA
:10347000012A0FD0022A27D119E0154B08331B6807
:103480000343134C08342360231D1B688343241D0E
:1034900023601AE00E4B08331B6883430C4C08343E
:1034A0002360231D1B680343241D23600DE0084B8C
:1034B00008331B680343064C08342360231D1B6834
:1034C0000343241D236000E000BF00BF10BD0000C7
:1034D00000040140024909688143014A11607047B4
:1034E00000040140024909680143014A1160704724
:1034F00000040140014908607047000014040140C5
:1035000001460748006800EA0102054814380068CF
:1035100000EA010312B10BB1012070470020FCE763
:103520001404014070B504460D462046FFF7D8FB51
:10353000204670BD30B502460B46164C002145F2C0
:103540005550154D286000BF1348C06800F00101B8
:10355000601E041E01D00029F6D109B1002030BD43
:103560000D4843600B4C00BF0B48C06800F00201DF
:10357000601E041E01D00029F6D109B10020EEE73B
:10358000C2F30B00044DA8604AF6AA20286001206F
:10359000E5E70000FFFF0F00003000404AF6AA20D8
:1035A0000149086070470000003000404CF6CC40F4
:1035B00001490860704700000030004045F2555056
:1035C00001490860704700000030004070B50446B3
:1035D0000D46324E012C00D1314E0120A040314920
:1035E0000978084000B170BD2F4931F8140001F08E
:1035F000B9FC2E4931F8140001F0B4FC2C4951F803
:1036000024302C4951F824000222182100F0FCF843
:10361000294951F82430274951F824000222042175
:1036200000F0F2F8304602F069F82946304602F020
:1036300013F80021304602F030F90021304602F044
:103640001CF90021304602F008F90021304602F052
:10365000B9F80021304602F0ADF80421304602F0FE
:1036600004F90821304602F010F9304602F08EF8D5
:1036700040F20531304602F0BAF8104A115D104AA6
:1036800012F82400002200F073FE0120A04005493A
:10369000097808430349087000BFA4E700380140D7
:1036A0000044004004000020106C0008F46B000887
:1036B000F86B0008086C0008006C00081C6C00081F
:1036C000146C000810B5034800F0FCF8C0F30224A5
:1036D000204610BD001001400148007870470000EE
:1036E0005000002010B500BF06A0FFF7BFFA094840
:1036F000B0F9001008A0FFF7B9FA00BF0548B0F90B
:10370000000010BD3C3C4D595F44454255473E3E8C
:10371000200000004C0000206765745F696E7465CE
:10372000726E616C5F74656D702020675F696E7486
:103730005F74656D70203D2025640D0A0000000057
:1037400070B50646282E01DBFF2070BD05483246C5
:1037500030C820462946FCF73DFD01210840C0B293
:10376000F3E700006000002041617047016170478D
:1037700010B500228B071C0F0F2303FA04F2042953
:103780000EDA204B9B6893431E4CA36023469B6834
:103790008C07240F00FA04F423431A4CA3602FE093
:1037A00008290EDA174BDB689343164CE360234677
:1037B000DB688C07240F00FA04F42343114CE36008
:1037C0001EE00C290EDA0F4B1B6993430D4C23614D
:1037D00023461B698C07240F00FA04F42343094C89
:1037E00023610DE0074B5B699343064C63612346FD
:1037F0005B698C07240F00FA04F42343014C6361D6
:1038000010BD000000000140F0B50446164600253A
:10381000002201F00F0501F0100707B13543002029
:103820001EE0012787401F40C7B122684FEA800C85
:103830000F2707FA0CF7BA43870005FA07F73A4350
:10384000282904D1012787401F40676105E04829E6
:1038500003D1012787401F4027612260471CB8B26F
:103860000828DED3082022E0012787401F40E7B167
:103870006268A0F108074FEA870C0F2707FA0CF7D8
:10388000BA43A0F10807BF0005FA07F73A43282911
:1038900004D1012787401F40676105E0482903D113
:1038A000012787401F4027616260471CB8B210287B
:1038B000DAD3F0BD02469068084008B10120704795
:1038C0000020FCE70146886880B270470246D06855
:1038D000084008B1012070470020FCE70146C86895
:1038E00080B27047F0B50A4600230024002100256D
:1038F00000F00046B6F1004F02D11D4EF16901E023
:103900001B4E7168C0F3034583B200F44016B6F550
:10391000401F08D121F07061154E766826F0706660
:10392000134F7E6012E000F48016B6F5801F06D1BA
:10393000032606FA05F4A14341F0706106E0460D46
:10394000360103FA06F6B14341F0706122B1460D2B
:10395000360103FA06F6314300F00046B6F1004F97
:1039600002D1034EF16101E0014E7160F0BD000033
:1039700000000140C160704710B500200649087082
:1039800006A0FFF76BFC0AA002F0D8FF18B10A48A6
:10399000006802F007F910BD5000002068617264F1
:1039A0005F7774645F64697361626C650D0A00001F
:1039B0006877746400000000540000201CB50120EA
:1039C00009490870094800880949088009A0FFF7DB
:1039D00045FC0D48022100232022CDE900100BA157
:1039E0000C4802F09DFD1CBD500000205800002036
:1039F0005A000020686172645F7774645F656E616D
:103A0000626C650D0A000000540000206877746441
:103A100000000000453A000810B504480088044939
:103A2000088004A0FFF71AFC10BD00005800002019
:103A30005A000020686172645F7774645F66656530
:103A4000640D0A0010B5044643E02248007888B1AE
:103A50002148008870B120480088401E1E49088017
:103A60000846008830B91DA0FFF7F8FB00F084F885
:103A7000FFF782FF2148007840B3204800780328F0
:103A800007D140211E48FFF76FFE02201B49087036
:103A900010BD1A480078022807D140211848FFF7C6
:103AA00065FE012015490870F2E7144800780128E6
:103AB00004D100201149087000F078F80F48007810
:103AC00020B10E480078401E0C490870642002F0B6
:103AD00045F8BAE7500000205A000020686172647F
:103AE0005F7774645F666565645F7461736B20748F
:103AF000696D656F75740D0A000000005C000020A0
:103B00000008014001480088C0B2704758000020FA
:103B100010B540F2026001F025FA80211548FFF748
:103B200023FE40211348FFF721FEE023022210214B
:103B30001048FFF769FE1023022248210D48FFF7C5
:103B400063FE4FF4C06001F00DFA04210020FFF77E
:103B50000FFE012200211020FFF760FC1020FFF76C
:103B6000C1FC1020FFF7C6FC022201210A2000F050
:103B7000FFFB10BD0008014010B504210448FFF709
:103B8000F3FDFFF7F9FE03200249087010BD0000A5
:103B9000001001405C000020024908800988024AA8
:103BA00011807047580000205A0000200446FFF79B
:103BB00005FD2CB9032140F6FF70FFF7BBFC04E0C4
:103BC000042140F6FF70FFF7B5FCFFF7E7FCFFF7B5
:103BD000EDFC00BFFEE7000010B50B48007864283C
:103BE00003DBFF200949087005E00748007810B999
:103BF0000120064908700549097801EB8101490057
:103C000048B2FDF7B1FF10BD740000207500002020
:103C100010B504462146282000F014F810BD00001D
:103C200010B504462CB14FF480710548FFF79EFD96
:103C300004E04FF480710248FFF796FD10BD0000CC
:103C40000018014070B504460E46012C01DB282CFB
:103C500000DD70BD601EC4B2272C0DD14FF0804036
:103C600001F007FC002504E0052008494855681CC0
:103C7000C5B2282DF8DB02E005200449085531467D
:103C8000204600F005F800BFE3E700007C010020BB
:103C900070B504460D46282C04DA611CC8B200F049
:103CA0008DF800E070BDB5B14FF480411A48FFF7C0
:103CB0005DFD272C05D14FF0FF30184A1060506091
:103CC0001FE00120A040C117144B0CCB1043194337
:103CD000124A03C215E04FF480410F48FFF744FD3C
:103CE000272C04D100210D4A1160516009E0012008
:103CF000A040C043C117094B0CCB10401940074AE4
:103D000003C20120FFF78CFF1E20FDF7FBF9002006
:103D1000FFF786FF00BFC5E70014014060000020E8
:103D200070B540F2056001F01DF94FF49043022296
:103D300010211E48FFF768FD4FF490411B48FFF724
:103D400013FD40F2066001F00DF97C252B4602229E
:103D500010211748FFF758FD29461548FFF704FDC5
:103D60004FF44073022210211148FFF74DFD4FF42C
:103D700040710F48FFF7FAFC6420FDF715FF0D486E
:103D8000006842F21071B0FBF1F0401E86B231467D
:103D900040F2E730FEF77CFD002404E005200649F0
:103DA0000855601CC4B2282CF8DB70BD001401401B
:103DB00000180140E40000207C01002070B504469A
:103DC0000E48FFF78BFD054625F07C0504F03E000C
:103DD00045EA400529460948FFF7CCFD04F00100FB
:103DE00028B14FF400610648FFF7C0FC04E04FF42F
:103DF00000610348FFF7B8FC70BD000000180140E7
:103E00000014014030B587B0044640F2036001F071
:103E1000A9F84FF40043022218212B48FFF7F4FCC5
:103E200040F20B6001F09EF8642C00DD642427480A
:103E3000047003A801F0B8FB25480088401E0590D7
:103E4000244800682449B0FBF1F0401E80B2ADF870
:103E50000C0003A9214801F017FB684601F001FBA3
:103E60000420ADF802006A4602211C4801F096F9D0
:103E700070220221194801F087FAC4F16400144944
:103E800009884843642190FBF1F52A460221134832
:103E900001F0A7FA00220221104801F0B5FA012131
:103EA0000E4801F075FB0D4801F073F94FF48043A3
:103EB000022210210448FFF7A7FC4FF4804102487A
:103EC000FFF752FC07B030BD000C01404A00002053
:103ED00048000020E400002040420F00002C014078
:103EE00010B54FF480710648FFF73EFC642001F0E6
:103EF00035FE4FF480710248FFF738FC10BD00001A
:103F00000014014010B540F2056001F02BF84FF4A9
:103F10008073022210210448FFF776FC4FF4807171
:103F20000148FFF723FC10BD0014014070B50446A2
:103F3000A61104F03F00401EC4B2282C10DA4FF046
:103F4000804001F09BFA272C08D1002503E00548AA
:103F50004655681CC5B2282DF9DB01E0014806551D
:103F600070BD00007C01002010B58221FF20FDF70C
:103F700011FB38213B20FDF70DFB10BD10B5812151
:103F8000FF20FDF707FBFB210D20FDF703FB0A20B7
:103F900001F0E4FDFF210D20FDF7FCFA10BD00004B
:103FA0001CB5FCF7F5FC25A0FFF758F92948006877
:103FB000FFF754F926A0FFF751F90020022103462C
:103FC0002022CDE9001024A1264802F0A9FA002001
:103FD000022103467022CDE9001023A1244802F0FB
:103FE0009FFA0020042103465022CDE9001021A1B0
:103FF000224802F095FA2248042100235022CDE9FC
:10400000001020A1214802F08BFA2148032100234F
:104010004022CDE900101FA1204802F081FA0020C3
:10402000022103464022CDE900101DA11E4802F0E6
:1040300077FA01F071FF00BFFEE700006672656568
:1040400072746F73202C20696E6974206F6B21214C
:104050000D0A0000000000205461736B4C65643150
:10406000000000000B2A000864656275677200009A
:10407000C50F00086C74393231310000412000084E
:1040800024000020546F4370750000001D100008CC
:10409000140000206B65795F626F64006D51000849
:1040A00074656D70000000004D1B000808B51EA06F
:1040B00000680090022000F014F96A4600210220F6
:1040C00000F02CF900231A461946022000F037F9B7
:1040D00040F2036000F046FF4FF4C06000F042FF82
:1040E0004FF48053022248211048FFF78DFB0C212A
:1040F0000120FFF73DFB012200211003FFF78EF99D
:104100004FF48050FFF7EEF94FF48050FFF7F2F9CB
:1041100000220721282000F02BF900F00BF8902155
:104120000348FCF780F808BD00FF0000000C0140C8
:10413000EC00002008B56B4601220021022000F0AF
:10414000D6F860B99DF8000000F03F003F2804D089
:104150009DF8000000F03F0008BD3F20FCE702A0F2
:10416000FEF784FDFF20F7E74552524F523A204BAD
:1041700045595F524F575F5343414E206E6361393B
:104180003535355F726561645F696E706F72740D8D
:104190000A0000002DE9F0410027FFF7CBFF07469A
:1041A0003F2F55DA002550E03C48435D0022114680
:1041B000022000F0C4F820B1294639A0FEF756FDD0
:1041C00041E0FFF7B7FF0746002639E0062000FB75
:1041D0000560C4B247FA06F000F00100E8B93D48B6
:1041E00030F81400022829DA3A4830F81400401C4C
:1041F00081B2384820F8141030F8140002281DD17C
:104200000120344948390855611CC8B2012100F029
:10421000D9FE01203049087010E02E484838005D72
:1042200060B100202B4948390855611CC8B20021F3
:1042300000F0C8FE0021274820F81410701CC6B2F8
:10424000062EC3DB00BF681CC5B2062DACDB1CE02C
:1042500021480078C8B1002412E01E484838005DAB
:1042600060B100201B4948390855611CC8B20021C3
:1042700000F0A8FE0021174820F81410601CC4B2FA
:10428000242CEADB00201449087000231A46194642
:10429000022000F054F80020BDE8F081286C0008EE
:1042A0004552524F523A204B45595F524F575F5338
:1042B00043414E206E6361393535355F77726974DD
:1042C000655F6F7574706F727420693D25640D0AA7
:1042D0000000000034010020180000200020FFF73B
:1042E00065FC10B504462046FDF7A8FA10BDF8B5E8
:1042F00006460D4614461F4605F00E0545F04005DE
:104300000CB1012000E0002004460120E2B23B464F
:10431000294600903046FDF7F3FAF8BDF8B5064699
:104320000C46154604F00E0444F0400402202B46CF
:104330000622214600903046FDF710FBF8BD7FB500
:1043400082B006460C46154604F00E0444F04004C4
:104350000DB1012000E00020054601200090A81CBE
:10436000C2B205AB21463046FDF7F8FA06B070BD83
:104370002DE9F04103460D46164600240027A046CD
:104380002448006800F4E060B0F5A06F15D006DCAA
:10439000B0F5407F18D0B0F5806F19D110E0B0F5BE
:1043A000C06F06D0B0F5E06F12D100274FF00408BF
:1043B00015E001274FF0030811E00227B8460EE090
:1043C00003274FF001080AE004274FF0000806E039
:1043D0004FF4A06000F022F80227B84600BF00BFEB
:1043E000C7F1040005FA00F4C8F104010F20C84029
:1043F0003040044324010848C45403F01F01012045
:1044000088405911890001F1E021C1F80001BDE89F
:10441000F08100000CED00E000E400E002490143FF
:10442000024A1160704700000000FA050CED00E040
:104430002DE9F04105460E461C4807681C480068F7
:10444000001D01F032FA50B91948006890F82C109C
:104450000120884017490968814316480160681C9B
:1044600038B936B112480168091D134801F0B4FA91
:104470001AE07C190E4800684460BC4207D20C4820
:104480000168091D0D48006801F08CFA0CE008482D
:104490000168091D0A48006801F084FA09480068AB
:1044A000844201D207480460BDE8F0818C000020FE
:1044B0007800002090000020580300208000002099
:1044C0007C000020A800002010B5044601F090FAFE
:1044D00024480068401C234908602348006840B90C
:1044E000214804600846006801280DD100F04CF90D
:1044F0000AE01E48006838B91B480068C06AE16AD3
:10450000884201D81848046019480068401C1849BE
:10451000086008460068206494F82C100120884048
:1045200014490968084313490860E16A01EB8101F5
:10453000114A02EB8100211D01F04EFA01F07AFAD6
:104540000A48006868B108480068C06AE16A8842A1
:1045500007D24FF0805009490860BFF34F8FBFF377
:104560006F8F10BD8800002078000020940000208C
:10457000A400002090000020A402002004ED00E030
:104580000146D1E90132D0180A68801A8A6882424D
:1045900001D88A68801A704710B516E001F028FA31
:1045A0000C48C068C468201D01F07FF90A48006803
:1045B000401E0949086009480068401E0749086014
:1045C00001F038FA204600F00BF804480068002893
:1045D000E4D110BD440300208800002084000020A6
:1045E00010B50446206B01F03BFA204601F038FA82
:1045F00010BD000030B54FF42053174800F00704F9
:104600002CB1C01D20F00700134C041B1B1B0246DD
:10461000124C22600024114D6C60D018083820F034
:1046200007000F4C206000240D4D2D686C600C4D70
:104630002D682C601146441A4C60094C24680C60AB
:10464000084D4C682C60084D4C682C604FF00044BD
:10465000064D2C6030BD00006C030020C40000201B
:10466000CC000020D4000020D0000020E00000207A
:1046700000BFFFF791FF064800680128F9D94FF005
:10468000805004490860BFF34F8FBFF36F8FF0E78E
:10469000A402002004ED00E02DE9F04704460D4699
:1046A00016461F46DDF820804FF055093246552149
:1046B0002846FBF7BAFDA84201D1012000E0002006
:1046C00008B900BFFEE724212046FBF7ACFDA56139
:1046D000A660E76084F81C80BDE8F0872DE9F05FF4
:1046E00082460E4690469B460A9F0C9C4FEA8801E4
:1046F000A522206BFBF790FDA8F10100216B01EBD7
:10470000800929F0070909F0070008B9012000E035
:10471000002008B900BFFEE786B1002507E0715D03
:1047200004F134004155705D00B902E06D1C0A2DA2
:10473000F5D300BF00213D20015502E0002084F8A0
:104740003400052F00D30427E762A7640020E0644B
:10475000201D01F024F904F1180001F020F9246172
:10476000C7F10500A06164620020206584F8540050
:104770005A465146484600F0C5FA20600B9808B1E9
:104780000B980460BDE8F09F10B5002407E004EB2F
:1047900084010F4A02EB810001F0F4F8641C052C3F
:1047A000F5D30C4801F0EEF80B4801F0EBF80B489C
:1047B00001F0E8F80A4801F0E5F80A4801F0E2F8EB
:1047C00004480949086004480849086010BD000011
:1047D000A4020020080300201C0300203003002056
:1047E00044030020580300207C00002080000020AB
:1047F00010B50146164800E0006803688B42FBD301
:104800000246436813448B4204D143684C682344F6
:10481000436001460A464B6813440468A34211D121
:104820000C4C03682468A34208D04B680468646891
:1048300023444B6003681B680B6005E0054B1B6855
:104840000B6001E003680B60884200D0016010BD7E
:10485000C4000020CC0000202DE9F04707460C469C
:1048600090460026206848B3204641684968416068
:1048700000F1080142688A4202D1416849684160FA
:104880004168D1F80C9000BF2046416849684160FA
:1048900000F1080142688A4202D1416849684160DA
:1048A0004168CD6806EBC60007EB80014346012254
:1048B000284601F061FA761C4D45E5D13046BDE849
:1048C000F0872DE9F0470446894690469A46C2454E
:1048D00001D2504600E040460646002E38D02568FA
:1048E000A068401BB04202D2A068401B00E03046E6
:1048F0000746474501D8012000E0002008B900BF65
:10490000FEE7E819A168884201D8012000E00020F4
:1049100008B900BFFEE7A06941193A464846FBF7CF
:1049200069FCBE420DD9464501D8012000E00020B7
:1049300008B900BFFEE7F21B09EB0700A169FBF70E
:1049400059FC3544A068A84201D8A0682D1A2560FA
:104950003046BDE8F0872DE9F84F05468A461646F1
:1049600098460A9F87B1D5F8009043463A46694673
:104970002846FFF7A6FF009CA8EB0708B44204D91D
:10498000C5F80090002400E03446434622465146D4
:104990002846FFF796FF83465846BDE8F88F00008B
:1049A00009480068006808B9012000E0002020B133
:1049B0004FF0FF300549086005E003480068C06813
:1049C00000680249086070477C000020A8000020B1
:1049D0002DE9F04302460D460027106800284CD010
:1049E0001046D0F80480D8F80480C0F8048000F1A4
:1049F0000808D0F80490C14505D1D0F80480D8F853
:104A00000480C0F80480D0F80480D8F80C6000BF9F
:104A10001046D0F80480D8F80480C0F8048000F173
:104A20000808D0F80490C14505D1D0F80480D8F822
:104A30000480C0F80480D0F80480D8F80C104FF03F
:104A4000000C002311E001F13400C45CE85CA042DA
:104A500002D04FF0010C03E014B90F464FF0010CE7
:104A6000BCF1000F00D002E05B1C0A2BEBD300BFAF
:104A700007B101E0B142CBD100BF3846BDE8F083B9
:104A80000246002101E0521C491C1078A528FAD0EA
:104A9000890888B2704700000A480068401C08B9BD
:104AA000012000E0002008B900BFFEE700BF502051
:104AB00080F31188BFF34F8FBFF36F8F00BF00BF2C
:104AC000FEE70000B80000202DE9F04104468846CA
:104AD00016460EB1012000E0002008B900BFFEE735
:104AE0006568A068401BB04202D2A068401B00E08D
:104AF00030460746E819A168884201D8012000E045
:104B0000002008B900BFFEE7A16948193A464146AE
:104B1000FBF770FBBE420FD9F01BA168884201D899
:104B2000012000E0002008B900BFFEE7F21B08EBFF
:104B30000701A069FBF75EFB3544A068A84201D8D5
:104B4000A0682D1A65603046BDE8F0812DE9FF4769
:104B5000074688461D46DDF830900DB9002416E062
:104B6000387F00F0010040B901240298A84201D228
:104B7000029800E02846029009E04D4506D3012442
:104B8000042202A93846FFF79FFF00E0002434B159
:104B900041463846029AFFF797FF064600E0002696
:104BA000304604B0BDE8F08770B505460E46314684
:104BB0002846FBF74AFB2846FBF740FB044602E089
:104BC00020202855641C092CFAD3002028552819C8
:104BD00070BD00002DE9F04104464FF0000801F0DF
:104BE000DBF94248006808B9FFF704FD4048006857
:104BF000204000286CD1F4B104F10800A0421AD979
:104C0000083404F00700B8B104F00700C0F1080050
:104C10002044A0420DD904F00700C0F1080004446C
:104C200004F0070008B9012000E0002020B900BF0F
:104C3000FEE7002400E00024002C49D02D48006845
:104C4000844245D82C4E3046056801E02E462D683A
:104C50006868A04202D228680028F7D1234800687B
:104C6000854235D0306800F10808286830606868EF
:104C7000001B102810D92F1907F0070008B90120D0
:104C800000E0002008B900BFFEE76868001B7860FC
:104C90006C603846FFF7ACFD164968680968081A69
:104CA000144908600846006814490968884203D21C
:104CB00010480068114908600D4968680968084390
:104CC0006860002028600E480068401C0C4908609D
:104CD00001F016FF08F0070008B9012000E00020ED
:104CE00008B900BFFEE74046BDE8F081CC000020D7
:104CF000E0000020D0000020C4000020D4000020EC
:104D0000D8000020001F4FF080730360001F21F0C7
:104D100001030360001F034B036014380260203856
:104D200070470000994A000810B509A0FEF796FAEE
:104D300015A0FEF793FA214801F06CF81F48FEF722
:104D40008DFA1FA0FEF78AFA1EA0FEF787FA10BDA3
:104D50002D2D2D2D2D2D2D2D2D2D2D2D2D2D2D2D83
:104D60002D2D2D2D2D2D7461736B20696E666F2D89
:104D70002D2D2D2D2D2D2D2D2D2D2D2D2D2D2D2D63
:104D80002D2D2D0D0A0000005461736B4E616D6571
:104D900020205461736B5374617465205072696F85
:104DA0007269747920204C656674537461636B205A
:104DB000205461736B4E756D200D0A00A401002014
:104DC0000D0A00002020423A20426C6F636B2020C5
:104DD000523A2052656164792020443A2044656C3F
:104DE0006574652020533A2053746F702020583A20
:104DF0002052756E200D0A000F4A51680F4A11406B
:104E0000082814D2DFE800F004050607130A130B84
:104E100000BF00BF00BF41EA803109E000BF20F0C1
:104E200004004FF0805242EA8032114300E000BF9C
:104E300000BF014A5160704700100240FF3FFFEF82
:104E40002DE9F04F8BB00746002009903EA090E876
:104E5000004CC068CDE905BECDF810A007900FF258
:104E6000EC0ADAE9000ACDE9020A0FF2E00ADAE90F
:104E7000000ACDE9000A38484068C0F381000A9072
:104E80000A9820B1012804D0022829D103E033492F
:104E900028E0324926E03048406800F48038B8F510
:104EA000803F09D12D4C2C48406800F40039B9F5F9
:104EB000003F02D1641000E0294C27484068C0F34D
:104EC00083422548406800F0006008B142F01002BB
:104ED0000F2A01D2921C00E0521C04FB02F101E0F7
:104EE0001E4900BF00BF1C484068C0F3031504A85A
:104EF000465D21FA06F318484068C0F3022502A86F
:104F0000465D23FA06FC14484068C0F3C2251DF82C
:104F1000056023FA06F0089037B1012F06D0022F62
:104F200006D0032F0AD106E0099108E0099306E0B4
:104F3000CDF824C003E00898099000E000BF00BF4E
:104F400009980BB0BDE8F08F0000000000000000E1
:104F500001020304060708090010024000127A004B
:104F600000093D00064A02EB9011096800F01F039A
:104F700001229A401143024B03EB901211607047DB
:104F800000100240064A02EB9011096800F01F036E
:104F900001229A409143024B03EB9012116070473B
:104FA00000100240064A02EB9011096800F01F034E
:104FB00001229A401143024B03EB9012116070479B
:104FC000001002407CB505460C461148007800F000
:104FD000020018B90FA0FEF741F97CBDA5208DF89D
:104FE00000008DF801508DF802409DF800009DF8FA
:104FF000011008449DF802100844C0B28DF8030067
:10500000042269460120FDF79DFD00BFE5E7000091
:10501000040000206572726F723A20544F4350555D
:105020005F434F4D206E6F7420696E69740A0000F3
:1050300070B50446642C01DD642402E0002C00DA23
:1050400000240D490C7000BF0CA0FDF70FFE0A48AC
:1050500001780EA0FDF70AFE00BFC4F164001449F8
:1050600009884843642190FBF1F52A460221114842
:1050700000F0B7F970BD0000740000203C3C4D59B1
:105080005F44454255473E3E200000004B6C65643E
:10509000735F70776D5F6F757420675F6B6C6564AD
:1050A000735F70776D203D2025640D0A00000000BD
:1050B000720000200004004000200021264A1268EF
:1050C00042F00102244B1A6000BF401C224A1268C1
:1050D00002F0020111B9B0F5A06FF6D11E4A1268B4
:1050E00002F002020AB900BFFEE71B4A52681A4BDF
:1050F0005A601A4652685A601A46526842F48062F0
:105100005A601A465268154B1A40134B5A601A4699
:105110005268134B1A43104B5A601A46126842F0F9
:1051200080721A6000BF0C4A126802F00072002AF6
:10513000F9D0094A526822F00302074B5A601A4616
:10514000526842F002025A6000BF034A526802F0FD
:105150000802002AF9D0704700100240FFFFC3F791
:105160000000280810B5FFF7A7FF10BDFEF79EFF4F
:105170000EE04FF0FF320021084600F021FAFFF761
:1051800009F81E2000F0EAFC4FF48050FEF7AAF95F
:10519000EFE7016841F080010160704710B531B15F
:1051A00001293FD002297DD003297CD1BFE0036AC9
:1051B00023F001030362836923F003038361036A1D
:1051C000148823430362036A23F002030362036A21
:1051D0009488234303626A4B984202D0694B9842F9
:1051E0001FD1036A23F004030362036A5488234334
:1051F0000362036A23F008030362036AD48823432B
:105200000362436823F48073436043681489234333
:105210004360436823F40073436043685489234325
:105220004360ABE0036A23F010030362836923F455
:1052300040738361036A148843EA04130362036AB8
:1052400023F020030362036A948843EA0413036291
:105250004B4B984202D04B4B984226D1036A23F025
:1052600040030362036A548843EA04130362036A37
:1052700023F080030362036AD48843EA04130362C1
:10528000436823F4806343604368148943EA8403DA
:105290004360436823F4006343604368548943EAEE
:1052A000840301E002E068E0436067E0036A23F4FE
:1052B00080730362C36923F00303C361036A148824
:1052C00043EA04230362036A23F400730362036A5C
:1052D000948843EA04230362294B984202D0294B65
:1052E000984223D1036A23F480630362036A5488DB
:1052F00043EA04230362036A23F400630362036A3C
:10530000D48843EA04230362436823F48053436050
:105310004368148943EA04134360436823F4005349
:1053200043604368548943EA0413436026E0036AF8
:1053300023F480530362C36923F44073C361036A97
:10534000148843EA04330362036A23F400530362BC
:10535000036A948843EA04330362094B984202D0FB
:10536000084B984208D1436823F480434360436864
:10537000148943EA8413436000E000BF00BF10BDFE
:10538000002C01400034014031B101290CD0022928
:1053900013D0032922D118E0836923F070038361BD
:1053A0008369134383611AE0836923F4E0438361D3
:1053B000836943EA0223836111E0C36923F0700328
:1053C000C361C3691343C36109E0C36923F4E043C4
:1053D000C361C36943EA0223C36100E000BF00BFA9
:1053E000704731B1012906D0022906D0032908D11E
:1053F00005E0426306E0826304E0C26302E0026407
:1054000000E000BF00BF704731B101290CD0022974
:1054100013D0032922D118E0836923F008038361A4
:105420008369134383611AE0836923F40063836112
:10543000836943EA0223836111E0C36923F008030F
:10544000C361C3691343C36109E0C36923F4006303
:10545000C361C36943EA0223C36100E000BF00BF28
:1054600070470021018041808180C180018141819C
:105470007047016821F0010101607047016841F047
:1054800001010160704700000A888262294A904247
:1054900020D0B0F1804F1DD0274A90421AD0274A21
:1054A000904217D0264A904214D0264A904211D0FA
:1054B000254A90420ED0254A90420BD0244A904271
:1054C00008D0244A904205D0234A904202D0234A71
:1054D00090420FD1026822F07002026002688B785D
:1054E00003F060031A43026002680B7903F01003B3
:1054F0001A4302608A68C262194A90420CD0194A63
:10550000904209D0026822F44072026002688B89DE
:1055100003F440731A430260064A904202D0094ADB
:10552000904201D18A7B0263426942F001024261EA
:1055300070470000002C01400004004000080040BB
:10554000000C004000340140004C0140005001407C
:105550000054014000180040001C004000200040A2
:105560000010004000140040C2680A43C260704747
:1055700002698A43026170470246D06800EA01036B
:105580001069084010B10BB1012070470020FCE702
:10559000012904D1426C42F40042426403E0426CAF
:1055A00022F40042426470470021018041808180E2
:1055B0004FF6FF7181600021818181737047000087
:1055C0002DE9F04104460F4616460CB9012000E0D3
:1055D000002008B900BFFEE700F00AFA1C48006886
:1055E000503050F8240080B9012119480068543027
:1055F000015556B13046FEF71BFF4FF0805015495C
:105600000860BFF34F8FBFF36F8F00F013FA00F005
:10561000EFF90F480068503050F824506DB137B1A1
:1056200000210B480068503040F8241005E0681E47
:1056300007490968503141F82400002104480068F6
:105640005430015500F0F6F92846BDE8F08100001D
:105650007800002004ED00E02DE9F04704460D46F7
:105660000027B846B94600261D49601A8C421CD056
:1056700006DC1C48204470B1B0F5806F1FD10FE0EC
:10568000B0F5806F16D0B0F56C4F18D10320FFF73E
:10569000D7FB074614E00220FFF7D2FB07460FE0D6
:1056A0000220FFF7CDFB07460AE00220FFF7C8FB08
:1056B000074605E00220FFF7C3FB074600E000BFF6
:1056C00000BF07EB5500B0FBF5F64FF6F07006EAA9
:1056D000000806F00F0948EA0900A060BDE8F0875D
:1056E000004C004000BCFFBF01464868C0F3080002
:1056F0007047C1F3080242607047000010B50446CD
:105700002049601A8C4228D006DC1F48204490B102
:10571000B0F5806F33D117E0B0F5806F26D0B0F5CB
:105720006C4F2CD140F20E30FFF73CFC40F20E30B3
:10573000FFF728FC24E040F21140FFF733FC40F271
:105740001140FFF71FFC1BE040F21240FFF72AFC5C
:1057500040F21240FFF716FC12E040F21340FFF750
:1057600021FC40F21340FFF70DFC09E040F2144029
:10577000FFF718FC40F21440FFF704FC00E000BF04
:1057800000BF10BD004C004000BCFFBFC16841F429
:105790000051C160704710B5024602EB91100068DD
:1057A00001F01F040123A340184008B1012010BDDF
:1057B0000020FCE70A460021416921F400711143F1
:1057C000416170470A460021416921F4807111430B
:1057D0004161704710B5C1F38912825801F01F046E
:1057E0000123A3409A43C1F38913C25010BD10B5E1
:1057F000C1F38912825801F01F040123A3401A4308
:10580000C1F38913C25010BD10B500EB915212685C
:10581000C1F304440123A3409A4300EB91531A605F
:1058200010BD70B5024600230024C1F38910105842
:1058300001F01F060125B54000EA050302EB915077
:105840000068C1F304460125B54000EA050414B11F
:105850000BB1012070BD0020FCE7C26822F4C062D9
:10586000C260C2680A43C26070470A460021C1682C
:1058700021F004011143C1607047026922F44052D3
:10588000026102690A43026170470A460021C16849
:1058900021F008011143C1607047C26822F48052B0
:1058A000C260C2680A43C260704701460A69D1E912
:1058B00001309860D1E9010358605068884201D1F5
:1058C00088685060002008611068401E10601068F1
:1058D000704700002DE9F041054688461646002431
:1058E000052700F059FB21480068804539D300BFE7
:1058F0007F1E07EB87021E4B03EB820104EBC40201
:1059000005EB82000122FEF7A7FF0444002FEFD130
:1059100004EBC40105EB8100022216490968FEF779
:105920009BFF044404EBC40105EB810002221249F1
:105930000968FEF791FF044404EBC40105EB810004
:1059400004220E49FEF788FF044404EBC40105EB72
:10595000810003220A49FEF77FFF04440EB10020B4
:10596000306001F0CDF82046BDE8F08188000020CD
:10597000A40200207C0000208000002044030020BE
:105980005803002000F1080141604FF0FF318160B1
:1059900000F10801C1600161002101607047002130
:1059A0000161704710B502460B685C1C0CB91069A8
:1059B00007E002F1080000E04068446824689C4267
:1059C000FAD944684C604C68A160886041600A6103
:1059D0001468641C146010BD42684A6093688B6050
:1059E000936859609160086103685B1C03607047AD
:1059F00000BF502080F31188BFF34F8FBFF36F8F2C
:105A000000BF0A480068401C084908600846006852
:105A1000012809D106480068C0B208B9012000E099
:105A2000002008B900BFFEE770470000B800002062
:105A300004ED00E00948006808B900BFFEE7074828
:105A40000068401E054908600846006820B900202B
:105A500080F3118800BF00BF70470000B80000202D
:105A600070B506463546002E32D0083D2C46194901
:105A700060680968084008B1012000E0002008B90A
:105A800000BFFEE7206808B9012000E0002008B947
:105A900000BFFEE70F49606809680840C0B1206890
:105AA000B0B90C49606809688843606000F074FA16
:105AB0000949606809680844074908602046FEF7FC
:105AC00097FE06480068401C0449086001F018F879
:105AD00070BD0000E0000020D0000020DC000020AD
