:020000040800F2
:10300000704B0020B1310008D55600082147000858
:10301000AD560008293A0008F15C000800000000E5
:10302000000000000000000000000000193100084E
:1030300055420008000000005D31000859590008A1
:10304000CB310008CB310008CB310008CB31000870
:10305000CB310008CB310008CB310008CB31000860
:10306000CB310008CB310008CB310008CB31000850
:10307000CB310008CB310008CB310008CB31000840
:10308000CB310008CB310008CB310008CB31000830
:10309000CB310008CB310008CB310008CB31000820
:1030A000CB310008CB310008CB310008CB31000810
:1030B000395A0008CB310008CB310008CB31000869
:1030C000CB310008CB310008CB310008CB310008F0
:1030D000CB310008915B0008D55B0008CB310008BC
:1030E000ED440008CB310008CB310008000000009F
:1030F00000000000000000000000000000000000D0
:10310000CB310008DFF80CD000F04EFB0048004740
:103110000D720008704B0020224B19680868B0E857
:10312000F00F80F30988BFF36F8F4FF0000080F33A
:1031300011884EF00D0E7047000000000648006830
:10314000006880F3088862B661B6BFF34F8FBFF3A3
:103150006F8F00DF00BF00BF08ED00E0EFF30980D4
:10316000BFF36F8F0F4B1A6820E9F00F106008B59E
:103170004FF0500080F31188BFF34F8FBFF36F8F74
:1031800006F058F84FF0000080F31188BDE80840C1
:1031900019680868B0E8F00F80F30988BFF36F8FF3
:1031A000704700BF78000020EFF3058070470000F3
:1031B0000648804706480047FEE7FEE7FEE7FEE7D1
:1031C000FEE7FEE7FEE7FEE7FEE7FEE78D590008B3
:1031D00005310008202A04DB203A21FA02F0002100
:1031E000704721FA02F3D040C2F120029140084317
:1031F0001946704740EA01039B0703D009E008C95C
:10320000121F08C0042AFAD203E011F8013B00F8AB
:10321000013B521EF9D27047D2B201E000F8012BF7
:10322000491EFBD270470022F6E710B513460A4646
:1032300004461946FFF7F0FF204610BD421C10F867
:10324000011B0029FBD1801A7047034611F8012B9E
:1032500000F8012B002AF9D1184670472DE9FE4FDE
:10326000804681EA0300C00F0C46009021F0004127
:1032700023F00045B8EB0200A94105D240462146A3
:1032800090461C460B46024623F00040104347D0B0
:10329000270DC7F30A00C3F30A510290401A0190A8
:1032A00040286BDAC3F3130040F4801B0098924669
:1032B00020B10023D2EB030A63EB0B0B01985946B4
:1032C000C0F14002504600F0B9F906460D4650469E
:1032D0005946019A00F0C1F910EB08006141002441
:1032E00087EA115284EAE7731A4340D0009A62B326
:1032F000019A012A4FEA075215DC001B61EB02011B
:103300004FF0004202EA0752CDE90042001C41F5AD
:10331000801132462B4600F0F8F903B0BDE8F08F7B
:1033200040462146F9E7001B61EB0201001C41F514
:10333000801300185B412018A2F5001747EB03012A
:1033400040EAD570B6196D4111E06D084FEA3606B6
:1033500045EAC0754FEA0752001B61EB0201001CF1
:1033600041F5801149084FEA3000001951413246B9
:103370002B4603B0BDE8F04F00F0B8B90098012229
:1033800040000023D0EB020263EBE073009821467B
:103390004FEAE074B8EB000061EB0401E9E783F069
:1033A00000435BE781F0004158E72DE9FE4F81EAD9
:1033B000030404F0004421F0004100944FF0000B9E
:1033C00023F0004350EA01045ED052EA03045BD0CC
:1033D000C3F30A54C1F30A552C44A4F2F334019404
:1033E000A0FB0254C1F3130141F48011C3F3130392
:1033F00043F4801301FB024400FB034E840A970A46
:1034000044EA815447EA8357A4FB076802958D0A72
:1034100005FB07854FEA932C04FB0C542705029DFE
:103420004FEA065847EA1637B5EB08056EEB070C6E
:10343000870E920E47EA811742EA8312A7FB020128
:10344000B6EB0B0164EB00042B0D43EA0C335E1862
:1034500044EB1C50DA465146E7FB0201C5F3130466
:103460004FEA0B3343EA14534FEA0432019C43EA18
:103470000603A4F10C040294009CCDE900B400F012
:1034800044F903B0BDE8F08F00200146F9E72DE9CB
:10349000F04D81EA030404F0004B21F0004514468E
:1034A0004FF0000A23F0004150EA050220D054EA10
:1034B00001021DD0C5F30A570246C5F31303C1F339
:1034C0001300C1F30A5640F4801543F48013A7EBB0
:1034D0000608101BD64608F2FD3873EB050002D330
:1034E00008F1010801E092185B41B8F1000F03DA1E
:1034F00000200146BDE8F08D00204FF48011064603
:1035000084460EE0171B73EB050705D3121B63EB14
:10351000050306434CEA010C49084FEA30009218B3
:103520005B4150EA0107EDD152EA030012D082EA72
:10353000040083EA0501084305D0101BAB4106D205
:103540000122002306E000224FF0004302E06FF06A
:10355000010253101AEB06004CEB085110EB0A0065
:1035600041EB0B01BDE8F04D00F0C0B896230022FE
:10357000114600F08DB870B5C1F30A5201F0004554
:103580000024C1F3130140F2FF3341F480119A4249
:1035900001DA002070BD40F233439A42A2F2334276
:1035A00003DC5242FFF716FE00E090402C43F1D0BE
:1035B000404270BD00F0004230F000400AD0C10D22
:1035C00001F56071C0F3160042EA0151C2084007DC
:1035D000114370470020014670472DE9F05F054612
:1035E000002092469B4688460646814640241BE0C2
:1035F0002846414647462246FFF7ECFD53465A46C9
:10360000C01A914110D311461846224600F016F810
:103610002D1A67EB01084F4622460120002100F0D9
:103620000DF817EB00094E41201EA4F10104DFDC68
:10363000484631462A464346BDE8F09F202A04DB2F
:10364000203A00FA02F1002070479140C2F12003B5
:1036500020FA03F3194390407047202A06DBCB176A
:10366000203A41FA02F043EAE07306E041FA02F33D
:10367000D040C2F12002914008431946704700290A
:10368000A8BF7047401C490008BF20F001007047E8
:1036900010B4B0FA80FC00FA0CF050EA010404BF48
:1036A00010BC704749B1CCF1200421FA04F411FA9E
:1036B0000CF118BF012121430843A3EB0C01CB1DE2
:1036C0004FEA00614FEA102042BF002010BC704753
:1036D00000EBC35010440029A4BF10BC7047401C2D
:1036E000490008BF20F0010010BC704710B5141E3F
:1036F00073F1000408DA401C41F1000192185B41AB
:103700001A4301D120F0010010BD2DE9F04D924681
:103710009B4611B1B1FA81F202E0B0FA80F2203298
:103720009046FFF78BFF04460F4640EA0A0041EA45
:103730000B0153465A46084313D0114653EA010081
:1037400019D0C8F140025046FFF744FD05460E4629
:10375000504659464246FFF771FF084305D0012005
:1037600004E020463946BDE8F08D0020054346EAD6
:10377000E0762C4337430A986305E40AA0EB08007F
:103780000022FD0A44EA47540A3002D500200146CF
:10379000E9E7010510196941DDE9084500196941AA
:1037A000BDE8F04DA2E70000064C074D06E0E068DA
:1037B00040F0010394E8070098471034AC42F6D378
:1037C000FFF7A4FCE89E0008089F000810B540F22F
:1037D000096004F00DFD032004F054FC002002F009
:1037E000C5FD00224FF48071184802F036FE002219
:1037F0000221164802F031FE01221146134802F060
:103800006AFD0021114802F05BFD012211460F48BC
:1038100002F033FD02F04EFE0523102200210B487A
:1038200002F0B2FD4FF460220121084802F082FD4F
:10383000064802F076FD012005F0D6FA034802F0B2
:1038400007FD0121014802F0F9FD10BD00240140EF
:103850007FB504465A4903C9CDE902010025207805
:103860008DF8090000208DF80A00207832381828D9
:1038700070D2DFE800F026900C121890212D333D15
:10388000464A4F5559696D7075807A90858A60787F
:10389000012103F00DFB002585E06078002103F095
:1038A00007FB00257FE0607810B100F02DFE01E0FD
:1038B00000F0FEFC002576E0607803F0DFFA0025DA
:1038C00071E0607803F06CF88DF80A0001256AE079
:1038D000617848B204F0F2FC002564E003F032F8AD
:1038E000642190FBF1F0C0B28DF80A0001255AE086
:1038F000607810B103F0C2F901E003F09DF90025F2
:1039000051E003F0E9F900254DE0607803F078FA22
:10391000002548E003F022FA8DF80A00012542E074
:1039200003F056FA00253EE026A006F04DF948B90E
:103930000020042103465022CDE9001021A1234894
:1039400005F034FF00252EE003F004FE00252AE0F8
:10395000002528E01FE0607803F01EFC002522E02F
:10396000607801F047FA00251DE002F0DBFF8DF8DA
:103970000A00012517E0607802F0CEF9002512E078
:10398000607801F0F9FE00250DE000F019FE8DF8D9
:103990000A00012507E0FF208DF80A000CA002F0C4
:1039A00093FD002500BF00BF4DB1032102A800F028
:1039B0003DF88DF80B00042102A800F08BF87FBDC4
:1039C000BC9E00086C7439323131000095510008FA
:1039D0006572726F723A206370752075617274201F
:1039E00073656E6420756E6B6F776E20636D6421F6
:1039F000210D0A0010B54FF4407003F04BFE4FF458
:103A0000C06004F0F5FB0121064803F0CBF800F09C
:103A10002BFE4FF4E13000F08DFB03F0A5F903F02D
:103A2000B5FA10BD0002300000BFFEE710B5024637
:103A30000B460021002004E0545C0444E0B24C1C1E
:103A4000E1B29942F8DB10BD10B5002211460248E0
:103A5000006805F061FA10BD240000201CB50020AC
:103A60000090064804F086FFC0B201906B46012228
:103A700001A90348006805F005FE1CBD0044004094
:103A8000200000201CB5002000901048006805F0C0
:103A900077FC04462CB940F207310D4804F0E0FFF2
:103AA0001CBD6B46012201A90848006805F015FD00
:103AB00028B19DF80410012002F0D2F804E040F291
:103AC0000731034804F0CCFF00BFE9E71C000020E9
:103AD0000044004070B505460E46002404E0285D11
:103AE00002F062F9601CC4B2B442F8DB70BD0000A1
:103AF00070B504462046612C70D00ADCA0F130007D
:103B00000A281AD2DFE800F01F2D42575A606F844E
:103B10008A8D662874D008DC622872D0632871D040
:103B2000642870D0652808D18AE067286CD068289E
:103B30006BD076286AD0792869D052A002F0C4FCF4
:103B400000F062F900BF56A002F0BEFC57480068C2
:103B500002F0BAFC56A002F0B7FC56A002F0B4FC8A
:103B60008EE000F033FD80B15B480078642809DA0C
:103B7000594800780A3040B201F034FD57A002F0F5
:103B8000A3FC02E05CA002F09FFC79E000F01EFDC7
:103B900080B1514800780A2809DB4F4909780A3971
:103BA00048B201F01FFD59A002F08EFC02E05EA0B9
:103BB00002F08AFC64E004F0FDF961E05EA002F02E
:103BC00083FC01F05CF95BE060A002F07DFC02F098
:103BD000B3FE20B162A002F077FC03E024E062A013
:103BE00002F072FC4CE062A002F06EFC02F0AAFE51
:103BF00005460A2102F076FC2DA002F065FC3FE0AC
:103C000021E014E016E018E020E026E02CE033E0AC
:103C10005DA002F059FC03F0DBF831E001F01EF981
:103C20002EE002F0B1F82BE003F00CF928E001F0EF
:103C3000D3FD25E001F032FE22E000F0CFFB1FE0D3
:103C400000F032FC1CE003F0FDF819E054A002F093
:103C50003BFC012003F012F912E05BA002F034FCFF
:103C6000002003F00BF90BE000F0AAFC0546294602
:103C70005FA002F0ADF803E0624802F0A7FE00BFCB
:103C800000BF70BD4552524F523A20436F6D6D6177
:103C90006E6420556E6B6E6F77200D0A0000000079
:103CA0002A4672656552544F532A200000000020B6
:103CB0000D0A0000417574686F723A4A43264461E8
:103CC0005A6869203C76783A3238353430383133A6
:103CD000363E0D0A000000004A000020696E637243
:103CE00065617365203720696E6368206C636420AA
:103CF00050574D0D0A000000675F6C63645F70777A
:103D00006D203D203130300D0A0000006465637283
:103D100065617365203720696E6368206C63642079
:103D200050574D0D0A000000675F6C63645F707749
:103D30006D203D20300D0A007265736574204C4380
:103D400044202620393231310D0A00005761746356
:103D50006820446F6720537461747573203A2000A3
:103D60006F6E0D0A000000006F66660D0A0000000D
:103D70004D637520696E7465726E616C5F74656DFC
:103D800070203D2000000000726573657420636F31
:103D9000726520626F61726421210D0A00000000CB
:103DA00032303233206B65795F6C696768745F61AC
:103DB0006C6C6C6564735F636F6E74726F6C2831CA
:103DC0002921210D0A00000032303233206B657941
:103DD0005F6C696768745F616C6C6C6564735F636A
:103DE0006F6E74726F6C28302921210D0A0000005B
:103DF0006D63752076657273696F6E203D20256452
:103E00000D0A000000D0010810B5234923A001F0DD
:103E1000DFFF26A001F0DCFF28A001F0D9FF00F0B1
:103E2000D5FB28B12DA001F0D3FF3AA001F0D0FFBF
:103E300046A001F0CDFF4CA001F0CAFF50A001F058
:103E4000C7FF58A001F0C4FF5EA001F0C1FF63A04E
:103E500001F0BEFF67A001F0BBFF6DA001F0B8FF4D
:103E600071A001F0B5FF79A001F0B2FF7CA001F0D4
:103E7000AFFF81A001F0ACFF85A001F0A9FF8DA0EC
:103E800001F0A6FF91A001F0A3FF96A001F0A0FF12
:103E90009AA001F09DFF10BD0D7200087665637455
:103EA0006F72203D2025700D0A0000000D0A446548
:103EB00062756720636D643A0D0A0000302E207031
:103EC00072696E742050726F6772616D20627569DD
:103ED0006C642074696D650D0A000000312E203776
:103EE00020696E6368206C63642050574D20696EB2
:103EF0006372656163652835696E6368206C63640D
:103F000020686173206E6F20656666656374290D95
:103F10000A000000322E203720696E6368206C632F
:103F2000642050574D206465637265616365283570
:103F3000696E6368206C636420686173206E6F2013
:103F4000656666656374290D0A000000332E2066DD
:103F500072656552746F73207461736B2073746142
:103F6000747321210D0A0000342E2072657365746C
:103F7000204C4344202620393231310D0A00000004
:103F8000352E207072696E7420486172642057610A
:103F900074636820446F67205374617475730D0AED
:103FA00000000000362E207072696E74204D63751B
:103FB00020696E7465726E616C5F74656D700D0A58
:103FC00000000000372E20726573657420636F72E5
:103FD0006520626F61726421210D0A00382E204C29
:103FE00053504B5F436F6E74726F6C2074657374C3
:103FF0000D0A0000392E205631325F43544C284DB3
:104000004F5253452920746573740D0A0000000057
:10401000612E206B65794C4544532070776D207478
:104020006573740D0A000000622E2035696E6368A6
:10403000206C636420626C61636B6C6967687420D8
:10404000636F6E74726F6C0D0A000000632E205354
:10405000504B454E20636F6E74726F6C0D0A0000FA
:10406000642E204541525F4C5F454E20636F6E7455
:10407000726F6C0D0A000000652E204541525F52A0
:104080005F454E20636F6E74726F6C0D0A00000006
:10409000662E206B65795F6C6564732070776D2088
:1040A000696E6372656163652831302525290D0AC3
:1040B00000000000672E206B65795F6C65647320DB
:1040C000616C6C206F6E0D0A00000000682E206B82
:1040D00065795F6C65647320616C6C206F66660D3A
:1040E0000A000000792E20676F746F206F746120C2
:1040F00070726F6772616D200D0A00006F746865E1
:10410000722E207072696E742068656C700D0A00E2
:1041100008B50CE04FF0FF330122694604480068FF
:1041200005F075F918B19DF80000FFF7E1FCF1E723
:104130000C00002010B504464FF4E131002002F0DD
:1041400075FB00220121402005F026F90449086092
:1041500000220121402005F01FF90249086010BD2E
:10416000080000200C00002008B504264FF00009CC
:1041700000254FF4E13000F053F84EE04FF0FF32ED
:104180001146002004F062FB00BF2448006805F0DF
:10419000F7F80746B74200D23EE0C6F1040000F04F
:1041A000FF090DEB0901002332461C48006805F0A9
:1041B0002EF9C5B26DB37F1BB5420DD19DF800003D
:1041C000A52809D10421684601F07FFD20B90DF131
:1041D0000100FFF73DFB1DE0012405E01DF8040090
:1041E000A52800D102E0641CAC42F7D300BFAC426A
:1041F0000DD0E6B24FF0000806E01DF804000DF8FF
:104200000800641C08F10108AC42F6D302E0042661
:1042100000E001E0042FB8D200BFAFE7200000208B
:1042200010B504462146012002F000FB00220121C6
:10423000102005F0B1F80549086000220C2110207B
:1042400005F0AAF80249086010BD00001C0000201B
:104250002000002070470000F0B5034600224FF018
:10426000E0277D69104F3F68DFF840C0B7FBFCF7DF
:10427000FEB203FB06F44FF0E027B96910E04FF0FF
:10428000E027B86988420BD0884202D20F1A3A441C
:1042900002E02F1A0F443A440146A24200D300E044
:1042A000EDE700BFF0BD0000E400002040420F0039
:1042B00010B5134890F90000002804DA00F086F9E0
:1042C00040B20F4908700E48007830B9002001F064
:1042D00053FA0CA002F0F8F810E01148028802210D
:1042E000104804F0C4F9642004F07EFD0D4804F089
:1042F00006FA00F023F80CA002F0E6F810BD00006A
:104300004B00002044697361626C655F4C63644CD0
:10431000696768742035696E63680D0A00000000E3
:1043200048000020002C014044697361626C655FA5
:104330004C63644C696768740D0A000010B501F0A5
:104340002DF94FF48041024802F06EFB10BD0000D1
:10435000000C014010B540F2046003F049FF4FF437
:104360008051054802F060FB4FF480530222102177
:10437000014802F0A9FB10BD0010014010B5044631
:1043800000BF07A001F024FD214609A001F020FD97
:1043900000BF14B100F03AF801E000F02DF810BDB4
:1043A0003C3C4D595F44454255473E3E200000008D
:1043B0004541525F4C5F454E5F436F6E74726F6C48
:1043C0005F5365744F757456616C207374617475B6
:1043D00073203D2025640D0A0000000010B54FF445
:1043E0008051044802F0D2FB04462046FFF7C6FF86
:1043F00010BD00000010014010B54FF4805102487C
:1044000002F014FB10BD00000010014010B54FF485
:104410008051024802F008FB10BD0000001001406E
:1044200010B540F2046003F0E3FE4FF4005105487C
:1044300002F0FAFA4FF4005302221021014802F070
:1044400043FB10BD0010014010B5044600BF07A09B
:1044500001F0BEFC214609A001F0BAFC00BF14B176
:1044600000F03AF801E000F02DF810BD3C3C4D5949
:104470005F44454255473E3E200000004541525FA3
:10448000525F454E5F436F6E74726F6C5F5365741D
:104490004F757456616C20737461747573203D2080
:1044A00025640D0A0000000010B54FF400510448C7
:1044B00002F06CFB04462046FFF7C6FF10BD00006B
:1044C0000010014010B54FF40051024802F0AEFA5E
:1044D00010BD00000010014010B54FF4005102481B
:1044E00002F0A2FA10BD00000010014010B54FF418
:1044F000805002F03BF908B102F0B2F84FF480505E
:1045000002F02EF910BD000010B5194890F9000016
:10451000002804DA00F05AF840B21549087014482F
:10452000007830B9012001F027F912A001F0CCFF8A
:104530001CE000F039F8642004F056FC13490978B7
:1045400009B9462101E01149097848B201F04AF859
:10455000642004F049FC0E4804F0D6F8642004F00E
:1045600043FC00F021F80BA001F0AEFF10BD0000ED
:104570004B000020456E61626C655F4C63644C6962
:104580006768742035696E63680D0A004A00002070
:10459000002C0140456E61626C655F4C63644C6940
:1045A0006768740D0A00000010B501F001F84FF4BF
:1045B0008041024802F03AFA10BD0000000C0140B0
:1045C00001480078704700000400002010B502F098
:1045D000A9F9062801D1012010BD0020FCE7000048
:1045E0002DE9F05F0221102001F0AAFA8346584617
:1045F000FEF7BCFF8046FEF7DDFF06464FF0663251
:10460000124BFEF7D2FE04460D4622462B461048BA
:104610001049FEF7C4FE80460F4A104BFEF737FFE5
:10462000064600220E4BFEF719FE04460D460022F8
:104630000C4B20462946FEF7B8FE0646FEF79BFFC8
:104640000FFA80FA5046BDE8F09F000066664A3FC8
:10465000E17A14AE47E1F63F22FDF675E09C713F2A
:10466000000024400000594010B5FFF7AFFF10B123
:10467000462002F0FDFC01F01BF802F079FD01F08C
:104680002BF8FFF7A3FF08B100F074FF00F0A0FBC8
:1046900001F030FB00F096FF01F05CF801F0BCF88F
:1046A000FFF758FEFFF7BCFE10BD38B504460020EA
:1046B000009001226946204600F006F810B19DF8EE
:1046C000000038BD0020FCE7F8B504460D4616464C
:1046D0002B462246064800960178002000F0C0F9DB
:1046E00008B9012000E0002007463846F8BD000068
:1046F0002C00002033B581B00446012002AB2246D5
:10470000009006480178002000F0D8F908B901208F
:1047100000E00020054628463EBD00002C00002099
:1047200000BFFEE710B504460021204600F066FAFF
:10473000204601F0F3F80021204600F08BFA042017
:10474000FFF78AFD0121204600F058FA0620FFF706
:1047500083FD0021204600F051FA0320FFF77CFD85
:1047600010BD000070B5054640F2036003F040FD47
:10477000012D02D14FF4406405E0022D02D14FF427
:10478000407400E0C024234602221021054802F0B4
:104790009BF90121284600F031FA0121284600F05A
:1047A00059FA70BD000C014010B5044600212046A6
:1047B00000F024FA204601F0B1F80121204600F073
:1047C00049FA0420FFF748FD0121204600F016FABF
:1047D0000620FFF741FD0021204600F00FFA0320DC
:1047E000FFF73AFD10BD2DE9F04107460D460024C4
:1047F0000021384600F002FA384601F071F8032033
:10480000FFF72AFD00261EE00021384600F0F6F9E9
:104810000520FFF721FD0121384600F0EFF9600681
:10482000040E0420FFF718FD384600F07BFF08B1A6
:10483000601CC4B20420FFF70FFD0021384600F0D1
:10484000DDF9701CC6B2082EDEDB1DB93846FFF755
:10485000ABFF02E03846FFF765FF2046BDE8F08178
:1048600070B506460C460021304600F0C7F93046C8
:1048700001F054F800251CE00320FFF7EDFC04F0E4
:104880008001304600F0E6F96006040E0420FFF7D0
:10489000E3FC0121304600F0B1F90620FFF7DCFC13
:1048A0000021304600F0AAF90320FFF7D5FC681C70
:1048B000C5B2082DE0DB70BD10B50446204601F0FE
:1048C0002DF80121204600F0C5F90121204600F015
:1048D00095F90620FFF7C0FC0021204600F0BAF948
:1048E0000620FFF7B9FC0021204600F087F910BD33
:1048F00010B504460021204600F080F9204601F062
:104900000DF80021204600F0A5F90620FFF7A4FCD1
:104910000121204600F072F90320FFF79DFC0121E0
:10492000204600F097F90620FFF796FC10BD70B501
:10493000054600240021284600F060F90320FFF717
:104940008BFC0121284600F085F90320FFF784FC49
:10495000284600F0C5FF0121284600F04FF903204A
:10496000FFF77AFC0BE0601CC4B2FA2C04DD284689
:10497000FFF7BEFF012070BD0120FFF76DFC284648
:1049800000F0D0FE0028EED10021284600F036F9D4
:104990000320FFF761FC0020EDE7000010B504469E
:1049A0000120A04008490978084000B110BD204608
:1049B000FFF7D8FE0120A0400349097808430249C7
:1049C000087000BFF2E70000100000202DE9F04160
:1049D00080460F4615461E4604F024FC4046FFF76D
:1049E0006BFF47F001014046FFF73AFF4046FFF7F3
:1049F0009EFF50B105F0CAF911A001F065FD4046D7
:104A0000FFF776FF0220BDE8F08100240FE0701E62
:104A1000A04205D100214046FFF7E5FE285504E0FD
:104A200001214046FFF7DFFE2855601CC4B2B442A6
:104A3000EDDB05F0ABF94046FFF75AFF0020E2E757
:104A40004552524F523A4949435F576169745F4139
:104A5000636B28696E64657829213D20300D0A005A
:104A60002DE9F84306460F4690461C46DDF8209097
:104A700000200346424639460090304600F01EF8BA
:104A80000546FF2D07D14B46224639463046FFF7F3
:104A90009DFFBDE8F88302A001F016FD2846F8E767
:104AA0004552524F523A204969634170705F5772C4
:104AB0006974655F42797465730D0A002DE9F047EA
:104AC00081460D4616461F46DDF8208004F0AAFBFD
:104AD0004846FFF7F1FE05F0FE014846FFF7C0FE2D
:104AE0004846FFF724FF50B105F050F920A001F02F
:104AF000EBFC4846FFF7FCFE0220BDE8F08731469C
:104B00004846FFF7ADFE4846FFF711FF48B105F0F4
:104B10003DF923A001F0D8FC4846FFF7E9FE032049
:104B2000EBE7B8F1000F03D105F030F9FF20E4E71F
:104B3000002413E0395D4846FFF792FE4846FFF730
:104B4000F6FE48B105F022F921A001F0BDFC48466F
:104B5000FFF7CEFE0420D0E7601CC4B24445E9DB79
:104B600005F014F94846FFF7C3FE0020C5E7000032
:104B70004552524F523A2073656E64206465765FE9
:104B800061646472204949435F576169745F41639E
:104B90006B28696E64657829213D20300D0A00007C
:104BA0004552524F523A2073656E6420776F72649B
:104BB0005F61646472204949435F576169745F4172
:104BC000636B28696E64657829213D20300D0A00E9
:104BD0004552524F523A2073656E6420646174618D
:104BE000204949435F576169745F41636B28696E6F
:104BF00064657829213D20300D0A000070B5054616
:104C00000C46012D0BD124B18102114801F00EFF99
:104C10001DE04FF480610E4801F006FF17E0022D01
:104C20000BD124B1E9010A4801F000FF0FE04FF475
:104C30008071074801F0F8FE09E024B140210448E2
:104C400001F0F4FE03E04021014801F0EDFE70BDEB
:104C5000000C014070B505460C46012D0BD124B166
:104C6000C102114801F0E2FE1DE04FF400610E4860
:104C700001F0DAFE17E0022D0BD124B129020A4817
:104C800001F0D4FE0FE04FF40071074801F0CCFEB4
:104C900009E024B18021044801F0C8FE03E080212E
:104CA000014801F0C1FE70BD000C0140FEF78EFD11
:104CB00007E0FFF795FC034908804FF47A7004F091
:104CC00093F8F6E74C00002070B50446002C08DD90
:104CD0000C480078642804DA0A480078204445B279
:104CE0000BE0002C08DA07480078002804DD0548AE
:104CF0000078204445B200E070BD284603F0DEFA9B
:104D000000BFF9E77400002030B587B0044640F2D8
:104D1000036003F06DFA012302221821264801F0F6
:104D2000D3FE40F2017003F063FA642C00DD6424CA
:104D30002248047003A803F07DFD21480088401E2E
:104D40000590204800682049B0FBF1F0401E80B279
:104D5000ADF80C0003A91D4803F0DCFC684603F025
:104D6000C6FC0120ADF800006A460221174803F096
:104D70005BFB70220221154803F04CFCC4F1640077
:104D80000F4909884843642190FBF1F52A46022126
:104D90000E4803F06CFC002202210C4803F07AFC60
:104DA00001210A4803F03AFD084803F038FB0748A0
:104DB00003F0AAFC07B030BD000C014074000020D5
:104DC00072000020E400002040420F000004004078
:104DD00010B540F2056003F00BFA2021044801F001
:104DE00023FE202302221021014801F06DFE10BD98
:104DF0000014014010B5044600BF09A000F0E8FF10
:104E000021460BA000F0E4FF00BF24B1202112488E
:104E100001F00CFE03E020210F4801F005FE10BD5B
:104E20003C3C4D595F44454255473E3E2000000002
:104E30004C53504B5F436F6E74726F6C5F5365746D
:104E40004F757456616C20737461747573203D20C6
:104E500025640D0A000000000014014010B5202157
:104E6000054801F093FE04460CB9012100E0002141
:104E70000846FFF7BFFF10BD00140140704710B592
:104E800002F064F900F0A2F900F004F8032000F049
:104E900039FC10BD10B515A001F016FBFFF7EEFFB1
:104EA00000F0EEF90A2003F09FFF00F01FF900F078
:104EB000FFF800F017FA00F05FF90A2003F094FF02
:104EC00000F036F80A2003F08FFF00F0BFFA00F080
:104ED0006FFA00F01DFA0A2003F086FF02F084F951
:104EE00002F078F90A2003F07FFF10BD0D0A204C74
:104EF00054393231315F6D69706920746F205454B8
:104F00004C0D0A0010B50020FFF748FD40F2066086
:104F100003F06EF902231A461021044801F0D4FD73
:104F20000221024801F080FD10BD00000018014080
:104F300070B5D021FF20FFF7DDFB60210C20FFF7CB
:104F4000D9FB60211C20FFF7D5FB70212420FFF73F
:104F5000D1FB30212D20FFF7CDFB0A213120FFF7B7
:104F6000C9FBF0212520FFF7C5FB30212A20FFF7E0
:104F7000C1FB4F212120FFF7BDFB00212220FFF7BD
:104F8000B9FB01211E20FFF7B5FB80212320FFF78D
:104F9000B1FB02210A20FFF7ADFB02213820FFF709
:104FA000A9FB04213920FFF7A5FB08213A20FFF7D0
:104FB000A1FB10213B20FFF79DFB04213F20FFF7C1
:104FC00099FB08214020FFF795FB10214120FFF7B6
:104FD00091FB20214220FFF78DFBA0212B20FFF722
:104FE00089FBD021FF20FFF785FB2620FFF75DFB23
:104FF000044604F07F0421462620FFF77BFB0F21A7
:105000002720FFF777FB8121FF20FFF773FBBF21EC
:105010002020FFF76FFBFF212020FFF76BFB05200F
:1050200003F0E2FE6F210B20FFF764FBFF210B2052
:10503000FFF760FB642003F0D7FE002515E0C820D1
:1050400003F0D2FED021FF20FFF754FB8720FFF7AB
:105050002CFB00F0080018B109A001F035FA06E0B9
:105060000CA001F031FA681CC5B20A2DE7DB00BFC5
:10507000D021FF20FFF73EFB9420FFF716FB70BD09
:105080000D0A4C54393231312070637220737461CF
:10509000626C65000D0A4C543932313120706372F4
:1050A00020756E737461626C6521212121000000FE
:1050B00010B58621FF20FFF71DFB85213020FFF76B
:1050C00019FBD821FF20FFF715FB00211620FFF761
:1050D00011FBD021FF20FFF70DFB12214320FFF72A
:1050E00009FB05210220FFF705FB10BD10B5D021FB
:1050F000FF20FFF7FFFA00210846FFF7FBFA8221A5
:10510000FF20FFF7F7FA44210220FFF7F3FA3621D8
:105110000520FFF7EFFA26210D20FFF7EBFA0C210F
:105120001720FFF7E7FA0C211D20FFF7E3FA812192
:105130000A20FFF7DFFA00210B20FFF7DBFA9F219F
:105140000720FFF7D7FAFC210820FFF7D3FA012147
:105150000920FFF7CFFA01211120FFF7CBFA8621B2
:10516000FF20FFF7C7FA1B213320FFF7C3FA1B21EB
:105170003420FFF7BFFA10BD10B58221FF20FFF7E2
:10518000B9FA48212D20FFF7B5FA82213520FFF723
:10519000B1FA10BD10B50446FFF7B4FE0A2003F0C3
:1051A00023FEFFF76CFEFFF711FA08B1FFF7ACF929
:1051B0004FF4FA7003F018FE00F026FB642003F0B1
:1051C00013FE002003F034FE10BD000010B50221D4
:1051D000064801F029FC642003F006FE0221034882
:1051E00001F024FC642003F0FFFD10BD0018014015
:1051F00010B50446642003F0F7FDD021FF20FFF72F
:1052000079FA608A01120D20FFF774FAA17C0E2052
:10521000FFF770FA208A01120F20FFF76BFA217C4A
:105220001020FFF767FA217B1520FFF763FA6089EA
:1052300001121720FFF75EFAA17A1820FFF75AFA39
:10524000208901121120FFF755FA217A1220FFF769
:1052500051FAE08801121320FFF74CFAA1791420CB
:10526000FFF748FAA1781620FFF744FA20880112C8
:105270001920FFF73FFA21781A20FFF73BFA10BDFB
:1052800010B58221FF20FFF735FA18210120FFF722
:1052900031FA8621FF20FFF72DFA61210620FFF762
:1052A00029FAA8210720FFF725FA8721FF20FFF719
:1052B00021FA08211420FFF71DFA00211520FFF71D
:1052C00019FA0F211820FFF715FA08212220FFF7FD
:1052D00011FA00212320FFF70DFA0F212620FFF7F6
:1052E00009FA10BD10B5642003F07EFD0348FFF7F6
:1052F0007FFF03A001F0E8F810BD0000300000209F
:1053000031303234783630305F3630487A0D0A002A
:1053100010B54024FFF75AF900B150241DA001F048
:10532000D3F88521FF20FFF7E5F921465920FFF743
:10533000E1F9AA215A20FFF7DDF9AA215B20FFF746
:10534000D9F900215C20FFF7D5F950218820FFF71B
:10535000D1F97721A120FFF7CDF98621FF20FFF7B2
:10536000C9F940210846FFF7C5F934214120FFF76C
:10537000C1F910214220FFF7BDF923214320FFF797
:10538000B9F941214420FFF7B5F902214520FFF783
:10539000B1F910BD0D4C5439323131207365742090
:1053A000746F204F55545055545F4C564453000071
:1053B00010B58221FF20FFF79DF900216220FFF741
:1053C00099F908213B20FFF795F992213E20FFF73C
:1053D00091F948213F20FFF78DF931214020FFF757
:1053E00089F980214320FFF785F900214420FFF748
:1053F00081F900214520FFF77DF900214920FFF7C1
:1054000079F901214A20FFF775F900214E20FFF7B5
:1054100071F900214F20FFF76DF900215020FFF7AF
:1054200069F900215320FFF765F901215420FFF7A6
:1054300061F98121FF20FFF75DF979212020FFF735
:1054400059F9FF212020FFF755F910BD10B5822131
:10545000FF20FFF74FF901213620FFF74BF92921F3
:105460003720FFF747F906213820FFF743F93021AD
:105470003920FFF73FF98E213A20FFF73BF98121D0
:10548000FF20FFF737F9F7212020FFF733F9FF213D
:105490002020FFF72FF98721FF20FFF72BF9142198
:1054A0003720FFF727F900211320FFF723F9802188
:1054B0001320FFF71FF9642003F096FC00241FE07F
:1054C0008721FF20FFF716F91F20FFF7EEF800F005
:1054D000800080B12020FFF7E8F800F0800018B1CC
:1054E0000BA000F0F1FF02E00FA000F0EDFF15A00F
:1054F00000F0EAFF06E00CA000F0E6FF601CC4B27A
:105500000A2CDDDB00BF16A000F0DEFF10BD00009E
:105510004C543932313120747820706C6C206C6FAF
:10552000636B0D0A000000004C5439323131207495
:105530007820706C6C20756E6C6F636B65640D0AFF
:10554000000000004C543932313120747820706CE6
:105550006C2063616C20646F6E650D0A00000000B2
:105560002073797374656D20737563636573730D50
:105570000A00000010B540F2066002F039FE4FF458
:10558000004302221021044801F09EFA4FF400412A
:10559000014801F049FA10BD0018014010B54FF460
:1055A0000041024801F040FA10BD0000001801401F
:1055B00010B54FF40041024801F038FA10BD000068
:1055C0000018014010B540F2046002F011FE4FF4E3
:1055D000E06302224821024801F076FA10BD000083
:1055E0000010014070B50446642C01DD642402E023
:1055F000002C00DA00240D490C7000BF0CA000F054
:10560000E7FB0A4801780EA000F0E2FB00BFC4F1FE
:105610006400134909884843642190FBF1F52A4648
:105620000221104803F023F870BD00004A0000205A
:105630003C3C4D595F44454255473E3E20000000EA
:105640004C63645F70776D5F6F757420675F6C6328
:10565000645F70776D203D2025640D0A0000000016
:1056600048000020002C014010B51021014801F035
:10567000DDF910BD000C014010B51021014801F00A
:10568000D3F910BD000C014010B540F2036002F0E8
:10569000AFFD102302221946034801F015FA10212C
:1056A000014801F0C1F910BD000C014000BFFEE748
:1056B00010B540F2056002F09BFD4023022210214C
:1056C000034801F001FA4021014801F0ADF910BD95
:1056D000001401407047000010B540F2046002F071
:1056E00087FD0F2302221021054801F0EDF9042166
:1056F000034801F099F90B21014801F097F910BD19
:105700000010014010B50446002C08DD052C06DA17
:10571000601E012202FA00F1014801F087F910BD74
:105720000010014010B50446012C04D1C102084804
:1057300001F020FA10BD022C04D12102044801F02E
:1057400019FAF7E78021024801F014FAF2E70000A5
:10575000000C014010B540F2046002F049FD202128
:10576000044801F061F9202302221021014801F0D0
:10577000ABF910BD0010014010B5044600BF07A0F2
:1057800000F026FB214609A000F022FB00BF14B167
:1057900000F03AF801E000F02FF810BD3C3C4D5904
:1057A0005F44454255473E3E200000005348544464
:1057B000425F35494E5F436F6E74726F6C5F536525
:1057C000744F757456616C20737461747573203DE9
:1057D0002025640D0A00000010B52021054801F0C5
:1057E000D5F904460CB9012100E000210846FFF775
:1057F000C3FF10BD0010014010B52021014801F089
:1058000013F910BD0010014010B52021014801F02E
:105810000DF910BD0010014010B540F2046002F017
:10582000E7FC4FF40061054801F0FEF84FF4006317
:1058300002221021014801F047F910BD001001407B
:1058400010B5044600BF07A000F0C2FA214609A027
:1058500000F0BEFA00BF14B100F038F801E000F02B
:105860002BF810BD3C3C4D595F44454255473E3EE8
:105870002000000053504B454E5F436F6E74726FB3
:105880006C5F5365744F757456616C2073746174EA
:105890007573203D2025640D0A00000010B54FF4FB
:1058A0000061044801F072F904462046FFF7C8FF82
:1058B00010BD00000010014010B54FF40061024817
:1058C00001F0B4F810BD00000010014010B54FF415
:1058D0000061024801F0A8F810BD0000001001406E
:1058E00010B50446012C06D1C302022248210A4801
:1058F00001F0EAF80EE0022C06D123020222482130
:10590000054801F0E1F805E0802302224821024821
:1059100001F0DAF810BD0000000C014010B504469B
:10592000012C06D1C302022210210A4801F0CCF852
:105930000EE0022C06D1230202221021054801F0BC
:10594000C3F805E0802302221021024801F0BCF8D0
:1059500010BD0000000C014010B500BF502080F3C6
:105960001188BFF34F8FBFF36F8F00BF04F074F93E
:1059700018B14FF080500449086000BF002080F348
:10598000118800BF10BD000004ED00E010B5144800
:10599000006840F00100124908600846406811495B
:1059A00008400F494860084600680F4908400C4904
:1059B00008600846006820F48020086008464068B7
:1059C0000A490840064948600846006806490840F8
:1059D000034908604FF41F00886002F009FD10BD04
:1059E000001002400C00FFE8FFFFF6FEFFFF00F78B
:1059F0007FB505460C464FF4E06002F0F9FB6846BF
:105A000002F018FF0295ADF8004069464FF0804063
:105A100002F080FE4FF0804002F071FE0121880705
:105A200002F0ECFE002207211C2001F0DDFD012127
:105A3000880702F0DFFE7FBD38B50025002000900A
:105A40000121880702F0DEFE002855D001218807D9
:105A500002F0D4FE2948007800F001008DF8000023
:105A60002648007800F002008DF8010023480078F5
:105A700000F004008DF802002048007800F00800D3
:105A80008DF80300002414E01D48005D04280CDAA2
:105A90001B48005D1B49085C48B91948005D1DF8AA
:105AA0000010204601F02AFA01E0681CC5B2601C13
:105AB000C4B2272CE8DB002416E01248005D401C2D
:105AC000104908550846005D0F49095D884209DB09
:105AD00000200C4908550120A04008490978484099
:105AE00006490870601CC4B2042CE6DB272D03D1E4
:105AF0004FF0804002F003FE38BD0000700000202F
:105B00007C0100206C000020C49E000870B5044693
:105B100000250221094800F025FC084800F08AFC15
:105B20000546052322460021044800F02DFC0121F2
:105B3000024800F083FC284670BD000000240140AC
:105B40002DE9F04107460C460025002608E03846BE
:105B5000FFF7DCFF0544052003F046F9701CC6B2D0
:105B6000A642F4DBB5FBF4F080B2BDE8F081FFF7AC
:105B70008BFD00BF0BE0FFF77FFD4FF4FA7003F0E1
:105B800033F9FFF771FD4FF4FA7003F02DF9F2E7E6
:105B900010B50D490D4802F08AFF30B10A490B4893
:105BA00002F078FF00F038F90DE00949074802F0EB
:105BB0007EFF30B10649054802F06CFF00F0E0FCC2
:105BC00001E000F0C9FA10BD0503050000380140EE
:105BD0000703070010B51D491D4802F068FF88B192
:105BE0001A491B4802F056FFFDF738FF19480078A4
:105BF00050BB4FF44171164802F03FFF0120154998
:105C0000087021E01449124802F051FF30B11249E6
:105C10000F4802F03FFFFDF735FF15E00F490C4834
:105C200002F045FF80B1FDF70FFF0C49084802F074
:105C300031FF0848007838B14FF44171044802F050
:105C40000FFF00200349087010BD00000503050088
:105C5000004400402800002007030700040304005C
:105C60007CB504460D460E4903C9CDE90001012C5F
:105C700000DD7CBD0120A0400A490978084060B1E0
:105C800000BF5DF82400072102F0CBFE0028F8D009
:105C90005DF82400294602F072FE00BFE9E700002B
:105CA000AC9E0008050000202DE9F04107460D4696
:105CB0001646002405E0295D3846FFF7D1FF601C39
:105CC000C4B2B442F7DBBDE8F081F0B504460D463E
:105CD0004FF0FF370CB93846F0BD681E265CC1B2E4
:105CE0002046FDF7A3FEB04200D100273846F3E777
:105CF00000BFFEE710B540F2046002F079FA4021DF
:105D0000044800F091FE402302221021014800F0D7
:105D1000DBFE10BD0010014010B5044600BF09A015
:105D200000F056F821460BA000F052F800BF24B155
:105D30004021144800F07AFE03E04021114800F0B1
:105D400073FE10BD3C3C4D595F44454255473E3EB5
:105D5000200000005631325F43544C5F436F6E7435
:105D6000726F6C284D4F525345295F4F75744869C7
:105D7000676820737461747573203D2025640D0A73
:105D8000000000000010014010B54021054800F05F
:105D9000FDFE04460CB9012100E000210846FFF792
:105DA000BBFF10BD0010014031B50A240A230122B7
:105DB00069460548006803F0DBFB40F20731034801
:105DC00002F05BFE009838BD1C000020004400403B
:105DD0000FB4054B10B503A9044A029800F056F819
:105DE00010BC5DF814FB000091670008E80000207B
:105DF0000FB4084B10B504A902AA039800F046F8A6
:105E0000044602A9002000F0A1F9204610BC5DF86C
:105E100014FB00004D6100081CB5084802F0AAFD03
:105E2000C0B20190002000906B46012201A90448F5
:105E3000006803F027FC9DF804001CBD00380140F9
:105E40000C00002031B50A240A23012269460548C6
:105E5000006803F08DFB40F20731034802F00DFEAD
:105E6000009838BD080000200038014002E008C852
:105E7000121F08C1002AFAD170477047002001E0C4
:105E800001C1121F002AFBD1704700002DE9FF4F0E
:105E90008DB09B460F460446002606E025280BD011
:105EA0005A460F999047641C761C20780028F5D13B
:105EB00011B03046BDE8F08F0025A8460122984970
:105EC00000E0054314F8013F203B02FA03F00842CA
:105ED000F7D120782E2817D114F8010F45F00405CA
:105EE0002A280ED06FF02F022078A0F13001092966
:105EF0000AD808EB880102EB410100EB0108641CA1
:105F0000F2E757F8048B641C20786C280DD004DC71
:105F10004C2812D06A2811D104E074280DD07A28B8
:105F20000CD10AE045F4001507E0617845F48015CE
:105F3000814202D1641C05F58015641C2278692A0F
:105F400045D008DC002AB3D0582A69D0632A10D083
:105F5000642A08D13BE0702A67D0732A13D0752ACF
:105F60005CD0782A5CD010465A460F999047761C30
:105F7000D3E017F8040B8DF8000000208DF8010025
:105F8000E946012003E057F8049B4FF0FF30690712
:105F90004FF0000501D40AE06D1C45450DDA85423D
:105FA000FADB19F805100029F6D106E06D1C8542D0
:105FB000FCDB19F805100029F8D12E4404E019F88B
:105FC000010B5A460F9990476D1EF8D2A5E00A20A2
:105FD0000021CDE90801C5F3025002280DD001CF00
:105FE000C117031E71F100030DDA4FF0000CD0EB66
:105FF0000C006CEB01012D2308E0FF1D27F00707C3
:10600000F7E80201EDE72B0504D52B238DF82830A6
:1060100001233BE0EB0739D02023F7E70A2000E01B
:1060200010200021CDE9080107E01020002145F0F3
:106030000405CDE908014FF00808C5F30250022815
:106040000FD001CF00214FF0000A2B071FD5702A77
:106050000DD0DDE908C38CF0100C5CEA030C0CD009
:1060600015E0FF1D27F00707F7E80201EBE74022E4
:106070008DF828204FF0010A0BE050EA010306D00A
:1060800030238DF828308DF8292002239A46582A8B
:1060900004D024A20DF120090B9209E026A2F9E711
:1060A000DDE90823FDF799FA0B9B9B5C09F8013D9C
:1060B00050EA0102F4D1ADEB0900203008906807E6
:1060C00001D44FF001080899884502DDA8EB0100D2
:1060D00000E000208046002506E00AA85A46405D00
:1060E0000F9990476D1C761C5545F6DB04E0302077
:1060F0005A460F999047761CB8F10001A8F10108A3
:10610000F5DC05E019F8010B5A460F999047761C0B
:106110000899481E08900029F4DC641CC5E60000BC
:10612000092801003031323334353637383961626D
:106130006364656600000000303132333435363731
:106140003839414243444546000000000A68531C68
:106150000B6010707047000010B54FF442711A4880
:1061600002F0A5FC40B119A000F0AEF94FF4427165
:10617000154802F08FFC25E01C49134802F097FCFB
:1061800038B11BA000F0A0F918490F4802F082FCBA
:1061900018E01E490C4802F08AFC38B11CA000F03F
:1061A00093F91A49084802F075FC0BE020490648AB
:1061B00002F07DFC30B11FA000F086F91C490248B6
:1061C00002F068FC10BD0000003801402A2A2A2095
:1061D000555341525420706172697479206572720E
:1061E0006F7221202A2A2A0A0000000000050100FF
:1061F0002A2A2A205553415254206672616D652027
:106200006572726F7221202A2A2A0A000005030093
:106210002A2A2A205553415254206F76657272758E
:106220006E206572726F7221202A2A2A0A000000ED
:10623000000502002A2A2A205553415254206E6F2D
:10624000697365206572726F7221202A2A2A0A00FA
:10625000816841F00801816000BF816801F0080198
:106260000029FAD1816841F00401816000BF816892
:1062700001F004010029FAD1704730B5012902D09C
:1062800002291AD10CE0C36A23F47003C362C36A03
:10629000541E4FF4700505EA04542343C3620DE015
:1062A000836B23F440138363836B541E4FF44015B8
:1062B00005EA04542343836300E000BF00BF30BD00
:1062C00021B1826842F40062826003E0826822F4B5
:1062D00000628260704730B5436823F4C053436066
:1062E000012904D0022913D0042916D116E04368ED
:1062F00023F4604343604368541E4FF4604505EA4D
:10630000443423434360436843F40063436006E03E
:10631000436843F48053436001E000BF00BF00BF07
:1063200030BD816801F0010119B9816841F00101B6
:1063300081607047012902D0022910D107E08368EB
:1063400023F46023836083681343836008E08368D9
:1063500023F4E043836083681343836000E000BF5D
:1063600000BF704702688A430260704705490968A8
:1063700021F47021034A116011460968014311603C
:106380007047000004240140F0B51D4606290CDAD0
:10639000436B01EB81071F26BE40B34301EB81062F
:1063A00002FA06F63343436322E00C290EDA036B4C
:1063B0008E1F06EB86071F26BE40B3438E1F06EBDB
:1063C000860602FA06F63343036311E010290FDA5A
:1063D000C36AA1F10C0606EB86071F26BE40B34335
:1063E000A1F10C0606EB860602FA06F63343C362F9
:1063F0000A2A0CDA046902EB42070726BE40B443BE
:1064000002EB420605FA06F63443046111E0122A53
:106410000FDAC468A2F10A0606EB46070726BE405B
:10642000B443A2F10A0606EB460605FA06F6344323
:10643000C460F0BD0146C86C80B2704701F0010233
:106440001AB1826842F48002826001F002021AB13D
:10645000826842F4001282607047AAB101F480732E
:106460001BB1436843F48073436001F480631BB144
:10647000436843F48063436001F00203CBB1836857
:1064800043F00203836014E001F480731BB143689E
:1064900023F48073436001F480631BB1436823F4E9
:1064A0008063436001F002031BB1836823F00203A1
:1064B000836070470348006840F4000001490860A9
:1064C000704700000824014010B5044604B910BD0F
:1064D00003E014F8010BFFF7B5FC20780028F8D191
:1064E00000BFF4E77FB505460E46002000900190FE
:1064F000029003908DF80F000A2E13D10E240CE0A9
:106500000A20B5FBF0F100FB115030300DF804000B
:106510000A20B5FBF0F5601EC4B2102C23DA002D62
:10652000EED120E00E2417E005F00F000DF8040076
:106530001DF804000A2806DA1DF804003030C0B245
:106540000DF8040005E01DF804005730C0B20DF846
:1065500004002D09601EC4B2102C01DA002DE3D115
:1065600005A0FFF7B1FF0DEB0401481CFFF7ACFFDE
:1065700002A0FFF7A9FF7FBD2030780020000000B7
:106580001CB5002000901048006802F0F9FE044697
:106590002CB940F207310D4802F062FA1CBD6B467F
:1065A000012201A90848006802F097FF28B19DF870
:1065B00004100020FFF754FB04E040F207310348C9
:1065C00002F04EFA00BFE9E7080000200038014061
:1065D0002DE9F04707463E460EB900BFFEE71B48CF
:1065E0000068864201D100242DE002F047FB756966
:1065F0001748D0F800801748D0F8009002F060FBF0
:10660000454501D04D4501D102241CE01248854288
:1066100012D1B06A70B90324002007E006F15401DA
:10662000095C012901D1022402E0401C0128F5DBAC
:1066300000BF08E0022406E00848854200D00DB9FA
:10664000042400E001242046BDE8F0877800002003
:106650007C0000208000002058030020440300201C
:106660000EB50020029002A8002102230A46CDE9BF
:1066700000100448006803F065F94FF4805000F002
:106680005FF80EBD1400002010B52C4B1B6883432F
:106690002A4C2360231D1B688343241D2360231D74
:1066A0001B688343241D2360231D1B688343241D13
:1066B000236011B101290ED105E0204B1B68034373
:1066C0001E4C236008E01D4B1B1D1B6803431B4C25
:1066D000241D236000E000BF00BF22B1012A0FD0BB
:1066E000022A27D119E0154B08331B680343134CCA
:1066F00008342360231D1B688343241D23601AE094
:106700000E4B08331B6883430C4C08342360231D55
:106710001B680343241D23600DE0084B08331B68EE
:106720000343064C08342360231D1B680343241DC8
:10673000236000E000BF00BF10BD00000004014066
:10674000024909688143014A116070470004014011
:10675000024909680143014A116070470004014081
:1067600001490860704700001404014001460748D1
:10677000006800EA010205481438006800EA0103D5
:1067800012B10BB1012070470020FCE71404014056
:1067900070B504460D462046FFF754FB204670BDF9
:1067A00030B502460B46164C002145F25550154DAA
:1067B000286000BF1348C06800F00101601E041E7D
:1067C00001D00029F6D109B1002030BD0D48436049
:1067D0000B4C00BF0B48C06800F00201601E041E95
:1067E00001D00029F6D109B10020EEE7C2F30B0079
:1067F000044DA8604AF6AA2028600120E5E70000C1
:10680000FFFF0F00003000404CF6CC40014908600B
:10681000704700000030004045F2555001490860C3
:10682000704700000030004072B6704770B50446F3
:106830000D46324E012C00D1314E0120A04031498D
:106840000978084000B170BD2F4931F8140001F0FB
:10685000CFFC2E4931F8140001F0CAFC2C4951F844
:1068600024302C4951F824000222182100F02CF980
:10687000294951F82430274951F8240002220421E3
:1068800000F022F9304602F07FF82946304602F047
:1068900029F80021304602F046F90021304602F086
:1068A00032F90021304602F01EF90021304602F094
:1068B000CFF80021304602F0C3F80421304602F040
:1068C0001AF90821304602F026F9304602F0A4F801
:1068D00040F20531304602F0D0F8104A115D104AFE
:1068E00012F82400002200F07FFE0120A04005499C
:1068F000097808430349087000BFA4E70038014045
:1069000000440040050000209C9E0008809E000876
:10691000849E0008949E00088C9E0008A89E000893
:10692000A09E000810B5034800F02CF9C0F3022423
:10693000204610BD0010014001480078704700005B
:106940005000002010B500BF06A0FFF741FA09482B
:10695000B0F9001008A0FFF73BFA00BF0548B0F9F6
:10696000000010BD3C3C4D595F44454255473E3EFA
:10697000200000004C0000206765745F696E74653C
:10698000726E616C5F74656D702020675F696E74F4
:106990005F74656D70203D2025640D0A00000000C5
:1069A00070B50446282C01DDFF2070BD601EC4B206
:1069B0000548224660C828463146FCF70BFC0121F9
:1069C0000840C0B2F1E700006000002070B5044646
:1069D000206809490840B0F1005F09D1FFF724FFA2
:1069E00066683546206880F3088800BFA84702E043
:1069F00002A0FFF7EDF970BD0000FE2F4552524F87
:106A0000523A676F746F5F6F74615F70726F677215
:106A1000616D2C6861736E2774206F7461207072D1
:106A20006F6772616D210A004161704701617047B3
:106A300010B500228B071C0F0F2303FA04F2042960
:106A40000EDA204B9B6893431E4CA36023469B6841
:106A50008C07240F00FA04F423431A4CA3602FE0A0
:106A600008290EDA174BDB689343164CE360234684
:106A7000DB688C07240F00FA04F42343114CE36015
:106A80001EE00C290EDA0F4B1B6993430D4C23615A
:106A900023461B698C07240F00FA04F42343094C96
:106AA00023610DE0074B5B699343064C636123460A
:106AB0005B698C07240F00FA04F42343014C6361E3
:106AC00010BD000000000140F0B504461646002548
:106AD000002201F00F0501F0100707B13543002037
:106AE0001EE0012787401F40C7B122684FEA800C93
:106AF0000F2707FA0CF7BA43870005FA07F73A435E
:106B0000282904D1012787401F40676105E04829F3
:106B100003D1012787401F4027612260471CB8B27C
:106B20000828DED3082022E0012787401F40E7B174
:106B30006268A0F108074FEA870C0F2707FA0CF7E5
:106B4000BA43A0F10807BF0005FA07F73A4328291E
:106B500004D1012787401F40676105E0482903D120
:106B6000012787401F4027616260471CB8B2102888
:106B7000DAD3F0BD02469068084008B101207047A2
:106B80000020FCE70146886880B270470246D06862
:106B9000084008B1012070470020FCE70146C868A2
:106BA00080B27047F0B50A4600230024002100257A
:106BB00000F00046B6F1004F02D11D4EF16901E030
:106BC0001B4E7168C0F3034583B200F44016B6F55E
:106BD000401F08D121F07061154E766826F070666E
:106BE000134F7E6012E000F48016B6F5801F06D1C8
:106BF000032606FA05F4A14341F0706106E0460D54
:106C0000360103FA06F6B14341F0706122B1460D38
:106C1000360103FA06F6314300F00046B6F1004FA4
:106C200002D1034EF16101E0014E7160F0BD000040
:106C300000000140C160704710B50020064908708F
:106C400006A0FFF741FC0AA002F0BEFF18B10A48F7
:106C5000006802F0EDF810BD500000206861726419
:106C60005F7774645F64697361626C650D0A00002C
:106C70006877746400000000540000201CB50120F7
:106C800009490870094800880949088009A0FFF7E8
:106C90001BFC0D48022100234022CDE900100BA16E
:106CA0000C4802F083FD1CBD50000020580000205D
:106CB0005A000020686172645F7774645F656E617A
:106CC000626C650D0A00000054000020687774644F
:106CD00000000000056D000810B504480088044954
:106CE000088004A0FFF7F0FB10BD00005800002052
:106CF0005A000020686172645F7774645F6665653E
:106D0000640D0A0015E00B48007878B10A48008845
:106D100060B109480088401E07490880084600887D
:106D200020B906A0FFF7D0FB00F052F8642002F073
:106D30005BF8E8E7500000205A00002068617264A8
:106D40005F7774645F666565645F7461736B2074FC
:106D5000696D656F75740D0A0000000001480088B8
:106D6000C0B270475800002010B540F2026001F038
:106D70003FFA80211548FFF757FE40211348FFF7DF
:106D800055FEE023022210211048FFF79DFE10233C
:106D9000022248210D48FFF797FE4FF4C06001F032
:106DA00027FA04210020FFF743FE012200211020D2
:106DB000FFF76AFC1020FFF7CBFC1020FFF7D0FC98
:106DC000022201210A2000F00FFC10BD0008014042
:106DD00010B504210848FFF727FE40210748FFF7B8
:106DE00023FEC82002F000F840210448FFF71EFEF1
:106DF000FFF722FF10BD0000001001400008014015
:106E0000024908800988024A118070475800002012
:106E10005A000020044604210948FFF705FEFFF749
:106E2000FBFC24B90121FF20FFF7BAFC04E0042198
:106E300040F6FF70FFF7B4FCFFF7E6FC00BFFEE78B
:106E40000010014010B50B480078642803DBFF20D8
:106E50000949087005E00748007810B90120064983
:106E600008700549097801EB8101490048B2FDF736
:106E70002BFF10BD740000207500002010B50446E3
:106E80002146282000F014F810BD000010B504467B
:106E90002CB14FF480710548FFF7C8FD04E04FF4B2
:106EA00080710248FFF7C0FD10BD000000180140CE
:106EB00070B504460E46012C01DB282C00DD70BDA8
:106EC000601EC4B2272C0DD14FF0804001F017FC9A
:106ED000002504E0052008494855681CC5B2282D46
:106EE000F8DB02E00520044908553146204600F051
:106EF00005F800BFE3E700007C01002070B5044600
:106F00000D46282C04DA611CC8B200F08DF800E0B0
:106F100070BDB5B14FF480411A48FFF787FD272CAB
:106F200005D14FF0FF30184A106050601FE001207B
:106F3000A040C117144B0CCB10431943124A03C293
:106F400015E04FF480410F48FFF76EFD272C04D168
:106F500000210D4A1160516009E00120A040C043AA
:106F6000C117094B0CCB10401940074A03C201203E
:106F7000FFF78CFF1E20FDF76FF90020FFF786FF5B
:106F800000BFC5E7001401406000002070B540F26A
:106F9000056001F02DF94FF49043022210211E48A4
:106FA000FFF792FD4FF490411B48FFF73DFD40F283
:106FB000066001F01DF97C252B460222102117489E
:106FC000FFF782FD29461548FFF72EFD4FF480712B
:106FD0001248FFF729FD4FF48073022210210F4859
:106FE000FFF772FD6420FDF78FFE0D48006842F246
:106FF0001071B0FBF1F0401E86B2314640F2E7302E
:10700000FEF7F6FC002404E0052006490855601C44
:10701000C4B2282CF8DB70BD0014014000180140F8
:10702000E40000207C01002070B504460E48FFF704
:10703000B5FD054625F07C0504F03E0045EA400517
:1070400029460948FFF7F6FD04F0010028B14FF486
:1070500000610648FFF7EAFC04E04FF400610348D2
:10706000FFF7E2FC70BD0000001801400014014071
:1070700030B587B0044640F2036001F0B9F84FF430
:107080000043022218212B48FFF71EFD40F20B603F
:1070900001F0AEF8642C00DD64242748047003A8D6
:1070A00001F0C8FB25480088401E05902448006870
:1070B0002449B0FBF1F0401E80B2ADF80C0003A9EA
:1070C000214801F027FB684601F011FB0420ADF8D0
:1070D00002006A4602211C4801F0A6F97022022132
:1070E000194801F097FAC4F164001449098848432B
:1070F000642190FBF1F52A460221134801F0B7FA0A
:1071000000220221104801F0C5FA01210E4801F0C9
:1071100085FB0D4801F083F94FF4804302221021D2
:107120000448FFF7D1FC4FF480410248FFF77CFC94
:1071300007B030BD000C01404A000020480000208C
:10714000E400002040420F00002C014010B54FF435
:1071500080710648FFF768FC642001F045FE4FF49B
:1071600080710248FFF762FC10BD0000001401406E
:1071700010B540F2056001F03BF84FF48073022235
:1071800010210448FFF7A0FC4FF480710148FFF77D
:107190004DFC10BD0014014070B50446A61104F06A
:1071A0003F00401EC4B2282C10DA4FF0804001F09E
:1071B000ABFA272C08D1002503E005484655681C8A
:1071C000C5B2282DF9DB01E00148065570BD00006D
:1071D0007C01002010B58221FF20FDF78BFA3821B9
:1071E0003B20FDF787FA10BD10B58121FF20FDF788
:1071F00081FAFB210D20FDF77DFA0A2001F0F4FD54
:10720000FF210D20FDF776FA10BD00001CB54FF4EC
:1072100040514FF0006000F047FAFCF7EBFB25A06F
:10722000FFF752F929480068FFF74EF926A0FFF74B
:107230004BF90020022103462022CDE9001024A1B1
:10724000264802F0B3FA0020022103467022CDE95D
:10725000001023A1244802F0A9FA002004210346CB
:107260005022CDE9001021A1224802F09FFA2248C5
:10727000042100238022CDE9001020A1214802F042
:1072800095FA2148032100234022CDE900101FA1D7
:10729000204802F08BFA0020022103464022CDE96B
:1072A00000101DA11E4802F081FA01F07BFF00BF13
:1072B000FEE700006672656572746F73202C2069AA
:1072C0006E6974206F6B21210D0A00000000002000
:1072D0005461736B4C656431000000006F5B000803
:1072E0006465627567720000114100086C74393280
:1072F000313100009551000824000020546F437084
:107300007500000069410008140000206B65795F7A
:10731000626F6400F983000874656D7000000000FE
:10732000AD4C000808B51EA000680090022000F0D7
:1073300014F96A460021022000F02CF900231A46B5
:107340001946022000F037F940F2036000F050FFC8
:107350004FF4C06000F04CFF4FF4805302224821EC
:107360001048FFF7B1FB0C210120FFF761FB012260
:1073700000211003FFF788F94FF48050FFF7E8F978
:107380004FF48050FFF7ECF900220721282000F08D
:107390002BF900F00BF890210348FBF744FF08BDE0
:1073A00000FF0000000C0140EC00002008B56B4617
:1073B00001220021022000F0D6F860B99DF80000FB
:1073C00000F03F003F2804D09DF8000000F03F008F
:1073D00008BD3F20FCE702A0FEF7FAFCFF20F7E71C
:1073E0004552524F523A204B45595F524F575F53C7
:1073F00043414E206E6361393535355F7265616496
:107400005F696E706F72740D0A0000002DE9F04123
:107410000027FFF7CBFF07463F2F55DA002550E046
:107420003C48435D00221146022000F0C4F820B120
:10743000294639A0FEF7CCFC41E0FFF7B7FF07462D
:10744000002639E0062000FB0560C4B247FA06F0CA
:1074500000F00100E8B93D4830F81400022829DAAC
:107460003A4830F81400401C81B2384820F8141013
:1074700030F8140002281DD101203449483908553C
:10748000611CC8B2012100F0E3FE01203049087000
:1074900010E02E484838005D60B100202B49483983
:1074A0000855611CC8B2002100F0D2FE0021274817
:1074B00020F81410701CC6B2062EC3DB00BF681C77
:1074C000C5B2062DACDB1CE021480078C8B1002411
:1074D00012E01E484838005D60B100201B49483961
:1074E0000855611CC8B2002100F0B2FE0021174807
:1074F00020F81410601CC4B2242CEADB00201449CC
:10750000087000231A461946022000F054F80020A3
:10751000BDE8F081B49E00084552524F523A204BCC
:1075200045595F524F575F5343414E206E63613957
:107530003535355F77726974655F6F7574706F721A
:107540007420693D25640D0A00000000340100200C
:10755000180000200020FFF75DFC10B5044620460F
:10756000FDF71CFA10BDF8B506460D4614461F4639
:1075700005F00E0545F040050CB1012000E00020AB
:1075800004460120E2B23B46294600903046FDF712
:1075900067FAF8BDF8B506460C46154604F00E0429
:1075A00044F0400402202B4606222146009030463B
:1075B000FDF784FAF8BD7FB582B006460C46154645
:1075C00004F00E0444F040040DB1012000E000205E
:1075D000054601200090A81CC2B205AB21463046EA
:1075E000FDF76CFA06B070BD2DE9F04103460D467B
:1075F000164600240027A0462448006800F4E060F6
:10760000B0F5A06F15D006DCB0F5407F18D0B0F50E
:10761000806F19D110E0B0F5C06F06D0B0F5E06F03
:1076200012D100274FF0040815E001274FF003089E
:1076300011E00227B8460EE003274FF001080AE0E8
:1076400004274FF0000806E04FF4A06000F022F895
:107650000227B84600BF00BFC7F1040005FA00F4D6
:10766000C8F104010F20C8403040044324010848F9
:10767000C45403F01F01012088405911890001F111
:10768000E021C1F80001BDE8F08100000CED00E050
:1076900000E400E002490143024A11607047000023
:1076A0000000FA050CED00E0024A0A400243024BDA
:1076B0001A60704780FFFF1F08ED00E02DE9F041E0
:1076C00005460E461C4807681C480068001D01F06E
:1076D00032FA50B91948006890F82C1001208840FF
:1076E00017490968814316480160681C38B936B1EA
:1076F00012480168091D134801F0B4FA1AE07C1918
:107700000E4800684460BC4207D20C480168091D5D
:107710000D48006801F08CFA0CE008480168091D6A
:107720000A48006801F084FA09480068844201D2DE
:1077300007480460BDE8F0818C000020780000203C
:107740009000002058030020800000207C000020D2
:10775000A800002010B5044601F090FA2448006803
:10776000401C234908602348006840B92148046050
:107770000846006801280DD100F04CF90AE01E48C7
:10778000006838B91B480068C06AE16A884201D8BD
:107790001848046019480068401C184908600846E9
:1077A0000068206494F82C1001208840144909686E
:1077B000084313490860E16A01EB8101114A02EBB9
:1077C0008100211D01F04EFA01F07AFA0A480068A2
:1077D00068B108480068C06AE16A884207D24FF081
:1077E000805009490860BFF34F8FBFF36F8F10BD02
:1077F000880000207800002094000020A4000020D1
:1078000090000020A402002004ED00E00146D1E930
:107810000132D0180A68801A8A68824201D88A68C0
:10782000801A704710B516E001F028FA0C48C068BD
:10783000C468201D01F07FF90A480068401E09490C
:10784000086009480068401E0749086001F038FADE
:10785000204600F00BF8044800680028E4D110BD71
:1078600044030020880000208400002010B5044656
:10787000206B01F03BFA204601F038FA10BD000001
:1078800030B54FF42053174800F007042CB1C01D49
:1078900020F00700134C041B1B1B0246124C2260F5
:1078A0000024114D6C60D018083820F007000F4CF0
:1078B000206000240D4D2D686C600C4D2D682C60EF
:1078C0001146441A4C60094C24680C60084D4C6801
:1078D0002C60084D4C682C604FF00044064D2C6025
:1078E00030BD00006C030020C4000020CC0000204C
:1078F000D4000020D0000020E000002000BFFFF7EF
:1079000091FF064800680128F9D94FF080500449DA
:107910000860BFF34F8FBFF36F8FF0E7A402002022
:1079200004ED00E02DE9F04704460D4616461F46DB
:10793000DDF820804FF05509324655212846FBF7E7
:1079400074FCA84201D1012000E0002008B900BF6A
:10795000FEE724212046FBF766FCA561A660E760F0
:1079600084F81C80BDE8F0872DE9F05F82460E4662
:1079700090469B460A9F0C9C4FEA8801A522206BEB
:10798000FBF74AFCA8F10100216B01EB800929F00B
:10799000070909F0070008B9012000E0002008B934
:1079A00000BFFEE786B1002507E0715D04F13400F9
:1079B0004155705D00B902E06D1C0A2DF5D300BF82
:1079C00000213D20015502E0002084F83400052FFD
:1079D00000D30427E762A7640020E064201D01F0C3
:1079E00024F904F1180001F020F92461C7F1050021
:1079F000A06164620020206584F854005A46514614
:107A0000484600F0C5FA20600B9808B10B98046056
:107A1000BDE8F09F10B5002407E004EB84010F4A95
:107A200002EB810001F0F4F8641C052CF5D30C483E
:107A300001F0EEF80B4801F0EBF80B4801F0E8F824
:107A40000A4801F0E5F80A4801F0E2F8044809495B
:107A5000086004480849086010BD0000A402002026
:107A6000080300201C0300203003002044030020F2
:107A7000580300207C0000208000002010B5014643
:107A8000164800E0006803688B42FBD30246436857
:107A900013448B4204D143684C682344436001463D
:107AA0000A464B6813440468A34211D10C4C036886
:107AB0002468A34208D04B680468646823444B6080
:107AC00003681B680B6005E0054B1B680B6001E059
:107AD00003680B60884200D0016010BDC400002024
:107AE000CC0000202DE9F04707460C4690460026C2
:107AF000206848B3204641684968416000F10801A8
:107B000042688A4202D14168496841604168D1F8BF
:107B10000C9000BF204641684968416000F10801AF
:107B200042688A4202D14168496841604168CD6833
:107B300006EBC60007EB800143460122284601F010
:107B400061FA761C4D45E5D13046BDE8F0872DE958
:107B5000F0470446894690469A46C24501D25046AF
:107B600000E040460646002E38D02568A068401B3D
:107B7000B04202D2A068401B00E0304607464745AD
:107B800001D8012000E0002008B900BFFEE7E81995
:107B9000A168884201D8012000E0002008B900BF98
:107BA000FEE7A06941193A464846FBF723FBBE426F
:107BB0000DD9464501D8012000E0002008B900BFDA
:107BC000FEE7F21B09EB0700A169FBF713FB354445
:107BD000A068A84201D8A0682D1A25603046BDE8EB
:107BE000F0872DE9F84F05468A46164698460A9FC3
:107BF00087B1D5F8009043463A4669462846FFF7D4
:107C0000A6FF009CA8EB0708B44204D9C5F8009071
:107C1000002400E034464346224651462846FFF7FA
:107C200096FF83465846BDE8F88F00000948006873
:107C3000006808B9012000E0002020B14FF0FF30BB
:107C40000549086005E003480068C068006802490B
:107C5000086070477C000020A80000202DE9F04358
:107C600002460D460027106800284CD01046D0F878
:107C70000480D8F80480C0F8048000F10808D0F827
:107C80000490C14505D1D0F80480D8F80480C0F82C
:107C90000480D0F80480D8F80C6000BF1046D0F8FB
:107CA0000480D8F80480C0F8048000F10808D0F8F7
:107CB0000490C14505D1D0F80480D8F80480C0F8FC
:107CC0000480D0F80480D8F80C104FF0000C00238A
:107CD00011E001F13400C45CE85CA04202D04FF036
:107CE000010C03E014B90F464FF0010CBCF1000F7A
:107CF00000D002E05B1C0A2BEBD300BF07B101E010
:107D0000B142CBD100BF3846BDE8F0830246002126
:107D100001E0521C491C1078A528FAD0890888B2C5
:107D2000704700000A480068401C08B9012000E0C4
:107D3000002008B900BFFEE700BF502080F3118883
:107D4000BFF34F8FBFF36F8F00BF00BFFEE7000090
:107D5000B80000202DE9F0410446884616460EB1D1
:107D6000012000E0002008B900BFFEE76568A068B8
:107D7000401BB04202D2A068401B00E030460746DC
:107D8000E819A168884201D8012000E0002008B964
:107D900000BFFEE7A16948193A464146FBF72AFAB7
:107DA000BE420FD9F01BA168884201D8012000E033
:107DB000002008B900BFFEE7F21B08EB0701A0692D
:107DC000FBF718FA3544A068A84201D8A0682D1A1C
:107DD00065603046BDE8F0812DE9FF4707468846DB
:107DE0001D46DDF830900DB9002416E0387F00F014
:107DF000010040B901240298A84201D2029800E093
:107E00002846029009E04D4506D30124042202A928
:107E10003846FFF79FFF00E0002434B14146384662
:107E2000029AFFF797FF064600E00026304604B0AE
:107E3000BDE8F08770B505460E4631462846FBF78B
:107E400004FA2846FBF7FAF9044602E020202855F8
:107E5000641C092CFAD300202855281970BD000095
:107E60002DE9F04104464FF0000801F0DBF94248EB
:107E7000006808B9FFF704FD40480068204000286A
:107E80006CD1F4B104F10800A0421AD9083404F00E
:107E90000700B8B104F00700C0F108002044A04278
:107EA0000DD904F00700C0F10800044404F00700F5
:107EB00008B9012000E0002020B900BFFEE700243F
:107EC00000E00024002C49D02D480068844245D8A9
:107ED0002C4E3046056801E02E462D686868A042A9
:107EE00002D228680028F7D123480068854235D09F
:107EF000306800F10808286830606868001B1028A6
:107F000010D92F1907F0070008B9012000E0002060
:107F100008B900BFFEE76868001B78606C603846EF
:107F2000FFF7ACFD164968680968081A144908602B
:107F30000846006814490968884203D2104800685E
:107F4000114908600D4968680968084368600020A5
:107F500028600E480068401C0C49086001F016FFBC
:107F600008F0070008B9012000E0002008B900BFB0
:107F7000FEE74046BDE8F081CC000020E000002094
:107F8000D0000020C4000020D4000020D800002031
:107F9000001F4FF080730360001F21F00103036096
:107FA000001F034B03601438026020387047000044
:107FB000257D000810B509A0FEF786FA15A0FEF78A
:107FC00083FA214801F06CF81F48FEF77DFA1FA0E4
:107FD000FEF77AFA1EA0FEF777FA10BD2D2D2D2D93
:107FE0002D2D2D2D2D2D2D2D2D2D2D2D2D2D2D2DC1
:107FF0002D2D7461736B20696E666F2D2D2D2D2DC7
:108000002D2D2D2D2D2D2D2D2D2D2D2D2D2D2D0DC0
:108010000A0000005461736B4E616D65202054614D
:10802000736B5374617465205072696F72697479EF
:1080300020204C656674537461636B202054617317
:108040006B4E756D200D0A00A40100200D0A000082
:108050002020423A20426C6F636B2020523A20521B
:10806000656164792020443A2044656C657465201C
:1080700020533A2053746F702020583A2052756E66
:10808000200D0A000F4A51680F4A1140082814D2E7
:10809000DFE800F004050607130A130B00BF00BF5A
:1080A00000BF41EA803109E000BF20F004004FF03A
:1080B000805242EA8032114300E000BF00BF014A13
:1080C0005160704700100240FF3FFFEF2DE9F04F75
:1080D0008BB00746002009903EA090E8004CC06895
:1080E000CDE905BECDF810A007900FF2EC0ADAE951
:1080F000000ACDE9020A0FF2E00ADAE9000ACDE946
:10810000000A38484068C0F381000A900A9820B1FC
:10811000012804D0022829D103E0334928E032495C
:1081200026E03048406800F48038B8F5803F09D137
:108130002D4C2C48406800F40039B9F5003F02D1BD
:10814000641000E0294C27484068C0F3834225486A
:10815000406800F0006008B142F010020F2A01D21E
:10816000921C00E0521C04FB02F101E01E4900BF1A
:1081700000BF1C484068C0F3031504A8465D21FAFF
:1081800006F318484068C0F3022502A8465D23FAAA
:1081900006FC14484068C0F3C2251DF8056023FAA8
:1081A00006F0089037B1012F06D0022F06D0032F1A
:1081B0000AD106E0099108E0099306E0CDF824C051
:1081C00003E00898099000E000BF00BF09980BB0D9
:1081D000BDE8F08F00000000000000000102030471
:1081E000060708090010024000127A0000093D004D
:1081F000064A02EB9011096800F01F0301229A4021
:108200001143024B03EB90121160704700100240C3
:10821000064A02EB9011096800F01F0301229A4000
:108220009143024B03EB9012116070470010024023
:10823000064A02EB9011096800F01F0301229A40E0
:108240001143024B03EB9012116070470010024083
:108250007CB505460C461148007800F0020018B9BC
:108260000FA0FEF731F97CBDA5208DF800008DF838
:1082700001508DF802409DF800009DF8011008445F
:108280009DF802100844C0B28DF80300042269462C
:108290000120FDF709FD00BFE5E700000500002013
:1082A0006572726F723A20544F4350555F434F4D81
:1082B000206E6F7420696E69740A000070B5044600
:1082C000642C01DD642402E0002C00DA00240D4956
:1082D0000C7000BF0CA0FDF77BFD0A4801780EA0D2
:1082E000FDF776FD00BFC4F16400144909884843D6
:1082F000642190FBF1F52A460221114800F0B7F9FC
:1083000070BD0000740000203C3C4D595F44454264
:1083100055473E3E200000004B6C6564735F7077EC
:108320006D5F6F757420675F6B6C6564735F7077EA
:108330006D203D2025640D0A000000007200002021
:108340000004004000200021264A126842F0010289
:10835000244B1A6000BF401C224A126802F002013E
:1083600011B9B0F5A06FF6D11E4A126802F00202F0
:108370000AB900BFFEE71B4A52681A4B5A601A46F8
:1083800052685A601A46526842F480625A601A462D
:108390005268154B1A40134B5A601A465268134BD9
:1083A0001A43104B5A601A46126842F080721A60E3
:1083B00000BF0C4A126802F00072002AF9D0094A84
:1083C000526822F00302074B5A601A46526842F084
:1083D00002025A6000BF034A526802F00802002AF3
:1083E000F9D0704700100240FFFFC3F700002808D3
:1083F00010B5FFF7A7FF10BDFEF794FF0EE04FF09A
:10840000FF320021084600F021FAFEF7FFFF1E2090
:1084100000F0EAFC4FF48050FEF79AF9EFE70168AC
:1084200041F080010160704710B531B101293FD0A2
:1084300002297DD003297CD1BFE0036A23F0010328
:108440000362836923F003038361036A148823436F
:108450000362036A23F002030362036A94882343DE
:1084600003626A4B984202D0694B98421FD1036A5B
:1084700023F004030362036A548823430362036AFC
:1084800023F008030362036AD4882343036243682A
:1084900023F4807343604368148923434360436833
:1084A00023F4007343604368548923434360ABE083
:1084B000036A23F010030362836923F4407383612A
:1084C000036A148843EA04130362036A23F0200357
:1084D0000362036A948843EA041303624B4B984295
:1084E00002D04B4B984226D1036A23F0400303622B
:1084F000036A548843EA04130362036A23F0800387
:108500000362036AD48843EA04130362436823F4D2
:10851000806343604368148943EA8403436043688B
:1085200023F4006343604368548943EA840301E011
:1085300002E068E0436067E0036A23F4807303624B
:10854000C36923F00303C361036A148843EA042365
:108550000362036A23F400730362036A948843EAA4
:1085600004230362294B984202D0294B984223D11D
:10857000036A23F480630362036A548843EA042392
:108580000362036A23F400630362036AD48843EA44
:1085900004230362436823F48053436043681489CF
:1085A00043EA04134360436823F400534360436881
:1085B000548943EA0413436026E0036A23F480539A
:1085C0000362C36923F44073C361036A148843EAF6
:1085D00004330362036A23F400530362036A94883A
:1085E00043EA04330362094B984202D0084B984295
:1085F00008D1436823F4804343604368148943EA05
:108600008413436000E000BF00BF10BD002C014098
:108610000034014031B101290CD0022913D00329C3
:1086200022D118E0836923F07003836183691343C7
:1086300083611AE0836923F4E0438361836943EA39
:108640000223836111E0C36923F07003C361C3692E
:108650001343C36109E0C36923F4E043C361C36901
:1086600043EA0223C36100E000BF00BF704731B19D
:10867000012906D0022906D0032908D105E042636A
:1086800006E0826304E0C26302E0026400E000BF2F
:1086900000BF704731B101290CD0022913D0032942
:1086A00022D118E0836923F00803836183691343AF
:1086B00083611AE0836923F400638361836943EA79
:1086C0000223836111E0C36923F00803C361C36916
:1086D0001343C36109E0C36923F40063C361C36941
:1086E00043EA0223C36100E000BF00BF70470021DE
:1086F000018041808180C180018141817047016892
:1087000021F0010101607047016841F00101016041
:10871000704700000A888262294A904220D0B0F156
:10872000804F1DD0274A90421AD0274A904217D036
:10873000264A904214D0264A904211D0254A9042AF
:108740000ED0254A90420BD0244A904208D0244AA9
:10875000904205D0234A904202D0234A90420FD142
:10876000026822F07002026002688B7803F06003F6
:108770001A43026002680B7903F010031A43026087
:108780008A68C262194A90420CD0194A904209D0B4
:10879000026822F44072026002688B8903F440731D
:1087A0001A430260064A904202D0094A904201D11F
:1087B0008A7B0263426942F0010242617047000015
:1087C000002C01400004004000080040000C004064
:1087D00000340140004C0140005001400054014071
:1087E00000180040001C0040002000400010004025
:1087F00000140040C2680A43C260704702698A439D
:10880000026170470246D06800EA0103106908401F
:1088100010B10BB1012070470020FCE7012904D101
:10882000426C42F40042426403E0426C22F4004293
:108830004264704700210180418081804FF6FF71C2
:108840008160002181818173704700002DE9F04132
:1088500004460F4616460CB9012000E0002008B976
:1088600000BFFEE700F00AFA1C480068503050F8DC
:10887000240080B90121194800685430015556B1CF
:108880003046FEF71BFF4FF0805015490860BFF3DC
:108890004F8FBFF36F8F00F013FA00F0EFF90F481E
:1088A0000068503050F824506DB137B100210B48AA
:1088B0000068503040F8241005E0681E0749096838
:1088C000503141F82400002104480068543001551B
:1088D00000F0F6F92846BDE8F0810000780000209D
:1088E00004ED00E02DE9F04704460D460027B846A8
:1088F000B94600261D49601A8C421CD006DC1C4873
:10890000204470B1B0F5806F1FD10FE0B0F5806FDB
:1089100016D0B0F56C4F18D10320FFF7D7FB0746F0
:1089200014E00220FFF7D2FB07460FE00220FFF71A
:10893000CDFB07460AE00220FFF7C8FB074605E02B
:108940000220FFF7C3FB074600E000BF00BF07EBB4
:108950005500B0FBF5F64FF6F07006EA000806F099
:108960000F0948EA0900A060BDE8F087004C00400C
:1089700000BCFFBF01464868C0F308007047C1F360
:10898000080242607047000010B504462049601A92
:108990008C4228D006DC1F48204490B1B0F5806F8F
:1089A00033D117E0B0F5806F26D0B0F56C4F2CD1E5
:1089B00040F20E30FFF73CFC40F20E30FFF728FC8F
:1089C00024E040F21140FFF733FC40F21140FFF782
:1089D0001FFC1BE040F21240FFF72AFC40F212405D
:1089E000FFF716FC12E040F21340FFF721FC40F2C3
:1089F0001340FFF70DFC09E040F21440FFF718FCAC
:108A000040F21440FFF704FC00E000BF00BF10BDBF
:108A1000004C004000BCFFBFC16841F40051C16080
:108A2000704710B5024602EB9110006801F01F0478
:108A30000123A340184008B1012010BD0020FCE72D
:108A40000A460021416921F40071114341617047D8
:108A50000A460021416921F4807111434161704748
:108A600010B5C1F38912825801F01F040123A340FD
:108A70009A43C1F38913C25010BD10B5C1F38912D6
:108A8000825801F01F040123A3401A43C1F3891344
:108A9000C25010BD10B500EB91521268C1F30444EE
:108AA0000123A3409A4300EB91531A6010BD70B5A7
:108AB000024600230024C1F38910105801F01F065C
:108AC0000125B54000EA050302EB91500068C1F3AF
:108AD00004460125B54000EA050414B10BB101209C
