:020000040800F2
:1000000038290020B1010008B9010008BB0100082F
:10001000BD010008BF010008C10100080000000088
:1000200000000000000000000000000019010008AE
:10003000C5010008000000005D0100086102000821
:10004000CB010008CB010008CB010008CB01000860
:10005000CB010008CB010008CB010008CB01000850
:10006000CB010008CB010008CB010008CB01000840
:10007000CB010008CB010008CB010008CB01000830
:10008000CB010008CB010008CB010008CB01000820
:10009000CB010008CB010008CB010008CB01000810
:1000A000CB010008CB010008CB010008CB01000800
:1000B000CB010008CB010008CB010008CB010008F0
:1000C000CB010008CB010008CB010008CB010008E0
:1000D000CB010008CB010008CB010008CB010008D0
:1000E000CB010008CB010008CB0100080000000094
:1000F0000000000000000000000000000000000000
:10010000CB010008DFF80CD000F076F8004800477B
:100110007904000838290020224B19680868B0E8E3
:10012000F00F80F30988BFF36F8F4FF0000080F36A
:1001300011884EF00D0E7047000000000648006860
:10014000006880F3088862B661B6BFF34F8FBFF3D3
:100150006F8F00DF00BF00BF08ED00E0EFF3098004
:10016000BFF36F8F0F4B1A6820E9F00F106008B5CE
:100170004FF0500080F31188BFF34F8FBFF36F8FA4
:1001800000F018FE4FF0000080F31188BDE8084031
:1001900019680868B0E8F00F80F30988BFF36F8F23
:1001A000704700BF00000020EFF30580704700009B
:1001B0000648804706480047FEE7FEE7FEE7FEE701
:1001C000FEE7FEE7FEE7FEE7FEE7FEE79502000832
:1001D00005010008D2B201E000F8012B491EFBD254
:1001E00070470022F6E710B513460A460446194642
:1001F000FFF7F0FF204610BD064C074D06E0E06813
:1002000040F0010394E8070098471034AC42F6D35D
:10021000FFF77CFF88110008A811000810B5102115
:10022000014800F089F810BD000C014010B5102104
:10023000014800F07FF810BD000C014010B540F2FD
:10024000036000F00BFC102302221946034800F063
:1002500075F81021014800F06DF810BD000C014048
:1002600010B500BF502080F31188BFF34F8FBFF34C
:100270006F8F00BF00F074FE18B14FF0805004493A
:10028000086000BF002080F3118800BF10BD00008F
:1002900004ED00E010B51448006840F00100124978
:1002A000086008464068114908400F494860084600
:1002B00000680F4908400C4908600846006820F4AF
:1002C00080200860084640680A490840064948609E
:1002D0000846006806490840034908604FF41F00BB
:1002E000886000F021FC10BD001002400C00FFE807
:1002F000FFFFF6FEFFFF00F700BF0BE0FFF796FFE2
:100300004FF4FA7000F0EAFCFFF788FF4FF4FA7040
:1003100000F0E4FCF2E702E008C8121F08C1002A5E
:10032000FAD170477047002001E001C1121F002A76
:10033000FBD170474161704701617047F0B50446D9
:1003400016460025002201F00F0501F0100707B145
:10035000354300201EE0012787401F40C7B12268B7
:100360004FEA800C0F2707FA0CF7BA43870005FA0B
:1003700007F73A43282904D1012787401F406761C6
:1003800005E0482903D1012787401F4027612260EB
:10039000471CB8B20828DED3082022E00127874096
:1003A0001F40E7B16268A0F108074FEA870C0F27EA
:1003B00007FA0CF7BA43A0F10807BF0005FA07F7E0
:1003C0003A43282904D1012787401F40676105E08F
:1003D000482903D1012787401F4027616260471CDD
:1003E000B8B21028DAD3F0BDF0B50A4600230024D5
:1003F0000021002500F00046B6F1004F02D11D4E4D
:10040000F16901E01B4E7168C0F3034583B200F44B
:100410004016B6F5401F08D121F07061154E766880
:1004200026F07066134F7E6012E000F48016B6F579
:10043000801F06D1032606FA05F4A14341F070613E
:1004400006E0460D360103FA06F6B14341F070614D
:1004500022B1460D360103FA06F6314300F000469C
:10046000B6F1004F02D1034EF16101E0014E71601F
:10047000F0BD0000000001401CB54FF4407000F0DA
:1004800023F84FF4C06000F0E9FA01210948FFF7B2
:10049000ABFFFFF7D3FE0020022103468222CDE905
:1004A000001005A1074800F02BFD00F03BFC00BF49
:1004B000FEE70000000230005461736B4C6564314C
:1004C00000000000F902000802490143024A1160DD
:1004D000704700000000FA050CED00E02DE9F04146
:1004E00005460E461C4807681C480068001D00F0C1
:1004F0001FFB50B91948006890F82C100120884063
:1005000017490968814316480160681C38B936B13B
:1005100012480168091D134800F048FB1AE07C19D5
:100520000E4800684460BC4207D20C480168091DAF
:100530000D48006800F020FB0CE008480168091D28
:100540000A48006800F018FB09480068844201D29C
:1005500007480460BDE8F08114000020000000207E
:1005600018000020240100200800002004000020C2
:100570003000002010B5044600F024FB2448006839
:10058000401C234908602348006840B921480460A2
:100590000846006801280DD100F01EF90AE01E4847
:1005A000006838B91B480068C06AE16A884201D80F
:1005B0001848046019480068401C1849086008463B
:1005C0000068206494F82C100120884014490968C0
:1005D000084313490860E16A01EB8101114A02EB0B
:1005E0008100211D00F0E2FA00F00EFB0A480068CD
:1005F00068B108480068C06AE16A884207D24FF0D3
:10060000805009490860BFF34F8FBFF36F8F10BD53
:1006100010000020000000201C0000202C00002002
:10062000180000207000002004ED00E010B516E076
:1006300000F0C8FA0C48C068C468201D00F078FAC1
:100640000A480068401E0949086009480068401EC1
:100650000749086000F0D8FA204600F00BF804487B
:1006600000680028E4D110BD100100201000002017
:100670000C00002010B50446206B00F0DBFA204689
:1006800000F0D8FA10BD000030B54FF400631748F1
:1006900000F007042CB1C01D20F00700134C041B10
:1006A0001B1B0246124C22600024114D6C60D018B6
:1006B000083820F007000F4C206000240D4D2D68F5
:1006C0006C600C4D2D682C601146441A4C60094C2E
:1006D00024680C60084D4C682C60084D4C682C60F8
:1006E0004FF00044064D2C6030BD00003801002062
:1006F0004C000020540000205C0000205800002026
:100700006800002000BFFFF791FF0648006801283D
:10071000F9D94FF0805004490860BFF34F8FBFF301
:100720006F8FF0E77000002004ED00E02DE9F05F2E
:1007300082460E4690469B460A9F0C9C4FEA8801D3
:10074000A522206BFFF746FDA8F10100216B01EB0C
:10075000800929F0070909F0070008B9012000E025
:10076000002008B900BFFEE786B1002507E0715DF3
:1007700004F134004155705D00B902E06D1C0A2D92
:10078000F5D300BF00213D20015502E0002084F890
:100790003400052F00D30427E762A7640020E0643B
:1007A000201D00F0E6F904F1180000F0E2F92461E0
:1007B000C7F10500A06164620020206584F8540040
:1007C0005A465146484600F037F920600B9808B168
:1007D0000B980460BDE8F09F10B5002407E004EB1F
:1007E00084010F4A02EB810000F0B6F9641C052C6D
:1007F000F5D30C4800F0B0F90B4800F0ADF90B4808
:1008000000F0AAF90A4800F0A7F90A4800F0A4F994
:1008100004480949086004480849086010BD000000
:1008200070000020D4000020E8000020FC00002020
:1008300010010020240100200400002008000020F6
:1008400010B50146164800E0006803688B42FBD3F0
:100850000246436813448B4204D143684C682344E6
:10086000436001460A464B6813440468A34211D111
:100870000C4C03682468A34208D04B680468646881
:1008800023444B6003681B680B6005E0054B1B6845
:100890000B6001E003680B60884200D0016010BD6E
:1008A0004C0000205400002009480068006808B986
:1008B000012000E0002020B14FF0FF300549086022
:1008C00005E003480068C068006802490860704796
:1008D00004000020300000200A480068401C08B9CD
:1008E000012000E0002008B900BFFEE700BF502053
:1008F00080F31188BFF34F8FBFF36F8F00BF00BF2E
:10090000FEE70000400000202DE9F04104464FF0D2
:10091000000800F047FA4248006808B9FFF7B4FE43
:1009200040480068204000286CD1F4B104F1080070
:10093000A0421AD9083404F00700B8B104F0070047
:10094000C0F108002044A0420DD904F00700C0F116
:100950000800044404F0070008B9012000E000206A
:1009600020B900BFFEE7002400E00024002C49D09D
:100970002D480068844245D82C4E3046056801E079
:100980002E462D686868A04202D228680028F7D158
:1009900023480068854235D0306800F1080828688F
:1009A00030606868001B102810D92F1907F0070065
:1009B00008B9012000E0002008B900BFFEE7686820
:1009C000001B78606C603846FFF73AFF164968688C
:1009D0000968081A1449086008460068144909683B
:1009E000884203D210480068114908600D496868C0
:1009F000096808436860002028600E480068401CB1
:100A00000C49086000F046FB08F0070008B9012017
:100A100000E0002008B900BFFEE74046BDE8F081D5
:100A20005400002068000020580000204C000020E6
:100A30005C00002060000020001F4FF08073036006
:100A4000001F21F001030360001F034B03601438F3
:100A50000260203870470000D9080008064A02EBFF
:100A60009011096800F01F0301229A401143024BC4
:100A700003EB90121160704700100240002000212B
:100A8000264A126842F00102244B1A6000BF401C43
:100A9000224A126802F0020111B9B0F5A06FF6D136
:100AA0001E4A126802F002020AB900BFFEE71B4AA2
:100AB00052681A4B5A601A4652685A601A4652686F
:100AC00042F480625A601A465268154B1A40134B22
:100AD0005A601A465268134B1A43104B5A601A4612
:100AE000126842F080721A6000BF0C4A126802F06D
:100AF0000072002AF9D0094A526822F00302074B1B
:100B00005A601A46526842F002025A6000BF034A15
:100B1000526802F00802002AF9D070470010024023
:100B2000FFFFC3F70000280810B5FFF7A7FF10BDAF
:100B300001460A69D1E901309860D1E901035860A2
:100B40005068884201D188685060002008611068B0
:100B5000401E10601068704700F1080141604FF0BE
:100B6000FF31816000F10801C16001610021016075
:100B7000704700210161704710B502460B685C1C8C
:100B80000CB9106907E002F1080000E04068446811
:100B900024689C42FAD944684C604C68A160886023
:100BA00041600A611468641C146010BD42684A60A8
:100BB00093688B60936859609160086103685B1C5F
:100BC0000360704700BF502080F31188BFF34F8F40
:100BD000BFF36F8F00BF0A480068401C08490860D7
:100BE00008460068012809D106480068C0B208B963
:100BF000012000E0002008B900BFFEE770470000B8
:100C00004000002004ED00E00948006808B900BF7A
:100C1000FEE707480068401E05490860084600686E
:100C200020B9002080F3118800BF00BF704700008A
:100C30004000002070B506463546002E32D0083DF3
:100C40002C46194960680968084008B1012000E095
:100C5000002008B900BFFEE7206808B9012000E0C5
:100C6000002008B900BFFEE70F4960680968084026
:100C7000C0B12068B0B90C496068096888436060F9
:100C800000F090F80949606809680844074908605D
:100C90002046FFF7D5FD06480068401C044908605F
:100CA00000F0F8F970BD0000680000205800002036
:100CB0006400002000204FF0E021086188610648B0
:100CC00000684FF47A71B0FBF1F0401E4FF0E02164
:100CD00048610720086170476C00002070B5044629
:100CE00000258CB10D48006808B9012000E0002003
:100CF00008B900BFFEE700F055F800212046FFF7D5
:100D0000EDFB00F0C7F905463DB94FF080500449AE
:100D10000860BFF34F8FBFF36F8F70BD3C000020A2
:100D200004ED00E01CB5174800210B468222CDE9F6
:100D3000001015A1164800F0E3F80446012C15D167
:100D400000BF502080F31188BFF34F8FBFF36F8F28
:100D500000BF4FF0FF300F49086001200E490860C6
:100D600000200E49086000F061F807E0601C08B13F
:100D7000012000E0002008B900BFFEE70848006835
:100D80001CBD00003400002049444C450000000018
:100D900005070008300000201C000020140000207F
:100DA0003800002002480068401C01490860704774
:100DB0003C0000201848006818B10120174908605D
:100DC00029E000201549086015480068B0FA80F055
:100DD000C0F11F0101EB8100124A52F8200008B156
:100DE000012000E0002008B900BFFEE701EB81020E
:100DF0000C4B03EB820042685268426000F108022B
:100E00004368934202D14268526842604268D268A5
:100E1000054B1A6000BF70473C00002024000020F2
:100E20001800002070000020000000201CB52F4892
:100E3000014609780191FF210246117001460978A7
:100E400000919DF8001001F0F0019DF80020914202
:100E500001D1012100E0002109B900BFFEE79DF8A2
:100E6000001001F05001224A11700721214A11603F
:100E700009E020490968491E1E4A11609DF80010CA
:100E80004906090E00919DF8001001F080018029AB
:100E9000EFD018490968C1F10701042901D10121E6
:100EA00000E0002109B900BFFEE712490968090204
:100EB000104A11601146098801F4E06111600B4A83
:100EC000019911700C48006840F470000A490860EC
:100ED0000846006840F070400860FFF7EBFE002015
:100EE00006490860FFF72AF900201CBD00E400E075
:100EF000440000204800002020ED00E040000020D9
:100F00002DE9FF4F85B0804689461746DDE912ABD3
:100F1000B800FFF7F9FC064656B15820FFF7F4FC7D
:100F200004460CB1266304E03046FFF783FE00E080
:100F300000247CB10020CDE900ABCDE902403A4667
:100F400049464046089BFFF7F1FB2046FFF712FB9E
:100F5000012501E04FF0FF35284609B0BDE8F08FCC
:100F60002DE9F0414FF000083F480068002873D198
:100F70003E480068451C3D480560CDB93C480068C6
:100F8000006808B9012000E0002008B900BFFEE7B2
:100F900037480768374800683549086035480760B2
:100FA00035480068401C34490860FFF77DFC00BFED
:100FB0003248006885423CD300BF2D480068006875
:100FC00008B9012000E0002020B14FF0FF302B498C
:100FD00008602DE026480068C068C4686668B542AD
:100FE00002D22648066023E0201DFFF7A1FDA06A7B
:100FF00018B104F11800FFF79BFD94F82C100120A4
:1010000088401F49096808431D490860E16A01EBEF
:1010100081011C4A02EB8100211DFFF7C7FD1A491F
:10102000E06A0968C96A8842C7D34FF00108C4E77B
:1010300000BF15480068C06A00EB8000114951F8F4
:101040002000012801D94FF001081048006808B1BC
:101050004FF0010805E0FFE70D480068401C0C490F
:1010600008604046BDE8F0813C00002014000020EC
:10107000040000200800002028000020300000208C
:101080001800002070000020000000202400002034
:101090002000002070B5002400263248006808B9FE
:1010A00000BFFEE7FFF78EFD2E480068401E2D4969
:1010B00008600846006800284FD12B4800680028C7
:1010C0004BD024E02948C068C46804F11800FFF739
:1010D0002FFD201DFFF72CFD94F82C1001208840D7
:1010E00023490968084322490860E16A01EB81014C
:1010F000204A02EB8100211DFFF758FD1E49E06ADE
:101100000968C96A884202D301201C49086017484F
:10111000006808B9012000E000200028D2D00CB1FE
:10112000FFF7C2FB1648056865B100BFFFF718FF5F
:1011300010B10120114908606D1E002DF6D100206C
:101140000F4908600D48006838B1012630070D4985
:101150000860BFF34F8FBFF36F8FFFF755FD304629
:1011600070BD00003C00002010000020FC000020AA
:101170001800002070000020000000202400002043
:101180002000002004ED00E0A8110008000000206D
:1011900070000000160300081812000870000020FC
:1011A000C82800002603000800000000000000001E
:1011B000000000000000000000000000000000002F
:1011C000000000000000000000000000000000001F
:1011D000000000000000000000000000000000000F
:1011E0000400000000000000AAAAAAAA0000000053
:1011F00000000000000000000000000000000000EF
:1012000000000000000000000000000000000000DE
:081210000000000000F36F066E
:0400000508000105E9
:00000001FF
