:020000040800F2
:10600000784B0020B1610008B9870008FD770008CF
:1060100091870008916A0008E58D000800000000E3
:1060200000000000000000000000000019610008EE
:1060300031730008000000005D6100083D8A00081F
:10604000CB610008CB610008CB610008CB61000880
:10605000CB610008CB610008CB610008CB61000870
:10606000CB610008CB610008CB610008CB61000860
:10607000CB610008CB610008CB610008CB61000850
:10608000CB610008CB610008CB610008CB61000840
:10609000CB610008CB610008CB610008CB61000830
:1060A000CB610008CB610008CB610008CB61000820
:1060B0001D8B0008CB610008CB610008CB61000894
:1060C000CB610008CB610008CB610008CB61000800
:1060D000CB610008858C0008C98C0008CB610008E2
:1060E000C9750008CB610008CB6100080000000002
:1060F00000000000000000000000000000000000A0
:10610000CB610008DFF80CD000F04EFB00480047E0
:10611000D9A50008784B0020224B19680868B0E820
:10612000F00F80F30988BFF36F8F4FF0000080F30A
:1061300011884EF00D0E7047000000000648006800
:10614000006880F3088862B661B6BFF34F8FBFF373
:106150006F8F00DF00BF00BF08ED00E0EFF30980A4
:10616000BFF36F8F0F4B1A6820E9F00F106008B56E
:106170004FF0500080F31188BFF34F8FBFF36F8F44
:1061800006F0A6FB4FF0000080F31188BDE8084040
:1061900019680868B0E8F00F80F30988BFF36F8FC3
:1061A000704700BF80000020EFF3058070470000BB
:1061B0000648804706480047FEE7FEE7FEE7FEE7A1
:1061C000FEE7FEE7FEE7FEE7FEE7FEE7718A00086E
:1061D00005610008202A04DB203A21FA02F00021A0
:1061E000704721FA02F3D040C2F1200291400843E7
:1061F0001946704740EA01039B0703D009E008C92C
:10620000121F08C0042AFAD203E011F8013B00F87B
:10621000013B521EF9D27047D2B201E000F8012BC7
:10622000491EFBD270470022F6E710B513460A4616
:1062300004461946FFF7F0FF204610BD421C10F837
:10624000011B0029FBD1801A7047034611F8012B6E
:1062500000F8012B002AF9D1184670472DE9FE4FAE
:10626000804681EA0300C00F0C46009021F00041F7
:1062700023F00045B8EB0200A94105D24046214673
:1062800090461C460B46024623F00040104347D080
:10629000270DC7F30A00C3F30A510290401A019078
:1062A00040286BDAC3F3130040F4801B0098924639
:1062B00020B10023D2EB030A63EB0B0B0198594684
:1062C000C0F14002504600F0B9F906460D4650466E
:1062D0005946019A00F0C1F910EB08006141002411
:1062E00087EA115284EAE7731A4340D0009A62B3F6
:1062F000019A012A4FEA075215DC001B61EB0201EB
:106300004FF0004202EA0752CDE90042001C41F57D
:10631000801132462B4600F0F8F903B0BDE8F08F4B
:1063200040462146F9E7001B61EB0201001C41F5E4
:10633000801300185B412018A2F5001747EB0301FA
:1063400040EAD570B6196D4111E06D084FEA360686
:1063500045EAC0754FEA0752001B61EB0201001CC1
:1063600041F5801149084FEA300000195141324689
:106370002B4603B0BDE8F04F00F0B8B900980122F9
:1063800040000023D0EB020263EBE073009821464B
:106390004FEAE074B8EB000061EB0401E9E783F039
:1063A00000435BE781F0004158E72DE9FE4F81EAA9
:1063B000030404F0004421F0004100944FF0000B6E
:1063C00023F0004350EA01045ED052EA03045BD09C
:1063D000C3F30A54C1F30A552C44A4F2F3340194D4
:1063E000A0FB0254C1F3130141F48011C3F3130362
:1063F00043F4801301FB024400FB034E840A970A16
:1064000044EA815447EA8357A4FB076802958D0A42
:1064100005FB07854FEA932C04FB0C542705029DCE
:106420004FEA065847EA1637B5EB08056EEB070C3E
:10643000870E920E47EA811742EA8312A7FB0201F8
:10644000B6EB0B0164EB00042B0D43EA0C335E1832
:1064500044EB1C50DA465146E7FB0201C5F3130436
:106460004FEA0B3343EA14534FEA0432019C43EAE8
:106470000603A4F10C040294009CCDE900B400F0E2
:1064800044F903B0BDE8F08F00200146F9E72DE99B
:10649000F04D81EA030404F0004B21F0004514465E
:1064A0004FF0000A23F0004150EA050220D054EAE0
:1064B00001021DD0C5F30A570246C5F31303C1F309
:1064C0001300C1F30A5640F4801543F48013A7EB80
:1064D0000608101BD64608F2FD3873EB050002D300
:1064E00008F1010801E092185B41B8F1000F03DAEE
:1064F00000200146BDE8F08D00204FF480110646D3
:1065000084460EE0171B73EB050705D3121B63EBE4
:10651000050306434CEA010C49084FEA3000921883
:106520005B4150EA0107EDD152EA030012D082EA42
:10653000040083EA0501084305D0101BAB4106D2D5
:106540000122002306E000224FF0004302E06FF03A
:10655000010253101AEB06004CEB085110EB0A0035
:1065600041EB0B01BDE8F04D00F0C0B896230022CE
:10657000114600F08DB870B5C1F30A5201F0004524
:106580000024C1F3130140F2FF3341F480119A4219
:1065900001DA002070BD40F233439A42A2F2334246
:1065A00003DC5242FFF716FE00E090402C43F1D08E
:1065B000404270BD00F0004230F000400AD0C10DF2
:1065C00001F56071C0F3160042EA0151C2084007AC
:1065D000114370470020014670472DE9F05F0546E2
:1065E000002092469B4688460646814640241BE092
:1065F0002846414647462246FFF7ECFD53465A4699
:10660000C01A914110D311461846224600F016F8E0
:106610002D1A67EB01084F4622460120002100F0A9
:106620000DF817EB00094E41201EA4F10104DFDC38
:10663000484631462A464346BDE8F09F202A04DBFF
:10664000203A00FA02F1002070479140C2F1200385
:1066500020FA03F3194390407047202A06DBCB173A
:10666000203A41FA02F043EAE07306E041FA02F30D
:10667000D040C2F1200291400843194670470029DA
:10668000A8BF7047401C490008BF20F001007047B8
:1066900010B4B0FA80FC00FA0CF050EA010404BF18
:1066A00010BC704749B1CCF1200421FA04F411FA6E
:1066B0000CF118BF012121430843A3EB0C01CB1DB2
:1066C0004FEA00614FEA102042BF002010BC704723
:1066D00000EBC35010440029A4BF10BC7047401CFD
:1066E000490008BF20F0010010BC704710B5141E0F
:1066F00073F1000408DA401C41F1000192185B417B
:106700001A4301D120F0010010BD2DE9F04D924651
:106710009B4611B1B1FA81F202E0B0FA80F2203268
:106720009046FFF78BFF04460F4640EA0A0041EA15
:106730000B0153465A46084313D0114653EA010051
:1067400019D0C8F140025046FFF744FD05460E46F9
:10675000504659464246FFF771FF084305D00120D5
:1067600004E020463946BDE8F08D0020054346EAA6
:10677000E0762C4337430A986305E40AA0EB08004F
:106780000022FD0A44EA47540A3002D5002001469F
:10679000E9E7010510196941DDE90845001969417A
:1067A000BDE8F04DA2E70000064C074D06E0E068AA
:1067B00040F0010394E8070098471034AC42F6D348
:1067C000FFF7A4FC84D50008A4D5000810B540F25A
:1067D000096005F02BF8032004F072FF002002F09E
:1067E0003FFE00224FF48071184802F0B0FE0022F4
:1067F0000221164802F0ABFE01221146134802F0B6
:10680000E4FD0021114802F0D5FD012211460F4898
:1068100002F0ADFD02F0C8FE0523102200210B4856
:1068200002F02CFE4FF460220121084802F0FCFD2A
:10683000064802F0F0FD012005F024FE034802F0B6
:1068400081FD0121014802F073FE10BD00240140CA
:106850007FB50446644903C9CDE9020100252078CB
:106860008DF8090000208DF80A006048007848B1D2
:1068700000BF5FA002F026FB6278217860A002F0E2
:1068800021FB00BF2078323819286FD2DFE800F0F2
:1068900027960D131996222E343E474B50565A6AAE
:1068A0006F7176817B96868B91006078012103F071
:1068B000E5FC00258AE06078002103F0DFFC00257C
:1068C00084E0607810B100F08DFE01E000F05EFD24
:1068D00000257BE0607803F0B7FC002576E0607867
:1068E00003F022FA8DF80A0001256FE0617848B2C2
:1068F00005F002F8002569E003F0E8F9642190FB57
:10690000F1F0C0B28DF80A0001255FE0607810B1A7
:1069100003F09AFB01E003F075FB002556E003F05D
:10692000C1FB002552E0607803F050FC00254DE0EB
:1069300003F0FAFB8DF80A00012547E003F02EFC76
:10694000002543E039A006F08DFC48B90020042161
:1069500003465022CDE9001034A1364806F074FAFF
:10696000002533E004F014F900252FE026E000258F
:106970002CE0607803F0F6FD002527E0607801F058
:10698000A7FA002522E003F091F98DF80A0001250D
:106990001CE0607802F03AFA002517E0607801F018
:1069A0005DFF002512E000F079FE8DF80A00012558
:1069B0000CE003F027FB03F0CDF907E0FF208DF892
:1069C0000A001DA002F0FAFD002500BF00BF4DB176
:1069D000032102A800F05EF88DF80B00042102A844
:1069E00000F0ACF87FBD000058D500081000002072
:1069F0003C3C4D595F44454255473E3E2000000017
:106A00007265636976652066726F6D204370755F8D
:106A10006461746120636D64203D2025642064619D
:106A20007461203D2025640D0A0000006C74393229
:106A300031310000798200086572726F723A20630A
:106A4000707520756172742073656E6420756E6B4D
:106A50006F776E20636D6421210D0A0010B54FF42D
:106A6000407004F035F94FF4C06004F0DFFE0121FE
:106A7000064803F07DFA00F065FE4FF4E13000F0C7
:106A8000C7FB03F057FB03F067FC10BD00023000AA
:106A900000BFFEE710B502460B460021002004E0CF
:106AA000545C0444E0B24C1CE1B29942F8DB10BDE6
:106AB00010B5002211460248006805F07BFD10BDAC
:106AC000240000201CB500200090064805F0A0FA24
:106AD000C0B201906B46012201A90348006806F08C
:106AE0001FF91CBD00440040200000201CB5002000
:106AF00000901048006805F091FF04462CB940F260
:106B000007310D4805F0FAFA1CBD6B46012201A9B8
:106B10000848006806F02FF828B19DF804100120FD
:106B200002F018F904E040F20731034805F0E6FAF4
:106B300000BFE9E71C0000200044004070B5054696
:106B40000E46002404E0285D02F0A8F9601CC4B2DF
:106B5000B442F8DB70BD000070B504462046612CDD
:106B600070D00ADCA0F130000A281AD2DFE800F069
:106B70001F2D42575A606F848A8D662874D008DCB6
:106B8000622872D0632871D0642870D0652808D13B
:106B90008AE067286CD068286BD070286AD0762885
:106BA00069D059A002F00AFD00F088F900BF5DA08D
:106BB00002F004FD5E48006802F000FD5DA002F0F6
:106BC000FDFC5DA002F0FAFC9BE000F06DFD80B1E1
:106BD00062480078642809DA604800780A3040B2D8
:106BE00001F072FD5EA002F0E9FC02E063A002F099
:106BF000E5FC86E000F058FD80B1584800780A288E
:106C000009DB564909780A3948B201F05DFD60A0F8
:106C100002F0D4FC02E065A002F0D0FC71E004F0C8
:106C2000E7FC6EE065A002F0C9FC01F096F968E0AF
:106C300067A002F0C3FC03F043F820B169A002F0A2
:106C4000BDFC03E024E069A002F0B8FC59E069A0B3
:106C500002F0B4FC03F03AF805460A2102F0BCFC4D
:106C600034A002F0ABFC4CE021E014E016E018E0A8
:106C700020E026E034E02BE064A002F09FFC03F06B
:106C80008DFA3EE001F058F93BE002F0F7F838E009
:106C900003F0BEFA35E001F011FE32E001F070FEC3
:106CA0002FE000F009FC2CE000F06CFC29E003F080
:106CB000AFFA26E05BA002F081FC012003F0C4FAE9
:106CC0001FE062A002F07AFC002003F0BDFA18E099
:106CD00000F0E4FC0546294666A002F0F3F810E057
:106CE0006948007830B169A002F0ECF800206649EC
:106CF000087005E06BA002F0E5F801206249087019
:106D000000BF00BF70BD00004552524F523A2043B1
:106D10006F6D6D616E6420556E6B6E6F77200D0A1E
:106D2000000000002A4672656552544F532A200025
:106D3000000000200D0A0000417574686F723A4A25
:106D4000432644615A6869203C76783A32383534B3
:106D500030383133363E0D0A000000004A00002072
:106D6000696E637265617365203720696E636820A0
:106D70006C63642050574D0D0A000000675F6C6320
:106D8000645F70776D203D203130300D0A000000C7
:106D90006465637265617365203720696E6368207E
:106DA0006C63642050574D0D0A000000675F6C63F0
:106DB000645F70776D203D20300D0A007265736549
:106DC00074204C4344202620393231310D0A000012
:106DD000576174636820446F6720537461747573DE
:106DE000203A20006F6E0D0A000000006F66660DED
:106DF0000A0000004D637520696E7465726E616CE7
:106E00005F74656D70203D20000000007265736541
:106E10007420636F726520626F61726421210D0AB4
:106E20000000000032303233206B65795F6C696797
:106E300068745F616C6C6C6564735F636F6E7472B1
:106E40006F6C28312921210D0A00000032303233C5
:106E5000206B65795F6C696768745F616C6C6C65E9
:106E600064735F636F6E74726F6C28302921210D1B
:106E70000A0000006D63752076657273696F6E207D
:106E80003D2025640D0A000010000020636C6F7324
:106E900065206D6F726520646562756720696E6636
:106EA0006F0D0A007072696E74206D6F72652064D8
:106EB0006562756720696E666F0D0A0010B5254919
:106EC00025A001F0FFFF28A001F0FCFF2AA001F09F
:106ED000F9FF00F0E9FB28B12FA001F0F3FF3CA07F
:106EE00001F0F0FF48A001F0EDFF4EA001F0EAFF35
:106EF00052A001F0E7FF5AA001F0E4FF60A001F00A
:106F0000E1FF65A001F0DEFF69A001F0DBFF6FA0EB
:106F100001F0D8FF73A001F0D5FF7BA001F0D2FFF4
:106F20007EA001F0CFFF83A001F0CCFF87A001F08D
:106F3000C9FF8FA001F0C6FF93A001F0C3FF98A086
:106F400001F0C0FF9DA001F0BDFFA3A001F0BAFFBA
:106F500010BD0000D9A50008766563746F72203DEE
:106F60002025700D0A0000000D0A44656275672037
:106F7000636D643A0D0A0000302E207072696E74E1
:106F80002050726F6772616D206275696C64207445
:106F9000696D650D0A000000312E203720696E638F
:106FA00068206C63642050574D20696E6372656180
:106FB00063652835696E6368206C6364206861735B
:106FC000206E6F20656666656374290D0A000000F7
:106FD000322E203720696E6368206C63642050571E
:106FE0004D2064656372656163652835696E636809
:106FF000206C636420686173206E6F20656666652F
:107000006374290D0A000000332E206672656552F4
:10701000746F73207461736B2073746174732121B6
:107020000D0A0000342E207265736574204C4344B1
:10703000202620393231310D0A000000352E207013
:1070400072696E74204861726420576174636820AD
:10705000446F67205374617475730D0A000000005B
:10706000362E207072696E74204D637520696E74BF
:1070700065726E616C5F74656D700D0A00000000D2
:10708000372E20726573657420636F726520626F9E
:1070900061726421210D0A00382E204C53504B5F41
:1070A000436F6E74726F6C20746573740D0A000008
:1070B000392E205631325F43544C284D4F525345A0
:1070C0002920746573740D0A00000000612E206B86
:1070D00065794C4544532070776D20746573740D49
:1070E0000A000000622E2035696E6368206C6364BC
:1070F00020626C61636B6C6967687420636F6E7487
:10710000726F6C0D0A000000632E2053504B454EE9
:1071100020636F6E74726F6C0D0A0000642E204540
:1071200041525F4C5F454E20636F6E74726F6C0D01
:107130000A000000652E204541525F525F454E20F7
:10714000636F6E74726F6C0D0A000000662E206B08
:1071500065795F6C6564732070776D20696E63720A
:10716000656163652831302525290D0A000000007E
:10717000672E206B65795F6C65647320616C6C2091
:107180006F6E0D0A00000000682E206B65795F6C41
:1071900065647320616C6C206F66660D0A000000E8
:1071A000702E207072696E74206D6F726520646538
:1071B00062756720696E666F0D0A0000762E20707A
:1071C00072696E742050726F6772616D207665729D
:1071D00073696F6E0D0A00006F746865722E2070FF
:1071E00072696E742068656C700D0A0008B50CE059
:1071F0004FF0FF33012269460448006805F055FC52
:1072000018B19DF80000FFF7A7FCF1E70C00002083
:1072100010B504464FF4E131002002F0CBFC00220F
:107220000121402005F006FC0449086000220121EC
:10723000402005F0FFFB0249086010BD0800002057
:107240000C00002008B504264FF0000900254FF47B
:10725000E13000F053F84EE04FF0FF3211460020CD
:1072600004F042FE00BF2448006805F0D7FB074643
:10727000B74200D23EE0C6F1040000F0FF090DEB7A
:107280000901002332461C48006805F00EFCC5B217
:107290006DB37F1BB5420DD19DF80000A52809D123
:1072A0000421684601F08BFD20B90DF10100FFF7C4
:1072B000CFFA1DE0012405E01DF80400A52800D147
:1072C00002E0641CAC42F7D300BFAC420DD0E6B282
:1072D0004FF0000806E01DF804000DF80800641CDB
:1072E00008F10108AC42F6D302E0042600E001E018
:1072F000042FB8D200BFAFE72000002010B504462D
:107300002146012002F056FC00220121102005F048
:1073100091FB0549086000220C21102005F08AFB32
:107320000249086010BD00001C0000202000002061
:1073300070470000F0B5034600224FF0E0277D695A
:10734000104F3F68DFF840C0B7FBFCF7FEB203FB0D
:1073500006F44FF0E027B96910E04FF0E027B86974
:1073600088420BD0884202D20F1A3A4402E02F1A08
:107370000F443A440146A24200D300E0EDE700BFCB
:10738000F0BD0000EC00002040420F0010B5134893
:1073900090F90000002804DA00F086F940B20F49A5
:1073A00008700E48007830B9002001F057FA0CA0A0
:1073B00002F004F910E0114802880221104804F09C
:1073C000A4FC642005F05EF80D4804F0E6FC00F033
:1073D00023F80CA002F0F2F810BD00004B000020D2
:1073E00044697361626C655F4C63644C696768747F
:1073F0002035696E63680D0A000000004800002017
:10740000002C014044697361626C655F4C63644C9D
:10741000696768740D0A000010B501F031F94FF486
:107420008041024802F0E6FC10BD0000000C014063
:1074300010B540F2046004F0F9F94FF480510548AA
:1074400002F0D8FC4FF4805302221021014802F0D0
:1074500021FD10BD0010014010B5044600BF07A07B
:1074600001F030FD214609A001F02CFD00BF14B150
:1074700000F03AF801E000F02DF810BD3C3C4D5909
:107480005F44454255473E3E200000004541525F63
:107490004C5F454E5F436F6E74726F6C5F536574E3
:1074A0004F757456616C20737461747573203D2040
:1074B00025640D0A0000000010B54FF48051044807
:1074C00002F04AFD04462046FFF7C6FF10BD00004B
:1074D0000010014010B54FF48051024802F08CFCBE
:1074E00010BD00000010014010B54FF4805102485B
:1074F00002F080FC10BD00000010014010B540F209
:10750000046004F093F94FF40051054802F072FC56
:107510004FF4005302221021014802F0BBFC10BDC1
:107520000010014010B5044600BF07A001F0CAFCDE
:10753000214609A001F0C6FC00BF14B100F03AF8E2
:1075400001E000F02DF810BD3C3C4D595F44454230
:1075500055473E3E200000004541525F525F454E78
:107560005F436F6E74726F6C5F5365744F757456C2
:10757000616C20737461747573203D2025640D0A5D
:107580000000000010B54FF40051044802F0E4FC84
:1075900004462046FFF7C6FF10BD00000010014062
:1075A00010B54FF40051024802F026FC10BD000057
:1075B0000010014010B54FF40051024802F01AFCCF
:1075C00010BD00000010014010B54FF4805002F0D3
:1075D00047F908B102F0BEF84FF4805002F03AF9D2
:1075E00010BD000010B5194890F90000002804DA19
:1075F00000F05AF840B2154908701448007830B9C4
:10760000012001F02BF912A001F0D8FF1CE000F0DE
:1076100039F8642004F036FF1349097809B9462186
:1076200001E01149097848B201F04EF8642004F0F5
:1076300029FF0E4804F0B6FB642004F023FF00F09D
:1076400021F80BA001F0BAFF10BD00004B00002094
:10765000456E61626C655F4C63644C696768742059
:1076600035696E63680D0A004A000020002C014055
:10767000456E61626C655F4C63644C696768740D4C
:107680000A00000010B501F005F84FF480410248EF
:1076900002F0B2FB10BD0000000C01400148007870
:1076A000704700000400002010B502F0FFFA062821
:1076B00001D1012010BD0020FCE700002DE9F05FA2
:1076C0000221102001F0AEFA83465846FEF74EFF25
:1076D0008046FEF76FFF06464FF06632124BFEF70C
:1076E00064FE04460D4622462B4610481049FEF71C
:1076F00056FE80460F4A104BFEF7C9FE0646002292
:107700000E4BFEF7ABFD04460D4600220C4B204607
:107710002946FEF74AFE0646FEF72DFF0FFA80FACD
:107720005046BDE8F09F000066664A3FE17A14AE1D
:1077300047E1F63F22FDF675E09C713F00002440D2
:107740000000594010B5FFF7AFFF10B1462002F01E
:1077500075FE01F01FF802F0F1FE01F02FF8FFF7BF
:10776000A3FF08B100F078FF00F0A0FB01F03CFBA4
:1077700000F09AFF01F060F801F0C0F8FFF758FE42
:10778000FFF7BCFE10BD38B5044600200090012272
:107790006946204600F006F810B19DF8000038BD9B
:1077A0000020FCE7F8B504460D4616462B46224657
:1077B000064800960178002000F0C0F908B90120C1
:1077C00000E0002007463846F8BD00002C000020ED
:1077D00033B581B00446012002AB22460090064832
:1077E0000178002000F0D8F908B9012000E000205D
:1077F000054628463EBD00002C00002000BFFEE7E5
:1078000010B504460021204600F066FA204601F03B
:10781000F7F80021204600F08BFA0420FFF78AFDDC
:107820000121204600F058FA0620FFF783FD0021D1
:10783000204600F051FA0320FFF77CFD10BD000048
:1078400070B5054640F2036003F0F0FF012D02D150
:107850004FF4406405E0022D02D14FF4407400E083
:10786000C024234602221021054802F013FB012107
:10787000284600F031FA0121284600F059FA70BD7F
:10788000000C014010B504460021204600F024FA07
:10789000204601F0B5F80121204600F049FA042005
:1078A000FFF748FD0121204600F016FA0620FFF7F9
:1078B00041FD0021204600F00FFA0320FFF73AFDBA
:1078C00010BD2DE9F04107460D4600240021384641
:1078D00000F002FA384601F075F80320FFF72AFDA0
:1078E00000261EE00021384600F0F6F90520FFF7DB
:1078F00021FD0121384600F0EFF96006040E042056
:10790000FFF718FD384600F07FFF08B1601CC4B2D5
:107910000420FFF70FFD0021384600F0DDF9701C50
:10792000C6B2082EDEDB1DB93846FFF7ABFF02E01A
:107930003846FFF765FF2046BDE8F08170B5064682
:107940000C460021304600F0C7F9304601F058F8E7
:1079500000251CE00320FFF7EDFC04F08001304619
:1079600000F0E6F96006040E0420FFF7E3FC0121B5
:10797000304600F0B1F90620FFF7DCFC002130466C
:1079800000F0AAF90320FFF7D5FC681CC5B2082D4A
:10799000E0DB70BD10B50446204601F031F801214E
:1079A000204600F0C5F90121204600F095F9062097
:1079B000FFF7C0FC0021204600F0BAF90620FFF7CF
:1079C000B9FC0021204600F087F910BD10B504462F
:1079D0000021204600F080F9204601F011F8002136
:1079E000204600F0A5F90620FFF7A4FC012120465F
:1079F00000F072F90320FFF79DFC0121204600F002
:107A000097F90620FFF796FC10BD70B505460024D7
:107A10000021284600F060F90320FFF78BFC0121CC
:107A2000284600F085F90320FFF784FC284600F083
:107A3000C9FF0121284600F04FF90320FFF77AFC27
:107A40000BE0601CC4B2FA2C04DD2846FFF7BEFF31
:107A5000012070BD0120FFF76DFC284600F0D4FE28
:107A60000028EED10021284600F036F90320FFF768
:107A700061FC0020EDE7000010B504460120A040A5
:107A800008490978084000B110BD2046FFF7D8FE2C
:107A90000120A0400349097808430249087000BF4B
:107AA000F2E70000110000202DE9F04180460F466A
:107AB00015461E4604F004FF4046FFF76BFF47F0F3
:107AC00001014046FFF73AFF4046FFF79EFF50B1E5
:107AD00005F0AAFC11A001F071FD4046FFF776FF0A
:107AE0000220BDE8F08100240FE0701EA04205D105
:107AF00000214046FFF7E5FE285504E001214046FD
:107B0000FFF7DFFE2855601CC4B2B442EDDB05F080
:107B10008BFC4046FFF75AFF0020E2E74552524FE8
:107B2000523A4949435F576169745F41636B286901
:107B30006E64657829213D20300D0A002DE9F84357
:107B400006460F4690461C46DDF82090002003466E
:107B5000424639460090304600F01EF80546FF2D9B
:107B600007D14B46224639463046FFF79DFFBDE818
:107B7000F88302A001F022FD2846F8E74552524F53
:107B8000523A204969634170705F57726974655F4A
:107B900042797465730D0A002DE9F04781460D4660
:107BA00016461F46DDF8208004F08AFE4846FFF79F
:107BB000F1FE05F0FE014846FFF7C0FE4846FFF71C
:107BC00024FF50B105F030FC20A001F0F7FC48463E
:107BD000FFF7FCFE0220BDE8F08731464846FFF77C
:107BE000ADFE4846FFF711FF48B105F01DFC23A08C
:107BF00001F0E4FC4846FFF7E9FE0320EBE7B8F1AB
:107C0000000F03D105F010FCFF20E4E7002413E08F
:107C1000395D4846FFF792FE4846FFF7F6FE48B149
:107C200005F002FC21A001F0C9FC4846FFF7CEFE9A
:107C30000420D0E7601CC4B24445E9DB05F0F4FB46
:107C40004846FFF7C3FE0020C5E700004552524FEB
:107C5000523A2073656E64206465765F6164647275
:107C6000204949435F576169745F41636B28696EBE
:107C700064657829213D20300D0A00004552524F9D
:107C8000523A2073656E6420776F72645F6164643A
:107C900072204949435F576169745F41636B28698A
:107CA0006E64657829213D20300D0A004552524FFF
:107CB000523A2073656E64206461746120494943BF
:107CC0005F576169745F41636B28696E64657829E9
:107CD000213D20300D0A000070B505460C46012DEF
:107CE0000BD124B18102114802F086F81DE04FF457
:107CF00080610E4802F07EF817E0022D0BD124B10E
:107D0000E9010A4802F078F80FE04FF48071074863
:107D100002F070F809E024B14021044802F06CF848
:107D200003E04021014802F065F870BD000C0140FD
:107D300070B505460C46012D0BD124B1C102114886
:107D400002F05AF81DE04FF400610E4802F052F8BC
:107D500017E0022D0BD124B129020A4802F04CF899
:107D60000FE04FF40071074802F044F809E024B135
:107D70008021044802F040F803E08021014802F02D
:107D800039F870BD000C0140FEF720FD07E0FFF759
:107D900095FC034908804FF47A7004F073FBF6E712
:107DA0004C00002070B50446002C08DD0C4800781B
:107DB000642804DA0A480078204445B20BE0002C1D
:107DC00008DA07480078002804DD054800782044D8
:107DD00045B200E070BD284603F08EFD00BFF9E714
:107DE0007400002030B587B0044640F2036003F011
:107DF0001DFD012302221821264802F04BF840F213
:107E0000017003F013FD642C00DD6424224804702B
:107E100003A804F05DF821480088401E0590204822
:107E200000682049B0FBF1F0401E80B2ADF80C00B4
:107E300003A91D4803F0BCFF684603F0A6FF01201C
:107E4000ADF800006A460221174803F03BFE70229D
:107E50000221154803F02CFFC4F164000F49098882
:107E60004843642190FBF1F52A4602210E4803F0B5
:107E70004CFF002202210C4803F05AFF01210A485E
:107E800004F01AF8084803F018FE074803F08AFFC8
:107E900007B030BD000C01407400002072000020CB
:107EA000EC00002040420F000004004010B540F2FA
:107EB000056003F0BBFC2021044801F09BFF202358
:107EC00002221021014801F0E5FF10BD001401401D
:107ED00010B5044600BF09A000F0F4FF21460BA036
:107EE00000F0F0FF00BF24B12021124801F084FF10
:107EF00003E020210F4801F07DFF10BD3C3C4D59AF
:107F00005F44454255473E3E200000004C53504BD5
:107F10005F436F6E74726F6C5F5365744F75745608
:107F2000616C20737461747573203D2025640D0AA3
:107F3000000000000014014010B52021054802F0A7
:107F40000BF804460CB9012100E000210846FFF7B8
:107F5000BFFF10BD00140140704710B502F0DCFAFD
:107F600000F0A6F900F008F8002002F06DF90320F7
:107F700000F03AFC10BD000010B515A001F01EFB8A
:107F8000FFF7EAFF00F0EEF90A2004F07BFA00F0B8
:107F90001FF900F0FFF800F017FA00F05FF90A206F
:107FA00004F070FA00F036F80A2004F06BFA00F0E2
:107FB000BFFA00F06FFA00F01DFA0A2004F062FA2E
:107FC00002F0F8FA02F0ECFA0A2004F05BFA10BDB5
:107FD0000D0A204C54393231315F6D69706920745B
:107FE0006F2054544C0D0A0010B50020FFF744FDDB
:107FF00040F2066003F01AFC02231A4610210448DE
:1080000001F048FF0221024801F0F4FE10BD00001B
:108010000018014070B5D021FF20FFF7D9FB602187
:108020000C20FFF7D5FB60211C20FFF7D1FB70214E
:108030002420FFF7CDFB30212D20FFF7C9FB0A21BB
:108040003120FFF7C5FBF0212520FFF7C1FB3021D0
:108050002A20FFF7BDFB4F212120FFF7B9FB0021AC
:108060002220FFF7B5FB01211E20FFF7B1FB802185
:108070002320FFF7ADFB02210A20FFF7A9FB022115
:108080003820FFF7A5FB04213920FFF7A1FB0821C9
:108090003A20FFF79DFB10213B20FFF799FB0421BD
:1080A0003F20FFF795FB08214020FFF791FB1021AF
:1080B0004120FFF78DFB20214220FFF789FBA02103
:1080C0002B20FFF785FBD021FF20FFF781FB262027
:1080D000FFF759FB044604F07F0421462620FFF7F2
:1080E00077FB0F212720FFF773FB8121FF20FFF78C
:1080F0006FFBBF212020FFF76BFBFF212020FFF744
:1081000067FB052004F0BEF96F210B20FFF760FB31
:10811000FF210B20FFF75CFB642004F0B3F900257E
:1081200015E0C82004F0AEF9D021FF20FFF750FB86
:108130008720FFF728FB00F0080018B109A001F024
:108140003DFA06E00CA001F039FA681CC5B20A2D10
:10815000E7DB00BFD021FF20FFF73AFB9420FFF7B9
:1081600012FB70BD0D0A4C543932313120706372EC
:1081700020737461626C65000D0A4C5439323131E0
:108180002070637220756E737461626C65212121A9
:108190002100000010B58621FF20FFF719FB852183
:1081A0003020FFF715FBD821FF20FFF711FB00213E
:1081B0001620FFF70DFBD021FF20FFF709FB12214E
:1081C0004320FFF705FB05210220FFF701FB10BD4F
:1081D00010B5D021FF20FFF7FBFA00210846FFF77A
:1081E000F7FA8221FF20FFF7F3FA44210220FFF77C
:1081F000EFFA36210520FFF7EBFA26210D20FFF7D5
:10820000E7FA0C211720FFF7E3FA0C211D20FFF7F6
:10821000DFFA81210A20FFF7DBFA00210B20FFF7AC
:10822000D7FA9F210720FFF7D3FAFC210820FFF798
:10823000CFFA01210920FFF7CBFA01211120FFF726
:10824000C7FA8621FF20FFF7C3FA1B213320FFF76F
:10825000BFFA1B213420FFF7BBFA10BD10B58221F5
:10826000FF20FFF7B5FA48212D20FFF7B1FA822150
:108270003520FFF7ADFA10BD10B50446FFF7B4FE88
:108280000A2004F0FFF8FFF768FEFFF70DFA08B1C7
:10829000FFF7A8F94FF4FA7004F0F4F800F026FBA9
:1082A000642004F0EFF8002004F010F910BD000085
:1082B00010B50221064801F09DFD642004F0E2F8AB
:1082C0000221034801F098FD642004F0DBF810BDA2
:1082D0000018014010B50446642004F0D3F8D02102
:1082E000FF20FFF775FA608A01120D20FFF770FA80
:1082F000A17C0E20FFF76CFA208A01120F20FFF7F5
:1083000067FA217C1020FFF763FA217B1520FFF725
:108310005FFA608901121720FFF75AFAA17A182034
:10832000FFF756FA208901121120FFF751FA217A3E
:108330001220FFF74DFAE08801121320FFF748FAE8
:10834000A1791420FFF744FAA1781620FFF740FA2C
:10835000208801121920FFF73BFA21781A20FFF735
:1083600037FA10BD10B58221FF20FFF731FA18212E
:108370000120FFF72DFA8621FF20FFF729FA61215E
:108380000620FFF725FAA8210720FFF721FA872109
:10839000FF20FFF71DFA08211420FFF719FA00212A
:1083A0001520FFF715FA0F211820FFF711FA082101
:1083B0002220FFF70DFA00212320FFF709FA0F21F1
:1083C0002620FFF705FA10BD10B5642004F05AF816
:1083D0000348FFF77FFF03A001F0F0F810BD000095
:1083E0003000002031303234783630305F3630485B
:1083F0007A0D0A0010B54024FFF756F900B1502459
:108400001DA001F0DBF88521FF20FFF7E1F92146EF
:108410005920FFF7DDF9AA215A20FFF7D9F9AA213F
:108420005B20FFF7D5F900215C20FFF7D1F950213F
:108430008820FFF7CDF97721A120FFF7C9F9862120
:10844000FF20FFF7C5F940210846FFF7C1F93421A5
:108450004120FFF7BDF910214220FFF7B9F9232190
:108460004320FFF7B5F941214420FFF7B1F902217C
:108470004520FFF7ADF910BD0D4C54393231312094
:1084800073657420746F204F55545055545F4C568B
:108490004453000010B58221FF20FFF799F9002115
:1084A0006220FFF795F908213B20FFF791F992210F
:1084B0003E20FFF78DF948213F20FFF789F9312150
:1084C0004020FFF785F980214320FFF781F9002143
:1084D0004420FFF77DF900214520FFF779F90021BD
:1084E0004920FFF775F901214A20FFF771F90021B2
:1084F0004E20FFF76DF900214F20FFF769F90021A9
:108500005020FFF765F900215320FFF761F90121A1
:108510005420FFF75DF98121FF20FFF759F97921F8
:108520002020FFF755F9FF212020FFF751F910BD5A
:1085300010B58221FF20FFF74BF901213620FFF70C
:1085400047F929213720FFF743F906213820FFF7A3
:108550003FF930213920FFF73BF98E213A20FFF710
:1085600037F98121FF20FFF733F9F7212020FFF7AA
:108570002FF9FF212020FFF72BF98721FF20FFF79C
:1085800027F914213720FFF723F900211320FFF7E3
:108590001FF980211320FFF71BF9642003F072FFFD
:1085A00000241FE08721FF20FFF712F91F20FFF7AB
:1085B000EAF800F0800080B12020FFF7E4F800F036
:1085C000800018B10BA000F0F9FF02E00FA000F04E
:1085D000F5FF15A000F0F2FF06E00CA000F0EEFFA2
:1085E000601CC4B20A2CDDDB00BF16A000F0E6FF61
:1085F00010BD00004C543932313120747820706C39
:108600006C206C6F636B0D0A000000004C54393213
:10861000313120747820706C6C20756E6C6F636BD8
:1086200065640D0A000000004C5439323131207469
:108630007820706C6C2063616C20646F6E650D0A2D
:10864000000000002073797374656D207375636397
:108650006573730D0A00000010B540F2066003F068
:10866000E5F84FF4004302221021044801F012FC07
:108670004FF40041014801F0BDFB10BD001801405E
:1086800010B54FF40041024801F0B4FB10BD0000EA
:108690000018014010B54FF40041024801F0ACFB56
:1086A00010BD00000018014010B540F2046003F056
:1086B000BDF84FF4E06302224821024801F0EAFBD2
:1086C00010BD00000010014070B50446642C01DDAF
:1086D000642402E0002C00DA00240D490C7000BF75
:1086E0000CA000F0EFFB0A4801780EA000F0EAFBB6
:1086F00000BFC4F16400134909884843642190FB1A
:10870000F1F52A460221104803F0FFFA70BD00007F
:108710004A0000203C3C4D595F44454255473E3E8F
:10872000200000004C63645F70776D5F6F7574208C
:10873000675F6C63645F70776D203D2025640D0A70
:108740000000000048000020002C014010B510215E
:10875000014801F051FB10BD000C014010B5102183
:10876000014801F047FB10BD000C014010B540F27C
:10877000036003F05BF8102302221946034801F05E
:1087800089FB1021014801F035FB10BD000C0140B0
:1087900000BFFEE710B540F2056003F047F8402344
:1087A00002221021034801F075FB4021014801F02D
:1087B00021FB10BD001401407047000010B540F2CD
:1087C000046003F033F80F2302221021054801F062
:1087D00061FB0421034801F00DFB0B21014801F06E
:1087E0000BFB10BD0010014010B50446002C08DD45
:1087F000052C06DA601E012202FA00F1014801F0A0
:10880000FBFA10BD0010014010B50446012C04D144
:10881000C102084801F094FB10BD022C04D12102D2
:10882000044801F08DFBF7E78021024801F088FB46
:10883000F2E70000000C014010B540F2046002F0C5
:10884000F5FF2021044801F0D5FA2023022210214F
:10885000014801F01FFB10BD0010014010B5044697
:1088600000BF07A000F02EFB214609A000F02AFB64
:1088700000BF14B100F03AF801E000F02FF810BD8D
:108880003C3C4D595F44454255473E3E2000000068
:1088900053485444425F35494E5F436F6E74726F64
:1088A0006C5F5365744F757456616C20737461749A
:1088B0007573203D2025640D0A00000010B52021AD
:1088C000054801F049FB04460CB9012100E00021F4
:1088D0000846FFF7C3FF10BD0010014010B520216E
:1088E000014801F087FA10BD0010014010B52021A9
:1088F000014801F081FA10BD0010014010B540F2AE
:10890000046002F093FF4FF40061054801F072FA31
:108910004FF4006302221021014801F0BBFA10BDA0
:108920000010014010B5044600BF07A000F0CAFACD
:10893000214609A000F0C6FA00BF14B100F038F8D3
:1089400001E000F02BF810BD3C3C4D595F4445421E
:1089500055473E3E2000000053504B454E5F436F4D
:108960006E74726F6C5F5365744F757456616C20D2
:10897000737461747573203D2025640D0A00000036
:1089800010B54FF40061044801F0E6FA04462046B1
:10899000FFF7C8FF10BD00000010014010B54FF4F4
:1089A0000061024801F028FA10BD000000100140EB
:1089B00010B54FF40061024801F01CFA10BD000030
:1089C0000010014010B50446012C06D1C30202225A
:1089D00048210A4801F05EFA0EE0022C06D123027B
:1089E00002224821054801F055FA05E080230222C1
:1089F0004821024801F04EFA10BD0000000C014071
:108A000010B50446012C06D1C302022210210A48E7
:108A100001F040FA0EE0022C06D1230202221021BE
:108A2000054801F037FA05E08023022210210248B0
:108A300001F030FA10BD0000000C014010B500BF7D
:108A4000502080F31188BFF34F8FBFF36F8F00BFAB
:108A500004F050FC18B14FF080500449086000BF8A
:108A6000002080F3118800BF10BD000004ED00E07D
:108A700010B51448006840F001001249086008462B
:108A80004068114908400F494860084600680F498E
:108A900008400C4908600846006820F480200860FF
:108AA000084640680A490840064948600846006888
:108AB00006490840034908604FF41F00886002F02F
:108AC000E5FF10BD001002400C00FFE8FFFFF6FEBE
:108AD000FFFF00F77FB505460C464FF4E06002F05B
:108AE000A5FE684603F0F4F90295ADF8004069462A
:108AF0004FF0804003F05CF94FF0804003F04DF9F7
:108B00000121880703F0C8F9002207211C2002F088
:108B100089F80121880703F0BBF97FBD38B500252E
:108B2000002000900121880703F0BAF9002855D0F1
:108B30000121880703F0B0F92948007800F001000E
:108B40008DF800002648007800F002008DF8010042
:108B50002348007800F004008DF8020020480078D7
:108B600000F008008DF80300002414E01D48005DAB
:108B700004280CDA1B48005D1B49085C48B91948F9
:108B8000005D1DF80010204601F09EFB01E0681C0E
:108B9000C5B2601CC4B2272CE8DB002416E01248E2
:108BA000005D401C104908550846005D0F49095DED
:108BB000884209DB00200C4908550120A0400849E3
:108BC0000978484006490870601CC4B2042CE6DBF2
:108BD000272D03D14FF0804003F0DFF838BD0000AF
:108BE00070000020840100206C00002060D5000887
:108BF00070B5044600250221094800F02DFC084804
:108C000000F092FC0546052322460021044800F0AE
:108C100035FC0121024800F08BFC284670BD0000A5
:108C2000002401402DE9F04107460C4600250026AE
:108C300008E03846FFF7DCFF0544052003F022FC7E
:108C4000701CC6B2A642F4DBB5FBF4F080B2BDE8FE
:108C5000F0810000FFF78AFD00BF10E0FFF77EFD06
:108C60004FF4FA7003F00EFCFFF770FD4FF4FA704A
:108C700003F008FC0248007808B902F081FEEDE735
:108C80007800002010B50D490D4803F05EFA30B1B0
:108C90000A490B4803F04CFA00F038F90DE0094995
:108CA000074803F052FA30B10649054803F040FA8C
:108CB00000F0E0FC01E000F0C9FA10BD050305007A
:108CC000003801400703070010B51D491D4803F097
:108CD0003CFA88B11A491B4803F02AFAFDF7F2FE64
:108CE0001948007850BB4FF44171164803F013FA4D
:108CF00001201549087021E01449124803F025FAB3
:108D000030B112490F4803F013FAFDF7EFFE15E0FA
:108D10000F490C4803F019FA80B1FDF7C9FE0C4960
:108D2000084803F005FA0848007838B14FF441715B
:108D3000044803F0E3F900200349087010BD000067
:108D40000503050000440040280000200703070039
:108D5000040304007CB504460D460E4903C9CDE961
:108D60000001012C00DD7CBD0120A0400A490978EA
:108D7000084060B100BF5DF82400072103F09FF9AF
:108D80000028F8D05DF82400294603F046F900BF1A
:108D9000E9E7000048D50008050000202DE9F04172
:108DA00007460D461646002405E0295D3846FFF7C4
:108DB000D1FF601CC4B2B442F7DBBDE8F081F0B56E
:108DC00004460D464FF0FF370CB93846F0BD681E1B
:108DD000265CC1B22046FDF75DFEB04200D10027FF
:108DE0003846F3E700BFFEE710B540F2046002F03A
:108DF0001DFD4021044800F0FDFF40230222102108
:108E0000014801F047F810BD0010014010B50446BC
:108E100000BF09A000F056F821460BA000F052F860
:108E200000BF24B14021144800F0E6FF03E04021D8
:108E3000114800F0DFFF10BD3C3C4D595F444542F6
:108E400055473E3E200000005631325F43544C5F90
:108E5000436F6E74726F6C284D4F525345295F4FAC
:108E600075744869676820737461747573203D2058
:108E700025640D0A000000000010014010B54021DB
:108E8000054801F069F804460CB9012100E0002111
:108E90000846FFF7BBFF10BD0010014031B50A24A2
:108EA0000A23012269460548006803F0AFFE40F23C
:108EB0000731034803F02FF9009838BD1C0000204B
:108EC000004400400FB4054B10B503A9044A0298B2
:108ED00000F056F810BC5DF814FB00001D9B000864
:108EE000F00000200FB4084B10B504A902AA0398A3
:108EF00000F046F8044602A9002000F0A1F920463F
:108F000010BC5DF814FB0000419200081CB5084835
:108F100003F07EF8C0B20190002000906B46012261
:108F200001A90448006803F0FBFE9DF804001CBD85
:108F3000003801400C00002031B50A240A23012228
:108F400069460548006803F061FE40F207310348B6
:108F500003F0E1F8009838BD080000200038014017
:108F600002E008C8121F08C1002AFAD170477047F2
:108F7000002001E001C1121F002AFBD17047000050
:108F80002DE9FF4F8DB09B460F460446002606E0B4
:108F900025280BD05A460F999047641C761C2078E0
:108FA0000028F5D111B03046BDE8F08F0025A84665
:108FB0000122984900E0054314F8013F203B02FAE2
:108FC00003F00842F7D120782E2817D114F8010FAA
:108FD00045F004052A280ED06FF02F022078A0F16A
:108FE000300109290AD808EB880102EB410100EBA6
:108FF0000108641CF2E757F8048B641C20786C2885
:109000000DD004DC4C2812D06A2811D104E0742859
:109010000DD07A280CD10AE045F4001507E06178FC
:1090200045F48015814202D1641C05F58015641C4D
:109030002278692A45D008DC002AB3D0582A69D0A2
:10904000632A10D0642A08D13BE0702A67D0732AC3
:1090500013D0752A5CD0782A5CD010465A460F99F6
:109060009047761CD3E017F8040B8DF80000002021
:109070008DF80100E946012003E057F8049B4FF00A
:10908000FF3069074FF0000501D40AE06D1C45452B
:109090000DDA8542FADB19F805100029F6D106E051
:1090A0006D1C8542FCDB19F805100029F8D12E440F
:1090B00004E019F8010B5A460F9990476D1EF8D23B
:1090C000A5E00A200021CDE90801C5F302500228DD
:1090D0000DD001CFC117031E71F100030DDA4FF05F
:1090E000000CD0EB0C006CEB01012D2308E0FF1D00
:1090F00027F00707F7E80201EDE72B0504D52B233E
:109100008DF8283001233BE0EB0739D02023F7E727
:109110000A2000E010200021CDE9080107E010201E
:10912000002145F00405CDE908014FF00808C5F31A
:10913000025002280FD001CF00214FF0000A2B0768
:109140001FD5702A0DD0DDE908C38CF0100C5CEA45
:10915000030C0CD015E0FF1D27F00707F7E802010C
:10916000EBE740228DF828204FF0010A0BE050EA8F
:10917000010306D030238DF828308DF829200223F2
:109180009A46582A04D024A20DF120090B9209E036
:1091900026A2F9E7DDE90823FDF71FFA0B9B9B5C8C
:1091A00009F8013D50EA0102F4D1ADEB090020308D
:1091B0000890680701D44FF001080899884502DD3E
:1091C000A8EB010000E000208046002506E00AA888
:1091D0005A46405D0F9990476D1C761C5545F6DB4D
:1091E00004E030205A460F999047761CB8F10001F0
:1091F000A8F10108F5DC05E019F8010B5A460F99B2
:109200009047761C0899481E08900029F4DC641CDD
:10921000C5E60000092801003031323334353637D5
:1092200038396162636465660000000030313233B2
:109230003435363738394142434445460000000052
:109240000A68531C0B6010707047000010B54FF493
:1092500042711A4802F079FF40B119A000F0AEF94E
:109260004FF44271154802F063FF25E01C49134892
:1092700002F06BFF38B11BA000F0A0F918490F48AD
:1092800002F056FF18E01E490C4802F05EFF38B1AC
:109290001CA000F093F91A49084802F049FF0BE0BE
:1092A0002049064802F051FF30B11FA000F086F9B6
:1092B0001C49024802F03CFF10BD0000003801408C
:1092C0002A2A2A20555341525420706172697479B8
:1092D000206572726F7221202A2A2A0A000000007B
:1092E000000501002A2A2A20555341525420667253
:1092F000616D65206572726F7221202A2A2A0A0028
:10930000000503002A2A2A205553415254206F7623
:10931000657272756E206572726F7221202A2A2A18
:109320000A000000000502002A2A2A205553415253
:1093300054206E6F697365206572726F7221202AE6
:109340002A2A0A00816841F00801816000BF816813
:1093500001F008010029FAD1816841F0040181601F
:1093600000BF816801F004010029FAD1704730B5CF
:10937000012902D002291AD10CE0C36A23F4700338
:10938000C362C36A541E4FF4700505EA04542343B4
:10939000C3620DE0836B23F440138363836B541E1D
:1093A0004FF4401505EA04542343836300E000BFF3
:1093B00000BF30BD21B1826842F40062826003E0E8
:1093C000826822F400628260704730B5436823F4FB
:1093D000C0534360012904D0022913D0042916D1B7
:1093E00016E0436823F4604343604368541E4FF41F
:1093F000604505EA443423434360436843F4006313
:10940000436006E0436843F48053436001E000BFDB
:1094100000BF00BF30BD816801F0010119B981684A
:1094200041F0010181607047012902D0022910D169
:1094300007E0836823F460238360836813438360B9
:1094400008E0836823F4E043836083681343836008
:1094500000E000BF00BF704702688A4302607047A7
:109460000549096821F47021034A11601146096811
:10947000014311607047000004240140F0B51D460F
:1094800006290CDA436B01EB81071F26BE40B3436C
:1094900001EB810602FA06F63343436322E00C290E
:1094A0000EDA036B8E1F06EB86071F26BE40B34302
:1094B0008E1F06EB860602FA06F63343036311E0BD
:1094C00010290FDAC36AA1F10C0606EB86071F26E6
:1094D000BE40B343A1F10C0606EB860602FA06F67F
:1094E0003343C3620A2A0CDA046902EB42070726F7
:1094F000BE40B44302EB420605FA06F6344304616B
:1095000011E0122A0FDAC468A2F10A0606EB460738
:109510000726BE40B443A2F10A0606EB460605FA4A
:1095200006F63443C460F0BD0146C86C80B2704793
:1095300001F001021AB1826842F48002826001F0F7
:1095400002021AB1826842F4001282607047AAB126
:1095500001F480731BB1436843F48073436001F4EA
:1095600080631BB1436843F48063436001F00203EE
:10957000CBB1836843F00203836014E001F480738D
:109580001BB1436823F48073436001F480631BB113
:10959000436823F48063436001F002031BB18368D6
:1095A00023F00203836070470348006840F4000022
:1095B00001490860704700000824014010B50446C6
:1095C00004B910BD03E014F8010BFFF7B5FC2078D7
:1095D0000028F8D100BFF4E77FB505460E4600200D
:1095E00000900190029003908DF80F000A2E13D185
:1095F0000E240CE00A20B5FBF0F100FB11503030D6
:109600000DF804000A20B5FBF0F5601EC4B2102C62
:1096100023DA002DEED120E00E2417E005F00F0034
:109620000DF804001DF804000A2806DA1DF80400ED
:109630003030C0B20DF8040005E01DF804005730CA
:10964000C0B20DF804002D09601EC4B2102C01DA5E
:10965000002DE3D105A0FFF7B1FF0DEB0401481C7D
:10966000FFF7ACFF02A0FFF7A9FF7FBD2030780015
:10967000200000001CB5002000901048006803F096
:10968000CDF904462CB940F207310D4802F036FD01
:109690001CBD6B46012201A90848006803F06BFA63
:1096A00028B19DF804100020FFF754FB04E040F2BD
:1096B0000731034802F022FD00BFE9E7080000205F
:1096C000003801402DE9F04707463E460EB900BF7D
:1096D000FEE71B480068864201D100242DE002F01D
:1096E0001BFE75691748D0F800801748D0F8009025
:1096F00002F034FE454501D04D4501D102241CE065
:109700001248854212D1B06A70B90324002007E0E4
:1097100006F15401095C012901D1022402E0401C38
:109720000128F5DB00BF08E0022406E00848854276
:1097300000D00DB9042400E001242046BDE8F087E4
:1097400080000020840000208800002060030020AA
:109750004C0300200EB50020029002A80021022335
:109760000A46CDE900100448006803F039FC4FF4C4
:10977000805000F05FF80EBD1400002010B52C4B97
:109780001B6883432A4C2360231D1B688343241DCD
:109790002360231D1B688343241D2360231D1B6836
:1097A0008343241D236011B101290ED105E0204B14
:1097B0001B6803431E4C236008E01D4B1B1D1B68E8
:1097C00003431B4C241D236000E000BF00BF22B1F7
:1097D000012A0FD0022A27D119E0154B08331B6844
:1097E0000343134C08342360231D1B688343241D4B
:1097F00023601AE00E4B08331B6883430C4C08347B
:109800002360231D1B680343241D23600DE0084BC8
:1098100008331B680343064C08342360231D1B6870
:109820000343241D236000E000BF00BF10BD000003
:1098300000040140024909688143014A11607047F0
:1098400000040140024909680143014A1160704760
:109850000004014001490860704700001404014001
:1098600001460748006800EA01020548143800680C
:1098700000EA010312B10BB1012070470020FCE7A0
:109880001404014000B50346012200BF00F00CF8AB
:1098900002465B1E012A01D1002BF7D1012A00D11B
:1098A0000422104600BD000000200A49C96801F0EA
:1098B000010109B101200CE00649C96801F010015D
:1098C00009B1032005E00349C96801F0040101B1B1
:1098D000022070470020024000B50346012200BF6D
:1098E00000F00CF802465B1E012A01D1002BF7D1D3
:1098F000012A00D10422104600BD000000200A49C0
:10990000C96C01F0010109B101200CE00649C96CE4
:1099100001F0100109B1032005E00349C96C01F011
:10992000040101B1022070470020024070B50446D6
:109930000D4600262A480088B0F5007F35D2294818
:10994000844219D24FF47020FFF79CFF0646002E88
:1099500043D12548006940F0010023490861258072
:109960004FF47020FFF78EFF06461F48006920F075
:1099700001001D49086130E04FF47020FFF7ACFF93
:10998000064656BB1848006D40F0010016490865B0
:1099900025804FF47020FFF79FFF06461248006DA8
:1099A00020F001001049086517E04FF47020FFF720
:1099B00069FF06468EB90C48006940F001000A496B
:1099C000086125804FF47020FFF75CFF06460648CB
:1099D000006920F0010004490861304670BD0000B4
:1099E000E0F7FF1FFFFF07080020024030B50546E3
:1099F00036480088B0F5007F48D9354885421ED2E8
:109A00004FF47020FFF73EFF0446002C5BD1314835
:109A1000006940F002002F4908610846456100696D
:109A200040F0400008614FF47020FFF72BFF044620
:109A30002848006920F002002649086143E04FF4FD
:109A40007020FFF749FF0446002C3CD12148006DEF
:109A500040F002001F49086508464565C06900F0EE
:109A6000020008B1084645611A48006D40F0400008
:109A7000184908654FF47020FFF72EFF044615487B
:109A8000006D20F00200134908651CE04FF47020BF
:109A9000FFF7F8FE0446B4B90E48006940F0020032
:109AA0000C49086108464561006940F040000861C2
:109AB0004FF47020FFF7E6FE04460648006920F0E8
:109AC000020004490861204630BD0000E0F7FF1F96
:109AD000FFFF0708002002400C48006900F08000EA
:109AE00020B10B48094948600A4848600A48008884
:109AF000B0F5007F09D90548006D00F0800020B165
:109B00000348024948640348486470470020024003
:109B100023016745AB89EFCDE0F7FF1F70B5044621
:109B20000D462046FFF708FA204670BD30B50246C4
:109B30000B46164C002145F25550154D286000BFCC
:109B40001348C06800F00101601E041E01D0002906
:109B5000F6D109B1002030BD0D4843600B4C00BF69
:109B60000B48C06800F00201601E041E01D00029ED
:109B7000F6D109B10020EEE7C2F30B00044DA86056
:109B80004AF6AA2028600120E5E70000FFFF0F0049
:109B9000003000404CF6CC4001490860704700009E
:109BA0000030004045F25550014908607047000000
:109BB0000030004070B504460D46324E012C00D1F5
:109BC000314E0120A04031490978084000B170BDF4
:109BD0002F4931F8140001F029FE2E4931F8140004
:109BE00001F024FE2C4951F824302C4951F824006E
:109BF0000222182100F04EF9294951F82430274952
:109C000051F824000222042100F044F9304602F009
:109C100009FA2946304602F0B3F90021304602F035
:109C2000D0FA0021304602F0BCFA0021304602F0A2
:109C3000A8FA0021304602F059FA0021304602F01D
:109C40004DFA0421304602F0A4FA0821304602F011
:109C5000B0FA304602F02EFA40F20531304602F0FA
:109C60005AFA104A115D104A12F82400002200F03E
:109C7000D9FF0120A040054909780843034908702D
:109C800000BFA4E700380140004400400500002068
:109C900038D500081CD5000820D5000830D50008AC
:109CA00028D5000844D500083CD5000810B5034865
:109CB00000F04EF9C0F30224204610BD0010014010
:109CC00001480078704700005000002010B500BF28
:109CD00006A0FFF7F7F80948B0F9001008A0FFF751
:109CE000F1F800BF0548B0F9000010BD3C3C4D59EB
:109CF0005F44454255473E3E200000004C00002096
:109D00006765745F696E7465726E616C5F74656DB2
:109D1000702020675F696E745F74656D70203D20F0
:109D200025640D0A0000000070B50446282C01DDF2
:109D3000FF2070BD601EC4B20548224660C8284698
:109D40003146FCF747FA01210840C0B2F1E70000B4
:109D5000600000201EA0FFF7B5F8224800680088C8
:109D6000FF2804D11F4800688088FF2804D0FFF72F
:109D7000B3FE1D48FFF73AFE322002F083FBFFF7E7
:109D8000ABFE0F211848FFF7D1FD0F211648001D2B
:109D9000FFF7CCFD00BF00BF00BF00BF00BFBFF397
:109DA0004F8F00BF00BF00BF1048006800F4E060A4
:109DB0000F490843001D0D49086000BF00BF00BFE8
:109DC000BFF34F8F00BF00BF00BF00BF00BFFDE764
:109DD000676F746F5F6F74615F7570646174652025
:109DE0000D0A00007C000020005C00080CED00E083
:109DF0000000FA05416170470161704710B500220B
:109E00008B071C0F0F2303FA04F204290EDA204BF0
:109E10009B6893431E4CA36023469B688C07240FCA
:109E200000FA04F423431A4CA3602FE008290EDA49
:109E3000174BDB689343164CE3602346DB688C07C3
:109E4000240F00FA04F42343114CE3601EE00C29B4
:109E50000EDA0F4B1B6993430D4C236123461B699C
:109E60008C07240F00FA04F42343094C23610DE00E
:109E7000074B5B699343064C636123465B698C0720
:109E8000240F00FA04F42343014C636110BD000069
:109E900000000140F0B5044616460025002201F0FE
:109EA0000F0501F0100707B1354300201EE0012720
:109EB00087401F40C7B122684FEA800C0F2707FA7E
:109EC0000CF7BA43870005FA07F73A43282904D16B
:109ED000012787401F40676105E0482903D101271A
:109EE00087401F4027612260471CB8B20828DED394
:109EF000082022E0012787401F40E7B16268A0F1F7
:109F000008074FEA870C0F2707FA0CF7BA43A0F1AE
:109F10000807BF0005FA07F73A43282904D10127AB
:109F200087401F40676105E0482903D1012787402A
:109F30001F4027616260471CB8B21028DAD3F0BD19
:109F400002469068084008B1012070470020FCE7F5
:109F50000146886880B270470246D068084008B160
:109F6000012070470020FCE70146C86880B27047B6
:109F7000F0B50A46002300240021002500F0004629
:109F8000B6F1004F02D11D4EF16901E01B4E716820
:109F9000C0F3034583B200F44016B6F5401F08D164
:109FA00021F07061154E766826F07066134F7E6062
:109FB00012E000F48016B6F5801F06D1032606FADB
:109FC00005F4A14341F0706106E0460D360103FA45
:109FD00006F6B14341F0706122B1460D360103FA35
:109FE00006F6314300F00046B6F1004F02D1034EB1
:109FF000F16101E0014E7160F0BD00000000014020
:10A00000C160704710B500200649087006A0FFF730
:10A01000D5FA0AA003F026F918B10A48006802F040
:10A0200055FA10BD50000020686172645F77746457
:10A030005F64697361626C650D0A0000687774641F
:10A0400000000000540000201CB5012009490870E0
:10A05000094800880949088009A0FFF7AFFA0D48B0
:10A06000022100234022CDE900100BA10C4802F090
:10A07000EBFE1CBD50000020580000205A000020BC
:10A08000686172645F7774645F656E61626C650DB0
:10A090000A0000005400002068777464000000008B
:10A0A000D1A0000810B5044800880449088004A025
:10A0B000FFF784FA10BD0000580000205A0000206D
:10A0C000686172645F7774645F666565640D0A0039
:10A0D00015E00B48007878B10A48008860B109485B
:10A0E0000088401E074908800846008820B906A05D
:10A0F000FFF764FA00F052F8642002F0C3F9E8E7D1
:10A10000500000205A000020686172645F77746418
:10A110005F666565645F7461736B2074696D656FFC
:10A1200075740D0A0000000001480088C0B2704735
:10A130005800002010B540F2026001F077FB80214A
:10A140001548FFF757FE40211348FFF755FEE0235F
:10A15000022210211048FFF79DFE10230222482101
:10A160000D48FFF797FE4FF4C06001F05FFB04213C
:10A170000020FFF743FE012200211020FFF7FEFA26
:10A180001020FFF75FFB1020FFF764FB0222012184
:10A190000A2000F047FD10BD0008014010B5042161
:10A1A0000848FFF727FE40210748FFF723FEC82095
:10A1B00002F068F940210448FFF71EFEFFF722FF76
:10A1C00010BD000000100140000801400249088055
:10A1D0000988024A11807047580000205A00002068
:10A1E000044604210948FFF705FEFFF7DBFC24B90C
:10A1F0000121FF20FFF79AFC04E0042140F6FF70E4
:10A20000FFF794FCFFF7C6FC00BFFEE7001001401B
:10A2100010B50B480078642803DBFF20094908705B
:10A2200005E00748007810B9012006490870054983
:10A23000097801EB8101490048B2FDF7B3FD10BD7B
:10A24000740000207500002010B504462146282027
:10A2500000F014F810BD000010B504462CB14FF406
:10A2600080710548FFF7C8FD04E04FF48071024893
:10A27000FFF7C0FD10BD00000018014070B5044696
:10A280000E46012C01DB282C00DD70BD601EC4B21F
:10A29000272C0DD14FF0804001F07FFD002504E018
:10A2A000052008494855681CC5B2282DF8DB02E096
:10A2B0000520044908553146204600F005F800BF46
:10A2C000E3E700008401002070B504460D46282C09
:10A2D00004DA611CC8B200F08DF800E070BDB5B1C1
:10A2E0004FF480411A48FFF787FD272C05D14FF026
:10A2F000FF30184A106050601FE00120A040C117D5
:10A30000144B0CCB10431943124A03C215E04FF40F
:10A3100080410F48FFF76EFD272C04D100210D4A24
:10A320001160516009E00120A040C043C117094BF2
:10A330000CCB10401940074A03C20120FFF78CFFE5
:10A340001E20FCF7F7FF0020FFF786FF00BFC5E7E0
:10A35000001401406000002070B540F2056001F07B
:10A3600065FA4FF49043022210211E48FFF792FD38
:10A370004FF490411B48FFF73DFD40F2066001F0AD
:10A3800055FA7C252B46022210211748FFF782FD43
:10A3900029461548FFF72EFD4FF480711248FFF74C
:10A3A00029FD4FF48073022210210F48FFF772FD40
:10A3B0006420FDF717FD0D48006842F21071B0FBF4
:10A3C000F1F0401E86B2314640F2E730FEF782FBE4
:10A3D000002404E0052006490855601CC4B2282C5E
:10A3E000F8DB70BD0014014000180140EC000020B3
:10A3F0008401002070B504460E48FFF7B5FD054600
:10A4000025F07C0504F03E0045EA40052946094850
:10A41000FFF7F6FD04F0010028B14FF40061064893
:10A42000FFF7EAFC04E04FF400610348FFF7E2FCA9
:10A4300070BD0000001801400014014030B587B025
:10A44000044640F2036001F0F1F94FF400430222A8
:10A4500018212B48FFF71EFD40F20B6001F0E6F9D2
:10A46000642C00DD64242748047003A801F030FD4B
:10A4700025480088401E0590244800682449B0FB08
:10A48000F1F0401E80B2ADF80C0003A9214801F0A4
:10A490008FFC684601F079FC0420ADF802006A46A2
:10A4A00002211C4801F00EFB70220221194801F024
:10A4B000FFFBC4F16400144909884843642190FB00
:10A4C000F1F52A460221134801F01FFC0022022167
:10A4D000104801F02DFC01210E4801F0EDFC0D4863
:10A4E00001F0EBFA4FF48043022210210448FFF7F9
:10A4F000D1FC4FF480410248FFF77CFC07B030BD2F
:10A50000000C01404A00002048000020EC00002020
:10A5100040420F00002C014010B54FF480710648F6
:10A52000FFF768FC642001F0ADFF4FF48071024832
:10A53000FFF762FC10BD00000014014010B540F2AE
:10A54000056001F073F94FF4807302221021044872
:10A55000FFF7A0FC4FF480710148FFF74DFC10BDE0
:10A560000014014070B50446A61104F03F00401EDF
:10A57000C4B2282C10DA4FF0804001F013FC272CD5
:10A5800008D1002503E005484655681CC5B2282DB2
:10A59000F9DB01E00148065570BD00008401002090
:10A5A00010B58221FF20FDF713F938213B20FDF77C
:10A5B0000FF910BD10B58121FF20FDF709F9FB212E
:10A5C0000D20FDF705F90A2001F05CFFFF210D20A9
:10A5D000FDF7FEF810BD00001CB54FF4C0414FF070
:10A5E000006000F07FFBFCF739FA25A0FEF7E6FFDC
:10A5F00029480068FEF7E2FF26A0FEF7DFFF0020F3
:10A60000022103462022CDE9001024A1264802F0B1
:10A610001BFC0020022103467022CDE9001023A17B
:10A62000244802F011FC0020042103465022CDE909
:10A63000001021A1224802F007FC22480421002337
:10A640008022CDE9001020A1214802F0FDFB214825
:10A65000032100238022CDE900101FA1204802F031
:10A66000F3FB0020022103464022CDE900101DA18A
:10A670001E4802F0E9FB02F0E3F800BFFEE700002D
:10A680006672656572746F73202C20696E69742020
:10A690006F6B21210D0A0000000000205461736BD4
:10A6A0004C65643100000000558C000864656275DB
:10A6B00067720000ED7100086C74393231310000AE
:10A6C0007982000824000020546F43707500000058
:10A6D00045720008140000206B65795F626F6400AA
:10A6E00095BA000874656D7000000000897D00084F
:10A6F0007CB505461DA00068019000260120A840F9
:10A70000C6B2334601220021022000F072FA002373
:10A710001A461946022000F06CFA01AA0021022014
:10A7200000F056FA6B4600221146022000F039FA7A
:10A7300058B99DF8000000F03F0020B19DF80000DE
:10A7400000F03F0405E07F2403E009A0FEF7BAFB18
:10A75000FF2400208DF80400FF208DF8050001AAD9
:10A760000021022000F034FA20467CBDFF000000EA
:10A770004552524F523A204B45595F524F575F5303
:10A7800043414E206E6361393535355F72656164D2
:10A790005F696E706F72740D0A00000008B51EA02C
:10A7A00000680090022000F0F6F96A4600210220BD
:10A7B00000F00EFA00231A461946022000F019FA9A
:10A7C00040F2036001F032F84FF4C06001F02EF85F
:10A7D0004FF48053022248211048FFF75BFB0C2105
:10A7E0000120FFF70BFB012200211003FEF7C6FF3B
:10A7F0004FF48050FFF726F84FF48050FFF72AF807
:10A8000000220721282000F00DFA00F00BF890211B
:10A810000348FBF708FD08BD00FF0000000C0140E5
:10A82000F400002008B56B4601220021022000F050
:10A83000B8F960B99DF8000000F03F003F2804D04F
:10A840009DF8000000F03F0008BD3F20FCE702A09B
:10A85000FEF738FBFF20F7E74552524F523A204BA4
:10A8600045595F524F575F5343414E206E636139E4
:10A870003535355F726561645F696E706F72740D36
:10A880000A0000002DE9F0474FF00008C146FFF72D
:10A89000C9FF8046B8F13F0F79DA002670E06548BD
:10A8A000835D00221146022000F0A3F920B1314659
:10A8B00061A0FEF707FB61E0FFF7B4FF8046B8F147
:10A8C0003F0F03DB09F1010000F0FF09002752E010
:10A8D000062000FB0670C4B248FA07F000F0010041
:10A8E00020BB624830F81400022842DA5F4830F892
:10A8F0001400401C81B25D4820F8141030F8140098
:10A90000022836D10120594948390855611CC8B27E
:10A91000012100F0BBFF5648007818B1611C55A01A
:10A92000FEF7D0FA01205849087022E04F48483815
:10A93000005DF0B13846FFF7DBFE05463F2D14DB26
:10A9400000204A4948390855611CC8B2002100F06E
:10A950009DFF4748007818B1611C4CA0FEF7B2FA81
:10A960000021424820F8141003E02946384600F040
:10A97000A5F8781CC7B2062FAADB00BF701CC6B2B0
:10A98000062E8CDBB9F1060F4ADB00240CE00EE04A
:10A990002046FFF7ADFE05463F2D03DA2946204647
:10A9A00000F08CF8601CC4B2062CF1DB38E03648AD
:10A9B0000078A8B300242EE02C484838005D00B38E
:10A9C000062094FBF0F100FB1140C7B23846FFF7B8
:10A9D0008FFE05463F2D18DB0020244948390855D5
:10A9E000611CC8B2002100F051FF2148007818B165
:10A9F000611C2CA0FEF766FA00211C4820F81410F8
:10AA000003E02946384600F059F80021174820F89D
:10AA10001410601CC4B2242CCEDB00201A4908702C
:10AA200000231A461946022000F0E3F80020BDE892
:10AA3000F087000050D500084552524F523A204B43
:10AA400045595F524F575F5343414E206E63613902
:10AA50003535355F77726974655F6F7574706F72C5
:10AA60007420693D25640D0A000000003C010020AF
:10AA7000100000202D2D2D2D62746E3A256420705B
:10AA8000726573730D0A0000180000202B2B2B2B0E
:10AA900062746E3A25642072656C656173650D0A97
:10AAA000000000002323232362746E3A2564207281
:10AAB000656C656173650D0A000000002DE9F041C9
:10AAC00007460E460EB13F2E01DBBDE8F081052F93
:10AAD00000DDFAE700253CE0062000FB0570C4B26B
:10AAE000232C00DD33E046FA05F000F00100B0B1A0
:10AAF0001A48005D002829D1012018490855611C19
:10AB0000C8B2012100F0C2FE1548007818B1611CDE
:10AB100014A0FEF7D7F901201749087016E00F4876
:10AB2000005D98B100200D490855611CC8B2002194
:10AB300000F0ACFE0A48007818B1611C0FA0FEF7C7
:10AB4000C1F900210548483020F8141000BF681CE6
:10AB5000C5B2062DC0DB00BFB7E70000F40000203F
:10AB6000100000204023402362746E3A2564207058
:10AB7000726573730D0A00001800002040404062A7
:10AB8000746E3A25642072656C656173650D0A0008
:10AB90000020FFF725FB10B504462046FCF76CFFAC
:10ABA00010BDF8B506460D4614461F4605F00E05C5
:10ABB00045F040050CB1012000E0002004460120D2
:10ABC000E2B23B46294600903046FCF7B7FFF8BD9D
:10ABD000F8B506460C46154604F00E0444F0400451
:10ABE00002202B460622214600903046FCF7D4FF77
:10ABF000F8BD7FB582B006460C46154604F00E043B
:10AC000044F040040DB1012000E000200546012081
:10AC10000090A81CC2B205AB21463046FCF7BCFF31
:10AC200006B070BD2DE9F04103460D4616460024DE
:10AC30000027A0462448006800F4E060B0F5A06F4B
:10AC400015D006DCB0F5407F18D0B0F5806F19D173
:10AC500010E0B0F5C06F06D0B0F5E06F12D100275C
:10AC60004FF0040815E001274FF0030811E0022718
:10AC7000B8460EE003274FF001080AE004274FF022
:10AC8000000806E04FF4A06000F022F80227B84662
:10AC900000BF00BFC7F1040005FA00F4C8F10401C9
:10ACA0000F20C8403040044324010848C45403F036
:10ACB0001F01012088405911890001F1E021C1F8EC
:10ACC0000001BDE8F08100000CED00E000E400E0D0
:10ACD00002490143024A1160704700000000FA0572
:10ACE0000CED00E0024A0A400243024B1A60704732
:10ACF00080FFFF1F08ED00E02DE9F04105460E46FC
:10AD00001C4807681C480068001D01F062FA50B931
:10AD10001948006890F82C100120884017490968EC
:10AD2000814316480160681C38B936B11248016881
:10AD3000091D134801F0E4FA1AE07C190E48006876
:10AD40004460BC4207D20C480168091D0D480068E8
:10AD500001F0BCFA0CE008480168091D0A480068C7
:10AD600001F0B4FA09480068844201D2074804603F
:10AD7000BDE8F081940000208000002098000020B1
:10AD8000600300208800002084000020B000002024
:10AD900010B5044601F0C0FA24480068401C23495D
:10ADA00008602348006840B92148046008460068EC
:10ADB00001280DD100F04CF90AE01E48006838B9AE
:10ADC0001B480068C06AE16A884201D818480460DC
:10ADD00019480068401C184908600846006820644B
:10ADE00094F82C100120884014490968084313493D
:10ADF0000860E16A01EB8101114A02EB8100211D2B
:10AE000001F07EFA01F0AAFA0A48006868B1084821
:10AE10000068C06AE16A884207D24FF08050094951
:10AE20000860BFF34F8FBFF36F8F10BD90000020FD
:10AE3000800000209C000020AC0000209800002032
:10AE4000AC02002004ED00E00146D1E90132D01847
:10AE50000A68801A8A68824201D88A68801A704714
:10AE600010B516E001F058FA0C48C068C468201DFF
:10AE700001F0AFF90A480068401E09490860094816
:10AE80000068401E0749086001F068FA204600F09B
:10AE90000BF8044800680028E4D110BD4C030020E2
:10AEA000900000208C00002010B50446206B01F0BB
:10AEB0006BFA204601F068FA10BD000030B54FF47F
:10AEC0002053174800F007042CB1C01D20F00700E4
:10AED000134C041B1B1B0246124C22600024114D14
:10AEE0006C60D018083820F007000F4C2060002458
:10AEF0000D4D2D686C600C4D2D682C601146441A68
:10AF00004C60094C24680C60084D4C682C60084D5E
:10AF10004C682C604FF00044064D2C6030BD0000A2
:10AF200074030020CC000020D4000020DC000020AE
:10AF3000D8000020E800002000BFFFF791FF06487E
:10AF400000680128F9D94FF0805004490860BFF328
:10AF50004F8FBFF36F8FF0E7AC02002004ED00E0ED
:10AF60002DE9F04704460D4616461F46DDF82080C1
:10AF70004FF05509324655212846FBF756F9A842AD
:10AF800001D1012000E0002008B900BFFEE7242124
:10AF90002046FBF748F9A561A660E76084F81C80AD
:10AFA000BDE8F0872DE9F05F82460E4690469B464D
:10AFB0000A9F0C9C4FEA8801A522206BFBF72CF915
:10AFC000A8F10100216B01EB800929F0070909F0C4
:10AFD000070008B9012000E0002008B900BFFEE723
:10AFE00086B1002507E0715D04F134004155705DC4
:10AFF00000B902E06D1C0A2DF5D300BF00213D20F1
:10B00000015502E0002084F83400052F00D3042706
:10B01000E762A7640020E064201D01F054F904F108
:10B02000180001F050F92461C7F10500A0616462C5
:10B030000020206584F854005A465146484600F0E6
:10B04000C5FA20600B9808B10B980460BDE8F09F2A
:10B0500010B5002407E004EB84010F4A02EB8100E5
:10B0600001F024F9641C052CF5D30C4801F01EF9FD
:10B070000B4801F01BF90B4801F018F90A4801F0E0
:10B0800015F90A4801F012F9044809490860044812
:10B090000849086010BD0000AC0200201003002029
:10B0A00024030020380300204C030020600300200C
:10B0B000840000208800002010B50146164800E0FA
:10B0C000006803688B42FBD30246436813448B42FB
:10B0D00004D143684C682344436001460A464B68E8
:10B0E00013440468A34211D10C4C03682468A342A2
:10B0F00008D04B680468646823444B6003681B688D
:10B100000B6005E0054B1B680B6001E003680B60FA
:10B11000884200D0016010BDCC000020D400002087
:10B120002DE9F04707460C4690460026206848B3B4
:10B13000204641684968416000F1080142688A423E
:10B1400002D14168496841604168D1F80C9000BF64
:10B15000204641684968416000F1080142688A421E
:10B1600002D14168496841604168CD6806EBC6007C
:10B1700007EB800143460122284601F091FA761C34
:10B180004D45E5D13046BDE8F0872DE9F04704464E
:10B19000894690469A46C24501D2504600E0404654
:10B1A0000646002E38D02568A068401BB04202D267
:10B1B000A068401B00E030460746474501D8012003
:10B1C00000E0002008B900BFFEE7E819A168884246
:10B1D00001D8012000E0002008B900BFFEE7A06907
:10B1E00041193A464846FBF705F8BE420DD9464597
:10B1F00001D8012000E0002008B900BFFEE7F21BE3
:10B2000009EB0700A169FAF7F5FF3544A068A842E9
:10B2100001D8A0682D1A25603046BDE8F0872DE9D9
:10B22000F84F05468A46164698460A9F87B1D5F8D4
:10B23000009043463A4669462846FFF7A6FF009C21
:10B24000A8EB0708B44204D9C5F80090002400E038
:10B2500034464346224651462846FFF796FF83462A
:10B260005846BDE8F88F000009480068006808B932
:10B27000012000E0002020B14FF0FF3005490860B8
:10B2800005E003480068C06800680249086070472C
:10B2900084000020B00000202DE9F04302460D4656
:10B2A0000027106800284CD01046D0F80480D8F849
:10B2B0000480C0F8048000F10808D0F80490C1456B
:10B2C00005D1D0F80480D8F80480C0F80480D0F804
:10B2D0000480D8F80C6000BF1046D0F80480D8F87D
:10B2E0000480C0F8048000F10808D0F80490C1453B
:10B2F00005D1D0F80480D8F80480C0F80480D0F8D4
:10B300000480D8F80C104FF0000C002311E001F17C
:10B310003400C45CE85CA04202D04FF0010C03E0B2
:10B3200014B90F464FF0010CBCF1000F00D002E041
:10B330005B1C0A2BEBD300BF07B101E0B142CBD1BC
:10B3400000BF3846BDE8F0830246002101E0521CF0
:10B35000491C1078A528FAD0890888B270470000E7
:10B360000A480068401C08B9012000E0002008B924
:10B3700000BFFEE700BF502080F31188BFF34F8F5E
:10B38000BFF36F8F00BF00BFFEE70000C0000020CA
:10B390002DE9F0410446884616460EB1012000E032
:10B3A000002008B900BFFEE76568A068401BB042F6
:10B3B00002D2A068401B00E030460746E819A168A9
:10B3C000884201D8012000E0002008B900BFFEE754
:10B3D000A16948193A464146FAF70CFFBE420FD917
:10B3E000F01BA168884201D8012000E0002008B9C4
:10B3F00000BFFEE7F21B08EB0701A069FAF7FAFEAF
:10B400003544A068A84201D8A0682D1A656030466E
:10B41000BDE8F0812DE9FF47074688461D46DDF867
:10B4200030900DB9002416E0387F00F0010040B9DB
:10B4300001240298A84201D2029800E02846029016
:10B4400009E04D4506D30124042202A93846FFF73E
:10B450009FFF00E0002434B141463846029AFFF7CE
:10B4600097FF064600E00026304604B0BDE8F087AE
:10B4700070B505460E4631462846FAF7E6FE2846E0
:10B48000FAF7DCFE044602E020202855641C092C53
:10B49000FAD300202855281970BD00002DE9F0418D
:10B4A00004464FF0000801F00BFA4248006808B962
:10B4B000FFF704FD40480068204000286CD1F4B13B
:10B4C00004F10800A0421AD9083404F00700B8B10A
:10B4D00004F00700C0F108002044A0420DD904F098
:10B4E0000700C0F10800044404F0070008B9012077
:10B4F00000E0002020B900BFFEE7002400E00024A7
:10B50000002C49D02D480068844245D82C4E304646
:10B51000056801E02E462D686868A04202D22868BE
:10B520000028F7D123480068854235D0306800F103
:10B530000808286830606868001B102810D92F1987
:10B5400007F0070008B9012000E0002008B900BF9B
:10B55000FEE76868001B78606C603846FFF7ACFD5A
:10B56000164968680968081A14490860084600689E
:10B5700014490968884203D21048006811490860DC
:10B580000D496868096808436860002028600E4813
:10B590000068401C0C49086001F046FF08F00700F5
:10B5A00008B9012000E0002008B900BFFEE74046CE
:10B5B000BDE8F081D4000020E8000020D800002081
:10B5C000CC000020DC000020E0000020001F4FF035
:10B5D00080730360001F21F001030360001F034B11
:10B5E00003601438026020387047000061B300081F
:10B5F00010B509A0FDF7E2FF15A0FDF7DFFF214818
:10B6000001F09CF81F48FDF7D9FF1FA0FDF7D6FFFA
:10B610001EA0FDF7D3FF10BD2D2D2D2D2D2D2D2D71
:10B620002D2D2D2D2D2D2D2D2D2D2D2D2D2D7461CF
:10B63000736B20696E666F2D2D2D2D2D2D2D2D2DCB
:10B640002D2D2D2D2D2D2D2D2D2D2D0D0A000000F4
:10B650005461736B4E616D6520205461736B53743C
:10B66000617465205072696F7269747920204C652D
:10B670006674537461636B20205461736B4E756DF7
:10B68000200D0A00AC0100200D0A00002020423AE3
:10B6900020426C6F636B2020523A205265616479BE
:10B6A0002020443A2044656C6574652020533A207C
:10B6B00053746F702020583A2052756E200D0A0086
:10B6C0000F4A51680F4A1140082814D2DFE800F0F1
:10B6D00004050607130A130B00BF00BF00BF41EAB1
:10B6E000803109E000BF20F004004FF0805242EAB0
:10B6F0008032114300E000BF00BF014A5160704733
:10B7000000100240FF3FFFEF2DE9F04F8BB00746DE
:10B71000002009903EA090E8004CC068CDE905BE2D
:10B72000CDF810A007900FF2EC0ADAE9000ACDE993
:10B73000020A0FF2E00ADAE9000ACDE9000A384805
:10B740004068C0F381000A900A9820B1012804D013
:10B75000022829D103E0334928E0324926E0304865
:10B76000406800F48038B8F5803F09D12D4C2C4852
:10B77000406800F40039B9F5003F02D1641000E0E0
:10B78000294C27484068C0F383422548406800F0B0
:10B79000006008B142F010020F2A01D2921C00E0B2
:10B7A000521C04FB02F101E01E4900BF00BF1C480F
:10B7B0004068C0F3031504A8465D21FA06F3184853
:10B7C0004068C0F3022502A8465D23FA06FC14482F
:10B7D0004068C0F3C2251DF8056023FA06F0089002
:10B7E00037B1012F06D0022F06D0032F0AD106E071
:10B7F000099108E0099306E0CDF824C003E0089819
:10B80000099000E000BF00BF09980BB0BDE8F08FC1
:10B810000000000000000000010203040607080900
:10B820000010024000127A0000093D00064A02EBB7
:10B830009011096800F01F0301229A401143024B46
:10B8400003EB90121160704700100240064A02EBB1
:10B850009011096800F01F0301229A409143024BA6
:10B8600003EB90121160704700100240064A02EB91
:10B870009011096800F01F0301229A401143024B06
:10B8800003EB901211607047001002407CB5054632
:10B890000C461148007800F0020018B90FA0FDF71F
:10B8A0008DFE7CBDA5208DF800008DF801508DF82F
:10B8B00002409DF800009DF8011008449DF8021018
:10B8C0000844C0B28DF80300042269460120FDF748
:10B8D00065FA00BFE5E70000050000206572726FA1
:10B8E000723A20544F4350555F434F4D206E6F7452
:10B8F00020696E69740A000070B50446642C01DD8D
:10B90000642402E0002C00DA00240D490C7000BF12
:10B910000CA0FDF7D7FA0A4801780EA0FDF7D2FA7D
:10B9200000BFC4F16400144909884843642190FBB6
:10B93000F1F52A460221114800F0E7F970BD000038
:10B94000740000203C3C4D595F44454255473E3E03
:10B95000200000004B6C6564735F70776D5F6F75DE
:10B960007420675F6B6C6564735F70776D203D203A
:10B9700025640D0A00000000720000200004004051
:10B9800010B50D4800684088FF280CD10BA0FDF7CA
:10B9900099FAFEF7A1F80F210F48FDF7C7FF012024
:10B9A0000E49087007E00448006840880F2802D15B
:10B9B00001200A49087010BD7C0000207365745F87
:10B9C0006F74615F7570646174655F7375636365DF
:10B9D0007373200D0A000000025C0008780000204C
:10B9E00000200021264A126842F00102244B1A600E
:10B9F00000BF401C224A126802F0020111B9B0F5E2
:10BA0000A06FF6D11E4A126802F002020AB900BF06
:10BA1000FEE71B4A52681A4B5A601A4652685A602F
:10BA20001A46526842F480625A601A465268154BB0
:10BA30001A40134B5A601A465268134B1A43104B64
:10BA40005A601A46126842F080721A6000BF0C4AAF
:10BA5000126802F00072002AF9D0094A526822F0F6
:10BA60000302074B5A601A46526842F002025A60BB
:10BA700000BF034A526802F00802002AF9D070475A
:10BA800000100240FFFFC3F70000280810B5FFF7C1
:10BA9000A7FF10BDFEF782FE0EE04FF0FF3200213F
:10BAA000084600F021FAFEF7EDFE1E2000F0EAFC49
:10BAB0004FF48050FDF7C6FEEFE7016841F08001CA
:10BAC0000160704710B531B101293FD002297DD006
:10BAD00003297CD1BFE0036A23F001030362836979
