:020000040800F2
:10000000F0490020B1010008410D00084F0600082A
:100010003D0D00080D0300085B0F00080000000004
:1000200000000000000000000000000019010008AE
:10003000D9050008000000005D010008ED0D000872
:10004000CB010008CB010008CB010008CB01000860
:10005000CB010008CB010008CB010008CB01000850
:10006000CB010008CB010008CB010008CB01000840
:10007000CB010008CB010008CB010008CB01000830
:10008000CB010008CB010008CB010008CB01000820
:10009000CB010008CB010008CB010008CB01000810
:1000A000CB010008CB010008CB010008CB01000800
:1000B000CB010008CB010008CB010008CB010008F0
:1000C000CB010008CB010008CB010008CB010008E0
:1000D000CB010008A90E0008CB010008CB010008E5
:1000E00035060008CB010008CB0100080000000025
:1000F0000000000000000000000000000000000000
:10010000CB010008DFF80CD000F0BAF80048004737
:1001100021180008F0490020224B19680868B0E84F
:10012000F00F80F30988BFF36F8F4FF0000080F36A
:1001300011884EF00D0E7047000000000648006860
:10014000006880F3088862B661B6BFF34F8FBFF3D3
:100150006F8F00DF00BF00BF08ED00E0EFF3098004
:10016000BFF36F8F0F4B1A6820E9F00F106008B5CE
:100170004FF0500080F31188BFF34F8FBFF36F8FA4
:1001800002F096FD4FF0000080F31188BDE80840B2
:1001900019680868B0E8F00F80F30988BFF36F8F23
:1001A000704700BF24000020EFF305807047000077
:1001B0000648804706480047FEE7FEE7FEE7FEE701
:1001C000FEE7FEE7FEE7FEE7FEE7FEE7210E00089A
:1001D0000501000840EA01039B0703D009E008C9B4
:1001E000121F08C0042AFAD203E011F8013B00F8FC
:1001F000013B521EF9D27047D2B201E000F8012B48
:10020000491EFBD270470022F6E710B513460A4696
:1002100004461946FFF7F0FF204610BD2DE9F05FB8
:100220000546002092469B46884606468146402465
:100230001BE0284641464746224600F042F8534616
:100240005A46C01A914110D311461846224600F072
:1002500029F82D1A67EB01084F462246012000219C
:1002600000F020F817EB00094E41201EA4F1010414
:10027000DFDC484631462A464346BDE8F09F000091
:10028000064C074D06E0E06840F0010394E80700E3
:1002900098471034AC42F6D3FFF738FF4C390008CA
:1002A0006C390008202A04DB203A00FA02F1002011
:1002B00070479140C2F1200320FA03F319439040A4
:1002C0007047202A04DB203A21FA02F0002170470F
:1002D00021FA02F3D040C2F12002914008431946AE
:1002E0007047000010B54FF4407001F0A3FC4FF4CC
:1002F000C06002F007F90121034801F049FA4FF408
:10030000E13000F04FF910BD0002300000BFFEE701
:1003100010B50446A4F13000072805D2DFE800F04C
:100320000B14181C20242500214611A000F018FEF3
:1003300000F072F800BF1848016818A000F010FE25
:1003400018A000F00DFE11E01FA000F009FE0DE066
:1003500022A000F005FE09E024A000F001FE05E067
:1003600028A000F0FDFD01E000E000BF00BF10BDCF
:100370004552524F523A20436F6D6D616E64205565
:100380006E6B6E6F7720636D64203D20307825782A
:100390002121210D0A0000000000002025730D0A14
:1003A00000000000417574686F723A4A4326446148
:1003B0005A6869203C76783A3238353430383133EF
:1003C000363E0D0A00000000675F6C63645F707763
:1003D0006D203D203130300D0A000000675F6C63F6
:1003E000645F70776D203D20300D0A007265736583
:1003F0007420636F726520626F61726421210D0A3F
:10040000000000007265736574204C434420262070
:10041000393231310D0A000010B50EA000F0A0FDF8
:1004200010A000F09DFD17A000F09AFD23A000F0A1
:1004300097FD30A000F094FD34A000F091FD39A0AC
:1004400000F08EFD40A000F08BFD47A000F088FD7D
:1004500010BD00000D0A446562756720636D643A43
:100460000D0A0000302E207072696E742050726F79
:100470006772616D206275696C642074696D650DC9
:100480000A000000312E203720696E6368206C63FB
:10049000642050574D20696E63726561636528352D
:1004A000696E6368206C636420686173206E6F20DE
:1004B000656666656374290D0A000000322E2037D8
:1004C00020696E6368206C63642050574D2064651A
:1004D0006372656163652835696E6368206C636467
:1004E00020686173206E6F20656666656374290DF0
:1004F0000A000000332E20726573657420636F72EA
:100500006520626F61726421210D0A00342E207211
:1005100065736574204C4344202620393231310DF7
:100520000A000000352E207072696E7420486172D6
:100530006420576174636820446F6720537461744A
:1005400075730D0A00000000362E207072696E74FB
:10055000204D637520696E7465726E616C5F7465A1
:100560006D700D0A000000006F746865722E2070B7
:1005700072696E742068656C700D0A0008B54FF0E2
:10058000FF340BE02346012269460548006802F06B
:100590007CFC18B19DF80000FFF7BAFEF2E70000FE
:1005A0000C00002010B504464FF4E131002000F0AB
:1005B000C5FF00220121402002F02CFC0449086004
:1005C00000220121402002F025FC0249086010BDF4
:1005D000080000200C00002070470000F0B5034622
:1005E00000224FF0E0277D69104F3F68DFF840C0E0
:1005F000B7FBFCF7FEB203FB06F44FF0E027B96946
:1006000010E04FF0E027B86988420BD0884202D250
:100610000F1A3A4402E02F1A0F443A440146A2420C
:1006200000D300E0EDE700BFF0BD00009000002027
:1006300040420F0010B54FF4805000F065FF28B124
:100640004FF4805000F05AFF00F0D8FE10BD00BFFC
:10065000FEE710B504460021204600F0F5FA2046DA
:1006600000F0A6FB0021204600F01AFB0420FFF753
:10067000B5FF0121204600F0E7FA0620FFF7AEFFA4
:100680000021204600F0E0FA0320FFF7A7FF10BD8D
:1006900070B5054640F2036001F034FF012D02D130
:1006A0004FF4406405E0022D02D14FF4407400E0A5
:1006B000C024234602221021054801F00BF8012135
:1006C000284600F0C1FA0121284600F0E9FA70BD81
:1006D000000C014010B504460021204600F0B4FA99
:1006E000204600F065FB0121204600F0D9FA0420E5
:1006F000FFF774FF0121204600F0A6FA0620FFF75D
:100700006DFF0021204600F09FFA0320FFF766FFEF
:1007100010BD2DE9F04107460D4600240021384662
:1007200000F092FA384600F025FB0320FFF756FF51
:1007300000261EE00021384600F086FA0520FFF76B
:100740004DFF0121384600F07FFA6006040E0420B8
:10075000FFF744FF384600F0F5FA08B1601CC4B258
:100760000420FFF73BFF0021384600F06DFA701CB3
:10077000C6B2082EDEDB1DB93846FFF7ABFF02E03C
:100780003846FFF766FF2046BDE8F08170B50646A3
:100790000C460021304600F057FA304600F008FBC6
:1007A00000251CE00320FFF719FF04F0800130460C
:1007B00000F076FA6006040E0420FFF70FFF012117
:1007C000304600F041FA0620FFF708FF00213046CE
:1007D00000F03AFA0320FFF701FF681CC5B2082DAC
:1007E000E0DB70BD10B50446204600F0E1FA0121BF
:1007F000204600F055FA0121204600F025FA062097
:10080000FFF7ECFE0021204600F04AFA0620FFF731
:10081000E5FE0021204600F017FA10BD10B5044691
:100820000021204600F010FA204600F0C1FA002115
:10083000204600F035FA0620FFF7D0FE01212046C1
:1008400000F002FA0320FFF7C9FE0121204600F064
:1008500027FA0620FFF7C2FE10BD70B5054600243A
:100860000021284600F0F0F90320FFF7B7FE012130
:10087000284600F015FA0320FFF7B0FE284600F0E6
:1008800079FA0121284600F0DFF90320FFF7A6FEE0
:100890000BE0601CC4B2FA2C04DD2846FFF7BEFF53
:1008A000012070BD0120FFF799FE284600F04AFAAA
:1008B0000028EED10021284600F0C6F90320FFF7FA
:1008C0008DFE0020EDE7000010B504460120A04099
:1008D00008490978084000B110BD2046FFF7D8FE4E
:1008E0000120A0400349097808430249087000BF6D
:1008F000F2E70000140000202DE9F0410746884689
:1009000015461E4602F0CCF93846FFF76BFF48F05B
:1009100001013846FFF73AFF3846FFF79EFF0028EF
:1009200013D000BF164B302216A11AA000F018FBFE
:10093000394621A000F014FB00BF3846FFF76EFFD8
:1009400002F01AFF0220BDE8F08100240FE0701EC3
:10095000A04205D100213846FFF7DBFE285504E010
:1009600001213846FFF7D5FE2855601CC4B2B442B9
:10097000EDDB3846FFF752FF02F0FEFE0020E2E713
:10098000A03800087372635C6969635F6170702EE0
:10099000630000003C3C46696C653A257320204C9E
:1009A000696E653A2564202046756E6374696F6EC2
:1009B0003A25733E3E2000004552524F523A494973
:1009C000435F576169745F41636B28696E64657842
:1009D00029213D203020696E646578203D20256402
:1009E0000D0A00002DE9F84305460F4690461E46C5
:1009F000DDF8209000200346424639460090284604
:100A000000F04EF80446FF2C07D14B4632463946DB
:100A10002846FFF771FFBDE8F88300BF064BA72209
:100A200006A10AA000F09CFA2A46214610A000F078
:100A300097FA00BF2046EEE7C83800087372635C7F
:100A40006969635F6170702E630000003C3C466919
:100A50006C653A257320204C696E653A2564202028
:100A600046756E6374696F6E3A25733E3E200000D2
:100A70004552524F523A204969634170705F577234
:100A80006974655F427974657320726574203D20D6
:100A9000256420696E646578203D2025640D0A0078
:100AA0002DE9F04705460E4617469846DDF820909A
:100AB00002F0F6F82846FFF795FE06F0FE012846FC
:100AC000FFF764FE2846FFF7C8FEA0B100BF314B18
:100AD000622231A134A000F043FA2A4631463B4855
:100AE00000F03EFA00BF2846FFF798FE02F044FEF1
:100AF0000220BDE8F08739462846FFF747FE284622
:100B0000FFF7ABFE002812D000BF224B6D2222A1BE
:100B100025A000F025FA29462DA000F021FA00BFFB
:100B20002846FFF77BFE02F027FE0320E1E7B9F13C
:100B3000000F03D102F020FEFF20DAE700241FE0BF
:100B400018F804102846FFF721FE2846FFF785FE17
:100B5000002813D000BF0F4B82220FA112A000F07B
:100B6000FFF92A46214629A000F0FAF900BF2846DD
:100B7000FFF754FE02F000FE0420BAE7601CC4B286
:100B80004C45DDDB2846FFF749FE02F0F5FD00206D
:100B9000AFE70000B53800087372635C6969635F92
:100BA0006170702E630000003C3C46696C653A251C
:100BB0007320204C696E653A2564202046756E636B
:100BC00074696F6E3A25733E3E20000000390008BC
:100BD0004552524F523A2073656E6420776F7264AB
:100BE0005F61646472204949435F576169745F4182
:100BF000636B28696E64657829213D203020696E19
:100C0000646578203D2025640D0A00004552524F4E
:100C1000523A2073656E64206461746120494943CF
:100C20005F576169745F41636B28696E64657829F9
:100C3000213D203020693D256420696E646578205F
:100C40003D2025640D0A000070B505460C46012DB7
:100C50000BD124B18102114800F0EEFC1DE04FF4ED
:100C600080610E4800F0E6FC17E0022D0BD124B1A4
:100C7000E9010A4800F0E0FC0FE04FF480710748FA
:100C800000F0D8FC09E024B14021044800F0D4FC75
:100C900003E04021014800F0CDFC70BD000C014094
:100CA00070B505460C46012D0BD124B1C102114887
:100CB00000F0C2FC1DE04FF400610E4800F0BAFCE9
:100CC00017E0022D0BD124B129020A4800F0B4FC30
:100CD0000FE04FF40071074800F0ACFC09E024B1CC
:100CE0008021044800F0A8FC03E08021014800F0C6
:100CF000A1FC70BD000C014010B51021014800F0AE
:100D00009BFC10BD000C014010B51021014800F003
:100D100091FC10BD000C014010B540F2036001F0E1
:100D2000F1FB102302221946034800F0D3FC1021E6
:100D3000014800F07FFC10BD000C014000BFFEE741
:100D40007047000010B50446012C04D1C1020848C8
:100D500000F016FD10BD022C04D12102044800F061
:100D60000FFDF7E78021024800F00AFDF2E70000DE
:100D7000000C014010B50446012C06D1C30202222A
:100D800048210A4800F0A6FC0EE0022C06D12302FE
:100D900002224821054800F09DFC05E08023022244
:100DA0004821024800F096FC10BD0000000C0140F4
:100DB00010B50446012C06D1C302022210210A48B4
:100DC00000F088FC0EE0022C06D123020222102142
:100DD000054800F07FFC05E0802302221021024834
:100DE00000F078FC10BD0000000C014010B500BF01
:100DF000502080F31188BFF34F8FBFF36F8F00BF78
:100E000002F020FC18B14FF080500449086000BF88
:100E1000002080F3118800BF10BD000004ED00E049
:100E200010B51448006840F00100124908600846F7
:100E30004068114908400F494860084600680F495A
:100E400008400C4908600846006820F480200860CB
:100E5000084640680A490840064948600846006854
:100E600006490840034908604FF41F00886001F0FC
:100E700005FC10BD001002400C00FFE8FFFFF6FE6D
:100E8000FFFF00F7FFF748FF00BF0BE0FFF73CFF55
:100E90004FF4FA7001F080FEFFF72EFF4FF4FA7066
:100EA00001F07AFEF2E7000010B500240D490E486B
:100EB00001F02DFD30B10B490B4801F01BFD00F096
:100EC0005FF80DE00949084801F021FD30B10749FC
:100ED000054801F00FFD00F069FA01E000F0EAF9C1
:100EE00010BD00000503050000380140070307009E
:100EF0007CB504460D460E4903C9CDE90001012C1D
:100F000000DD7CBD0120A0400A490978084060B19D
:100F100000BF5DF82400072101F0B3FC0028F8D0E1
:100F20005DF82400294601F05AFC00BFE9E7000003
:100F300098380008040000202DE9F04107460D46CE
:100F40001646002405E0295D3846FFF7D1FF601CF6
:100F5000C4B2B442F7DBBDE8F08100BFFEE7000099
:100F60000FB4054B10B503A9044A029800F042F8EB
:100F700010BC5DF814FB00002D1500089400002043
:100F80001CB5084801F026FCC0B20190002000907A
:100F90006B46012201A90448006802F0B1F89DF8EF
:100FA00004001CBD003801400C00002031B50A24AB
:100FB0000A23012269460548006802F017F840F24A
:100FC0000731034801F089FC009838BD0800002073
:100FD0000038014002E008C8121F08C1002AFAD1F7
:100FE00070477047002001E001C1121F002AFBD1A9
:100FF000704700002DE9FF4F8DB09B460F46044619
:10100000002606E025280BD05A460F999047641C0D
:10101000761C20780028F5D111B03046BDE8F08F5D
:101020000025A8460122984900E0054314F8013F35
:10103000203B02FA03F00842F7D120782E2817D17E
:1010400014F8010F45F004052A280ED06FF02F0286
:101050002078A0F1300109290AD808EB880102EBB9
:10106000410100EB0108641CF2E757F8048B641C93
:1010700020786C280DD004DC4C2812D06A2811D1BD
:1010800004E074280DD07A280CD10AE045F400154C
:1010900007E0617845F48015814202D1641C05F5B2
:1010A0008015641C2278692A45D008DC002AB3D058
:1010B000582A69D0632A10D0642A08D13BE0702AEC
:1010C00067D0732A13D0752A5CD0782A5CD010467A
:1010D0005A460F999047761CD3E017F8040B8DF809
:1010E000000000208DF80100E946012003E057F8D8
:1010F000049B4FF0FF3069074FF0000501D40AE070
:101100006D1C45450DDA8542FADB19F805100029FA
:10111000F6D106E06D1C8542FCDB19F805100029AC
:10112000F8D12E4404E019F8010B5A460F99904764
:101130006D1EF8D2A5E00A200021CDE90801C5F313
:10114000025002280DD001CFC117031E71F1000318
:101150000DDA4FF0000CD0EB0C006CEB01012D23ED
:1011600008E0FF1D27F00707F7E80201EDE72B0570
:1011700004D52B238DF8283001233BE0EB0739D031
:101180002023F7E70A2000E010200021CDE9080124
:1011900007E01020002145F00405CDE908014FF0DB
:1011A0000808C5F3025002280FD001CF00214FF0EC
:1011B000000A2B071FD5702A0DD0DDE908C38CF07B
:1011C000100C5CEA030C0CD015E0FF1D27F007079C
:1011D000F7E80201EBE740228DF828204FF0010AE2
:1011E0000BE050EA010306D030238DF828308DF84B
:1011F000292002239A46582A04D024A20DF120095E
:101200000B9209E026A2F9E7DDE90823FFF706F8CB
:101210000B9B9B5C09F8013D50EA0102F4D1ADEB58
:10122000090020300890680701D44FF001080899A0
:10123000884502DDA8EB010000E000208046002583
:1012400006E00AA85A46405D0F9990476D1C761C2F
:101250005545F6DB04E030205A460F999047761C3E
:10126000B8F10001A8F10108F5DC05E019F8010B5F
:101270005A460F999047761C0899481E08900029F5
:10128000F4DC641CC5E6000009280100303132336B
:1012900034353637383961626364656600000000B2
:1012A000303132333435363738394142434445469C
:1012B0000000000010B54FF442711A4801F027FBFE
:1012C00040B119A0FFF74CFE4FF44271154801F0F0
:1012D00011FB25E01C49134801F019FB38B11BA094
:1012E000FFF73EFE18490F4801F004FB18E01E49C5
:1012F0000C4801F00CFB38B11CA0FFF731FE1A4975
:10130000084801F0F7FA0BE02049064801F0FFFA1F
:1013100030B11FA0FFF724FE1C49024801F0EAFA91
:1013200010BD0000003801402A2A2A20555341529E
:101330005420706172697479206572726F72212015
:101340002A2A2A0A00000000000501002A2A2A2071
:101350005553415254206672616D65206572726FFB
:101360007221202A2A2A0A00000503002A2A2A209C
:101370005553415254206F76657272756E206572B6
:10138000726F7221202A2A2A0A000000000502003A
:101390002A2A2A205553415254206E6F69736520C2
:1013A0006572726F7221202A2A2A0A001CB5002059
:1013B00000901048006801F021FD04462CB940F26D
:1013C00007310D4801F07CFA1CBD6B46012201A9D2
:1013D0000848006801F0BFFD28B19DF80410002006
:1013E000FFF786FD04E040F20731034801F068FA98
:1013F00000BFE9E708000020003801400EB50020DA
:10140000029002A8002102230A46CDE900100448F8
:10141000006801F0D5FF4FF4805000F05FF80EBD7A
:101420001C00002010B52C4B1B6883432A4C236002
:10143000231D1B688343241D2360231D1B688343D6
:10144000241D2360231D1B688343241D236011B1C9
:1014500001290ED105E0204B1B6803431E4C23607D
:1014600008E01D4B1B1D1B6803431B4C241D236000
:1014700000E000BF00BF22B1012A0FD0022A27D10D
:1014800019E0154B08331B680343134C08342360E1
:10149000231D1B688343241D23601AE00E4B083371
:1014A0001B6883430C4C08342360231D1B680343D3
:1014B000241D23600DE0084B08331B680343064CD2
:1014C00008342360231D1B680343241D236000E0B0
:1014D00000BF00BF10BD00000004014002490968C0
:1014E0008143014A116070470004014002490968C4
:1014F0000143014A1160704700040140014908603E
:10150000704700001404014001460748006800EAE3
:10151000010205481438006800EA010312B10BB15A
:10152000012070470020FCE71404014070B5044618
:101530000D462046FFF73AFD204670BD70B50446C3
:101540000D46324E012C00D1314E0120A0403149D0
:101550000978084000B170BD2F4931F8140000F03F
:10156000D1FF2E4931F8140000F0CCFF2C4951F87E
:1015700024302C4951F824000222182100F0AAF846
:10158000294951F82430274951F824000222042126
:1015900000F0A0F8304601F027F92946304601F066
:1015A000D1F80021304601F0EEF90021304601F07B
:1015B000DAF90021304601F0C6F90021304601F089
:1015C00077F90021304601F06BF90421304601F033
:1015D000C2F90821304601F0CEF9304601F04CF94D
:1015E00040F20531304601F078F9104A115D104A99
:1015F00012F82400002200F0C7FA0120A04005499B
:10160000097808430349087000BFA4E70038014087
:101610000044004004000020883800086C380008AE
:1016200070380008803800087838000894380008BE
:101630008C380008416170470161704710B5002285
:101640008B071C0F0F2303FA04F204290EDA204B38
:101650009B6893431E4CA36023469B688C07240F12
:1016600000FA04F423431A4CA3602FE008290EDA91
:10167000174BDB689343164CE3602346DB688C070B
:10168000240F00FA04F42343114CE3601EE00C29FC
:101690000EDA0F4B1B6993430D4C236123461B69E4
:1016A0008C07240F00FA04F42343094C23610DE056
:1016B000074B5B699343064C636123465B698C0768
:1016C000240F00FA04F42343014C636110BD0000B1
:1016D00000000140F0B5044616460025002201F046
:1016E0000F0501F0100707B1354300201EE0012768
:1016F00087401F40C7B122684FEA800C0F2707FAC6
:101700000CF7BA43870005FA07F73A43282904D1B2
:10171000012787401F40676105E0482903D1012761
:1017200087401F4027612260471CB8B20828DED3DB
:10173000082022E0012787401F40E7B16268A0F13E
:1017400008074FEA870C0F2707FA0CF7BA43A0F1F6
:101750000807BF0005FA07F73A43282904D10127F3
:1017600087401F40676105E0482903D10127874072
:101770001F4027616260471CB8B21028DAD3F0BD61
:1017800002469068084008B1012070470020FCE73D
:10179000F0B50A46002300240021002500F0004691
:1017A000B6F1004F02D11D4EF16901E01B4E716888
:1017B000C0F3034583B200F44016B6F5401F08D1CC
:1017C00021F07061154E766826F07066134F7E60CA
:1017D00012E000F48016B6F5801F06D1032606FA43
:1017E00005F4A14341F0706106E0460D360103FAAD
:1017F00006F6B14341F0706122B1460D360103FA9D
:1018000006F6314300F00046B6F1004F02D1034E18
:10181000F16101E0014E7160F0BD00000000014087
:101820001CB5FEF75FFD15A0FFF79AFB164801688F
:1018300016A0FFF795FB0020022103468222CDE986
:10184000001014A1164801F0EFFC0020012103460E
:101850008222CDE9001013A1144801F0E5FC1448E0
:10186000022100238222CDE9001012A1134801F0C9
:10187000DBFC01F0D5F900BFFEE70000696E69747A
:10188000206F6B21210D0A000000002025730D0A36
:10189000000000005461736B4C656431000000006F
:1018A000850E000864656275677200007D0500089A
:1018B0001C0000206B65795F626F6400852600085C
:1018C00008B51EA000680090022000F015F96A46D5
:1018D0000021022000F02DF900231A4619460220AB
:1018E00000F038F940F2036000F00CFE4FF4C060E5
:1018F00000F008FE4FF48053022248211048FFF701
:10190000E9FE0C210120FFF799FE012200211003BE
:10191000FFF788FD4FF48050FFF7E8FD4FF480504B
:10192000FFF7ECFD00220621282000F02DF900F041
:101930000BF890210348FEF766FC08BD00FF00008D
:10194000000C01409800002008B56B4601220021E0
:10195000022000F0D7F860B99DF8000000F03F00C9
:101960003F2804D09DF8000000F03F0008BD3F2054
:10197000FCE702A0FFF7F4FAFF20F7E74552524FC9
:10198000523A204B45595F524F575F5343414E20C7
:101990006E6361393535355F726561645F696E709C
:1019A0006F72740D0A0000002DE9F0410027FFF767
:1019B000CBFF07463F2F55DA002550E03D48435DF9
:1019C00000221146022000F0C5F820B129463AA0B5
:1019D000FFF7C6FA41E0FFF7B7FF0746002639E0F8
:1019E000062000FB0560C4B247FA06F000F00100D3
:1019F000E8B93E4830F81400022829DA3B4830F8AC
:101A00001400401C81B2394820F8141030F814003A
:101A100002281DD10120354948390855611CC8B23A
:101A2000012100F09FFD01203149087010E02F488E
:101A30004838005D60B100202C4948390855611CC8
:101A4000C8B2002100F08EFD0021284820F81410B3
:101A5000701CC6B2062EC3DB00BF681CC5B2062DC3
:101A6000ACDB1EE022480078D8B1002412E01F4809
:101A70004838005D60B100201C4948390855611C98
:101A8000C8B2002100F06EFD0021184820F81410A3
:101A9000601CC4B2242CEADB0020164908701449EB
:101AA000087000231A461946022000F053F800205F
:101AB000BDE8F081DA3800084552524F523A204BC7
:101AC00045595F524F575F5343414E206E63613912
:101AD0003535355F77726974655F6F7574706F72D5
:101AE0007420693D25640D0A00000000E00000201C
:101AF000200000201800002010B504462046FEF704
:101B0000E3FE10BDF8B506460D4614461F4605F027
:101B10000E0545F040050CB1012000E00020044610
:101B20000120E2B23B46294600903046FEF75AFFBC
:101B3000F8BDF8B506460C46154604F00E0444F010
:101B4000400402202B460622214600903046FEF734
:101B5000A7FFF8BD7FB582B006460C46154604F0D7
:101B60000E0444F040040DB1012000E000200546C1
:101B700001200090A81CC2B205AB21463046FEF7FA
:101B80008FFF06B070BD00002DE9F04103460D4601
:101B9000164600240027A0462448006800F4E060B0
:101BA000B0F5A06F15D006DCB0F5407F18D0B0F5C9
:101BB000806F19D110E0B0F5C06F06D0B0F5E06FBE
:101BC00012D100274FF0040815E001274FF0030859
:101BD00011E00227B8460EE003274FF001080AE0A3
:101BE00004274FF0000806E04FF4A06000F022F850
:101BF0000227B84600BF00BFC7F1040005FA00F491
:101C0000C8F104010F20C8403040044324010848B3
:101C1000C45403F01F01012088405911890001F1CB
:101C2000E021C1F80001BDE8F08100000CED00E00A
:101C300000E400E002490143024A116070470000DD
:101C40000000FA050CED00E02DE9F04105460E46D6
:101C50001C4807681C480068001D00F09CFE50B935
:101C60001948006890F82C1001208840174909682D
:101C7000814316480160681C38B936B112480168C2
:101C8000091D134800F0C5FE1AE07C190E480068D3
:101C90004460BC4207D20C480168091D0D48006829
:101CA00000F09DFE0CE008480168091D0A48006824
:101CB00000F095FE09480068844201D2074804609C
:101CC000BDE8F08138000020240000203C00002006
:101CD000DC0100202C0000202800002054000020FF
:101CE00010B5044600F0A2FE24480068401C2349B9
:101CF00008602348006840B921480460084600682D
:101D000001280DD100F04CF90AE01E48006838B9EE
:101D10001B480068C06AE16A884201D8184804601C
:101D200019480068401C184908600846006820648B
:101D300094F82C100120884014490968084313497D
:101D40000860E16A01EB8101114A02EB8100211D6B
:101D500000F05FFE00F08CFE0A48006868B1084899
:101D60000068C06AE16A884207D24FF08050094992
:101D70000860BFF34F8FBFF36F8F10BD340000209A
:101D80002400002040000020500000203C000020E3
:101D90002801002004ED00E00146D1E90132D0180D
:101DA0000A68801A8A68824201D88A68801A704755
:101DB00010B516E000F03AFE0C48C068C468201D5B
:101DC00000F0E9FD0A480068401E0949086009481A
:101DD0000068401E0749086000F04AFE204600F0F7
:101DE0000BF8044800680028E4D110BDC8010020A9
:101DF000340000203000002010B50446206B00F0B5
:101E00004DFE204600F04AFE10BD000030B54FF4F4
:101E10002053174800F007042CB1C01D20F0070024
:101E2000134C041B1B1B0246124C22600024114D54
:101E30006C60D018083820F007000F4C2060002498
:101E40000D4D2D686C600C4D2D682C601146441AA8
:101E50004C60094C24680C60084D4C682C60084D9F
:101E60004C682C604FF00044064D2C6030BD0000E3
:101E7000F001002070000020780000208000002089
:101E80007C0000208C00002000BFFFF791FF064877
:101E900000680128F9D94FF0805004490860BFF369
:101EA0004F8FBFF36F8FF0E72801002004ED00E0B3
:101EB0002DE9F04704460D4616461F46DDF8208002
:101EC0004FF05509324655212846FEF79EF9A842A3
:101ED00001D1012000E0002008B900BFFEE7242165
:101EE0002046FEF790F9A561A660E76084F81C80A3
:101EF000BDE8F0872DE9F05F82460E4690469B468E
:101F00000A9F0C9C4FEA8801A522206BFEF774F90A
:101F1000A8F10100216B01EB800929F0070909F004
:101F2000070008B9012000E0002008B900BFFEE763
:101F300086B1002507E0715D04F134004155705D04
:101F400000B902E06D1C0A2DF5D300BF00213D2031
:101F5000015502E0002084F83400052F00D3042747
:101F6000E762A7640020E064201D00F035FD04F165
:101F7000180000F031FD2461C7F10500A061646222
:101F80000020206584F854005A465146484600F027
:101F900015FA20600B9808B10B980460BDE8F09F1B
:101FA00010B5002407E004EB84010F4A02EB810026
:101FB00000F005FD641C052CF5D30C4800F0FFFC77
:101FC0000B4800F0FCFC0B4800F0F9FC0A4800F05C
:101FD000F6FC0A4800F0F3FC04480949086004488C
:101FE0000849086010BD0000280100208C01002075
:101FF000A0010020B4010020C8010020DC01002065
:10200000280000202C00002010B50146164800E0F2
:10201000006803688B42FBD30246436813448B423B
:1020200004D143684C682344436001460A464B6828
:1020300013440468A34211D10C4C03682468A342E2
:1020400008D04B680468646823444B6003681B68CD
:102050000B6005E0054B1B680B6001E003680B603B
:10206000884200D0016010BD700000207800002080
:102070002DE9F0470446894690469A46C24501D26A
:10208000504600E040460646002E38D02568A0683D
:10209000401BB04202D2A068401B00E03046074619
:1020A000474501D8012000E0002008B900BFFEE745
:1020B000E819A168884201D8012000E0002008B991
:1020C00000BFFEE7A06941193A464846FEF782F88C
:1020D000BE420DD9464501D8012000E0002008B9D4
:1020E00000BFFEE7F21B09EB0700A169FEF772F8DB
:1020F0003544A068A84201D8A0682D1A2560304652
:10210000BDE8F0872DE9F84F05468A461646984601
:102110000A9F87B1D5F8009043463A46694628465B
:10212000FFF7A6FF009CA8EB0708B44204D9C5F846
:102130000090002400E0344643462246514628469B
:10214000FFF796FF83465846BDE8F88F09480068B8
:10215000006808B9012000E0002020B14FF0FF30F6
:102160000549086005E003480068C0680068024946
:102170000860704728000020540000200A480068CA
:10218000401C08B9012000E0002008B900BFFEE7AC
:1021900000BF502080F31188BFF34F8FBFF36F8FC4
:1021A00000BF00BFFEE70000640000202DE9F04101
:1021B0000446884616460EB1012000E0002008B90A
:1021C00000BFFEE76568A068401BB04202D2A0686D
:1021D000401B00E030460746E819A168884201D854
:1021E000012000E0002008B900BFFEE7A1694819FE
:1021F0003A464146FDF7EEFFBE420FD9F01BA168FB
:10220000884201D8012000E0002008B900BFFEE7A5
:10221000F21B08EB0701A069FDF7DCFF3544A0685D
:10222000A84201D8A0682D1A65603046BDE8F0814B
:102230002DE9FF47074688461D46DDF830900DB969
:10224000002416E0387F00F0010040B90124029814
:10225000A84201D2029800E02846029009E04D45CC
:1022600006D30124042202A93846FFF79FFF00E0AD
:10227000002434B141463846029AFFF797FF0646DC
:1022800000E00026304604B0BDE8F0872DE9F041BB
:1022900004464FF0000800F003FD4248006808B90A
:1022A000FFF7B4FD40480068204000286CD1F4B12D
:1022B00004F10800A0421AD9083404F00700B8B1AC
:1022C00004F00700C0F108002044A0420DD904F03A
:1022D0000700C0F10800044404F0070008B9012019
:1022E00000E0002020B900BFFEE7002400E0002449
:1022F000002C49D02D480068844245D82C4E3046E9
:10230000056801E02E462D686868A04202D2286860
:102310000028F7D123480068854235D0306800F1A5
:102320000808286830606868001B102810D92F1929
:1023300007F0070008B9012000E0002008B900BF3D
:10234000FEE76868001B78606C603846FFF75CFE4B
:10235000164968680968081A144908600846006840
:1023600014490968884203D210480068114908607E
:102370000D496868096808436860002028600E48B5
:102380000068401C0C49086001F0F6F908F00700ED
:1023900008B9012000E0002008B900BFFEE7404670
:1023A000BDE8F081780000208C0000207C00002037
:1023B000700000208000002084000020001F4FF0EB
:1023C00080730360001F21F001030360001F034BB3
:1023D0000360143802602038704700007D21000837
:1023E0002DE9F04F8BB00746002009903EA090E801
:1023F000004CC068CDE905BECDF810A007900FF2E3
:10240000EC0ADAE9000ACDE9020A0FF2E00ADAE999
:10241000000ACDE9000A38484068C0F381000A90FC
:102420000A9820B1012804D0022829D103E03349B9
:1024300028E0324926E03048406800F48038B8F59A
:10244000803F09D12D4C2C48406800F40039B9F583
:10245000003F02D1641000E0294C27484068C0F3D7
:1024600083422548406800F0006008B142F0100245
:102470000F2A01D2921C00E0521C04FB02F101E081
:102480001E4900BF00BF1C484068C0F3031504A8E4
:10249000465D21FA06F318484068C0F3022502A8F9
:1024A000465D23FA06FC14484068C0F3C2251DF8B7
:1024B000056023FA06F0089037B1012F06D0022FED
:1024C00006D0032F0AD106E0099108E0099306E03F
:1024D000CDF824C003E00898099000E000BF00BFD9
:1024E00009980BB0BDE8F08F00000000000000006C
:1024F00001020304060708090010024000127A00D6
:1025000000093D00064A02EB9011096800F01F0324
:1025100001229A401143024B03EB90121160704765
:1025200000100240064A02EB9011096800F01F03F8
:1025300001229A409143024B03EB901211607047C5
:1025400000100240064A02EB9011096800F01F03D8
:1025500001229A401143024B03EB90121160704725
:10256000001002407CB505460C461148007800F08A
:10257000020018B90FA0FEF7F3FC7CBDA5208DF872
:1025800000008DF801508DF802409DF800009DF884
:10259000011008449DF802100844C0B28DF80300F1
:1025A000042269460120FEF7C7FC00BFE5E70000F2
:1025B000040000206572726F723A20544F435055E8
:1025C0005F434F4D206E6F7420696E69740A00007E
:1025D00000200021264A126842F00102244B1A60B2
:1025E00000BF401C224A126802F0020111B9B0F586
:1025F000A06FF6D11E4A126802F002020AB900BFAB
:10260000FEE71B4A52681A4B5A601A4652685A60D3
:102610001A46526842F480625A601A465268154B54
:102620001A40134B5A601A465268134B1A43104B08
:102630005A601A46126842F080721A6000BF0C4A53
:10264000126802F00072002AF9D0094A526822F09A
:102650000302074B5A601A46526842F002025A605F
:1026600000BF034A526802F00802002AF9D07047FE
:1026700000100240FFFFC3F70000280810B5FFF765
:10268000A7FF10BDFFF71CF90EE04FF0FF3200214D
:10269000084600F00BF8FFF787F91E2000F07CFADF
:1026A0004FF48050FEF722FFEFE700002DE9F041E4
:1026B00004460F4616460CB9012000E0002008B978
:1026C00000BFFEE700F0B2F91C480068503050F837
:1026D000240080B90121194800685430015556B1D1
:1026E0003046FFF7B1FA4FF0805015490860BFF34C
:1026F0004F8FBFF36F8F00F0BBF900F097F90F48D1
:102700000068503050F824506DB137B100210B48AB
:102710000068503040F8241005E0681E0749096839
:10272000503141F82400002104480068543001551C
:1027300000F09EF92846BDE8F0810000240000204A
:1027400004ED00E02DE9F04704460D460027B846A9
:10275000B94600261D49601A8C421CD006DC1C4874
:10276000204470B1B0F5806F1FD10FE0B0F5806FDD
:1027700016D0B0F56C4F18D10320FFF731FE074695
:1027800014E00220FFF72CFE07460FE00220FFF7BF
:1027900027FE07460AE00220FFF722FE074605E073
:1027A0000220FFF71DFE074600E000BF00BF07EB59
:1027B0005500B0FBF5F64FF6F07006EA000806F09B
:1027C0000F0948EA0900A060BDE8F087004C00400E
:1027D00000BCFFBF01464868C0F308007047C1F362
:1027E000080242607047000010B504462049601A94
:1027F0008C4228D006DC1F48204490B1B0F5806F91
:1028000033D117E0B0F5806F26D0B0F56C4F2CD1E6
:1028100040F20E30FFF796FE40F20E30FFF782FED8
:1028200024E040F21140FFF78DFE40F21140FFF727
:1028300079FE1BE040F21240FFF784FE40F21240A6
:10284000FFF770FE12E040F21340FFF77BFE40F20C
:102850001340FFF767FE09E040F21440FFF772FEF5
:1028600040F21440FFF75EFE00E000BF00BF10BD65
:10287000004C004000BCFFBFC16841F40051C16082
:10288000704710B5024602EB9110006801F01F047A
:102890000123A340184008B1012010BD0020FCE72F
:1028A0000A460021416921F40071114341617047DA
:1028B0000A460021416921F480711143416170474A
:1028C00010B5C1F38912825801F01F040123A340FF
:1028D0009A43C1F38913C25010BD10B5C1F38912D8
:1028E000825801F01F040123A3401A43C1F3891346
:1028F000C25010BD10B500EB91521268C1F30444F0
:102900000123A3409A4300EB91531A6010BD70B5A8
:10291000024600230024C1F38910105801F01F065D
:102920000125B54000EA050302EB91500068C1F3B0
:1029300004460125B54000EA050414B10BB101209D
:1029400070BD0020FCE7C26822F4C062C260C268A9
:102950000A43C26070470A460021C16821F00401A1
:102960001143C1607047026922F44052026102695A
:102970000A43026170470A460021C16821F008013C
:102980001143C1607047C26822F48052C260C268BD
:102990000A43C260704701460A69D1E90130986074
:1029A000D1E9010358605068884201D188685060BD
:1029B000002008611068401E10601068704700F128
:1029C000080141604FF0FF31816000F10801C160F2
:1029D000016100210160704700210161704710B55D
:1029E00002460B685C1C0CB9106907E002F1080094
:1029F00000E04068446824689C42FAD944684C600E
:102A00004C68A160886041600A611468641C1460AD
:102A100010BD42684A6093688B609368596091600A
:102A2000086103685B1C03607047000000BF502012
:102A300080F31188BFF34F8FBFF36F8F00BF0A4839
:102A40000068401C0849086008460068012809D150
:102A500006480068C0B208B9012000E0002008B9AB
:102A600000BFFEE7704700006400002004ED00E0B6
:102A70000948006808B900BFFEE707480068401E23
:102A8000054908600846006820B9002080F31188D5
:102A900000BF00BF704700006400002070B506460C
:102AA0003546002E32D0083D2C4619496068096829
:102AB000084008B1012000E0002008B900BFFEE78F
:102AC000206808B9012000E0002008B900BFFEE737
:102AD0000F49606809680840C0B12068B0B90C4966
:102AE000606809688843606000F0DAF80949606846
:102AF00009680844074908602046FFF785FA064838
:102B00000068401C0449086000F036FE70BD0000FB
:102B10008C0000207C0000208800002000204FF066
:102B2000E02108618861064800684FF47A71B0FBC3
:102B3000F1F0401E4FF0E021486107200861704726
:102B40009000002070B5FDF72FFB0546102D0DD32A
:102B500005F1E02090F8F0430C480078844201DB56
:102B6000012000E0002008B900BFFEE70848006827
:102B700000F4E06007490968884201D8012000E0BC
:102B8000002008B900BFFEE770BD0000680000200B
:102B90000CED00E06C00002070B5044600258CB1FF
:102BA0000D48006808B9012000E0002008B900BF06
:102BB000FEE700F075F800212046FFF745F800F029
:102BC000DBFD05463DB94FF0805004490860BFF376
:102BD0004F8FBFF36F8F70BD6000002004ED00E0E9
:102BE00003490968016003490968416070470000B2
:102BF0004C0000203800002010B504460CB900BF7E
:102C0000FEE7FFF713FF04480068206003480068F0
:102C10006060FFF72DFF10BD4C0000203800002041
:102C20001CB5174800210B468222CDE9001015A1E2
:102C3000164800F0F9FA0446012C15D100BF5020C7
:102C400080F31188BFF34F8FBFF36F8F00BF4FF03A
:102C5000FF300F49086001200E49086000200E492E
:102C6000086000F061F807E0601C08B1012000E096
:102C7000002008B900BFFEE7084800681CBD00003E
:102C80005800002049444C4500000000891E0008FF
:102C90005400002040000020380000205C0000208C
:102CA00002480068401C014908607047600000202D
:102CB0001848006818B101201749086029E0002071
:102CC0001549086015480068B0FA80F0C0F11F018E
:102CD00001EB8100124A52F8200008B1012000E007
:102CE000002008B900BFFEE701EB81020C4B03EBAB
:102CF000820042685268426000F1080243689342D1
:102D000002D14268526842604268D268054B1A603C
:102D100000BF704760000020480000203C000020F9
:102D200028010020240000201CB52F480146097806
:102D30000191FF21024611700146097800919DF82A
:102D4000001001F0F0019DF80020914201D1012115
:102D500000E0002109B900BFFEE79DF8001001F076
:102D60005001224A11700721214A116009E02049CF
:102D70000968491E1E4A11609DF800104906090E97
:102D800000919DF8001001F080018029EFD01849D2
:102D90000968C1F10701042901D1012100E00021E6
:102DA00009B900BFFEE7124909680902104A11601B
:102DB0001146098801F4E06111600B4A0199117014
:102DC0000C48006840F470000A4908600846006832
:102DD00040F070400860FFF7A1FE0020064908603F
:102DE000FDF7ACF900201CBD00E400E06800002005
:102DF0006C00002020ED00E06400002070B5044667
:102E000025460DB900BFFEE72846FEF7C5FF06467A
:102E1000304670BD2DE9F84304460E469046B8F1A1
:102E2000010F08D10127042C01D9012000E0002066
:102E300048B900BFFEE700270CB1012000E00020E8
:102E400008B900BFFEE7A64201D8012000E000203B
:102E500008B900BFFEE706B9012604F12500844247
:102E600006D2641C04F12400FFF710FA054600E0C6
:102E700000253DB13346224605F12401284600973E
:102E8000FFF716F82846BDE8F8832DE9F84F80468D
:102E9000894693461F4644464FF0000AB9F1000F99
:102EA00001D100BFFEE70CB900BFFEE7207F00F0B4
:102EB000010008B1042600E0002647B3FFF7B6FD85
:102EC0002046FEF769FF0546B5420ED800210846A8
:102ED00000F02EFB206908B9012000E0002008B9AD
:102EE00000BFFEE700F0A8FB2061FFF7C1FDB5427F
:102EF00011D800231A4619461846009700F03EFBE9
:102F0000002020612046FEF747FF054603E02046EB
:102F1000FEF742FF0546B5421AD92B465A464946A6
:102F200020460096FFF7EEF88246BAF1000F0FD068
:102F3000FFF7B6FE606948B1002000906069002389
:102F40001A46194600F0A0F90020606100F014FC58
:102F50005046BDE8F88F2DE9FF4F83B08046894683
:102F60009A4644464FF0000BB9F1000F01D100BF63
:102F7000FEE70CB900BFFEE7207F00F0010008B1BA
:102F8000042600E000262046FEF706FF0546B5426F
:102F900028D92B46009649462046059AFFF7B2F8F5
:102FA0008346BBF1000F1DD000BF5021EFF311800D
:102FB00081F31188BFF34F8FBFF36F8F00BF0746B8
:102FC000606950B10020CDE9000A606900231A460B
:102FD000194600F0F5F90020606100BF87F3118801
:102FE00000BF00BF584607B0BDE8F08F2DE9FF4F86
:102FF00083B006468B46174634464FF000093D46DF
:10300000A068A0F1010ABBF1000F01D100BFFEE7EB
:103010000CB900BFFEE7207F00F0010068B12D1D54
:10302000BD4201D9012000E0002008B900BFFEE741
:10303000554505D90020069002E0554500D9554672
:10304000069888B301A8FFF7D7FD00BFFFF7EEFC95
:10305000204600F0A0F88146A9450FD2002108467D
:1030600000F066FA606908B9012000E0002008B9A4
:1030700000BFFEE700F0E0FA606102E0FFF7F8FC55
:1030800011E0FFF7F5FC069800231A461946009058
:10309000184600F073FA0020606106A901A800F04C
:1030A0008DF80028D2D000BFB9F1000F03D120461F
:1030B00000F071F881464B463A4659462046009545
:1030C000FFF7B6F88046B8F1000F15D02046FEF79E
:1030D00063FEE16888420FD3FFF7E2FD206948B143
:1030E00000200090206900231A46194600F0CCF811
:1030F0000020206100F040FB404607B0BDE8F08FA3
:103100002DE9FE4F0746884691469A463C46CB46F7
:10311000B8F1000F01D100BFFEE70CB900BFFEE718
:10312000207F00F0010008B10BF1040B204600F0F5
:1031300032F80290CDF800B04A4641462046029B44
:10314000FFF776F805461DB32046FEF725FEE16839
:1031500088421DD300BF5021EFF3118081F3118805
:10316000BFF34F8FBFF36F8F00BF0646206950B18A
:103170000020CDE9000A206900231A46194600F014
:103180001FF90020206100BF86F3118800BF00BF37
:103190002846BDE8FE8F10B50246114609B900BFAA
:1031A000FEE70C688B6818194B68C01A401E8B68C4
:1031B000834201D88B68C01A10BD000070B5054667
:1031C0000C460DB900BFFEE70CB900BFFEE7FFF7E4
:1031D0002DFC1348036868681A1A2068401C08B957
:1031E000002619E00F4928680968884206D06868F7
:1031F000984203D80126002020600DE0206890420C
:1032000007D92068801A20602846FFF7E9FC0026CD
:1032100002E0002020600126FFF72AFC304670BD46
:10322000380000204C0000202DE9FF4F85B080467B
:1032300089461746DDE912ABB800FFF727F80646C6
:1032400056B15820FFF722F804460CB1266304E07B
:103250003046FFF723FC00E000247CB10020CDE9DC
:1032600000ABCDE902403A4649464046089BFEF78E
:1032700041FE2046FEF734FD012501E04FF0FF3509
:10328000284609B0BDE8F08F2DE9F05F07460D46EE
:1032900016469846DDF828A04FF0010B0DB9012025
:1032A00000E0002008B900BFFEE70FB900BFFEE74D
:1032B0003C46FFF7BBFBBAF1000F05D004F150000C
:1032C00050F82500CAF8000004F1540010F80590E9
:1032D00002214155B8F1050F29D2DFE808F0270394
:1032E0000D171C0004F1500050F82500304304F184
:1032F000500141F8250024E004F1500050F8250069
:10330000401C04F1500141F825001AE004F150007E
:1033100040F8256015E0B9F1020F04D004F1500027
:1033200040F8256001E04FF0000B0AE009E01F487B
:10333000006808B9012000E0002008B900BFFEE7DE
:1033400000BF00BFB9F1010F2AD1201DFFF723FBF9
:1033500094F82C1001208840154909680843144945
:103360000860E16A01EB8101124A02EB8100211D34
:10337000FFF74FFBA06A08B9012000E0002008B960
:1033800000BFFEE70C49E06A0968C96A884207D9AC
:103390004FF0805009490860BFF34F8FBFF36F8F24
:1033A000FFF766FB5846BDE8F09F0000380000209C
:1033B0003C000020280100202400002004ED00E053
:1033C0002DE9F84F80460D4617469946DDF828B09E
:1033D00001200090B8F1000F01D100BFFEE70DB948
:1033E000012000E0002008B900BFFEE7FFF7AAFBBC
:1033F000444600BF5021EFF3118081F31188BFF3E1
:103400004F8FBFF36F8F00BF0646BBF1000F05D093
:1034100004F1500050F82500CBF8000004F15400EE
:1034200010F805A002214155B9F1050F29D2DFE8B6
:1034300009F027030D171C0004F1500050F8250077
:10344000384304F1500141F8250024E004F1500014
:1034500050F82500401C04F1500141F825001AE005
:1034600004F1500040F8257015E0BAF1020F04D0C5
:1034700004F1500040F8257001E0002000900AE0BF
:1034800009E02448006808B9012000E0002008B9DC
:1034900000BFFEE700BF00BFBAF1010F33D1A06A41
:1034A00008B9012000E0002008B900BFFEE71A4873
:1034B0000068A8B9201DFFF76EFA94F82C100120BF
:1034C000884016490968084314490860E16A01EB1D
:1034D0008101134A02EB8100211DFFF79AFA04E0F3
:1034E00004F118010F48FFF794FA0F49E06A0968E0
:1034F000C96A884207D90B9810B101210B98016065
:1035000001200A49086000BF86F3118800BF0098B7
:10351000BDE8F88F38000020600000203C0000204B
:1035200028010020B40100202400002048000020D1
:103530002DE9F04106460C460CB9012000E00020C0
:1035400008B900BFFEE716B90B48006800E0304636
:103550000746FFF76BFA07F15400005D022805D11A
:10356000002107F154000155012500E00025FFF777
:103570007FFA2846BDE8F081240000202DE9F047BD
:1035800004460F4690461D46DDF820900CB90120F8
:1035900000E0002008B900BFFEE7FFF747FA244823
:1035A00000685430005D02281AD021490968503162
:1035B00001EB84000168B943016001211C480068E7
:1035C00054300155B9F1000F0AD04846FEF73CFBD4
:1035D0004FF0805017490860BFF34F8FBFF36F8FD4
:1035E000FFF746FAFFF722FA2DB111480068503074
:1035F00050F8240028600E4800685430005D02280E
:1036000001D0002609E00A490968503101EB840025
:10361000016821EA080101600126002104480068D0
:1036200054300155FFF724FA3046BDE8F08700001A
:103630002400002004ED00E0014908687047000004
:10364000240000202DE9F0414FF000083F480068B9
:10365000002873D13E480068451C3D480560CDB93F
:103660003C480068006808B9012000E0002008B963
:1036700000BFFEE7374807683748006835490860EB
:103680003548076035480068401C34490860FEF73B
:103690005DFD00BF3248006885423CD300BF2D4825
:1036A0000068006808B9012000E0002020B14FF058
:1036B000FF302B4908602DE026480068C068C468C8
:1036C0006668B54202D22648066023E0201DFFF757
:1036D00062F9A06A18B104F11800FFF75CF994F8D8
:1036E0002C10012088401F49096808431D490860C3
:1036F000E16A01EB81011C4A02EB8100211DFFF709
:1037000088F91A49E06A0968C96A8842C7D34FF044
:103710000108C4E700BF15480068C06A00EB8000DC
:10372000114951F82000012801D94FF00108104833
:10373000006808B14FF0010805E0FFE70D48006898
:10374000401C0C4908604046BDE8F0816000002044
:1037500038000020280000202C0000204C00002011
:10376000540000203C0000202801002024000020FC
:10377000480000204400002070B500240026324894
:10378000006808B900BFFEE7FFF750F92E4800684F
:10379000401E2D4908600846006800284FD12B487C
:1037A000006800284BD024E02948C068C46804F1B0
:1037B0001800FFF7F0F8201DFFF7EDF894F82C1033
:1037C0000120884023490968084322490860E16ACA
:1037D00001EB8101204A02EB8100211DFFF719F95D
:1037E0001E49E06A0968C96A884202D301201C495F
:1037F00008601748006808B9012000E00020002890
:10380000D2D00CB1FEF7A2FC1648056865B100BF26
:10381000FFF718FF10B10120114908606D1E002D3F
:10382000F6D100200F4908600D48006838B1012624
:1038300030070D490860BFF34F8FBFF36F8FFFF75D
:1038400017F9304670BD00006000002034000020F1
:10385000B40100203C0000202801002024000020AA
:10386000480000204400002004ED00E00E0611078F
:103870000002000004000000000400000800000036
:103880000008014000080140020602062500000071
:1038900026000000080600000038014000440040F7
:1038A0004969634170705F526561645F4279746514
:1038B0005F437572004969634170705F5772697444
:1038C000655F4279746573004969634170705F5246
:1038D0006561645F427974657300FEFDFBF7EFDF9D
:1038E0004275696C6474696D65203A536570203166
:1038F0003320323032322031373A33303A343400E8
:103900004552524F523A2073656E64206465765F6B
:1039100061646472204949435F576169745F416320
:103920006B28696E64657829213D203020646576B6
:103930005F61646472203D203078257820696E6470
:103940006578203D2025640D0A0000006C390008D0
:103950000000002098000000D40F0008043A00087E
:103960009800002058490000E40F0008E0380008E3
:103970000000000000000000000000000000000047
:103980000000000000000000000000000000000037
:103990000000000000000000000000000000000027
:1039A0000000000000000000000000000000000017
:1039B0000000000000000000000000000000000007
:1039C00000000000000000000400000000000000F3
:1039D000AAAAAAAA0000000000000000000000003F
:1039E00000000000000000000000000000000000D7
:1039F00000000000000000000000000000F36F065F
:043A000000000000C2
:0400000508000105E9
:00000001FF
